{
  "_format": "hh-sol-artifact-1",
  "contractName": "SimpleSwap",
  "sourceName": "contracts/SimpleSwap.sol",
  "abi": [
    {
      "inputs": [
        {
          "internalType": "address",
          "name": "_tokenA",
          "type": "address"
        },
        {
          "internalType": "address",
          "name": "_tokenB",
          "type": "address"
        }
      ],
      "stateMutability": "nonpayable",
      "type": "constructor"
    },
    {
      "inputs": [
        {
          "internalType": "address",
          "name": "spender",
          "type": "address"
        },
        {
          "internalType": "uint256",
          "name": "allowance",
          "type": "uint256"
        },
        {
          "internalType": "uint256",
          "name": "needed",
          "type": "uint256"
        }
      ],
      "name": "ERC20InsufficientAllowance",
      "type": "error"
    },
    {
      "inputs": [
        {
          "internalType": "address",
          "name": "sender",
          "type": "address"
        },
        {
          "internalType": "uint256",
          "name": "balance",
          "type": "uint256"
        },
        {
          "internalType": "uint256",
          "name": "needed",
          "type": "uint256"
        }
      ],
      "name": "ERC20InsufficientBalance",
      "type": "error"
    },
    {
      "inputs": [
        {
          "internalType": "address",
          "name": "approver",
          "type": "address"
        }
      ],
      "name": "ERC20InvalidApprover",
      "type": "error"
    },
    {
      "inputs": [
        {
          "internalType": "address",
          "name": "receiver",
          "type": "address"
        }
      ],
      "name": "ERC20InvalidReceiver",
      "type": "error"
    },
    {
      "inputs": [
        {
          "internalType": "address",
          "name": "sender",
          "type": "address"
        }
      ],
      "name": "ERC20InvalidSender",
      "type": "error"
    },
    {
      "inputs": [
        {
          "internalType": "address",
          "name": "spender",
          "type": "address"
        }
      ],
      "name": "ERC20InvalidSpender",
      "type": "error"
    },
    {
      "anonymous": false,
      "inputs": [
        {
          "indexed": true,
          "internalType": "address",
          "name": "owner",
          "type": "address"
        },
        {
          "indexed": true,
          "internalType": "address",
          "name": "spender",
          "type": "address"
        },
        {
          "indexed": false,
          "internalType": "uint256",
          "name": "value",
          "type": "uint256"
        }
      ],
      "name": "Approval",
      "type": "event"
    },
    {
      "anonymous": false,
      "inputs": [
        {
          "indexed": true,
          "internalType": "address",
          "name": "from",
          "type": "address"
        },
        {
          "indexed": true,
          "internalType": "address",
          "name": "to",
          "type": "address"
        },
        {
          "indexed": false,
          "internalType": "uint256",
          "name": "value",
          "type": "uint256"
        }
      ],
      "name": "Transfer",
      "type": "event"
    },
    {
      "inputs": [
        {
          "internalType": "address",
          "name": "_tokenA",
          "type": "address"
        },
        {
          "internalType": "address",
          "name": "_tokenB",
          "type": "address"
        },
        {
          "internalType": "uint256",
          "name": "amountADesired",
          "type": "uint256"
        },
        {
          "internalType": "uint256",
          "name": "amountBDesired",
          "type": "uint256"
        },
        {
          "internalType": "uint256",
          "name": "amountAMin",
          "type": "uint256"
        },
        {
          "internalType": "uint256",
          "name": "amountBMin",
          "type": "uint256"
        },
        {
          "internalType": "address",
          "name": "to",
          "type": "address"
        },
        {
          "internalType": "uint256",
          "name": "deadline",
          "type": "uint256"
        }
      ],
      "name": "addLiquidity",
      "outputs": [
        {
          "internalType": "uint256",
          "name": "amountA",
          "type": "uint256"
        },
        {
          "internalType": "uint256",
          "name": "amountB",
          "type": "uint256"
        },
        {
          "internalType": "uint256",
          "name": "liquidity",
          "type": "uint256"
        }
      ],
      "stateMutability": "nonpayable",
      "type": "function"
    },
    {
      "inputs": [
        {
          "internalType": "address",
          "name": "owner",
          "type": "address"
        },
        {
          "internalType": "address",
          "name": "spender",
          "type": "address"
        }
      ],
      "name": "allowance",
      "outputs": [
        {
          "internalType": "uint256",
          "name": "",
          "type": "uint256"
        }
      ],
      "stateMutability": "view",
      "type": "function"
    },
    {
      "inputs": [
        {
          "internalType": "address",
          "name": "spender",
          "type": "address"
        },
        {
          "internalType": "uint256",
          "name": "value",
          "type": "uint256"
        }
      ],
      "name": "approve",
      "outputs": [
        {
          "internalType": "bool",
          "name": "",
          "type": "bool"
        }
      ],
      "stateMutability": "nonpayable",
      "type": "function"
    },
    {
      "inputs": [
        {
          "internalType": "address",
          "name": "account",
          "type": "address"
        }
      ],
      "name": "balanceOf",
      "outputs": [
        {
          "internalType": "uint256",
          "name": "",
          "type": "uint256"
        }
      ],
      "stateMutability": "view",
      "type": "function"
    },
    {
      "inputs": [],
      "name": "decimals",
      "outputs": [
        {
          "internalType": "uint8",
          "name": "",
          "type": "uint8"
        }
      ],
      "stateMutability": "view",
      "type": "function"
    },
    {
      "inputs": [
        {
          "internalType": "uint256",
          "name": "amountIn",
          "type": "uint256"
        },
        {
          "internalType": "uint256",
          "name": "reserveIn",
          "type": "uint256"
        },
        {
          "internalType": "uint256",
          "name": "reserveOut",
          "type": "uint256"
        }
      ],
      "name": "getAmountOut",
      "outputs": [
        {
          "internalType": "uint256",
          "name": "amountOut",
          "type": "uint256"
        }
      ],
      "stateMutability": "pure",
      "type": "function"
    },
    {
      "inputs": [
        {
          "internalType": "address",
          "name": "_tokenA",
          "type": "address"
        },
        {
          "internalType": "address",
          "name": "_tokenB",
          "type": "address"
        }
      ],
      "name": "getPrice",
      "outputs": [
        {
          "internalType": "uint256",
          "name": "price",
          "type": "uint256"
        }
      ],
      "stateMutability": "view",
      "type": "function"
    },
    {
      "inputs": [],
      "name": "name",
      "outputs": [
        {
          "internalType": "string",
          "name": "",
          "type": "string"
        }
      ],
      "stateMutability": "view",
      "type": "function"
    },
    {
      "inputs": [
        {
          "internalType": "address",
          "name": "_tokenA",
          "type": "address"
        },
        {
          "internalType": "address",
          "name": "_tokenB",
          "type": "address"
        },
        {
          "internalType": "uint256",
          "name": "liquidity",
          "type": "uint256"
        },
        {
          "internalType": "uint256",
          "name": "amountAMin",
          "type": "uint256"
        },
        {
          "internalType": "uint256",
          "name": "amountBMin",
          "type": "uint256"
        },
        {
          "internalType": "address",
          "name": "to",
          "type": "address"
        },
        {
          "internalType": "uint256",
          "name": "deadline",
          "type": "uint256"
        }
      ],
      "name": "removeLiquidity",
      "outputs": [
        {
          "internalType": "uint256",
          "name": "amountA",
          "type": "uint256"
        },
        {
          "internalType": "uint256",
          "name": "amountB",
          "type": "uint256"
        }
      ],
      "stateMutability": "nonpayable",
      "type": "function"
    },
    {
      "inputs": [
        {
          "internalType": "uint256",
          "name": "amountIn",
          "type": "uint256"
        },
        {
          "internalType": "uint256",
          "name": "amountOutMin",
          "type": "uint256"
        },
        {
          "internalType": "address[]",
          "name": "path",
          "type": "address[]"
        },
        {
          "internalType": "address",
          "name": "to",
          "type": "address"
        },
        {
          "internalType": "uint256",
          "name": "deadline",
          "type": "uint256"
        }
      ],
      "name": "swapExactTokensForTokens",
      "outputs": [],
      "stateMutability": "nonpayable",
      "type": "function"
    },
    {
      "inputs": [],
      "name": "symbol",
      "outputs": [
        {
          "internalType": "string",
          "name": "",
          "type": "string"
        }
      ],
      "stateMutability": "view",
      "type": "function"
    },
    {
      "inputs": [],
      "name": "tokenA",
      "outputs": [
        {
          "internalType": "contract IERC20",
          "name": "",
          "type": "address"
        }
      ],
      "stateMutability": "view",
      "type": "function"
    },
    {
      "inputs": [],
      "name": "tokenB",
      "outputs": [
        {
          "internalType": "contract IERC20",
          "name": "",
          "type": "address"
        }
      ],
      "stateMutability": "view",
      "type": "function"
    },
    {
      "inputs": [],
      "name": "totalSupply",
      "outputs": [
        {
          "internalType": "uint256",
          "name": "",
          "type": "uint256"
        }
      ],
      "stateMutability": "view",
      "type": "function"
    },
    {
      "inputs": [
        {
          "internalType": "address",
          "name": "to",
          "type": "address"
        },
        {
          "internalType": "uint256",
          "name": "value",
          "type": "uint256"
        }
      ],
      "name": "transfer",
      "outputs": [
        {
          "internalType": "bool",
          "name": "",
          "type": "bool"
        }
      ],
      "stateMutability": "nonpayable",
      "type": "function"
    },
    {
      "inputs": [
        {
          "internalType": "address",
          "name": "from",
          "type": "address"
        },
        {
          "internalType": "address",
          "name": "to",
          "type": "address"
        },
        {
          "internalType": "uint256",
          "name": "value",
          "type": "uint256"
        }
      ],
      "name": "transferFrom",
      "outputs": [
        {
          "internalType": "bool",
          "name": "",
          "type": "bool"
        }
      ],
      "stateMutability": "nonpayable",
      "type": "function"
    }
  ],
  "bytecode": "0x60c060405234801561001057600080fd5b50604051614169380380614169833981810160405281019061003291906102b9565b6040518060400160405280601081526020017f53696d706c655377617020546f6b656e000000000000000000000000000000008152506040518060400160405280600381526020017f535354000000000000000000000000000000000000000000000000000000000081525081600390816100ad9190610549565b5080600490816100bd9190610549565b5050506100da6742ef971feb73614260c01b61025360201b60201c565b6100f467814b60ceb82a905d60c01b61025360201b60201c565b61010e676a5a9fc16e808bc160c01b61025360201b60201c565b61012867069bb0d1f128c6ad60c01b61025360201b60201c565b8073ffffffffffffffffffffffffffffffffffffffff168273ffffffffffffffffffffffffffffffffffffffff1603610196576040517f08c379a000000000000000000000000000000000000000000000000000000000815260040161018d90610678565b60405180910390fd5b6101b067170e6702fbeadb8a60c01b61025360201b60201c565b6101ca67a21ddea504d75e8f60c01b61025360201b60201c565b8173ffffffffffffffffffffffffffffffffffffffff1660808173ffffffffffffffffffffffffffffffffffffffff168152505061021867acaacd51782ada2360c01b61025360201b60201c565b8073ffffffffffffffffffffffffffffffffffffffff1660a08173ffffffffffffffffffffffffffffffffffffffff16815250505050610698565b50565b600080fd5b600073ffffffffffffffffffffffffffffffffffffffff82169050919050565b60006102868261025b565b9050919050565b6102968161027b565b81146102a157600080fd5b50565b6000815190506102b38161028d565b92915050565b600080604083850312156102d0576102cf610256565b5b60006102de858286016102a4565b92505060206102ef858286016102a4565b9150509250929050565b600081519050919050565b7f4e487b7100000000000000000000000000000000000000000000000000000000600052604160045260246000fd5b7f4e487b7100000000000000000000000000000000000000000000000000000000600052602260045260246000fd5b6000600282049050600182168061037a57607f821691505b60208210810361038d5761038c610333565b5b50919050565b60008190508160005260206000209050919050565b60006020601f8301049050919050565b600082821b905092915050565b6000600883026103f57fffffffffffffffffffffffffffffffffffffffffffffffffffffffffffffffff826103b8565b6103ff86836103b8565b95508019841693508086168417925050509392505050565b6000819050919050565b6000819050919050565b600061044661044161043c84610417565b610421565b610417565b9050919050565b6000819050919050565b6104608361042b565b61047461046c8261044d565b8484546103c5565b825550505050565b600090565b61048961047c565b610494818484610457565b505050565b5b818110156104b8576104ad600082610481565b60018101905061049a565b5050565b601f8211156104fd576104ce81610393565b6104d7846103a8565b810160208510156104e6578190505b6104fa6104f2856103a8565b830182610499565b50505b505050565b600082821c905092915050565b600061052060001984600802610502565b1980831691505092915050565b6000610539838361050f565b9150826002028217905092915050565b610552826102f9565b67ffffffffffffffff81111561056b5761056a610304565b5b6105758254610362565b6105808282856104bc565b600060209050601f8311600181146105b357600084156105a1578287015190505b6105ab858261052d565b865550610613565b601f1984166105c186610393565b60005b828110156105e9578489015182556001820191506020850194506020810190506105c4565b868310156106065784890151610602601f89168261050f565b8355505b6001600288020188555050505b505050505050565b600082825260208201905092915050565b7f4964656e746963616c20746f6b656e7300000000000000000000000000000000600082015250565b600061066260108361061b565b915061066d8261062c565b602082019050919050565b6000602082019050818103600083015261069181610655565b9050919050565b60805160a051613a2761074260003960008181610b2a01528181610cf301528181610d6501528181610f9801528181611269015281816114f00152818161182d01528181611a0e01528181611c9501526122930152600081816105c601528181610c9d01528181610dbb01528181610ed2015281816110e7015281816112130152818161142a01528181611766015281816119b801528181611bcf01526121ca0152613a276000f3fe608060405234801561001057600080fd5b50600436106101005760003560e01c80635f64b55b11610097578063ac41865a11610066578063ac41865a146102c5578063baa2abde146102f5578063dd62ed3e14610326578063e8e337001461035657610100565b80635f64b55b1461022957806370a082311461024757806395d89b4114610277578063a9059cbb1461029557610100565b806318160ddd116100d357806318160ddd146101a157806323b872dd146101bf578063313ce567146101ef57806338ed17391461020d57610100565b8063054d50d41461010557806306fdde0314610135578063095ea7b3146101535780630fc63d1014610183575b600080fd5b61011f600480360381019061011a9190612c9e565b610388565b60405161012c9190612d00565b60405180910390f35b61013d61050f565b60405161014a9190612dab565b60405180910390f35b61016d60048036038101906101689190612e2b565b6105a1565b60405161017a9190612e86565b60405180910390f35b61018b6105c4565b6040516101989190612f00565b60405180910390f35b6101a96105e8565b6040516101b69190612d00565b60405180910390f35b6101d960048036038101906101d49190612f1b565b6105f2565b6040516101e69190612e86565b60405180910390f35b6101f7610621565b6040516102049190612f8a565b60405180910390f35b6102276004803603810190610222919061300a565b61062a565b005b610231610b28565b60405161023e9190612f00565b60405180910390f35b610261600480360381019061025c91906130a4565b610b4c565b60405161026e9190612d00565b60405180910390f35b61027f610b94565b60405161028c9190612dab565b60405180910390f35b6102af60048036038101906102aa9190612e2b565b610c26565b6040516102bc9190612e86565b60405180910390f35b6102df60048036038101906102da91906130d1565b610c49565b6040516102ec9190612d00565b60405180910390f35b61030f600480360381019061030a9190613111565b6111be565b60405161031d9291906131b3565b60405180910390f35b610340600480360381019061033b91906130d1565b6118da565b60405161034d9190612d00565b60405180910390f35b610370600480360381019061036b91906131dc565b611961565b60405161037f93929190613292565b60405180910390f35b600061039e67671de5fad4d2966a60c01b6123e7565b6103b267df3ce1979d387f7a60c01b6123e7565b6103c667e54f7ac9042c4a3860c01b6123e7565b6103da67f2b771407d8eb21360c01b6123e7565b6000841161041d576040517f08c379a000000000000000000000000000000000000000000000000000000000815260040161041490613315565b60405180910390fd5b610431671ccfbd504d490d8f60c01b6123e7565b610445677c2d99f8573dd1b460c01b6123e7565b6104596721eac92e992ba1ab60c01b6123e7565b61046d6782b2a1c8c284495f60c01b6123e7565b60008311801561047d5750600082115b6104bc576040517f08c379a00000000000000000000000000000000000000000000000000000000081526004016104b390613381565b60405180910390fd5b6104d0677989569ab566e0a660c01b6123e7565b6104e467fb70871154aa25cd60c01b6123e7565b82846104f091906133d0565b82856104fc9190613404565b6105069190613475565b90509392505050565b60606003805461051e906134d5565b80601f016020809104026020016040519081016040528092919081815260200182805461054a906134d5565b80156105975780601f1061056c57610100808354040283529160200191610597565b820191906000526020600020905b81548152906001019060200180831161057a57829003601f168201915b5050505050905090565b6000806105ac6123ea565b90506105b98185856123f2565b600191505092915050565b7f000000000000000000000000000000000000000000000000000000000000000081565b6000600254905090565b6000806105fd6123ea565b905061060a858285612404565b610615858585612499565b60019150509392505050565b60006012905090565b61063e6778b90607ed953ced60c01b6123e7565b61065267b9d05c9185299e6c60c01b6123e7565b610666675a8f872e6d54e7da60c01b6123e7565b61067a67b9f947d4f6a85b6660c01b6123e7565b804211156106bd576040517f08c379a00000000000000000000000000000000000000000000000000000000081526004016106b490613552565b60405180910390fd5b6106d1679f4cfe0a54cdaccd60c01b6123e7565b6106e56788b5d9d3cbf1279260c01b6123e7565b6106f9674aa0b316480cf7d060c01b6123e7565b61070d67a6a42f6e41f665d560c01b6123e7565b60028484905014610753576040517f08c379a000000000000000000000000000000000000000000000000000000000815260040161074a906135be565b60405180910390fd5b610767670d457d628813c30360c01b6123e7565b61077b677f03a0904ed1820160c01b6123e7565b61078f676c4964ebe95c8fab60c01b6123e7565b6000848460008181106107a5576107a46135de565b5b90506020020160208101906107ba91906130a4565b90506107d067f8d59ad238413c1d60c01b6123e7565b6107e467ad7722208db9620a60c01b6123e7565b6000858560018181106107fa576107f96135de565b5b905060200201602081019061080f91906130a4565b905061082567040c1e92fde97d9c60c01b6123e7565b610839671d0f683253428f8260c01b6123e7565b6000610938898473ffffffffffffffffffffffffffffffffffffffff166370a08231306040518263ffffffff1660e01b8152600401610878919061361c565b602060405180830381865afa158015610895573d6000803e3d6000fd5b505050506040513d601f19601f820116820180604052508101906108b9919061364c565b8473ffffffffffffffffffffffffffffffffffffffff166370a08231306040518263ffffffff1660e01b81526004016108f2919061361c565b602060405180830381865afa15801561090f573d6000803e3d6000fd5b505050506040513d601f19601f82011682018060405250810190610933919061364c565b610388565b905061094e67cb80db2118a64e0960c01b6123e7565b610962670f03145bd7878cf060c01b6123e7565b610976675a58a71c0b6a8d1e60c01b6123e7565b878110156109b9576040517f08c379a00000000000000000000000000000000000000000000000000000000081526004016109b0906136c5565b60405180910390fd5b6109cd6784dee36af5051c0860c01b6123e7565b6109e1670673d13788af174360c01b6123e7565b6109f567680e5116b013e4df60c01b6123e7565b8273ffffffffffffffffffffffffffffffffffffffff166323b872dd33308c6040518463ffffffff1660e01b8152600401610a32939291906136e5565b6020604051808303816000875af1158015610a51573d6000803e3d6000fd5b505050506040513d601f19601f82011682018060405250810190610a759190613748565b50610a8a678370f37ec24a349b60c01b6123e7565b610a9e6715343f5ccceab50360c01b6123e7565b8173ffffffffffffffffffffffffffffffffffffffff1663a9059cbb86836040518363ffffffff1660e01b8152600401610ad9929190613775565b6020604051808303816000875af1158015610af8573d6000803e3d6000fd5b505050506040513d601f19601f82011682018060405250810190610b1c9190613748565b50505050505050505050565b7f000000000000000000000000000000000000000000000000000000000000000081565b60008060008373ffffffffffffffffffffffffffffffffffffffff1673ffffffffffffffffffffffffffffffffffffffff168152602001908152602001600020549050919050565b606060048054610ba3906134d5565b80601f0160208091040260200160405190810160405280929190818152602001828054610bcf906134d5565b8015610c1c5780601f10610bf157610100808354040283529160200191610c1c565b820191906000526020600020905b815481529060010190602001808311610bff57829003601f168201915b5050505050905090565b600080610c316123ea565b9050610c3e818585612499565b600191505092915050565b6000610c5f67474bf53f1e0ab5eb60c01b6123e7565b610c73675086f9131f27f92d60c01b6123e7565b610c8767787271642465a1c260c01b6123e7565b610c9b6745272f42fbf7744c60c01b6123e7565b7f000000000000000000000000000000000000000000000000000000000000000073ffffffffffffffffffffffffffffffffffffffff168373ffffffffffffffffffffffffffffffffffffffff16148015610d4157507f000000000000000000000000000000000000000000000000000000000000000073ffffffffffffffffffffffffffffffffffffffff168273ffffffffffffffffffffffffffffffffffffffff16145b8015610d5d5750610d5c67ef2d0585809a202e60c01b61258d565b5b80610e2657507f000000000000000000000000000000000000000000000000000000000000000073ffffffffffffffffffffffffffffffffffffffff168373ffffffffffffffffffffffffffffffffffffffff16148015610e0957507f000000000000000000000000000000000000000000000000000000000000000073ffffffffffffffffffffffffffffffffffffffff168273ffffffffffffffffffffffffffffffffffffffff16145b8015610e255750610e24670b082b5e187717b460c01b61258d565b5b5b610e65576040517f08c379a0000000000000000000000000000000000000000000000000000000008152600401610e5c906137ea565b60405180910390fd5b610e7967f03009258a515bf360c01b6123e7565b610e8d67c8302086cc93a66b60c01b6123e7565b610ea167bf3fcafc6254bf0860c01b6123e7565b6000309050610eba67a7af83b93a01c29160c01b6123e7565b610ece676c7507b2ba6495d560c01b6123e7565b60007f000000000000000000000000000000000000000000000000000000000000000073ffffffffffffffffffffffffffffffffffffffff166370a08231836040518263ffffffff1660e01b8152600401610f29919061361c565b602060405180830381865afa158015610f46573d6000803e3d6000fd5b505050506040513d601f19601f82011682018060405250810190610f6a919061364c565b9050610f80670a0848119488165460c01b6123e7565b610f94670987eb4fe3d2070f60c01b6123e7565b60007f000000000000000000000000000000000000000000000000000000000000000073ffffffffffffffffffffffffffffffffffffffff166370a08231846040518263ffffffff1660e01b8152600401610fef919061361c565b602060405180830381865afa15801561100c573d6000803e3d6000fd5b505050506040513d601f19601f82011682018060405250810190611030919061364c565b905061104667b87e4c5667a721a860c01b6123e7565b61105a670b066c229916c67960c01b6123e7565b61106e67b04c49ee91dd7de560c01b6123e7565b60008211801561107e5750600081115b6110bd576040517f08c379a00000000000000000000000000000000000000000000000000000000081526004016110b490613381565b60405180910390fd5b6110d1676b754f8f2a8f400d60c01b6123e7565b6110e567437375c9dd2c54e660c01b6123e7565b7f000000000000000000000000000000000000000000000000000000000000000073ffffffffffffffffffffffffffffffffffffffff168673ffffffffffffffffffffffffffffffffffffffff16148061114f575061114e67023b76db8b6b3b2e60c01b612598565b5b801561116b575061116a679fc741d7f9eec69960c01b61258d565b5b6111935780670de0b6b3a7640000836111849190613404565b61118e9190613475565b6111b3565b81670de0b6b3a7640000826111a89190613404565b6111b29190613475565b5b935050505092915050565b6000806111d567c2160f1477bcd54d60c01b6123e7565b6111e967393dc4ea8548055360c01b6123e7565b6111fd677abf625d1ab2402560c01b6123e7565b61121167a58d83eabb9a561860c01b6123e7565b7f000000000000000000000000000000000000000000000000000000000000000073ffffffffffffffffffffffffffffffffffffffff168973ffffffffffffffffffffffffffffffffffffffff161480156112b757507f000000000000000000000000000000000000000000000000000000000000000073ffffffffffffffffffffffffffffffffffffffff168873ffffffffffffffffffffffffffffffffffffffff16145b6112f6576040517f08c379a00000000000000000000000000000000000000000000000000000000081526004016112ed906137ea565b60405180910390fd5b61130a6732b33c56769c9f0c60c01b6123e7565b61131e67d1deb940cce2108b60c01b6123e7565b611332678e400600140d2a9460c01b6123e7565b6113466791b71f3327040e2e60c01b6123e7565b82421115611389576040517f08c379a000000000000000000000000000000000000000000000000000000000815260040161138090613552565b60405180910390fd5b61139d675a7222320e7a503b60c01b6123e7565b6113b167e1806785f628494060c01b6123e7565b6113c56797135cda2d25401c60c01b6123e7565b60003090506113de6775252b2bd2428ba660c01b6123e7565b6113f267e9dade89cbc9c5ea60c01b6123e7565b60006113fc6105e8565b9050611412674efe6a90fd4ea65c60c01b6123e7565b61142667a2e467d8bf28aa4160c01b6123e7565b60007f000000000000000000000000000000000000000000000000000000000000000073ffffffffffffffffffffffffffffffffffffffff166370a08231846040518263ffffffff1660e01b8152600401611481919061361c565b602060405180830381865afa15801561149e573d6000803e3d6000fd5b505050506040513d601f19601f820116820180604052508101906114c2919061364c565b90506114d867a39e6127f4bbd97b60c01b6123e7565b6114ec6710230c8d9c265be260c01b6123e7565b60007f000000000000000000000000000000000000000000000000000000000000000073ffffffffffffffffffffffffffffffffffffffff166370a08231856040518263ffffffff1660e01b8152600401611547919061361c565b602060405180830381865afa158015611564573d6000803e3d6000fd5b505050506040513d601f19601f82011682018060405250810190611588919061364c565b905061159e67e084955d25a354a760c01b6123e7565b82828c6115ab9190613404565b6115b59190613475565b95506115cb6719a79699a37ba0c160c01b6123e7565b82818c6115d89190613404565b6115e29190613475565b94506115f86703c24c3f2771a67b60c01b6123e7565b61160c67162436c7df2cebca60c01b6123e7565b6116206722b045b614f5d58160c01b6123e7565b89861015611663576040517f08c379a000000000000000000000000000000000000000000000000000000000815260040161165a90613856565b60405180910390fd5b611677673c8a40110dace06b60c01b6123e7565b61168b67d4e9939131580c8f60c01b6123e7565b61169f67711fdcb8add6321760c01b6123e7565b6116b367859ae6e0bda5e01160c01b6123e7565b888510156116f6576040517f08c379a00000000000000000000000000000000000000000000000000000000081526004016116ed906138c2565b60405180910390fd5b61170a67653b9df4604ff8c260c01b6123e7565b61171e67de2554af27ca021660c01b6123e7565b61173267d5949cba729a1aee60c01b6123e7565b61173c338c61259f565b61175067bc8d1bf5107a477d60c01b6123e7565b61176467cdf67d4f015310ef60c01b6123e7565b7f000000000000000000000000000000000000000000000000000000000000000073ffffffffffffffffffffffffffffffffffffffff1663a9059cbb89886040518363ffffffff1660e01b81526004016117bf929190613775565b6020604051808303816000875af11580156117de573d6000803e3d6000fd5b505050506040513d601f19601f820116820180604052508101906118029190613748565b50611817670159fd2c9ea46a9760c01b6123e7565b61182b67817f6c936916438b60c01b6123e7565b7f000000000000000000000000000000000000000000000000000000000000000073ffffffffffffffffffffffffffffffffffffffff1663a9059cbb89876040518363ffffffff1660e01b8152600401611886929190613775565b6020604051808303816000875af11580156118a5573d6000803e3d6000fd5b505050506040513d601f19601f820116820180604052508101906118c99190613748565b505050505097509795505050505050565b6000600160008473ffffffffffffffffffffffffffffffffffffffff1673ffffffffffffffffffffffffffffffffffffffff16815260200190815260200160002060008373ffffffffffffffffffffffffffffffffffffffff1673ffffffffffffffffffffffffffffffffffffffff16815260200190815260200160002054905092915050565b600080600061197a679ca6dcfa3430d0a660c01b6123e7565b61198e67fc1bfd15e951bc9d60c01b6123e7565b6119a267bf81ef12315e352660c01b6123e7565b6119b66760c7b5ba6dfd945360c01b6123e7565b7f000000000000000000000000000000000000000000000000000000000000000073ffffffffffffffffffffffffffffffffffffffff168b73ffffffffffffffffffffffffffffffffffffffff16148015611a5c57507f000000000000000000000000000000000000000000000000000000000000000073ffffffffffffffffffffffffffffffffffffffff168a73ffffffffffffffffffffffffffffffffffffffff16145b611a9b576040517f08c379a0000000000000000000000000000000000000000000000000000000008152600401611a92906137ea565b60405180910390fd5b611aaf674c4d2d50fd643ba460c01b6123e7565b611ac367d0328dbdcc2eb2f760c01b6123e7565b611ad7670652c992a3836ba460c01b6123e7565b611aeb6791d5eadea1211fb960c01b6123e7565b83421115611b2e576040517f08c379a0000000000000000000000000000000000000000000000000000000008152600401611b2590613552565b60405180910390fd5b611b4267c82d010f2840516f60c01b6123e7565b611b5667e70726f52cb066ce60c01b6123e7565b611b6a679e1de4f05cd3397f60c01b6123e7565b6000309050611b83676d594e0e4e67040760c01b6123e7565b611b9767068fd745f51a6eae60c01b6123e7565b6000611ba16105e8565b9050611bb767d51c98ff8cde803b60c01b6123e7565b611bcb67be59e51c39d71dc060c01b6123e7565b60007f000000000000000000000000000000000000000000000000000000000000000073ffffffffffffffffffffffffffffffffffffffff166370a08231846040518263ffffffff1660e01b8152600401611c26919061361c565b602060405180830381865afa158015611c43573d6000803e3d6000fd5b505050506040513d601f19601f82011682018060405250810190611c67919061364c565b9050611c7d67bf4835610ece551c60c01b6123e7565b611c91675a4abb22f05d328d60c01b6123e7565b60007f000000000000000000000000000000000000000000000000000000000000000073ffffffffffffffffffffffffffffffffffffffff166370a08231856040518263ffffffff1660e01b8152600401611cec919061361c565b602060405180830381865afa158015611d09573d6000803e3d6000fd5b505050506040513d601f19601f82011682018060405250810190611d2d919061364c565b9050611d4367b6b1762b8b0f87fa60c01b6123e7565b611d5767bb16fb8bdcb93ee860c01b6123e7565b6000831115611fe057611d7467a8de6f2646335e1c60c01b6123e7565b611d8867b20ba7cfa06ad08960c01b6123e7565b611d9c67558207ce5548ab6360c01b6123e7565b600082828f611dab9190613404565b611db59190613475565b9050611dcb678a259f111f43a49260c01b6123e7565b611ddf67cb758ce99a9599f860c01b6123e7565b8c8111611ec057611dfa67053428367613f01660c01b6123e7565b611e0e67a5e8487408572bc160c01b6123e7565b611e2267d895583a549344cd60c01b6123e7565b611e3667756df17c0fcc629e60c01b6123e7565b8a811015611e79576040517f08c379a0000000000000000000000000000000000000000000000000000000008152600401611e709061392e565b60405180910390fd5b611e8d67cbe6bbf6b98032ee60c01b6123e7565b611ea1672226ccc615381dd560c01b6123e7565b8d9750611eb867be628fc69f269fb560c01b6123e7565b809650611fda565b611ed4672dd1d115f221dfad60c01b6123e7565b611ee86757ffe76aacafc9ff60c01b6123e7565b611efc6705f53231aabb00ed60c01b6123e7565b600082848f611f0b9190613404565b611f159190613475565b9050611f2b67e2ecab72bcac88a260c01b6123e7565b611f3f6712b92bd2140b975260c01b6123e7565b611f5367eae0c801d86c950560c01b6123e7565b8c811015611f96576040517f08c379a0000000000000000000000000000000000000000000000000000000008152600401611f8d9061399a565b60405180910390fd5b611faa6777bff5740e381d5c60c01b6123e7565b611fbe6720bd43d60baaa90960c01b6123e7565b809850611fd56778d3022bbcabb22a60c01b6123e7565b8d9750505b5061204d565b611ff4672843572ebb67923560c01b6123e7565b612008671b197e9f18715d1060c01b6123e7565b8c965061201f67d958880b8f9dc89460c01b6123e7565b8b9550612036675dad16df495dca0160c01b6123e7565b61204a86886120459190613404565b612621565b94505b61206167dd2560422634403360c01b6123e7565b61207567db1c22f0c5adf62160c01b6123e7565b612089679f806e050956e03e60c01b6123e7565b8a8710156120cc576040517f08c379a00000000000000000000000000000000000000000000000000000000081526004016120c390613856565b60405180910390fd5b6120e067fe090a7ab5cc19d760c01b6123e7565b6120f4675cb6bd7fcf38392560c01b6123e7565b612108679fd327ce04649cd460c01b6123e7565b61211c67a910013577c3e5d060c01b6123e7565b8986101561215f576040517f08c379a0000000000000000000000000000000000000000000000000000000008152600401612156906138c2565b60405180910390fd5b6121736706591d0e24ead82260c01b6123e7565b61218767bcb0fbd5cd5bdba660c01b6123e7565b61219b679767377e57bd928360c01b6123e7565b60003390506121b467279d168167b39a1660c01b6123e7565b6121c8677214a40eafb20df460c01b6123e7565b7f000000000000000000000000000000000000000000000000000000000000000073ffffffffffffffffffffffffffffffffffffffff166323b872dd82878b6040518463ffffffff1660e01b8152600401612225939291906136e5565b6020604051808303816000875af1158015612244573d6000803e3d6000fd5b505050506040513d601f19601f820116820180604052508101906122689190613748565b5061227d678d25a91aafc8f4cc60c01b6123e7565b612291676dbe106b3e7411da60c01b6123e7565b7f000000000000000000000000000000000000000000000000000000000000000073ffffffffffffffffffffffffffffffffffffffff166323b872dd82878a6040518463ffffffff1660e01b81526004016122ee939291906136e5565b6020604051808303816000875af115801561230d573d6000803e3d6000fd5b505050506040513d601f19601f820116820180604052508101906123319190613748565b5061234667140f9acfcce0acb360c01b6123e7565b6000861180612365575061236467282b6702f2c4f17060c01b612598565b5b8015612381575061238067e9adf61c84d3173260c01b61258d565b5b61239e5761239987896123949190613404565b612621565b6123a0565b855b95506123b667f11ce18cfc1908fb60c01b6123e7565b6123ca67a0296e6cb8c8e77f60c01b6123e7565b6123d48a876127e0565b5050505050985098509895505050505050565b50565b600033905090565b6123ff8383836001612862565b505050565b600061241084846118da565b90507fffffffffffffffffffffffffffffffffffffffffffffffffffffffffffffffff8110156124935781811015612483578281836040517ffb8f41b200000000000000000000000000000000000000000000000000000000815260040161247a939291906139ba565b60405180910390fd5b61249284848484036000612862565b5b50505050565b600073ffffffffffffffffffffffffffffffffffffffff168373ffffffffffffffffffffffffffffffffffffffff160361250b5760006040517f96c6fd1e000000000000000000000000000000000000000000000000000000008152600401612502919061361c565b60405180910390fd5b600073ffffffffffffffffffffffffffffffffffffffff168273ffffffffffffffffffffffffffffffffffffffff160361257d5760006040517fec442f05000000000000000000000000000000000000000000000000000000008152600401612574919061361c565b60405180910390fd5b612588838383612a39565b505050565b600060019050919050565b6000919050565b600073ffffffffffffffffffffffffffffffffffffffff168273ffffffffffffffffffffffffffffffffffffffff16036126115760006040517f96c6fd1e000000000000000000000000000000000000000000000000000000008152600401612608919061361c565b60405180910390fd5b61261d82600083612a39565b5050565b6000612637670c1c604706dfaf9560c01b6123e7565b61264b676bb6cba85fb64e3160c01b6123e7565b61265f6705bbadb16c3b4ba160c01b6123e7565b60038211156127645761267c67e45399c98e2bd34360c01b6123e7565b61269067b0261ff0eb1dcbb860c01b6123e7565b8190506126a7676bf06a19f38d34fa60c01b6123e7565b6126bb67d6d1e8b992fe05ea60c01b6123e7565b600060016002846126cc9190613475565b6126d691906133d0565b90506126ec670a6ef4dc2d88c9ad60c01b6123e7565b61270067bef94fe11239f12b60c01b6123e7565b5b8181101561275e5761271d672aead1c1e621871a60c01b6123e7565b80915061273467787873246184c20660c01b6123e7565b60028182856127439190613475565b61274d91906133d0565b6127579190613475565b9050612701565b506127db565b61277867159351b312055e8060c01b6123e7565b61278c67b6f6303607cdc24a60c01b6123e7565b600082146127c5576127a867f30eefe23cfef6f860c01b6123e7565b6127bc6717ea7195c651cbb260c01b6123e7565b600190506127da565b6127d9679b424e514889f2ac60c01b6123e7565b5b5b919050565b600073ffffffffffffffffffffffffffffffffffffffff168273ffffffffffffffffffffffffffffffffffffffff16036128525760006040517fec442f05000000000000000000000000000000000000000000000000000000008152600401612849919061361c565b60405180910390fd5b61285e60008383612a39565b5050565b600073ffffffffffffffffffffffffffffffffffffffff168473ffffffffffffffffffffffffffffffffffffffff16036128d45760006040517fe602df050000000000000000000000000000000000000000000000000000000081526004016128cb919061361c565b60405180910390fd5b600073ffffffffffffffffffffffffffffffffffffffff168373ffffffffffffffffffffffffffffffffffffffff16036129465760006040517f94280d6200000000000000000000000000000000000000000000000000000000815260040161293d919061361c565b60405180910390fd5b81600160008673ffffffffffffffffffffffffffffffffffffffff1673ffffffffffffffffffffffffffffffffffffffff16815260200190815260200160002060008573ffffffffffffffffffffffffffffffffffffffff1673ffffffffffffffffffffffffffffffffffffffff168152602001908152602001600020819055508015612a33578273ffffffffffffffffffffffffffffffffffffffff168473ffffffffffffffffffffffffffffffffffffffff167f8c5be1e5ebec7d5bd14f71427d1e84f3dd0314c0f7b2291e5b200ac8c7c3b92584604051612a2a9190612d00565b60405180910390a35b50505050565b600073ffffffffffffffffffffffffffffffffffffffff168373ffffffffffffffffffffffffffffffffffffffff1603612a8b578060026000828254612a7f91906133d0565b92505081905550612b5e565b60008060008573ffffffffffffffffffffffffffffffffffffffff1673ffffffffffffffffffffffffffffffffffffffff16815260200190815260200160002054905081811015612b17578381836040517fe450d38c000000000000000000000000000000000000000000000000000000008152600401612b0e939291906139ba565b60405180910390fd5b8181036000808673ffffffffffffffffffffffffffffffffffffffff1673ffffffffffffffffffffffffffffffffffffffff16815260200190815260200160002081905550505b600073ffffffffffffffffffffffffffffffffffffffff168273ffffffffffffffffffffffffffffffffffffffff1603612ba75780600260008282540392505081905550612bf4565b806000808473ffffffffffffffffffffffffffffffffffffffff1673ffffffffffffffffffffffffffffffffffffffff168152602001908152602001600020600082825401925050819055505b8173ffffffffffffffffffffffffffffffffffffffff168373ffffffffffffffffffffffffffffffffffffffff167fddf252ad1be2c89b69c2b068fc378daa952ba7f163c4a11628f55a4df523b3ef83604051612c519190612d00565b60405180910390a3505050565b600080fd5b600080fd5b6000819050919050565b612c7b81612c68565b8114612c8657600080fd5b50565b600081359050612c9881612c72565b92915050565b600080600060608486031215612cb757612cb6612c5e565b5b6000612cc586828701612c89565b9350506020612cd686828701612c89565b9250506040612ce786828701612c89565b9150509250925092565b612cfa81612c68565b82525050565b6000602082019050612d156000830184612cf1565b92915050565b600081519050919050565b600082825260208201905092915050565b60005b83811015612d55578082015181840152602081019050612d3a565b60008484015250505050565b6000601f19601f8301169050919050565b6000612d7d82612d1b565b612d878185612d26565b9350612d97818560208601612d37565b612da081612d61565b840191505092915050565b60006020820190508181036000830152612dc58184612d72565b905092915050565b600073ffffffffffffffffffffffffffffffffffffffff82169050919050565b6000612df882612dcd565b9050919050565b612e0881612ded565b8114612e1357600080fd5b50565b600081359050612e2581612dff565b92915050565b60008060408385031215612e4257612e41612c5e565b5b6000612e5085828601612e16565b9250506020612e6185828601612c89565b9150509250929050565b60008115159050919050565b612e8081612e6b565b82525050565b6000602082019050612e9b6000830184612e77565b92915050565b6000819050919050565b6000612ec6612ec1612ebc84612dcd565b612ea1565b612dcd565b9050919050565b6000612ed882612eab565b9050919050565b6000612eea82612ecd565b9050919050565b612efa81612edf565b82525050565b6000602082019050612f156000830184612ef1565b92915050565b600080600060608486031215612f3457612f33612c5e565b5b6000612f4286828701612e16565b9350506020612f5386828701612e16565b9250506040612f6486828701612c89565b9150509250925092565b600060ff82169050919050565b612f8481612f6e565b82525050565b6000602082019050612f9f6000830184612f7b565b92915050565b600080fd5b600080fd5b600080fd5b60008083601f840112612fca57612fc9612fa5565b5b8235905067ffffffffffffffff811115612fe757612fe6612faa565b5b60208301915083602082028301111561300357613002612faf565b5b9250929050565b60008060008060008060a0878903121561302757613026612c5e565b5b600061303589828a01612c89565b965050602061304689828a01612c89565b955050604087013567ffffffffffffffff81111561306757613066612c63565b5b61307389828a01612fb4565b9450945050606061308689828a01612e16565b925050608061309789828a01612c89565b9150509295509295509295565b6000602082840312156130ba576130b9612c5e565b5b60006130c884828501612e16565b91505092915050565b600080604083850312156130e8576130e7612c5e565b5b60006130f685828601612e16565b925050602061310785828601612e16565b9150509250929050565b600080600080600080600060e0888a0312156131305761312f612c5e565b5b600061313e8a828b01612e16565b975050602061314f8a828b01612e16565b96505060406131608a828b01612c89565b95505060606131718a828b01612c89565b94505060806131828a828b01612c89565b93505060a06131938a828b01612e16565b92505060c06131a48a828b01612c89565b91505092959891949750929550565b60006040820190506131c86000830185612cf1565b6131d56020830184612cf1565b9392505050565b600080600080600080600080610100898b0312156131fd576131fc612c5e565b5b600061320b8b828c01612e16565b985050602061321c8b828c01612e16565b975050604061322d8b828c01612c89565b965050606061323e8b828c01612c89565b955050608061324f8b828c01612c89565b94505060a06132608b828c01612c89565b93505060c06132718b828c01612e16565b92505060e06132828b828c01612c89565b9150509295985092959890939650565b60006060820190506132a76000830186612cf1565b6132b46020830185612cf1565b6132c16040830184612cf1565b949350505050565b7f5a65726f20696e70757400000000000000000000000000000000000000000000600082015250565b60006132ff600a83612d26565b915061330a826132c9565b602082019050919050565b6000602082019050818103600083015261332e816132f2565b9050919050565b7f4e6f206c69717569646974790000000000000000000000000000000000000000600082015250565b600061336b600c83612d26565b915061337682613335565b602082019050919050565b6000602082019050818103600083015261339a8161335e565b9050919050565b7f4e487b7100000000000000000000000000000000000000000000000000000000600052601160045260246000fd5b60006133db82612c68565b91506133e683612c68565b92508282019050808211156133fe576133fd6133a1565b5b92915050565b600061340f82612c68565b915061341a83612c68565b925082820261342881612c68565b9150828204841483151761343f5761343e6133a1565b5b5092915050565b7f4e487b7100000000000000000000000000000000000000000000000000000000600052601260045260246000fd5b600061348082612c68565b915061348b83612c68565b92508261349b5761349a613446565b5b828204905092915050565b7f4e487b7100000000000000000000000000000000000000000000000000000000600052602260045260246000fd5b600060028204905060018216806134ed57607f821691505b602082108103613500576134ff6134a6565b5b50919050565b7f4578706972656400000000000000000000000000000000000000000000000000600082015250565b600061353c600783612d26565b915061354782613506565b602082019050919050565b6000602082019050818103600083015261356b8161352f565b9050919050565b7f496e76616c696420706174680000000000000000000000000000000000000000600082015250565b60006135a8600c83612d26565b91506135b382613572565b602082019050919050565b600060208201905081810360008301526135d78161359b565b9050919050565b7f4e487b7100000000000000000000000000000000000000000000000000000000600052603260045260246000fd5b61361681612ded565b82525050565b6000602082019050613631600083018461360d565b92915050565b60008151905061364681612c72565b92915050565b60006020828403121561366257613661612c5e565b5b600061367084828501613637565b91505092915050565b7f4f757470757420746f6f206c6f77000000000000000000000000000000000000600082015250565b60006136af600e83612d26565b91506136ba82613679565b602082019050919050565b600060208201905081810360008301526136de816136a2565b9050919050565b60006060820190506136fa600083018661360d565b613707602083018561360d565b6137146040830184612cf1565b949350505050565b61372581612e6b565b811461373057600080fd5b50565b6000815190506137428161371c565b92915050565b60006020828403121561375e5761375d612c5e565b5b600061376c84828501613733565b91505092915050565b600060408201905061378a600083018561360d565b6137976020830184612cf1565b9392505050565b7f496e76616c696420746f6b656e73000000000000000000000000000000000000600082015250565b60006137d4600e83612d26565b91506137df8261379e565b602082019050919050565b60006020820190508181036000830152613803816137c7565b9050919050565b7f41206e6f74206d696e0000000000000000000000000000000000000000000000600082015250565b6000613840600983612d26565b915061384b8261380a565b602082019050919050565b6000602082019050818103600083015261386f81613833565b9050919050565b7f42206e6f74206d696e0000000000000000000000000000000000000000000000600082015250565b60006138ac600983612d26565b91506138b782613876565b602082019050919050565b600060208201905081810360008301526138db8161389f565b9050919050565b7f496e73756666696369656e742042000000000000000000000000000000000000600082015250565b6000613918600e83612d26565b9150613923826138e2565b602082019050919050565b600060208201905081810360008301526139478161390b565b9050919050565b7f496e73756666696369656e742041000000000000000000000000000000000000600082015250565b6000613984600e83612d26565b915061398f8261394e565b602082019050919050565b600060208201905081810360008301526139b381613977565b9050919050565b60006060820190506139cf600083018661360d565b6139dc6020830185612cf1565b6139e96040830184612cf1565b94935050505056fea26469706673582212201f3125e6f8d0158481b605b287bf01d66bdfb233867fef877c512831c4b6d4a364736f6c634300081c0033",
  "linkReferences": {},
  "deployedLinkReferences": {}
}