{
  "_format": "hh-sol-artifact-1",
  "contractName": "SimpleSwap",
  "sourceName": "contracts/SimpleSwap.sol",
  "abi": [
    {
      "inputs": [
        {
          "internalType": "address",
          "name": "_tokenA",
          "type": "address"
        },
        {
          "internalType": "address",
          "name": "_tokenB",
          "type": "address"
        }
      ],
      "stateMutability": "nonpayable",
      "type": "constructor"
    },
    {
      "inputs": [
        {
          "internalType": "address",
          "name": "spender",
          "type": "address"
        },
        {
          "internalType": "uint256",
          "name": "allowance",
          "type": "uint256"
        },
        {
          "internalType": "uint256",
          "name": "needed",
          "type": "uint256"
        }
      ],
      "name": "ERC20InsufficientAllowance",
      "type": "error"
    },
    {
      "inputs": [
        {
          "internalType": "address",
          "name": "sender",
          "type": "address"
        },
        {
          "internalType": "uint256",
          "name": "balance",
          "type": "uint256"
        },
        {
          "internalType": "uint256",
          "name": "needed",
          "type": "uint256"
        }
      ],
      "name": "ERC20InsufficientBalance",
      "type": "error"
    },
    {
      "inputs": [
        {
          "internalType": "address",
          "name": "approver",
          "type": "address"
        }
      ],
      "name": "ERC20InvalidApprover",
      "type": "error"
    },
    {
      "inputs": [
        {
          "internalType": "address",
          "name": "receiver",
          "type": "address"
        }
      ],
      "name": "ERC20InvalidReceiver",
      "type": "error"
    },
    {
      "inputs": [
        {
          "internalType": "address",
          "name": "sender",
          "type": "address"
        }
      ],
      "name": "ERC20InvalidSender",
      "type": "error"
    },
    {
      "inputs": [
        {
          "internalType": "address",
          "name": "spender",
          "type": "address"
        }
      ],
      "name": "ERC20InvalidSpender",
      "type": "error"
    },
    {
      "anonymous": false,
      "inputs": [
        {
          "indexed": true,
          "internalType": "address",
          "name": "owner",
          "type": "address"
        },
        {
          "indexed": true,
          "internalType": "address",
          "name": "spender",
          "type": "address"
        },
        {
          "indexed": false,
          "internalType": "uint256",
          "name": "value",
          "type": "uint256"
        }
      ],
      "name": "Approval",
      "type": "event"
    },
    {
      "anonymous": false,
      "inputs": [
        {
          "indexed": true,
          "internalType": "address",
          "name": "from",
          "type": "address"
        },
        {
          "indexed": true,
          "internalType": "address",
          "name": "to",
          "type": "address"
        },
        {
          "indexed": false,
          "internalType": "uint256",
          "name": "value",
          "type": "uint256"
        }
      ],
      "name": "Transfer",
      "type": "event"
    },
    {
      "inputs": [
        {
          "internalType": "address",
          "name": "_tokenA",
          "type": "address"
        },
        {
          "internalType": "address",
          "name": "_tokenB",
          "type": "address"
        },
        {
          "internalType": "uint256",
          "name": "amountADesired",
          "type": "uint256"
        },
        {
          "internalType": "uint256",
          "name": "amountBDesired",
          "type": "uint256"
        },
        {
          "internalType": "uint256",
          "name": "amountAMin",
          "type": "uint256"
        },
        {
          "internalType": "uint256",
          "name": "amountBMin",
          "type": "uint256"
        },
        {
          "internalType": "address",
          "name": "to",
          "type": "address"
        },
        {
          "internalType": "uint256",
          "name": "deadline",
          "type": "uint256"
        }
      ],
      "name": "addLiquidity",
      "outputs": [
        {
          "internalType": "uint256",
          "name": "amountA",
          "type": "uint256"
        },
        {
          "internalType": "uint256",
          "name": "amountB",
          "type": "uint256"
        },
        {
          "internalType": "uint256",
          "name": "liquidity",
          "type": "uint256"
        }
      ],
      "stateMutability": "nonpayable",
      "type": "function"
    },
    {
      "inputs": [
        {
          "internalType": "address",
          "name": "owner",
          "type": "address"
        },
        {
          "internalType": "address",
          "name": "spender",
          "type": "address"
        }
      ],
      "name": "allowance",
      "outputs": [
        {
          "internalType": "uint256",
          "name": "",
          "type": "uint256"
        }
      ],
      "stateMutability": "view",
      "type": "function"
    },
    {
      "inputs": [
        {
          "internalType": "address",
          "name": "spender",
          "type": "address"
        },
        {
          "internalType": "uint256",
          "name": "value",
          "type": "uint256"
        }
      ],
      "name": "approve",
      "outputs": [
        {
          "internalType": "bool",
          "name": "",
          "type": "bool"
        }
      ],
      "stateMutability": "nonpayable",
      "type": "function"
    },
    {
      "inputs": [
        {
          "internalType": "address",
          "name": "account",
          "type": "address"
        }
      ],
      "name": "balanceOf",
      "outputs": [
        {
          "internalType": "uint256",
          "name": "",
          "type": "uint256"
        }
      ],
      "stateMutability": "view",
      "type": "function"
    },
    {
      "inputs": [],
      "name": "decimals",
      "outputs": [
        {
          "internalType": "uint8",
          "name": "",
          "type": "uint8"
        }
      ],
      "stateMutability": "view",
      "type": "function"
    },
    {
      "inputs": [
        {
          "internalType": "uint256",
          "name": "amountIn",
          "type": "uint256"
        },
        {
          "internalType": "uint256",
          "name": "reserveIn",
          "type": "uint256"
        },
        {
          "internalType": "uint256",
          "name": "reserveOut",
          "type": "uint256"
        }
      ],
      "name": "getAmountOut",
      "outputs": [
        {
          "internalType": "uint256",
          "name": "amountOut",
          "type": "uint256"
        }
      ],
      "stateMutability": "pure",
      "type": "function"
    },
    {
      "inputs": [
        {
          "internalType": "address",
          "name": "_tokenA",
          "type": "address"
        },
        {
          "internalType": "address",
          "name": "_tokenB",
          "type": "address"
        }
      ],
      "name": "getPrice",
      "outputs": [
        {
          "internalType": "uint256",
          "name": "price",
          "type": "uint256"
        }
      ],
      "stateMutability": "view",
      "type": "function"
    },
    {
      "inputs": [],
      "name": "name",
      "outputs": [
        {
          "internalType": "string",
          "name": "",
          "type": "string"
        }
      ],
      "stateMutability": "view",
      "type": "function"
    },
    {
      "inputs": [
        {
          "internalType": "address",
          "name": "_tokenA",
          "type": "address"
        },
        {
          "internalType": "address",
          "name": "_tokenB",
          "type": "address"
        },
        {
          "internalType": "uint256",
          "name": "liquidity",
          "type": "uint256"
        },
        {
          "internalType": "uint256",
          "name": "amountAMin",
          "type": "uint256"
        },
        {
          "internalType": "uint256",
          "name": "amountBMin",
          "type": "uint256"
        },
        {
          "internalType": "address",
          "name": "to",
          "type": "address"
        },
        {
          "internalType": "uint256",
          "name": "deadline",
          "type": "uint256"
        }
      ],
      "name": "removeLiquidity",
      "outputs": [
        {
          "internalType": "uint256",
          "name": "amountA",
          "type": "uint256"
        },
        {
          "internalType": "uint256",
          "name": "amountB",
          "type": "uint256"
        }
      ],
      "stateMutability": "nonpayable",
      "type": "function"
    },
    {
      "inputs": [
        {
          "internalType": "uint256",
          "name": "amountIn",
          "type": "uint256"
        },
        {
          "internalType": "uint256",
          "name": "amountOutMin",
          "type": "uint256"
        },
        {
          "internalType": "address[]",
          "name": "path",
          "type": "address[]"
        },
        {
          "internalType": "address",
          "name": "to",
          "type": "address"
        },
        {
          "internalType": "uint256",
          "name": "deadline",
          "type": "uint256"
        }
      ],
      "name": "swapExactTokensForTokens",
      "outputs": [],
      "stateMutability": "nonpayable",
      "type": "function"
    },
    {
      "inputs": [],
      "name": "symbol",
      "outputs": [
        {
          "internalType": "string",
          "name": "",
          "type": "string"
        }
      ],
      "stateMutability": "view",
      "type": "function"
    },
    {
      "inputs": [],
      "name": "tokenA",
      "outputs": [
        {
          "internalType": "contract IERC20",
          "name": "",
          "type": "address"
        }
      ],
      "stateMutability": "view",
      "type": "function"
    },
    {
      "inputs": [],
      "name": "tokenB",
      "outputs": [
        {
          "internalType": "contract IERC20",
          "name": "",
          "type": "address"
        }
      ],
      "stateMutability": "view",
      "type": "function"
    },
    {
      "inputs": [],
      "name": "totalSupply",
      "outputs": [
        {
          "internalType": "uint256",
          "name": "",
          "type": "uint256"
        }
      ],
      "stateMutability": "view",
      "type": "function"
    },
    {
      "inputs": [
        {
          "internalType": "address",
          "name": "to",
          "type": "address"
        },
        {
          "internalType": "uint256",
          "name": "value",
          "type": "uint256"
        }
      ],
      "name": "transfer",
      "outputs": [
        {
          "internalType": "bool",
          "name": "",
          "type": "bool"
        }
      ],
      "stateMutability": "nonpayable",
      "type": "function"
    },
    {
      "inputs": [
        {
          "internalType": "address",
          "name": "from",
          "type": "address"
        },
        {
          "internalType": "address",
          "name": "to",
          "type": "address"
        },
        {
          "internalType": "uint256",
          "name": "value",
          "type": "uint256"
        }
      ],
      "name": "transferFrom",
      "outputs": [
        {
          "internalType": "bool",
          "name": "",
          "type": "bool"
        }
      ],
      "stateMutability": "nonpayable",
      "type": "function"
    }
  ],
  "bytecode": "0x60c060405234801561001057600080fd5b5060405161413b38038061413b833981810160405281019061003291906102b9565b6040518060400160405280601081526020017f53696d706c655377617020546f6b656e000000000000000000000000000000008152506040518060400160405280600381526020017f535354000000000000000000000000000000000000000000000000000000000081525081600390816100ad9190610549565b5080600490816100bd9190610549565b5050506100da67de4c0339ea0bfa9460c01b61025360201b60201c565b6100f4670481af8b80d9d47160c01b61025360201b60201c565b61010e6768c7efd07797b42060c01b61025360201b60201c565b61012867b771cd85dc7be62360c01b61025360201b60201c565b8073ffffffffffffffffffffffffffffffffffffffff168273ffffffffffffffffffffffffffffffffffffffff1603610196576040517f08c379a000000000000000000000000000000000000000000000000000000000815260040161018d90610678565b60405180910390fd5b6101b067d63c60e25eaa95bd60c01b61025360201b60201c565b6101ca67717561f875c5a71e60c01b61025360201b60201c565b8173ffffffffffffffffffffffffffffffffffffffff1660808173ffffffffffffffffffffffffffffffffffffffff168152505061021867b714776118f2e37860c01b61025360201b60201c565b8073ffffffffffffffffffffffffffffffffffffffff1660a08173ffffffffffffffffffffffffffffffffffffffff16815250505050610698565b50565b600080fd5b600073ffffffffffffffffffffffffffffffffffffffff82169050919050565b60006102868261025b565b9050919050565b6102968161027b565b81146102a157600080fd5b50565b6000815190506102b38161028d565b92915050565b600080604083850312156102d0576102cf610256565b5b60006102de858286016102a4565b92505060206102ef858286016102a4565b9150509250929050565b600081519050919050565b7f4e487b7100000000000000000000000000000000000000000000000000000000600052604160045260246000fd5b7f4e487b7100000000000000000000000000000000000000000000000000000000600052602260045260246000fd5b6000600282049050600182168061037a57607f821691505b60208210810361038d5761038c610333565b5b50919050565b60008190508160005260206000209050919050565b60006020601f8301049050919050565b600082821b905092915050565b6000600883026103f57fffffffffffffffffffffffffffffffffffffffffffffffffffffffffffffffff826103b8565b6103ff86836103b8565b95508019841693508086168417925050509392505050565b6000819050919050565b6000819050919050565b600061044661044161043c84610417565b610421565b610417565b9050919050565b6000819050919050565b6104608361042b565b61047461046c8261044d565b8484546103c5565b825550505050565b600090565b61048961047c565b610494818484610457565b505050565b5b818110156104b8576104ad600082610481565b60018101905061049a565b5050565b601f8211156104fd576104ce81610393565b6104d7846103a8565b810160208510156104e6578190505b6104fa6104f2856103a8565b830182610499565b50505b505050565b600082821c905092915050565b600061052060001984600802610502565b1980831691505092915050565b6000610539838361050f565b9150826002028217905092915050565b610552826102f9565b67ffffffffffffffff81111561056b5761056a610304565b5b6105758254610362565b6105808282856104bc565b600060209050601f8311600181146105b357600084156105a1578287015190505b6105ab858261052d565b865550610613565b601f1984166105c186610393565b60005b828110156105e9578489015182556001820191506020850194506020810190506105c4565b868310156106065784890151610602601f89168261050f565b8355505b6001600288020188555050505b505050505050565b600082825260208201905092915050565b7f4964656e746963616c20746f6b656e7300000000000000000000000000000000600082015250565b600061066260108361061b565b915061066d8261062c565b602082019050919050565b6000602082019050818103600083015261069181610655565b9050919050565b60805160a0516139f961074260003960008181610b8601528181610d4f01528181610dc101528181610fc6015281816112c50152818161151f0152818161185c01528181611a3c01528181611cdb01526122690152600081816105c601528181610cf901528181610e1701528181610f01015281816111290152818161126f0152818161145901528181611795015281816119e601528181611c1501526121a001526139f96000f3fe608060405234801561001057600080fd5b50600436106101005760003560e01c80635f64b55b11610097578063ac41865a11610066578063ac41865a146102c5578063baa2abde146102f5578063dd62ed3e14610326578063e8e337001461035657610100565b80635f64b55b1461022957806370a082311461024757806395d89b4114610277578063a9059cbb1461029557610100565b806318160ddd116100d357806318160ddd146101a157806323b872dd146101bf578063313ce567146101ef57806338ed17391461020d57610100565b8063054d50d41461010557806306fdde0314610135578063095ea7b3146101535780630fc63d1014610183575b600080fd5b61011f600480360381019061011a9190612c70565b610388565b60405161012c9190612cd2565b60405180910390f35b61013d61050f565b60405161014a9190612d7d565b60405180910390f35b61016d60048036038101906101689190612dfd565b6105a1565b60405161017a9190612e58565b60405180910390f35b61018b6105c4565b6040516101989190612ed2565b60405180910390f35b6101a96105e8565b6040516101b69190612cd2565b60405180910390f35b6101d960048036038101906101d49190612eed565b6105f2565b6040516101e69190612e58565b60405180910390f35b6101f7610621565b6040516102049190612f5c565b60405180910390f35b61022760048036038101906102229190612fdc565b61062a565b005b610231610b84565b60405161023e9190612ed2565b60405180910390f35b610261600480360381019061025c9190613076565b610ba8565b60405161026e9190612cd2565b60405180910390f35b61027f610bf0565b60405161028c9190612d7d565b60405180910390f35b6102af60048036038101906102aa9190612dfd565b610c82565b6040516102bc9190612e58565b60405180910390f35b6102df60048036038101906102da91906130a3565b610ca5565b6040516102ec9190612cd2565b60405180910390f35b61030f600480360381019061030a91906130e3565b61121a565b60405161031d929190613185565b60405180910390f35b610340600480360381019061033b91906130a3565b611908565b60405161034d9190612cd2565b60405180910390f35b610370600480360381019061036b91906131ae565b61198f565b60405161037f93929190613264565b60405180910390f35b600061039e67ac6953c50e6e930f60c01b6123b9565b6103b267cdcf1c0abc6f2e9460c01b6123b9565b6103c6675885f3238578314b60c01b6123b9565b6103da678eedb3e73b7de9e260c01b6123b9565b6000841161041d576040517f08c379a0000000000000000000000000000000000000000000000000000000008152600401610414906132e7565b60405180910390fd5b61043167a0983fa99db5d7c760c01b6123b9565b61044567a9c3811060fb3e6e60c01b6123b9565b610459671d49c8fffb1d029760c01b6123b9565b61046d67379f1eb63ced9a7560c01b6123b9565b60008311801561047d5750600082115b6104bc576040517f08c379a00000000000000000000000000000000000000000000000000000000081526004016104b390613353565b60405180910390fd5b6104d06709af7344964fd4c360c01b6123b9565b6104e467e087c80e2195a40260c01b6123b9565b82846104f091906133a2565b82856104fc91906133d6565b6105069190613447565b90509392505050565b60606003805461051e906134a7565b80601f016020809104026020016040519081016040528092919081815260200182805461054a906134a7565b80156105975780601f1061056c57610100808354040283529160200191610597565b820191906000526020600020905b81548152906001019060200180831161057a57829003601f168201915b5050505050905090565b6000806105ac6123bc565b90506105b98185856123c4565b600191505092915050565b7f000000000000000000000000000000000000000000000000000000000000000081565b6000600254905090565b6000806105fd6123bc565b905061060a8582856123d6565b61061585858561246b565b60019150509392505050565b60006012905090565b61063e676e3024e59e4f15a360c01b6123b9565b61065267405e358a5865d0e660c01b6123b9565b61066667d05fccc057902f9360c01b6123b9565b61067a679cdcf7476cb396d760c01b6123b9565b804211156106bd576040517f08c379a00000000000000000000000000000000000000000000000000000000081526004016106b490613524565b60405180910390fd5b6106d1673533e7f29ebe7f8460c01b6123b9565b6106e5676325360fe0c4d0ac60c01b6123b9565b6106f9677c51c209e99113bb60c01b6123b9565b61070d67efd7883d02733ab260c01b6123b9565b60028484905014610753576040517f08c379a000000000000000000000000000000000000000000000000000000000815260040161074a90613590565b60405180910390fd5b6107676778208ad466f7895360c01b6123b9565b61077b676f33d433a5ad8ec760c01b6123b9565b61078f67f55d09239abc5a7560c01b6123b9565b6000848460008181106107a5576107a46135b0565b5b90506020020160208101906107ba9190613076565b90506107d067b408d1d764f1831a60c01b6123b9565b6107e4674f016c63c341f11560c01b6123b9565b6000858560018181106107fa576107f96135b0565b5b905060200201602081019061080f9190613076565b90506108256796a0dd4f4a396d6260c01b6123b9565b61083967f8b6bfce52c0c87660c01b6123b9565b60008273ffffffffffffffffffffffffffffffffffffffff166370a08231306040518263ffffffff1660e01b815260040161087491906135ee565b602060405180830381865afa158015610891573d6000803e3d6000fd5b505050506040513d601f19601f820116820180604052508101906108b5919061361e565b90506108cb6704cafcc66273c44660c01b6123b9565b6108df6768b70100173ca50560c01b6123b9565b60008273ffffffffffffffffffffffffffffffffffffffff166370a08231306040518263ffffffff1660e01b815260040161091a91906135ee565b602060405180830381865afa158015610937573d6000803e3d6000fd5b505050506040513d601f19601f8201168201806040525081019061095b919061361e565b90506109716793bec06a4c519d2a60c01b6123b9565b61098567858f2a888f88b26660c01b6123b9565b60006109928b8484610388565b90506109a867257a1793216be56260c01b6123b9565b6109bc67f5d7239a6b8d443e60c01b6123b9565b6109d067e16000140fff2d1460c01b6123b9565b89811015610a13576040517f08c379a0000000000000000000000000000000000000000000000000000000008152600401610a0a90613697565b60405180910390fd5b610a27670c2ac821c1e8b2de60c01b6123b9565b610a3b671d2f4b54f31aef2e60c01b6123b9565b610a4f6734fb8832ca2fa30860c01b6123b9565b8473ffffffffffffffffffffffffffffffffffffffff166323b872dd33308e6040518463ffffffff1660e01b8152600401610a8c939291906136b7565b6020604051808303816000875af1158015610aab573d6000803e3d6000fd5b505050506040513d601f19601f82011682018060405250810190610acf919061371a565b50610ae467041ff01824c44b6460c01b6123b9565b610af867887fe9cae6d5db0560c01b6123b9565b8373ffffffffffffffffffffffffffffffffffffffff1663a9059cbb88836040518363ffffffff1660e01b8152600401610b33929190613747565b6020604051808303816000875af1158015610b52573d6000803e3d6000fd5b505050506040513d601f19601f82011682018060405250810190610b76919061371a565b505050505050505050505050565b7f000000000000000000000000000000000000000000000000000000000000000081565b60008060008373ffffffffffffffffffffffffffffffffffffffff1673ffffffffffffffffffffffffffffffffffffffff168152602001908152602001600020549050919050565b606060048054610bff906134a7565b80601f0160208091040260200160405190810160405280929190818152602001828054610c2b906134a7565b8015610c785780601f10610c4d57610100808354040283529160200191610c78565b820191906000526020600020905b815481529060010190602001808311610c5b57829003601f168201915b5050505050905090565b600080610c8d6123bc565b9050610c9a81858561246b565b600191505092915050565b6000610cbb67c1f6e6128f74d94360c01b6123b9565b610ccf6744a247d23c1afea260c01b6123b9565b610ce367a4fe71c3f304bc4c60c01b6123b9565b610cf7674ffca05d7e3dc5b660c01b6123b9565b7f000000000000000000000000000000000000000000000000000000000000000073ffffffffffffffffffffffffffffffffffffffff168373ffffffffffffffffffffffffffffffffffffffff16148015610d9d57507f000000000000000000000000000000000000000000000000000000000000000073ffffffffffffffffffffffffffffffffffffffff168273ffffffffffffffffffffffffffffffffffffffff16145b8015610db95750610db8679354bf53435d4ab260c01b61255f565b5b80610e8257507f000000000000000000000000000000000000000000000000000000000000000073ffffffffffffffffffffffffffffffffffffffff168373ffffffffffffffffffffffffffffffffffffffff16148015610e6557507f000000000000000000000000000000000000000000000000000000000000000073ffffffffffffffffffffffffffffffffffffffff168273ffffffffffffffffffffffffffffffffffffffff16145b8015610e815750610e8067132c532717d0ef0b60c01b61255f565b5b5b610ec1576040517f08c379a0000000000000000000000000000000000000000000000000000000008152600401610eb8906137bc565b60405180910390fd5b610ed5673b3bed2b862ac7e660c01b6123b9565b610ee96712c231baeb190a6160c01b6123b9565b610efd67c88df571b7d1daaa60c01b6123b9565b60007f000000000000000000000000000000000000000000000000000000000000000073ffffffffffffffffffffffffffffffffffffffff166370a08231306040518263ffffffff1660e01b8152600401610f5891906135ee565b602060405180830381865afa158015610f75573d6000803e3d6000fd5b505050506040513d601f19601f82011682018060405250810190610f99919061361e565b9050610fae6657c4449d2cf67160c01b6123b9565b610fc267bf2192ac949de63b60c01b6123b9565b60007f000000000000000000000000000000000000000000000000000000000000000073ffffffffffffffffffffffffffffffffffffffff166370a08231306040518263ffffffff1660e01b815260040161101d91906135ee565b602060405180830381865afa15801561103a573d6000803e3d6000fd5b505050506040513d601f19601f8201168201806040525081019061105e919061361e565b90506110746754375829b8fe62a760c01b6123b9565b61108867fb7c01b86170446a60c01b6123b9565b61109c672566956bf7ecde6560c01b6123b9565b6000821180156110ac5750600081115b6110eb576040517f08c379a00000000000000000000000000000000000000000000000000000000081526004016110e290613353565b60405180910390fd5b6110ff67e1a579da454312af60c01b6123b9565b611113671fa928743a1b30b160c01b6123b9565b611127678673484ba851a88860c01b6123b9565b7f000000000000000000000000000000000000000000000000000000000000000073ffffffffffffffffffffffffffffffffffffffff168573ffffffffffffffffffffffffffffffffffffffff16036111c85761118e677bb59c3d51bffa3060c01b6123b9565b6111a2679f1dabb75941e87d60c01b6123b9565b81670de0b6b3a7640000826111b791906133d6565b6111c19190613447565b9250611212565b6111dc678e6b8f14a83d099560c01b6123b9565b6111f06704e60e1526d0b97b60c01b6123b9565b80670de0b6b3a76400008361120591906133d6565b61120f9190613447565b92505b505092915050565b6000806112316758639b0906b728b260c01b6123b9565b611245676c09d9037812c58860c01b6123b9565b6112596719e305f2028516d260c01b6123b9565b61126d6798ebef6f068f69db60c01b6123b9565b7f000000000000000000000000000000000000000000000000000000000000000073ffffffffffffffffffffffffffffffffffffffff168973ffffffffffffffffffffffffffffffffffffffff1614801561131357507f000000000000000000000000000000000000000000000000000000000000000073ffffffffffffffffffffffffffffffffffffffff168873ffffffffffffffffffffffffffffffffffffffff16145b611352576040517f08c379a0000000000000000000000000000000000000000000000000000000008152600401611349906137bc565b60405180910390fd5b6113666752133d8aa612606a60c01b6123b9565b61137a676391f8c6fb192ee160c01b6123b9565b61138e671b7274beec9d851b60c01b6123b9565b6113a2670f0d5cf5ad052da060c01b6123b9565b824211156113e5576040517f08c379a00000000000000000000000000000000000000000000000000000000081526004016113dc90613524565b60405180910390fd5b6113f967068af7b83bb72a8060c01b6123b9565b61140d679bbaa8bf651249d760c01b6123b9565b6114216751cd2c38db45d60c60c01b6123b9565b600061142b6105e8565b905061144167f4d700ec525ad7d460c01b6123b9565b611455678a87390ec0343e4760c01b6123b9565b60007f000000000000000000000000000000000000000000000000000000000000000073ffffffffffffffffffffffffffffffffffffffff166370a08231306040518263ffffffff1660e01b81526004016114b091906135ee565b602060405180830381865afa1580156114cd573d6000803e3d6000fd5b505050506040513d601f19601f820116820180604052508101906114f1919061361e565b9050611507677c8b6fd45c7b56cb60c01b6123b9565b61151b67e8cb8b1a9bab9b1c60c01b6123b9565b60007f000000000000000000000000000000000000000000000000000000000000000073ffffffffffffffffffffffffffffffffffffffff166370a08231306040518263ffffffff1660e01b815260040161157691906135ee565b602060405180830381865afa158015611593573d6000803e3d6000fd5b505050506040513d601f19601f820116820180604052508101906115b7919061361e565b90506115cd6797a2d87be39e2b3d60c01b6123b9565b82828b6115da91906133d6565b6115e49190613447565b94506115fa671a354bf5928b059660c01b6123b9565b82818b61160791906133d6565b6116119190613447565b9350611627674434da9de4144ca260c01b6123b9565b61163b674f19cd48fc08acc560c01b6123b9565b61164f67a6fe4812e1a38b9f60c01b6123b9565b88851015611692576040517f08c379a000000000000000000000000000000000000000000000000000000000815260040161168990613828565b60405180910390fd5b6116a66709faaf0140573e5660c01b6123b9565b6116ba6766667addcda27a7060c01b6123b9565b6116ce67d50b9ae13c0fdba560c01b6123b9565b6116e26751ecbbdd8d2d395960c01b6123b9565b87841015611725576040517f08c379a000000000000000000000000000000000000000000000000000000000815260040161171c90613894565b60405180910390fd5b61173967720a070a500347ad60c01b6123b9565b61174d67bf4ba7aeddd19bb760c01b6123b9565b61176167362efdea485fa7c760c01b6123b9565b61176b338b61256a565b61177f67a7a3c8acfd5fe42060c01b6123b9565b61179367af245a587fccf07660c01b6123b9565b7f000000000000000000000000000000000000000000000000000000000000000073ffffffffffffffffffffffffffffffffffffffff1663a9059cbb88876040518363ffffffff1660e01b81526004016117ee929190613747565b6020604051808303816000875af115801561180d573d6000803e3d6000fd5b505050506040513d601f19601f82011682018060405250810190611831919061371a565b50611846675c968199e92b661b60c01b6123b9565b61185a67345a17214faabefc60c01b6123b9565b7f000000000000000000000000000000000000000000000000000000000000000073ffffffffffffffffffffffffffffffffffffffff1663a9059cbb88866040518363ffffffff1660e01b81526004016118b5929190613747565b6020604051808303816000875af11580156118d4573d6000803e3d6000fd5b505050506040513d601f19601f820116820180604052508101906118f8919061371a565b5050505097509795505050505050565b6000600160008473ffffffffffffffffffffffffffffffffffffffff1673ffffffffffffffffffffffffffffffffffffffff16815260200190815260200160002060008373ffffffffffffffffffffffffffffffffffffffff1673ffffffffffffffffffffffffffffffffffffffff16815260200190815260200160002054905092915050565b60008060006119a867a45d7511783c0ac160c01b6123b9565b6119bc672a9c90efd50af51360c01b6123b9565b6119d06795120868d56577ac60c01b6123b9565b6119e4676b767fada32f864e60c01b6123b9565b7f000000000000000000000000000000000000000000000000000000000000000073ffffffffffffffffffffffffffffffffffffffff168b73ffffffffffffffffffffffffffffffffffffffff16148015611a8a57507f000000000000000000000000000000000000000000000000000000000000000073ffffffffffffffffffffffffffffffffffffffff168a73ffffffffffffffffffffffffffffffffffffffff16145b611ac9576040517f08c379a0000000000000000000000000000000000000000000000000000000008152600401611ac0906137bc565b60405180910390fd5b611add67990f8c26950ba0b360c01b6123b9565b611af16783818befb621cc2f60c01b6123b9565b611b0567ca56c97d81d5091860c01b6123b9565b611b1967f886591378cb829860c01b6123b9565b83421115611b5c576040517f08c379a0000000000000000000000000000000000000000000000000000000008152600401611b5390613524565b60405180910390fd5b611b706777ad270560cd0a1760c01b6123b9565b611b84671b476b593281ac5460c01b6123b9565b611b98672c888d4b77aea01160c01b6123b9565b6000611ba26105e8565b9050611bb86743b41cb0904f34a960c01b6123b9565b611bcc671a63ac4460a2a9fe60c01b6123b9565b6000811115611fe357611be967e99838ea45ce653960c01b6123b9565b611bfd6776e3305d3a26759860c01b6123b9565b611c1167539dfa31ef4eb71360c01b6123b9565b60007f000000000000000000000000000000000000000000000000000000000000000073ffffffffffffffffffffffffffffffffffffffff166370a08231306040518263ffffffff1660e01b8152600401611c6c91906135ee565b602060405180830381865afa158015611c89573d6000803e3d6000fd5b505050506040513d601f19601f82011682018060405250810190611cad919061361e565b9050611cc3674d326934de53a9c160c01b6123b9565b611cd7673c41bc41d7b1ba2e60c01b6123b9565b60007f000000000000000000000000000000000000000000000000000000000000000073ffffffffffffffffffffffffffffffffffffffff166370a08231306040518263ffffffff1660e01b8152600401611d3291906135ee565b602060405180830381865afa158015611d4f573d6000803e3d6000fd5b505050506040513d601f19601f82011682018060405250810190611d73919061361e565b9050611d896739e2050a449fbc8a60c01b6123b9565b611d9d67ba7d8d97adbad74560c01b6123b9565b600082828e611dac91906133d6565b611db69190613447565b9050611dcc679b397cf8c35218c160c01b6123b9565b611de067ff2be08511afa2a860c01b6123b9565b8b8111611ec157611dfb67319fba471a8cc5be60c01b6123b9565b611e0f67e7b6d90374b10eb760c01b6123b9565b611e2367cb0671f5aa3bac2160c01b6123b9565b611e3767a8d55ab8b669230560c01b6123b9565b89811015611e7a576040517f08c379a0000000000000000000000000000000000000000000000000000000008152600401611e7190613900565b60405180910390fd5b611e8e6711098e860596184d60c01b6123b9565b611ea267751f68bf6863221860c01b6123b9565b8c9650611eb9676fba110964acb85860c01b6123b9565b809550611fdb565b611ed5670f845ef0102dc59b60c01b6123b9565b611ee967991acc36c1983c7260c01b6123b9565b611efd675cbce2991e6287e160c01b6123b9565b600082848e611f0c91906133d6565b611f169190613447565b9050611f2c670fe84fce5e420d3c60c01b6123b9565b611f4067c0e49102b3a21e1b60c01b6123b9565b611f5467f5f146311e19d6c660c01b6123b9565b8b811015611f97576040517f08c379a0000000000000000000000000000000000000000000000000000000008152600401611f8e9061396c565b60405180910390fd5b611fab67c3848f8cbf7ad77e60c01b6123b9565b611fbf6748a9710a12b1a03460c01b6123b9565b809750611fd667d8e3c03a5bac52a760c01b6123b9565b8c9650505b505050612050565b611ff767537973b39607c17460c01b6123b9565b61200b67a1cdc0870fccce5160c01b6123b9565b899350612022678e0a93a743a8951760c01b6123b9565b889250612039670128cedc8aa53cef60c01b6123b9565b61204d838561204891906133d6565b6125ec565b91505b61206467d02b23d745ab92b760c01b6123b9565b61207867bbc8015398ad187f60c01b6123b9565b61208c67fb68251308a1e27360c01b6123b9565b878410156120cf576040517f08c379a00000000000000000000000000000000000000000000000000000000081526004016120c690613828565b60405180910390fd5b6120e367a0e2fba29532beb060c01b6123b9565b6120f7670660a7b23cadb9ee60c01b6123b9565b61210b6704fe983fc27dca1f60c01b6123b9565b61211f67d0e43fff35460c3360c01b6123b9565b86831015612162576040517f08c379a000000000000000000000000000000000000000000000000000000000815260040161215990613894565b60405180910390fd5b61217667ed2698a894be708f60c01b6123b9565b61218a67846b7e285b4153fe60c01b6123b9565b61219e67bc10133a6e83359f60c01b6123b9565b7f000000000000000000000000000000000000000000000000000000000000000073ffffffffffffffffffffffffffffffffffffffff166323b872dd3330876040518463ffffffff1660e01b81526004016121fb939291906136b7565b6020604051808303816000875af115801561221a573d6000803e3d6000fd5b505050506040513d601f19601f8201168201806040525081019061223e919061371a565b50612253678b87016cfd9014e060c01b6123b9565b612267671cc65e7c339166e460c01b6123b9565b7f000000000000000000000000000000000000000000000000000000000000000073ffffffffffffffffffffffffffffffffffffffff166323b872dd3330866040518463ffffffff1660e01b81526004016122c4939291906136b7565b6020604051808303816000875af11580156122e3573d6000803e3d6000fd5b505050506040513d601f19601f82011682018060405250810190612307919061371a565b5061231c6755d2831c92cd25df60c01b6123b9565b600082118061233b575061233a672c4628a27c7ac69960c01b6127ab565b5b80156123575750612356678c4bb674f936199860c01b61255f565b5b6123745761236f838561236a91906133d6565b6125ec565b612376565b815b915061238c67eaf9c392eb531b8f60c01b6123b9565b6123a067c2ec64b3fdd2fd5260c01b6123b9565b6123aa86836127b2565b50985098509895505050505050565b50565b600033905090565b6123d18383836001612834565b505050565b60006123e28484611908565b90507fffffffffffffffffffffffffffffffffffffffffffffffffffffffffffffffff8110156124655781811015612455578281836040517ffb8f41b200000000000000000000000000000000000000000000000000000000815260040161244c9392919061398c565b60405180910390fd5b61246484848484036000612834565b5b50505050565b600073ffffffffffffffffffffffffffffffffffffffff168373ffffffffffffffffffffffffffffffffffffffff16036124dd5760006040517f96c6fd1e0000000000000000000000000000000000000000000000000000000081526004016124d491906135ee565b60405180910390fd5b600073ffffffffffffffffffffffffffffffffffffffff168273ffffffffffffffffffffffffffffffffffffffff160361254f5760006040517fec442f0500000000000000000000000000000000000000000000000000000000815260040161254691906135ee565b60405180910390fd5b61255a838383612a0b565b505050565b600060019050919050565b600073ffffffffffffffffffffffffffffffffffffffff168273ffffffffffffffffffffffffffffffffffffffff16036125dc5760006040517f96c6fd1e0000000000000000000000000000000000000000000000000000000081526004016125d391906135ee565b60405180910390fd5b6125e882600083612a0b565b5050565b600061260267c30bc7ff812aa81860c01b6123b9565b61261667cc07c2840bfc4d1660c01b6123b9565b61262a676ae6efa36c300c4760c01b6123b9565b600382111561272f57612647670260282ad32205cc60c01b6123b9565b61265b678bd5026a09cd7b8160c01b6123b9565b819050612672676f1579ad4027423560c01b6123b9565b61268667c6defeb7623014b260c01b6123b9565b600060016002846126979190613447565b6126a191906133a2565b90506126b7674b4cac09b4eede4e60c01b6123b9565b6126cb67ce9bb4d6cb864cca60c01b6123b9565b5b81811015612729576126e86781bdd2e70ef5169e60c01b6123b9565b8091506126ff6744a33cfaa34b41dd60c01b6123b9565b600281828561270e9190613447565b61271891906133a2565b6127229190613447565b90506126cc565b506127a6565b61274367b090d1109ad842b460c01b6123b9565b6127576757a3cb637673b39e60c01b6123b9565b60008214612790576127736714df616ea02bd30160c01b6123b9565b61278767c2ddba34f9423f1d60c01b6123b9565b600190506127a5565b6127a467abffc665f2ce569460c01b6123b9565b5b5b919050565b6000919050565b600073ffffffffffffffffffffffffffffffffffffffff168273ffffffffffffffffffffffffffffffffffffffff16036128245760006040517fec442f0500000000000000000000000000000000000000000000000000000000815260040161281b91906135ee565b60405180910390fd5b61283060008383612a0b565b5050565b600073ffffffffffffffffffffffffffffffffffffffff168473ffffffffffffffffffffffffffffffffffffffff16036128a65760006040517fe602df0500000000000000000000000000000000000000000000000000000000815260040161289d91906135ee565b60405180910390fd5b600073ffffffffffffffffffffffffffffffffffffffff168373ffffffffffffffffffffffffffffffffffffffff16036129185760006040517f94280d6200000000000000000000000000000000000000000000000000000000815260040161290f91906135ee565b60405180910390fd5b81600160008673ffffffffffffffffffffffffffffffffffffffff1673ffffffffffffffffffffffffffffffffffffffff16815260200190815260200160002060008573ffffffffffffffffffffffffffffffffffffffff1673ffffffffffffffffffffffffffffffffffffffff168152602001908152602001600020819055508015612a05578273ffffffffffffffffffffffffffffffffffffffff168473ffffffffffffffffffffffffffffffffffffffff167f8c5be1e5ebec7d5bd14f71427d1e84f3dd0314c0f7b2291e5b200ac8c7c3b925846040516129fc9190612cd2565b60405180910390a35b50505050565b600073ffffffffffffffffffffffffffffffffffffffff168373ffffffffffffffffffffffffffffffffffffffff1603612a5d578060026000828254612a5191906133a2565b92505081905550612b30565b60008060008573ffffffffffffffffffffffffffffffffffffffff1673ffffffffffffffffffffffffffffffffffffffff16815260200190815260200160002054905081811015612ae9578381836040517fe450d38c000000000000000000000000000000000000000000000000000000008152600401612ae09392919061398c565b60405180910390fd5b8181036000808673ffffffffffffffffffffffffffffffffffffffff1673ffffffffffffffffffffffffffffffffffffffff16815260200190815260200160002081905550505b600073ffffffffffffffffffffffffffffffffffffffff168273ffffffffffffffffffffffffffffffffffffffff1603612b795780600260008282540392505081905550612bc6565b806000808473ffffffffffffffffffffffffffffffffffffffff1673ffffffffffffffffffffffffffffffffffffffff168152602001908152602001600020600082825401925050819055505b8173ffffffffffffffffffffffffffffffffffffffff168373ffffffffffffffffffffffffffffffffffffffff167fddf252ad1be2c89b69c2b068fc378daa952ba7f163c4a11628f55a4df523b3ef83604051612c239190612cd2565b60405180910390a3505050565b600080fd5b600080fd5b6000819050919050565b612c4d81612c3a565b8114612c5857600080fd5b50565b600081359050612c6a81612c44565b92915050565b600080600060608486031215612c8957612c88612c30565b5b6000612c9786828701612c5b565b9350506020612ca886828701612c5b565b9250506040612cb986828701612c5b565b9150509250925092565b612ccc81612c3a565b82525050565b6000602082019050612ce76000830184612cc3565b92915050565b600081519050919050565b600082825260208201905092915050565b60005b83811015612d27578082015181840152602081019050612d0c565b60008484015250505050565b6000601f19601f8301169050919050565b6000612d4f82612ced565b612d598185612cf8565b9350612d69818560208601612d09565b612d7281612d33565b840191505092915050565b60006020820190508181036000830152612d978184612d44565b905092915050565b600073ffffffffffffffffffffffffffffffffffffffff82169050919050565b6000612dca82612d9f565b9050919050565b612dda81612dbf565b8114612de557600080fd5b50565b600081359050612df781612dd1565b92915050565b60008060408385031215612e1457612e13612c30565b5b6000612e2285828601612de8565b9250506020612e3385828601612c5b565b9150509250929050565b60008115159050919050565b612e5281612e3d565b82525050565b6000602082019050612e6d6000830184612e49565b92915050565b6000819050919050565b6000612e98612e93612e8e84612d9f565b612e73565b612d9f565b9050919050565b6000612eaa82612e7d565b9050919050565b6000612ebc82612e9f565b9050919050565b612ecc81612eb1565b82525050565b6000602082019050612ee76000830184612ec3565b92915050565b600080600060608486031215612f0657612f05612c30565b5b6000612f1486828701612de8565b9350506020612f2586828701612de8565b9250506040612f3686828701612c5b565b9150509250925092565b600060ff82169050919050565b612f5681612f40565b82525050565b6000602082019050612f716000830184612f4d565b92915050565b600080fd5b600080fd5b600080fd5b60008083601f840112612f9c57612f9b612f77565b5b8235905067ffffffffffffffff811115612fb957612fb8612f7c565b5b602083019150836020820283011115612fd557612fd4612f81565b5b9250929050565b60008060008060008060a08789031215612ff957612ff8612c30565b5b600061300789828a01612c5b565b965050602061301889828a01612c5b565b955050604087013567ffffffffffffffff81111561303957613038612c35565b5b61304589828a01612f86565b9450945050606061305889828a01612de8565b925050608061306989828a01612c5b565b9150509295509295509295565b60006020828403121561308c5761308b612c30565b5b600061309a84828501612de8565b91505092915050565b600080604083850312156130ba576130b9612c30565b5b60006130c885828601612de8565b92505060206130d985828601612de8565b9150509250929050565b600080600080600080600060e0888a03121561310257613101612c30565b5b60006131108a828b01612de8565b97505060206131218a828b01612de8565b96505060406131328a828b01612c5b565b95505060606131438a828b01612c5b565b94505060806131548a828b01612c5b565b93505060a06131658a828b01612de8565b92505060c06131768a828b01612c5b565b91505092959891949750929550565b600060408201905061319a6000830185612cc3565b6131a76020830184612cc3565b9392505050565b600080600080600080600080610100898b0312156131cf576131ce612c30565b5b60006131dd8b828c01612de8565b98505060206131ee8b828c01612de8565b97505060406131ff8b828c01612c5b565b96505060606132108b828c01612c5b565b95505060806132218b828c01612c5b565b94505060a06132328b828c01612c5b565b93505060c06132438b828c01612de8565b92505060e06132548b828c01612c5b565b9150509295985092959890939650565b60006060820190506132796000830186612cc3565b6132866020830185612cc3565b6132936040830184612cc3565b949350505050565b7f5a65726f20696e70757400000000000000000000000000000000000000000000600082015250565b60006132d1600a83612cf8565b91506132dc8261329b565b602082019050919050565b60006020820190508181036000830152613300816132c4565b9050919050565b7f4e6f206c69717569646974790000000000000000000000000000000000000000600082015250565b600061333d600c83612cf8565b915061334882613307565b602082019050919050565b6000602082019050818103600083015261336c81613330565b9050919050565b7f4e487b7100000000000000000000000000000000000000000000000000000000600052601160045260246000fd5b60006133ad82612c3a565b91506133b883612c3a565b92508282019050808211156133d0576133cf613373565b5b92915050565b60006133e182612c3a565b91506133ec83612c3a565b92508282026133fa81612c3a565b9150828204841483151761341157613410613373565b5b5092915050565b7f4e487b7100000000000000000000000000000000000000000000000000000000600052601260045260246000fd5b600061345282612c3a565b915061345d83612c3a565b92508261346d5761346c613418565b5b828204905092915050565b7f4e487b7100000000000000000000000000000000000000000000000000000000600052602260045260246000fd5b600060028204905060018216806134bf57607f821691505b6020821081036134d2576134d1613478565b5b50919050565b7f4578706972656400000000000000000000000000000000000000000000000000600082015250565b600061350e600783612cf8565b9150613519826134d8565b602082019050919050565b6000602082019050818103600083015261353d81613501565b9050919050565b7f496e76616c696420706174680000000000000000000000000000000000000000600082015250565b600061357a600c83612cf8565b915061358582613544565b602082019050919050565b600060208201905081810360008301526135a98161356d565b9050919050565b7f4e487b7100000000000000000000000000000000000000000000000000000000600052603260045260246000fd5b6135e881612dbf565b82525050565b600060208201905061360360008301846135df565b92915050565b60008151905061361881612c44565b92915050565b60006020828403121561363457613633612c30565b5b600061364284828501613609565b91505092915050565b7f4f757470757420746f6f206c6f77000000000000000000000000000000000000600082015250565b6000613681600e83612cf8565b915061368c8261364b565b602082019050919050565b600060208201905081810360008301526136b081613674565b9050919050565b60006060820190506136cc60008301866135df565b6136d960208301856135df565b6136e66040830184612cc3565b949350505050565b6136f781612e3d565b811461370257600080fd5b50565b600081519050613714816136ee565b92915050565b6000602082840312156137305761372f612c30565b5b600061373e84828501613705565b91505092915050565b600060408201905061375c60008301856135df565b6137696020830184612cc3565b9392505050565b7f496e76616c696420746f6b656e73000000000000000000000000000000000000600082015250565b60006137a6600e83612cf8565b91506137b182613770565b602082019050919050565b600060208201905081810360008301526137d581613799565b9050919050565b7f41206e6f74206d696e0000000000000000000000000000000000000000000000600082015250565b6000613812600983612cf8565b915061381d826137dc565b602082019050919050565b6000602082019050818103600083015261384181613805565b9050919050565b7f42206e6f74206d696e0000000000000000000000000000000000000000000000600082015250565b600061387e600983612cf8565b915061388982613848565b602082019050919050565b600060208201905081810360008301526138ad81613871565b9050919050565b7f496e73756666696369656e742042000000000000000000000000000000000000600082015250565b60006138ea600e83612cf8565b91506138f5826138b4565b602082019050919050565b60006020820190508181036000830152613919816138dd565b9050919050565b7f496e73756666696369656e742041000000000000000000000000000000000000600082015250565b6000613956600e83612cf8565b915061396182613920565b602082019050919050565b6000602082019050818103600083015261398581613949565b9050919050565b60006060820190506139a160008301866135df565b6139ae6020830185612cc3565b6139bb6040830184612cc3565b94935050505056fea2646970667358221220d9e897251ddded5e4ee2b7efe0f5b19cedfe476a4c99ab6bc538dd591b3cbaae64736f6c634300081c0033",
  "linkReferences": {},
  "deployedLinkReferences": {}
}