{
  "_format": "hh-sol-artifact-1",
  "contractName": "SimpleSwap",
  "sourceName": "contracts/SimpleSwap.sol",
  "abi": [
    {
      "inputs": [
        {
          "internalType": "address",
          "name": "_tokenA",
          "type": "address"
        },
        {
          "internalType": "address",
          "name": "_tokenB",
          "type": "address"
        }
      ],
      "stateMutability": "nonpayable",
      "type": "constructor"
    },
    {
      "inputs": [
        {
          "internalType": "address",
          "name": "spender",
          "type": "address"
        },
        {
          "internalType": "uint256",
          "name": "allowance",
          "type": "uint256"
        },
        {
          "internalType": "uint256",
          "name": "needed",
          "type": "uint256"
        }
      ],
      "name": "ERC20InsufficientAllowance",
      "type": "error"
    },
    {
      "inputs": [
        {
          "internalType": "address",
          "name": "sender",
          "type": "address"
        },
        {
          "internalType": "uint256",
          "name": "balance",
          "type": "uint256"
        },
        {
          "internalType": "uint256",
          "name": "needed",
          "type": "uint256"
        }
      ],
      "name": "ERC20InsufficientBalance",
      "type": "error"
    },
    {
      "inputs": [
        {
          "internalType": "address",
          "name": "approver",
          "type": "address"
        }
      ],
      "name": "ERC20InvalidApprover",
      "type": "error"
    },
    {
      "inputs": [
        {
          "internalType": "address",
          "name": "receiver",
          "type": "address"
        }
      ],
      "name": "ERC20InvalidReceiver",
      "type": "error"
    },
    {
      "inputs": [
        {
          "internalType": "address",
          "name": "sender",
          "type": "address"
        }
      ],
      "name": "ERC20InvalidSender",
      "type": "error"
    },
    {
      "inputs": [
        {
          "internalType": "address",
          "name": "spender",
          "type": "address"
        }
      ],
      "name": "ERC20InvalidSpender",
      "type": "error"
    },
    {
      "anonymous": false,
      "inputs": [
        {
          "indexed": true,
          "internalType": "address",
          "name": "owner",
          "type": "address"
        },
        {
          "indexed": true,
          "internalType": "address",
          "name": "spender",
          "type": "address"
        },
        {
          "indexed": false,
          "internalType": "uint256",
          "name": "value",
          "type": "uint256"
        }
      ],
      "name": "Approval",
      "type": "event"
    },
    {
      "anonymous": false,
      "inputs": [
        {
          "indexed": true,
          "internalType": "address",
          "name": "from",
          "type": "address"
        },
        {
          "indexed": true,
          "internalType": "address",
          "name": "to",
          "type": "address"
        },
        {
          "indexed": false,
          "internalType": "uint256",
          "name": "value",
          "type": "uint256"
        }
      ],
      "name": "Transfer",
      "type": "event"
    },
    {
      "inputs": [
        {
          "internalType": "address",
          "name": "_tokenA",
          "type": "address"
        },
        {
          "internalType": "address",
          "name": "_tokenB",
          "type": "address"
        },
        {
          "internalType": "uint256",
          "name": "amountADesired",
          "type": "uint256"
        },
        {
          "internalType": "uint256",
          "name": "amountBDesired",
          "type": "uint256"
        },
        {
          "internalType": "uint256",
          "name": "amountAMin",
          "type": "uint256"
        },
        {
          "internalType": "uint256",
          "name": "amountBMin",
          "type": "uint256"
        },
        {
          "internalType": "address",
          "name": "to",
          "type": "address"
        },
        {
          "internalType": "uint256",
          "name": "deadline",
          "type": "uint256"
        }
      ],
      "name": "addLiquidity",
      "outputs": [
        {
          "internalType": "uint256",
          "name": "amountA",
          "type": "uint256"
        },
        {
          "internalType": "uint256",
          "name": "amountB",
          "type": "uint256"
        },
        {
          "internalType": "uint256",
          "name": "liquidity",
          "type": "uint256"
        }
      ],
      "stateMutability": "nonpayable",
      "type": "function"
    },
    {
      "inputs": [
        {
          "internalType": "address",
          "name": "owner",
          "type": "address"
        },
        {
          "internalType": "address",
          "name": "spender",
          "type": "address"
        }
      ],
      "name": "allowance",
      "outputs": [
        {
          "internalType": "uint256",
          "name": "",
          "type": "uint256"
        }
      ],
      "stateMutability": "view",
      "type": "function"
    },
    {
      "inputs": [
        {
          "internalType": "address",
          "name": "spender",
          "type": "address"
        },
        {
          "internalType": "uint256",
          "name": "value",
          "type": "uint256"
        }
      ],
      "name": "approve",
      "outputs": [
        {
          "internalType": "bool",
          "name": "",
          "type": "bool"
        }
      ],
      "stateMutability": "nonpayable",
      "type": "function"
    },
    {
      "inputs": [
        {
          "internalType": "address",
          "name": "account",
          "type": "address"
        }
      ],
      "name": "balanceOf",
      "outputs": [
        {
          "internalType": "uint256",
          "name": "",
          "type": "uint256"
        }
      ],
      "stateMutability": "view",
      "type": "function"
    },
    {
      "inputs": [],
      "name": "decimals",
      "outputs": [
        {
          "internalType": "uint8",
          "name": "",
          "type": "uint8"
        }
      ],
      "stateMutability": "view",
      "type": "function"
    },
    {
      "inputs": [
        {
          "internalType": "uint256",
          "name": "amountIn",
          "type": "uint256"
        },
        {
          "internalType": "uint256",
          "name": "reserveIn",
          "type": "uint256"
        },
        {
          "internalType": "uint256",
          "name": "reserveOut",
          "type": "uint256"
        }
      ],
      "name": "getAmountOut",
      "outputs": [
        {
          "internalType": "uint256",
          "name": "amountOut",
          "type": "uint256"
        }
      ],
      "stateMutability": "pure",
      "type": "function"
    },
    {
      "inputs": [],
      "name": "getPrice",
      "outputs": [
        {
          "internalType": "uint256",
          "name": "price",
          "type": "uint256"
        }
      ],
      "stateMutability": "view",
      "type": "function"
    },
    {
      "inputs": [],
      "name": "name",
      "outputs": [
        {
          "internalType": "string",
          "name": "",
          "type": "string"
        }
      ],
      "stateMutability": "view",
      "type": "function"
    },
    {
      "inputs": [
        {
          "internalType": "address",
          "name": "_tokenA",
          "type": "address"
        },
        {
          "internalType": "address",
          "name": "_tokenB",
          "type": "address"
        },
        {
          "internalType": "uint256",
          "name": "liquidity",
          "type": "uint256"
        },
        {
          "internalType": "uint256",
          "name": "amountAMin",
          "type": "uint256"
        },
        {
          "internalType": "uint256",
          "name": "amountBMin",
          "type": "uint256"
        },
        {
          "internalType": "address",
          "name": "to",
          "type": "address"
        },
        {
          "internalType": "uint256",
          "name": "deadline",
          "type": "uint256"
        }
      ],
      "name": "removeLiquidity",
      "outputs": [
        {
          "internalType": "uint256",
          "name": "amountA",
          "type": "uint256"
        },
        {
          "internalType": "uint256",
          "name": "amountB",
          "type": "uint256"
        }
      ],
      "stateMutability": "nonpayable",
      "type": "function"
    },
    {
      "inputs": [
        {
          "internalType": "uint256",
          "name": "amountIn",
          "type": "uint256"
        },
        {
          "internalType": "uint256",
          "name": "amountOutMin",
          "type": "uint256"
        },
        {
          "internalType": "address[]",
          "name": "path",
          "type": "address[]"
        },
        {
          "internalType": "address",
          "name": "to",
          "type": "address"
        },
        {
          "internalType": "uint256",
          "name": "deadline",
          "type": "uint256"
        }
      ],
      "name": "swapExactTokensForTokens",
      "outputs": [],
      "stateMutability": "nonpayable",
      "type": "function"
    },
    {
      "inputs": [],
      "name": "symbol",
      "outputs": [
        {
          "internalType": "string",
          "name": "",
          "type": "string"
        }
      ],
      "stateMutability": "view",
      "type": "function"
    },
    {
      "inputs": [],
      "name": "tokenA",
      "outputs": [
        {
          "internalType": "contract IERC20",
          "name": "",
          "type": "address"
        }
      ],
      "stateMutability": "view",
      "type": "function"
    },
    {
      "inputs": [],
      "name": "tokenB",
      "outputs": [
        {
          "internalType": "contract IERC20",
          "name": "",
          "type": "address"
        }
      ],
      "stateMutability": "view",
      "type": "function"
    },
    {
      "inputs": [],
      "name": "totalSupply",
      "outputs": [
        {
          "internalType": "uint256",
          "name": "",
          "type": "uint256"
        }
      ],
      "stateMutability": "view",
      "type": "function"
    },
    {
      "inputs": [
        {
          "internalType": "address",
          "name": "to",
          "type": "address"
        },
        {
          "internalType": "uint256",
          "name": "value",
          "type": "uint256"
        }
      ],
      "name": "transfer",
      "outputs": [
        {
          "internalType": "bool",
          "name": "",
          "type": "bool"
        }
      ],
      "stateMutability": "nonpayable",
      "type": "function"
    },
    {
      "inputs": [
        {
          "internalType": "address",
          "name": "from",
          "type": "address"
        },
        {
          "internalType": "address",
          "name": "to",
          "type": "address"
        },
        {
          "internalType": "uint256",
          "name": "value",
          "type": "uint256"
        }
      ],
      "name": "transferFrom",
      "outputs": [
        {
          "internalType": "bool",
          "name": "",
          "type": "bool"
        }
      ],
      "stateMutability": "nonpayable",
      "type": "function"
    }
  ],
  "bytecode": "0x60c060405234801561001057600080fd5b50604051613eb1380380613eb1833981810160405281019061003291906102b9565b6040518060400160405280601081526020017f53696d706c655377617020546f6b656e000000000000000000000000000000008152506040518060400160405280600381526020017f535354000000000000000000000000000000000000000000000000000000000081525081600390816100ad9190610549565b5080600490816100bd9190610549565b5050506100da67392b123677d74b1660c01b61025360201b60201c565b6100f4671187dcb6f27d0a9660c01b61025360201b60201c565b61010e67b409993fcdd8a9fe60c01b61025360201b60201c565b61012867de4c0339ea0bfa9460c01b61025360201b60201c565b8073ffffffffffffffffffffffffffffffffffffffff168273ffffffffffffffffffffffffffffffffffffffff1603610196576040517f08c379a000000000000000000000000000000000000000000000000000000000815260040161018d90610678565b60405180910390fd5b6101b0670481af8b80d9d47160c01b61025360201b60201c565b6101ca6768c7efd07797b42060c01b61025360201b60201c565b8173ffffffffffffffffffffffffffffffffffffffff1660808173ffffffffffffffffffffffffffffffffffffffff168152505061021867b771cd85dc7be62360c01b61025360201b60201c565b8073ffffffffffffffffffffffffffffffffffffffff1660a08173ffffffffffffffffffffffffffffffffffffffff16815250505050610698565b50565b600080fd5b600073ffffffffffffffffffffffffffffffffffffffff82169050919050565b60006102868261025b565b9050919050565b6102968161027b565b81146102a157600080fd5b50565b6000815190506102b38161028d565b92915050565b600080604083850312156102d0576102cf610256565b5b60006102de858286016102a4565b92505060206102ef858286016102a4565b9150509250929050565b600081519050919050565b7f4e487b7100000000000000000000000000000000000000000000000000000000600052604160045260246000fd5b7f4e487b7100000000000000000000000000000000000000000000000000000000600052602260045260246000fd5b6000600282049050600182168061037a57607f821691505b60208210810361038d5761038c610333565b5b50919050565b60008190508160005260206000209050919050565b60006020601f8301049050919050565b600082821b905092915050565b6000600883026103f57fffffffffffffffffffffffffffffffffffffffffffffffffffffffffffffffff826103b8565b6103ff86836103b8565b95508019841693508086168417925050509392505050565b6000819050919050565b6000819050919050565b600061044661044161043c84610417565b610421565b610417565b9050919050565b6000819050919050565b6104608361042b565b61047461046c8261044d565b8484546103c5565b825550505050565b600090565b61048961047c565b610494818484610457565b505050565b5b818110156104b8576104ad600082610481565b60018101905061049a565b5050565b601f8211156104fd576104ce81610393565b6104d7846103a8565b810160208510156104e6578190505b6104fa6104f2856103a8565b830182610499565b50505b505050565b600082821c905092915050565b600061052060001984600802610502565b1980831691505092915050565b6000610539838361050f565b9150826002028217905092915050565b610552826102f9565b67ffffffffffffffff81111561056b5761056a610304565b5b6105758254610362565b6105808282856104bc565b600060209050601f8311600181146105b357600084156105a1578287015190505b6105ab858261052d565b865550610613565b601f1984166105c186610393565b60005b828110156105e9578489015182556001820191506020850194506020810190506105c4565b868310156106065784890151610602601f89168261050f565b8355505b6001600288020188555050505b505050505050565b600082825260208201905092915050565b7f4964656e746963616c20746f6b656e7300000000000000000000000000000000600082015250565b600061066260108361061b565b915061066d8261062c565b602082019050919050565b6000602082019050818103600083015261069181610655565b9050919050565b60805160a0516137ae61070360003960008181610ba201528181610dd201528181610ff90152818161179501528181611a1c015261201a0152600081816105b401528181610d0c01528181610fac0152818161173f015281816119560152611f5101526137ae6000f3fe608060405234801561001057600080fd5b50600436106101005760003560e01c80635f64b55b11610097578063a9059cbb11610066578063a9059cbb146102b3578063baa2abde146102e3578063dd62ed3e14610314578063e8e337001461034457610100565b80635f64b55b1461022957806370a082311461024757806395d89b411461027757806398d5fdca1461029557610100565b806318160ddd116100d357806318160ddd146101a157806323b872dd146101bf578063313ce567146101ef57806338ed17391461020d57610100565b8063054d50d41461010557806306fdde0314610135578063095ea7b3146101535780630fc63d1014610183575b600080fd5b61011f600480360381019061011a9190612a25565b610376565b60405161012c9190612a87565b60405180910390f35b61013d6104fd565b60405161014a9190612b32565b60405180910390f35b61016d60048036038101906101689190612bb2565b61058f565b60405161017a9190612c0d565b60405180910390f35b61018b6105b2565b6040516101989190612c87565b60405180910390f35b6101a96105d6565b6040516101b69190612a87565b60405180910390f35b6101d960048036038101906101d49190612ca2565b6105e0565b6040516101e69190612c0d565b60405180910390f35b6101f761060f565b6040516102049190612d11565b60405180910390f35b61022760048036038101906102229190612d91565b610618565b005b610231610ba0565b60405161023e9190612c87565b60405180910390f35b610261600480360381019061025c9190612e2b565b610bc4565b60405161026e9190612a87565b60405180910390f35b61027f610c0c565b60405161028c9190612b32565b60405180910390f35b61029d610c9e565b6040516102aa9190612a87565b60405180910390f35b6102cd60048036038101906102c89190612bb2565b610f46565b6040516102da9190612c0d565b60405180910390f35b6102fd60048036038101906102f89190612e58565b610f69565b60405161030b929190612efa565b60405180910390f35b61032e60048036038101906103299190612f23565b611661565b60405161033b9190612a87565b60405180910390f35b61035e60048036038101906103599190612f63565b6116e8565b60405161036d93929190613019565b60405180910390f35b600061038c67ac6953c50e6e930f60c01b61216e565b6103a067cdcf1c0abc6f2e9460c01b61216e565b6103b4675885f3238578314b60c01b61216e565b6103c8678eedb3e73b7de9e260c01b61216e565b6000841161040b576040517f08c379a00000000000000000000000000000000000000000000000000000000081526004016104029061309c565b60405180910390fd5b61041f67a0983fa99db5d7c760c01b61216e565b61043367a9c3811060fb3e6e60c01b61216e565b610447671d49c8fffb1d029760c01b61216e565b61045b67379f1eb63ced9a7560c01b61216e565b60008311801561046b5750600082115b6104aa576040517f08c379a00000000000000000000000000000000000000000000000000000000081526004016104a190613108565b60405180910390fd5b6104be6709af7344964fd4c360c01b61216e565b6104d267e087c80e2195a40260c01b61216e565b82846104de9190613157565b82856104ea919061318b565b6104f491906131fc565b90509392505050565b60606003805461050c9061325c565b80601f01602080910402602001604051908101604052809291908181526020018280546105389061325c565b80156105855780601f1061055a57610100808354040283529160200191610585565b820191906000526020600020905b81548152906001019060200180831161056857829003601f168201915b5050505050905090565b60008061059a612171565b90506105a7818585612179565b600191505092915050565b7f000000000000000000000000000000000000000000000000000000000000000081565b6000600254905090565b6000806105eb612171565b90506105f885828561218b565b610603858585612220565b60019150509392505050565b60006012905090565b61062c67efd7883d02733ab260c01b61216e565b6106406778208ad466f7895360c01b61216e565b610654676f33d433a5ad8ec760c01b61216e565b61066867f55d09239abc5a7560c01b61216e565b804211156106ab576040517f08c379a00000000000000000000000000000000000000000000000000000000081526004016106a2906132d9565b60405180910390fd5b6106bf67b408d1d764f1831a60c01b61216e565b6106d3674f016c63c341f11560c01b61216e565b6106e76796a0dd4f4a396d6260c01b61216e565b6106fb67f8b6bfce52c0c87660c01b61216e565b60028484905014610741576040517f08c379a000000000000000000000000000000000000000000000000000000000815260040161073890613345565b60405180910390fd5b6107556704cafcc66273c44660c01b61216e565b6107696768b70100173ca50560c01b61216e565b61077d6793bec06a4c519d2a60c01b61216e565b60008484600081811061079357610792613365565b5b90506020020160208101906107a89190612e2b565b90506107be67858f2a888f88b26660c01b61216e565b6107d267257a1793216be56260c01b61216e565b6000858560018181106107e8576107e7613365565b5b90506020020160208101906107fd9190612e2b565b905061081367f5d7239a6b8d443e60c01b61216e565b61082767e16000140fff2d1460c01b61216e565b6000309050610840670c2ac821c1e8b2de60c01b61216e565b610854671d2f4b54f31aef2e60c01b61216e565b60008373ffffffffffffffffffffffffffffffffffffffff166370a08231836040518263ffffffff1660e01b815260040161088f91906133a3565b602060405180830381865afa1580156108ac573d6000803e3d6000fd5b505050506040513d601f19601f820116820180604052508101906108d091906133d3565b90506108e66734fb8832ca2fa30860c01b61216e565b6108fa67041ff01824c44b6460c01b61216e565b60008373ffffffffffffffffffffffffffffffffffffffff166370a08231846040518263ffffffff1660e01b815260040161093591906133a3565b602060405180830381865afa158015610952573d6000803e3d6000fd5b505050506040513d601f19601f8201168201806040525081019061097691906133d3565b905061098c67887fe9cae6d5db0560c01b61216e565b6109a067c1f6e6128f74d94360c01b61216e565b60006109ad8c8484610376565b90506109c36744a247d23c1afea260c01b61216e565b6109d767a4fe71c3f304bc4c60c01b61216e565b6109eb674ffca05d7e3dc5b660c01b61216e565b8a811015610a2e576040517f08c379a0000000000000000000000000000000000000000000000000000000008152600401610a259061344c565b60405180910390fd5b610a42679354bf53435d4ab260c01b61216e565b610a5667132c532717d0ef0b60c01b61216e565b610a6a673b3bed2b862ac7e660c01b61216e565b8573ffffffffffffffffffffffffffffffffffffffff166323b872dd33868f6040518463ffffffff1660e01b8152600401610aa79392919061346c565b6020604051808303816000875af1158015610ac6573d6000803e3d6000fd5b505050506040513d601f19601f82011682018060405250810190610aea91906134cf565b50610aff6712c231baeb190a6160c01b61216e565b610b1367c88df571b7d1daaa60c01b61216e565b8473ffffffffffffffffffffffffffffffffffffffff1663a9059cbb89836040518363ffffffff1660e01b8152600401610b4e9291906134fc565b6020604051808303816000875af1158015610b6d573d6000803e3d6000fd5b505050506040513d601f19601f82011682018060405250810190610b9191906134cf565b50505050505050505050505050565b7f000000000000000000000000000000000000000000000000000000000000000081565b60008060008373ffffffffffffffffffffffffffffffffffffffff1673ffffffffffffffffffffffffffffffffffffffff168152602001908152602001600020549050919050565b606060048054610c1b9061325c565b80601f0160208091040260200160405190810160405280929190818152602001828054610c479061325c565b8015610c945780601f10610c6957610100808354040283529160200191610c94565b820191906000526020600020905b815481529060010190602001808311610c7757829003601f168201915b5050505050905090565b6000610cb36657c4449d2cf67160c01b61216e565b610cc767bf2192ac949de63b60c01b61216e565b610cdb6754375829b8fe62a760c01b61216e565b6000309050610cf467fb7c01b86170446a60c01b61216e565b610d08672566956bf7ecde6560c01b61216e565b60007f000000000000000000000000000000000000000000000000000000000000000073ffffffffffffffffffffffffffffffffffffffff166370a08231836040518263ffffffff1660e01b8152600401610d6391906133a3565b602060405180830381865afa158015610d80573d6000803e3d6000fd5b505050506040513d601f19601f82011682018060405250810190610da491906133d3565b9050610dba67e1a579da454312af60c01b61216e565b610dce671fa928743a1b30b160c01b61216e565b60007f000000000000000000000000000000000000000000000000000000000000000073ffffffffffffffffffffffffffffffffffffffff166370a08231846040518263ffffffff1660e01b8152600401610e2991906133a3565b602060405180830381865afa158015610e46573d6000803e3d6000fd5b505050506040513d601f19601f82011682018060405250810190610e6a91906133d3565b9050610e80678673484ba851a88860c01b61216e565b610e94677bb59c3d51bffa3060c01b61216e565b610ea8679f1dabb75941e87d60c01b61216e565b600082118015610eb85750600081115b610ef7576040517f08c379a0000000000000000000000000000000000000000000000000000000008152600401610eee90613108565b60405180910390fd5b610f0b678e6b8f14a83d099560c01b61216e565b610f1f6704e60e1526d0b97b60c01b61216e565b81670de0b6b3a764000082610f34919061318b565b610f3e91906131fc565b935050505090565b600080610f51612171565b9050610f5e818585612220565b600191505092915050565b600080610f80676c09d9037812c58860c01b61216e565b610f946719e305f2028516d260c01b61216e565b610fa86798ebef6f068f69db60c01b61216e565b60007f00000000000000000000000000000000000000000000000000000000000000009050610fe16752133d8aa612606a60c01b61216e565b610ff5676391f8c6fb192ee160c01b61216e565b60007f0000000000000000000000000000000000000000000000000000000000000000905061102e671b7274beec9d851b60c01b61216e565b611042670f0d5cf5ad052da060c01b61216e565b61105667068af7b83bb72a8060c01b61216e565b8173ffffffffffffffffffffffffffffffffffffffff168b73ffffffffffffffffffffffffffffffffffffffff161480156110bc57508073ffffffffffffffffffffffffffffffffffffffff168a73ffffffffffffffffffffffffffffffffffffffff16145b6110fb576040517f08c379a00000000000000000000000000000000000000000000000000000000081526004016110f290613571565b60405180910390fd5b61110f679bbaa8bf651249d760c01b61216e565b6111236751cd2c38db45d60c60c01b61216e565b61113767f4d700ec525ad7d460c01b61216e565b61114b678a87390ec0343e4760c01b61216e565b8442111561118e576040517f08c379a0000000000000000000000000000000000000000000000000000000008152600401611185906132d9565b60405180910390fd5b6111a2677c8b6fd45c7b56cb60c01b61216e565b6111b667e8cb8b1a9bab9b1c60c01b61216e565b6111ca6797a2d87be39e2b3d60c01b61216e565b60003090506111e3671a354bf5928b059660c01b61216e565b6111f7674434da9de4144ca260c01b61216e565b60006112016105d6565b9050611217674f19cd48fc08acc560c01b61216e565b61122b67a6fe4812e1a38b9f60c01b61216e565b60008473ffffffffffffffffffffffffffffffffffffffff166370a08231846040518263ffffffff1660e01b815260040161126691906133a3565b602060405180830381865afa158015611283573d6000803e3d6000fd5b505050506040513d601f19601f820116820180604052508101906112a791906133d3565b90506112bd6709faaf0140573e5660c01b61216e565b6112d16766667addcda27a7060c01b61216e565b60008473ffffffffffffffffffffffffffffffffffffffff166370a08231856040518263ffffffff1660e01b815260040161130c91906133a3565b602060405180830381865afa158015611329573d6000803e3d6000fd5b505050506040513d601f19601f8201168201806040525081019061134d91906133d3565b905061136367d50b9ae13c0fdba560c01b61216e565b82828e611370919061318b565b61137a91906131fc565b97506113906751ecbbdd8d2d395960c01b61216e565b82818e61139d919061318b565b6113a791906131fc565b96506113bd67720a070a500347ad60c01b61216e565b6113d167bf4ba7aeddd19bb760c01b61216e565b6113e567362efdea485fa7c760c01b61216e565b8b881015611428576040517f08c379a000000000000000000000000000000000000000000000000000000000815260040161141f906135dd565b60405180910390fd5b61143c67a7a3c8acfd5fe42060c01b61216e565b61145067af245a587fccf07660c01b61216e565b611464675c968199e92b661b60c01b61216e565b61147867345a17214faabefc60c01b61216e565b8a8710156114bb576040517f08c379a00000000000000000000000000000000000000000000000000000000081526004016114b290613649565b60405180910390fd5b6114cf676e3024e59e4f15a360c01b61216e565b6114e367405e358a5865d0e660c01b61216e565b6114f767d05fccc057902f9360c01b61216e565b611501338e612314565b611515679cdcf7476cb396d760c01b61216e565b611529673533e7f29ebe7f8460c01b61216e565b8573ffffffffffffffffffffffffffffffffffffffff1663a9059cbb8b8a6040518363ffffffff1660e01b81526004016115649291906134fc565b6020604051808303816000875af1158015611583573d6000803e3d6000fd5b505050506040513d601f19601f820116820180604052508101906115a791906134cf565b506115bc676325360fe0c4d0ac60c01b61216e565b6115d0677c51c209e99113bb60c01b61216e565b8473ffffffffffffffffffffffffffffffffffffffff1663a9059cbb8b896040518363ffffffff1660e01b815260040161160b9291906134fc565b6020604051808303816000875af115801561162a573d6000803e3d6000fd5b505050506040513d601f19601f8201168201806040525081019061164e91906134cf565b5050505050505097509795505050505050565b6000600160008473ffffffffffffffffffffffffffffffffffffffff1673ffffffffffffffffffffffffffffffffffffffff16815260200190815260200160002060008373ffffffffffffffffffffffffffffffffffffffff1673ffffffffffffffffffffffffffffffffffffffff16815260200190815260200160002054905092915050565b600080600061170167d63c60e25eaa95bd60c01b61216e565b61171567717561f875c5a71e60c01b61216e565b61172967b714776118f2e37860c01b61216e565b61173d67a45d7511783c0ac160c01b61216e565b7f000000000000000000000000000000000000000000000000000000000000000073ffffffffffffffffffffffffffffffffffffffff168b73ffffffffffffffffffffffffffffffffffffffff161480156117e357507f000000000000000000000000000000000000000000000000000000000000000073ffffffffffffffffffffffffffffffffffffffff168a73ffffffffffffffffffffffffffffffffffffffff16145b611822576040517f08c379a000000000000000000000000000000000000000000000000000000000815260040161181990613571565b60405180910390fd5b611836672a9c90efd50af51360c01b61216e565b61184a6795120868d56577ac60c01b61216e565b61185e676b767fada32f864e60c01b61216e565b61187267990f8c26950ba0b360c01b61216e565b834211156118b5576040517f08c379a00000000000000000000000000000000000000000000000000000000081526004016118ac906132d9565b60405180910390fd5b6118c96783818befb621cc2f60c01b61216e565b6118dd67ca56c97d81d5091860c01b61216e565b6118f167f886591378cb829860c01b61216e565b600030905061190a6777ad270560cd0a1760c01b61216e565b61191e671b476b593281ac5460c01b61216e565b60006119286105d6565b905061193e672c888d4b77aea01160c01b61216e565b6119526743b41cb0904f34a960c01b61216e565b60007f000000000000000000000000000000000000000000000000000000000000000073ffffffffffffffffffffffffffffffffffffffff166370a08231846040518263ffffffff1660e01b81526004016119ad91906133a3565b602060405180830381865afa1580156119ca573d6000803e3d6000fd5b505050506040513d601f19601f820116820180604052508101906119ee91906133d3565b9050611a04671a63ac4460a2a9fe60c01b61216e565b611a1867e99838ea45ce653960c01b61216e565b60007f000000000000000000000000000000000000000000000000000000000000000073ffffffffffffffffffffffffffffffffffffffff166370a08231856040518263ffffffff1660e01b8152600401611a7391906133a3565b602060405180830381865afa158015611a90573d6000803e3d6000fd5b505050506040513d601f19601f82011682018060405250810190611ab491906133d3565b9050611aca6776e3305d3a26759860c01b61216e565b611ade67539dfa31ef4eb71360c01b61216e565b6000831115611d6757611afb674d326934de53a9c160c01b61216e565b611b0f673c41bc41d7b1ba2e60c01b61216e565b611b236739e2050a449fbc8a60c01b61216e565b600082828f611b32919061318b565b611b3c91906131fc565b9050611b5267ba7d8d97adbad74560c01b61216e565b611b66679b397cf8c35218c160c01b61216e565b8c8111611c4757611b8167ff2be08511afa2a860c01b61216e565b611b9567319fba471a8cc5be60c01b61216e565b611ba967e7b6d90374b10eb760c01b61216e565b611bbd67cb0671f5aa3bac2160c01b61216e565b8a811015611c00576040517f08c379a0000000000000000000000000000000000000000000000000000000008152600401611bf7906136b5565b60405180910390fd5b611c1467a8d55ab8b669230560c01b61216e565b611c286711098e860596184d60c01b61216e565b8d9750611c3f67751f68bf6863221860c01b61216e565b809650611d61565b611c5b676fba110964acb85860c01b61216e565b611c6f670f845ef0102dc59b60c01b61216e565b611c8367991acc36c1983c7260c01b61216e565b600082848f611c92919061318b565b611c9c91906131fc565b9050611cb2675cbce2991e6287e160c01b61216e565b611cc6670fe84fce5e420d3c60c01b61216e565b611cda67c0e49102b3a21e1b60c01b61216e565b8c811015611d1d576040517f08c379a0000000000000000000000000000000000000000000000000000000008152600401611d1490613721565b60405180910390fd5b611d3167f5f146311e19d6c660c01b61216e565b611d4567c3848f8cbf7ad77e60c01b61216e565b809850611d5c6748a9710a12b1a03460c01b61216e565b8d9750505b50611dd4565b611d7b67d8e3c03a5bac52a760c01b61216e565b611d8f67537973b39607c17460c01b61216e565b8c9650611da667a1cdc0870fccce5160c01b61216e565b8b9550611dbd678e0a93a743a8951760c01b61216e565b611dd18688611dcc919061318b565b612396565b94505b611de8670128cedc8aa53cef60c01b61216e565b611dfc67d02b23d745ab92b760c01b61216e565b611e1067bbc8015398ad187f60c01b61216e565b8a871015611e53576040517f08c379a0000000000000000000000000000000000000000000000000000000008152600401611e4a906135dd565b60405180910390fd5b611e6767fb68251308a1e27360c01b61216e565b611e7b67a0e2fba29532beb060c01b61216e565b611e8f670660a7b23cadb9ee60c01b61216e565b611ea36704fe983fc27dca1f60c01b61216e565b89861015611ee6576040517f08c379a0000000000000000000000000000000000000000000000000000000008152600401611edd90613649565b60405180910390fd5b611efa67d0e43fff35460c3360c01b61216e565b611f0e67ed2698a894be708f60c01b61216e565b611f2267846b7e285b4153fe60c01b61216e565b6000339050611f3b67bc10133a6e83359f60c01b61216e565b611f4f678b87016cfd9014e060c01b61216e565b7f000000000000000000000000000000000000000000000000000000000000000073ffffffffffffffffffffffffffffffffffffffff166323b872dd82878b6040518463ffffffff1660e01b8152600401611fac9392919061346c565b6020604051808303816000875af1158015611fcb573d6000803e3d6000fd5b505050506040513d601f19601f82011682018060405250810190611fef91906134cf565b50612004671cc65e7c339166e460c01b61216e565b6120186755d2831c92cd25df60c01b61216e565b7f000000000000000000000000000000000000000000000000000000000000000073ffffffffffffffffffffffffffffffffffffffff166323b872dd82878a6040518463ffffffff1660e01b81526004016120759392919061346c565b6020604051808303816000875af1158015612094573d6000803e3d6000fd5b505050506040513d601f19601f820116820180604052508101906120b891906134cf565b506120cd672c4628a27c7ac69960c01b61216e565b60008611806120ec57506120eb678c4bb674f936199860c01b612555565b5b8015612108575061210767eaf9c392eb531b8f60c01b61255c565b5b61212557612120878961211b919061318b565b612396565b612127565b855b955061213d67c2ec64b3fdd2fd5260c01b61216e565b6121516758639b0906b728b260c01b61216e565b61215b8a87612567565b5050505050985098509895505050505050565b50565b600033905090565b61218683838360016125e9565b505050565b60006121978484611661565b90507fffffffffffffffffffffffffffffffffffffffffffffffffffffffffffffffff81101561221a578181101561220a578281836040517ffb8f41b200000000000000000000000000000000000000000000000000000000815260040161220193929190613741565b60405180910390fd5b612219848484840360006125e9565b5b50505050565b600073ffffffffffffffffffffffffffffffffffffffff168373ffffffffffffffffffffffffffffffffffffffff16036122925760006040517f96c6fd1e00000000000000000000000000000000000000000000000000000000815260040161228991906133a3565b60405180910390fd5b600073ffffffffffffffffffffffffffffffffffffffff168273ffffffffffffffffffffffffffffffffffffffff16036123045760006040517fec442f050000000000000000000000000000000000000000000000000000000081526004016122fb91906133a3565b60405180910390fd5b61230f8383836127c0565b505050565b600073ffffffffffffffffffffffffffffffffffffffff168273ffffffffffffffffffffffffffffffffffffffff16036123865760006040517f96c6fd1e00000000000000000000000000000000000000000000000000000000815260040161237d91906133a3565b60405180910390fd5b612392826000836127c0565b5050565b60006123ac67c30bc7ff812aa81860c01b61216e565b6123c067cc07c2840bfc4d1660c01b61216e565b6123d4676ae6efa36c300c4760c01b61216e565b60038211156124d9576123f1670260282ad32205cc60c01b61216e565b612405678bd5026a09cd7b8160c01b61216e565b81905061241c676f1579ad4027423560c01b61216e565b61243067c6defeb7623014b260c01b61216e565b6000600160028461244191906131fc565b61244b9190613157565b9050612461674b4cac09b4eede4e60c01b61216e565b61247567ce9bb4d6cb864cca60c01b61216e565b5b818110156124d3576124926781bdd2e70ef5169e60c01b61216e565b8091506124a96744a33cfaa34b41dd60c01b61216e565b60028182856124b891906131fc565b6124c29190613157565b6124cc91906131fc565b9050612476565b50612550565b6124ed67b090d1109ad842b460c01b61216e565b6125016757a3cb637673b39e60c01b61216e565b6000821461253a5761251d6714df616ea02bd30160c01b61216e565b61253167c2ddba34f9423f1d60c01b61216e565b6001905061254f565b61254e67abffc665f2ce569460c01b61216e565b5b5b919050565b6000919050565b600060019050919050565b600073ffffffffffffffffffffffffffffffffffffffff168273ffffffffffffffffffffffffffffffffffffffff16036125d95760006040517fec442f050000000000000000000000000000000000000000000000000000000081526004016125d091906133a3565b60405180910390fd5b6125e5600083836127c0565b5050565b600073ffffffffffffffffffffffffffffffffffffffff168473ffffffffffffffffffffffffffffffffffffffff160361265b5760006040517fe602df0500000000000000000000000000000000000000000000000000000000815260040161265291906133a3565b60405180910390fd5b600073ffffffffffffffffffffffffffffffffffffffff168373ffffffffffffffffffffffffffffffffffffffff16036126cd5760006040517f94280d620000000000000000000000000000000000000000000000000000000081526004016126c491906133a3565b60405180910390fd5b81600160008673ffffffffffffffffffffffffffffffffffffffff1673ffffffffffffffffffffffffffffffffffffffff16815260200190815260200160002060008573ffffffffffffffffffffffffffffffffffffffff1673ffffffffffffffffffffffffffffffffffffffff1681526020019081526020016000208190555080156127ba578273ffffffffffffffffffffffffffffffffffffffff168473ffffffffffffffffffffffffffffffffffffffff167f8c5be1e5ebec7d5bd14f71427d1e84f3dd0314c0f7b2291e5b200ac8c7c3b925846040516127b19190612a87565b60405180910390a35b50505050565b600073ffffffffffffffffffffffffffffffffffffffff168373ffffffffffffffffffffffffffffffffffffffff16036128125780600260008282546128069190613157565b925050819055506128e5565b60008060008573ffffffffffffffffffffffffffffffffffffffff1673ffffffffffffffffffffffffffffffffffffffff1681526020019081526020016000205490508181101561289e578381836040517fe450d38c00000000000000000000000000000000000000000000000000000000815260040161289593929190613741565b60405180910390fd5b8181036000808673ffffffffffffffffffffffffffffffffffffffff1673ffffffffffffffffffffffffffffffffffffffff16815260200190815260200160002081905550505b600073ffffffffffffffffffffffffffffffffffffffff168273ffffffffffffffffffffffffffffffffffffffff160361292e578060026000828254039250508190555061297b565b806000808473ffffffffffffffffffffffffffffffffffffffff1673ffffffffffffffffffffffffffffffffffffffff168152602001908152602001600020600082825401925050819055505b8173ffffffffffffffffffffffffffffffffffffffff168373ffffffffffffffffffffffffffffffffffffffff167fddf252ad1be2c89b69c2b068fc378daa952ba7f163c4a11628f55a4df523b3ef836040516129d89190612a87565b60405180910390a3505050565b600080fd5b600080fd5b6000819050919050565b612a02816129ef565b8114612a0d57600080fd5b50565b600081359050612a1f816129f9565b92915050565b600080600060608486031215612a3e57612a3d6129e5565b5b6000612a4c86828701612a10565b9350506020612a5d86828701612a10565b9250506040612a6e86828701612a10565b9150509250925092565b612a81816129ef565b82525050565b6000602082019050612a9c6000830184612a78565b92915050565b600081519050919050565b600082825260208201905092915050565b60005b83811015612adc578082015181840152602081019050612ac1565b60008484015250505050565b6000601f19601f8301169050919050565b6000612b0482612aa2565b612b0e8185612aad565b9350612b1e818560208601612abe565b612b2781612ae8565b840191505092915050565b60006020820190508181036000830152612b4c8184612af9565b905092915050565b600073ffffffffffffffffffffffffffffffffffffffff82169050919050565b6000612b7f82612b54565b9050919050565b612b8f81612b74565b8114612b9a57600080fd5b50565b600081359050612bac81612b86565b92915050565b60008060408385031215612bc957612bc86129e5565b5b6000612bd785828601612b9d565b9250506020612be885828601612a10565b9150509250929050565b60008115159050919050565b612c0781612bf2565b82525050565b6000602082019050612c226000830184612bfe565b92915050565b6000819050919050565b6000612c4d612c48612c4384612b54565b612c28565b612b54565b9050919050565b6000612c5f82612c32565b9050919050565b6000612c7182612c54565b9050919050565b612c8181612c66565b82525050565b6000602082019050612c9c6000830184612c78565b92915050565b600080600060608486031215612cbb57612cba6129e5565b5b6000612cc986828701612b9d565b9350506020612cda86828701612b9d565b9250506040612ceb86828701612a10565b9150509250925092565b600060ff82169050919050565b612d0b81612cf5565b82525050565b6000602082019050612d266000830184612d02565b92915050565b600080fd5b600080fd5b600080fd5b60008083601f840112612d5157612d50612d2c565b5b8235905067ffffffffffffffff811115612d6e57612d6d612d31565b5b602083019150836020820283011115612d8a57612d89612d36565b5b9250929050565b60008060008060008060a08789031215612dae57612dad6129e5565b5b6000612dbc89828a01612a10565b9650506020612dcd89828a01612a10565b955050604087013567ffffffffffffffff811115612dee57612ded6129ea565b5b612dfa89828a01612d3b565b94509450506060612e0d89828a01612b9d565b9250506080612e1e89828a01612a10565b9150509295509295509295565b600060208284031215612e4157612e406129e5565b5b6000612e4f84828501612b9d565b91505092915050565b600080600080600080600060e0888a031215612e7757612e766129e5565b5b6000612e858a828b01612b9d565b9750506020612e968a828b01612b9d565b9650506040612ea78a828b01612a10565b9550506060612eb88a828b01612a10565b9450506080612ec98a828b01612a10565b93505060a0612eda8a828b01612b9d565b92505060c0612eeb8a828b01612a10565b91505092959891949750929550565b6000604082019050612f0f6000830185612a78565b612f1c6020830184612a78565b9392505050565b60008060408385031215612f3a57612f396129e5565b5b6000612f4885828601612b9d565b9250506020612f5985828601612b9d565b9150509250929050565b600080600080600080600080610100898b031215612f8457612f836129e5565b5b6000612f928b828c01612b9d565b9850506020612fa38b828c01612b9d565b9750506040612fb48b828c01612a10565b9650506060612fc58b828c01612a10565b9550506080612fd68b828c01612a10565b94505060a0612fe78b828c01612a10565b93505060c0612ff88b828c01612b9d565b92505060e06130098b828c01612a10565b9150509295985092959890939650565b600060608201905061302e6000830186612a78565b61303b6020830185612a78565b6130486040830184612a78565b949350505050565b7f5a65726f20696e70757400000000000000000000000000000000000000000000600082015250565b6000613086600a83612aad565b915061309182613050565b602082019050919050565b600060208201905081810360008301526130b581613079565b9050919050565b7f4e6f206c69717569646974790000000000000000000000000000000000000000600082015250565b60006130f2600c83612aad565b91506130fd826130bc565b602082019050919050565b60006020820190508181036000830152613121816130e5565b9050919050565b7f4e487b7100000000000000000000000000000000000000000000000000000000600052601160045260246000fd5b6000613162826129ef565b915061316d836129ef565b925082820190508082111561318557613184613128565b5b92915050565b6000613196826129ef565b91506131a1836129ef565b92508282026131af816129ef565b915082820484148315176131c6576131c5613128565b5b5092915050565b7f4e487b7100000000000000000000000000000000000000000000000000000000600052601260045260246000fd5b6000613207826129ef565b9150613212836129ef565b925082613222576132216131cd565b5b828204905092915050565b7f4e487b7100000000000000000000000000000000000000000000000000000000600052602260045260246000fd5b6000600282049050600182168061327457607f821691505b6020821081036132875761328661322d565b5b50919050565b7f4578706972656400000000000000000000000000000000000000000000000000600082015250565b60006132c3600783612aad565b91506132ce8261328d565b602082019050919050565b600060208201905081810360008301526132f2816132b6565b9050919050565b7f496e76616c696420706174680000000000000000000000000000000000000000600082015250565b600061332f600c83612aad565b915061333a826132f9565b602082019050919050565b6000602082019050818103600083015261335e81613322565b9050919050565b7f4e487b7100000000000000000000000000000000000000000000000000000000600052603260045260246000fd5b61339d81612b74565b82525050565b60006020820190506133b86000830184613394565b92915050565b6000815190506133cd816129f9565b92915050565b6000602082840312156133e9576133e86129e5565b5b60006133f7848285016133be565b91505092915050565b7f4f757470757420746f6f206c6f77000000000000000000000000000000000000600082015250565b6000613436600e83612aad565b915061344182613400565b602082019050919050565b6000602082019050818103600083015261346581613429565b9050919050565b60006060820190506134816000830186613394565b61348e6020830185613394565b61349b6040830184612a78565b949350505050565b6134ac81612bf2565b81146134b757600080fd5b50565b6000815190506134c9816134a3565b92915050565b6000602082840312156134e5576134e46129e5565b5b60006134f3848285016134ba565b91505092915050565b60006040820190506135116000830185613394565b61351e6020830184612a78565b9392505050565b7f496e76616c696420746f6b656e73000000000000000000000000000000000000600082015250565b600061355b600e83612aad565b915061356682613525565b602082019050919050565b6000602082019050818103600083015261358a8161354e565b9050919050565b7f41206e6f74206d696e0000000000000000000000000000000000000000000000600082015250565b60006135c7600983612aad565b91506135d282613591565b602082019050919050565b600060208201905081810360008301526135f6816135ba565b9050919050565b7f42206e6f74206d696e0000000000000000000000000000000000000000000000600082015250565b6000613633600983612aad565b915061363e826135fd565b602082019050919050565b6000602082019050818103600083015261366281613626565b9050919050565b7f496e73756666696369656e742042000000000000000000000000000000000000600082015250565b600061369f600e83612aad565b91506136aa82613669565b602082019050919050565b600060208201905081810360008301526136ce81613692565b9050919050565b7f496e73756666696369656e742041000000000000000000000000000000000000600082015250565b600061370b600e83612aad565b9150613716826136d5565b602082019050919050565b6000602082019050818103600083015261373a816136fe565b9050919050565b60006060820190506137566000830186613394565b6137636020830185612a78565b6137706040830184612a78565b94935050505056fea26469706673582212209f2c972d58cd346839ca03b7d4ad95c3e8765b886e56a004f8ba3e60deef58bb64736f6c634300081c0033",
  "linkReferences": {},
  "deployedLinkReferences": {}
}