{"contracts/SimpleSwap.sol":{"SimpleSwap":{"abi":[{"inputs":[{"internalType":"address","name":"_tokenA","type":"address"},{"internalType":"address","name":"_tokenB","type":"address"}],"stateMutability":"nonpayable","type":"constructor"},{"inputs":[{"internalType":"address","name":"spender","type":"address"},{"internalType":"uint256","name":"allowance","type":"uint256"},{"internalType":"uint256","name":"needed","type":"uint256"}],"name":"ERC20InsufficientAllowance","type":"error"},{"inputs":[{"internalType":"address","name":"sender","type":"address"},{"internalType":"uint256","name":"balance","type":"uint256"},{"internalType":"uint256","name":"needed","type":"uint256"}],"name":"ERC20InsufficientBalance","type":"error"},{"inputs":[{"internalType":"address","name":"approver","type":"address"}],"name":"ERC20InvalidApprover","type":"error"},{"inputs":[{"internalType":"address","name":"receiver","type":"address"}],"name":"ERC20InvalidReceiver","type":"error"},{"inputs":[{"internalType":"address","name":"sender","type":"address"}],"name":"ERC20InvalidSender","type":"error"},{"inputs":[{"internalType":"address","name":"spender","type":"address"}],"name":"ERC20InvalidSpender","type":"error"},{"anonymous":false,"inputs":[{"indexed":true,"internalType":"address","name":"owner","type":"address"},{"indexed":true,"internalType":"address","name":"spender","type":"address"},{"indexed":false,"internalType":"uint256","name":"value","type":"uint256"}],"name":"Approval","type":"event"},{"anonymous":false,"inputs":[{"indexed":true,"internalType":"address","name":"from","type":"address"},{"indexed":true,"internalType":"address","name":"to","type":"address"},{"indexed":false,"internalType":"uint256","name":"value","type":"uint256"}],"name":"Transfer","type":"event"},{"inputs":[{"internalType":"address","name":"_tokenA","type":"address"},{"internalType":"address","name":"_tokenB","type":"address"},{"internalType":"uint256","name":"amountADesired","type":"uint256"},{"internalType":"uint256","name":"amountBDesired","type":"uint256"},{"internalType":"uint256","name":"amountAMin","type":"uint256"},{"internalType":"uint256","name":"amountBMin","type":"uint256"},{"internalType":"address","name":"to","type":"address"},{"internalType":"uint256","name":"deadline","type":"uint256"}],"name":"addLiquidity","outputs":[{"internalType":"uint256","name":"amountA","type":"uint256"},{"internalType":"uint256","name":"amountB","type":"uint256"},{"internalType":"uint256","name":"liquidity","type":"uint256"}],"stateMutability":"nonpayable","type":"function"},{"inputs":[{"internalType":"address","name":"owner","type":"address"},{"internalType":"address","name":"spender","type":"address"}],"name":"allowance","outputs":[{"internalType":"uint256","name":"","type":"uint256"}],"stateMutability":"view","type":"function"},{"inputs":[{"internalType":"address","name":"spender","type":"address"},{"internalType":"uint256","name":"value","type":"uint256"}],"name":"approve","outputs":[{"internalType":"bool","name":"","type":"bool"}],"stateMutability":"nonpayable","type":"function"},{"inputs":[{"internalType":"address","name":"account","type":"address"}],"name":"balanceOf","outputs":[{"internalType":"uint256","name":"","type":"uint256"}],"stateMutability":"view","type":"function"},{"inputs":[],"name":"decimals","outputs":[{"internalType":"uint8","name":"","type":"uint8"}],"stateMutability":"view","type":"function"},{"inputs":[{"internalType":"uint256","name":"amountIn","type":"uint256"},{"internalType":"uint256","name":"reserveIn","type":"uint256"},{"internalType":"uint256","name":"reserveOut","type":"uint256"}],"name":"getAmountOut","outputs":[{"internalType":"uint256","name":"amountOut","type":"uint256"}],"stateMutability":"pure","type":"function"},{"inputs":[{"internalType":"address","name":"_tokenA","type":"address"},{"internalType":"address","name":"_tokenB","type":"address"}],"name":"getPrice","outputs":[{"internalType":"uint256","name":"price","type":"uint256"}],"stateMutability":"view","type":"function"},{"inputs":[],"name":"name","outputs":[{"internalType":"string","name":"","type":"string"}],"stateMutability":"view","type":"function"},{"inputs":[{"internalType":"address","name":"_tokenA","type":"address"},{"internalType":"address","name":"_tokenB","type":"address"},{"internalType":"uint256","name":"liquidity","type":"uint256"},{"internalType":"uint256","name":"amountAMin","type":"uint256"},{"internalType":"uint256","name":"amountBMin","type":"uint256"},{"internalType":"address","name":"to","type":"address"},{"internalType":"uint256","name":"deadline","type":"uint256"}],"name":"removeLiquidity","outputs":[{"internalType":"uint256","name":"amountA","type":"uint256"},{"internalType":"uint256","name":"amountB","type":"uint256"}],"stateMutability":"nonpayable","type":"function"},{"inputs":[{"internalType":"uint256","name":"amountIn","type":"uint256"},{"internalType":"uint256","name":"amountOutMin","type":"uint256"},{"internalType":"address[]","name":"path","type":"address[]"},{"internalType":"address","name":"to","type":"address"},{"internalType":"uint256","name":"deadline","type":"uint256"}],"name":"swapExactTokensForTokens","outputs":[],"stateMutability":"nonpayable","type":"function"},{"inputs":[],"name":"symbol","outputs":[{"internalType":"string","name":"","type":"string"}],"stateMutability":"view","type":"function"},{"inputs":[],"name":"tokenA","outputs":[{"internalType":"contract IERC20","name":"","type":"address"}],"stateMutability":"view","type":"function"},{"inputs":[],"name":"tokenB","outputs":[{"internalType":"contract IERC20","name":"","type":"address"}],"stateMutability":"view","type":"function"},{"inputs":[],"name":"totalSupply","outputs":[{"internalType":"uint256","name":"","type":"uint256"}],"stateMutability":"view","type":"function"},{"inputs":[{"internalType":"address","name":"to","type":"address"},{"internalType":"uint256","name":"value","type":"uint256"}],"name":"transfer","outputs":[{"internalType":"bool","name":"","type":"bool"}],"stateMutability":"nonpayable","type":"function"},{"inputs":[{"internalType":"address","name":"from","type":"address"},{"internalType":"address","name":"to","type":"address"},{"internalType":"uint256","name":"value","type":"uint256"}],"name":"transferFrom","outputs":[{"internalType":"bool","name":"","type":"bool"}],"stateMutability":"nonpayable","type":"function"}],"evm":{"bytecode":{"linkReferences":{},"object":"60c060405234801561001057600080fd5b50604051614169380380614169833981810160405281019061003291906102b9565b6040518060400160405280601081526020017f53696d706c655377617020546f6b656e000000000000000000000000000000008152506040518060400160405280600381526020017f535354000000000000000000000000000000000000000000000000000000000081525081600390816100ad9190610549565b5080600490816100bd9190610549565b5050506100da6742ef971feb73614260c01b61025360201b60201c565b6100f467814b60ceb82a905d60c01b61025360201b60201c565b61010e676a5a9fc16e808bc160c01b61025360201b60201c565b61012867069bb0d1f128c6ad60c01b61025360201b60201c565b8073ffffffffffffffffffffffffffffffffffffffff168273ffffffffffffffffffffffffffffffffffffffff1603610196576040517f08c379a000000000000000000000000000000000000000000000000000000000815260040161018d90610678565b60405180910390fd5b6101b067170e6702fbeadb8a60c01b61025360201b60201c565b6101ca67a21ddea504d75e8f60c01b61025360201b60201c565b8173ffffffffffffffffffffffffffffffffffffffff1660808173ffffffffffffffffffffffffffffffffffffffff168152505061021867acaacd51782ada2360c01b61025360201b60201c565b8073ffffffffffffffffffffffffffffffffffffffff1660a08173ffffffffffffffffffffffffffffffffffffffff16815250505050610698565b50565b600080fd5b600073ffffffffffffffffffffffffffffffffffffffff82169050919050565b60006102868261025b565b9050919050565b6102968161027b565b81146102a157600080fd5b50565b6000815190506102b38161028d565b92915050565b600080604083850312156102d0576102cf610256565b5b60006102de858286016102a4565b92505060206102ef858286016102a4565b9150509250929050565b600081519050919050565b7f4e487b7100000000000000000000000000000000000000000000000000000000600052604160045260246000fd5b7f4e487b7100000000000000000000000000000000000000000000000000000000600052602260045260246000fd5b6000600282049050600182168061037a57607f821691505b60208210810361038d5761038c610333565b5b50919050565b60008190508160005260206000209050919050565b60006020601f8301049050919050565b600082821b905092915050565b6000600883026103f57fffffffffffffffffffffffffffffffffffffffffffffffffffffffffffffffff826103b8565b6103ff86836103b8565b95508019841693508086168417925050509392505050565b6000819050919050565b6000819050919050565b600061044661044161043c84610417565b610421565b610417565b9050919050565b6000819050919050565b6104608361042b565b61047461046c8261044d565b8484546103c5565b825550505050565b600090565b61048961047c565b610494818484610457565b505050565b5b818110156104b8576104ad600082610481565b60018101905061049a565b5050565b601f8211156104fd576104ce81610393565b6104d7846103a8565b810160208510156104e6578190505b6104fa6104f2856103a8565b830182610499565b50505b505050565b600082821c905092915050565b600061052060001984600802610502565b1980831691505092915050565b6000610539838361050f565b9150826002028217905092915050565b610552826102f9565b67ffffffffffffffff81111561056b5761056a610304565b5b6105758254610362565b6105808282856104bc565b600060209050601f8311600181146105b357600084156105a1578287015190505b6105ab858261052d565b865550610613565b601f1984166105c186610393565b60005b828110156105e9578489015182556001820191506020850194506020810190506105c4565b868310156106065784890151610602601f89168261050f565b8355505b6001600288020188555050505b505050505050565b600082825260208201905092915050565b7f4964656e746963616c20746f6b656e7300000000000000000000000000000000600082015250565b600061066260108361061b565b915061066d8261062c565b602082019050919050565b6000602082019050818103600083015261069181610655565b9050919050565b60805160a051613a2761074260003960008181610b2a01528181610cf301528181610d6501528181610f9801528181611269015281816114f00152818161182d01528181611a0e01528181611c9501526122930152600081816105c601528181610c9d01528181610dbb01528181610ed2015281816110e7015281816112130152818161142a01528181611766015281816119b801528181611bcf01526121ca0152613a276000f3fe608060405234801561001057600080fd5b50600436106101005760003560e01c80635f64b55b11610097578063ac41865a11610066578063ac41865a146102c5578063baa2abde146102f5578063dd62ed3e14610326578063e8e337001461035657610100565b80635f64b55b1461022957806370a082311461024757806395d89b4114610277578063a9059cbb1461029557610100565b806318160ddd116100d357806318160ddd146101a157806323b872dd146101bf578063313ce567146101ef57806338ed17391461020d57610100565b8063054d50d41461010557806306fdde0314610135578063095ea7b3146101535780630fc63d1014610183575b600080fd5b61011f600480360381019061011a9190612c9e565b610388565b60405161012c9190612d00565b60405180910390f35b61013d61050f565b60405161014a9190612dab565b60405180910390f35b61016d60048036038101906101689190612e2b565b6105a1565b60405161017a9190612e86565b60405180910390f35b61018b6105c4565b6040516101989190612f00565b60405180910390f35b6101a96105e8565b6040516101b69190612d00565b60405180910390f35b6101d960048036038101906101d49190612f1b565b6105f2565b6040516101e69190612e86565b60405180910390f35b6101f7610621565b6040516102049190612f8a565b60405180910390f35b6102276004803603810190610222919061300a565b61062a565b005b610231610b28565b60405161023e9190612f00565b60405180910390f35b610261600480360381019061025c91906130a4565b610b4c565b60405161026e9190612d00565b60405180910390f35b61027f610b94565b60405161028c9190612dab565b60405180910390f35b6102af60048036038101906102aa9190612e2b565b610c26565b6040516102bc9190612e86565b60405180910390f35b6102df60048036038101906102da91906130d1565b610c49565b6040516102ec9190612d00565b60405180910390f35b61030f600480360381019061030a9190613111565b6111be565b60405161031d9291906131b3565b60405180910390f35b610340600480360381019061033b91906130d1565b6118da565b60405161034d9190612d00565b60405180910390f35b610370600480360381019061036b91906131dc565b611961565b60405161037f93929190613292565b60405180910390f35b600061039e67671de5fad4d2966a60c01b6123e7565b6103b267df3ce1979d387f7a60c01b6123e7565b6103c667e54f7ac9042c4a3860c01b6123e7565b6103da67f2b771407d8eb21360c01b6123e7565b6000841161041d576040517f08c379a000000000000000000000000000000000000000000000000000000000815260040161041490613315565b60405180910390fd5b610431671ccfbd504d490d8f60c01b6123e7565b610445677c2d99f8573dd1b460c01b6123e7565b6104596721eac92e992ba1ab60c01b6123e7565b61046d6782b2a1c8c284495f60c01b6123e7565b60008311801561047d5750600082115b6104bc576040517f08c379a00000000000000000000000000000000000000000000000000000000081526004016104b390613381565b60405180910390fd5b6104d0677989569ab566e0a660c01b6123e7565b6104e467fb70871154aa25cd60c01b6123e7565b82846104f091906133d0565b82856104fc9190613404565b6105069190613475565b90509392505050565b60606003805461051e906134d5565b80601f016020809104026020016040519081016040528092919081815260200182805461054a906134d5565b80156105975780601f1061056c57610100808354040283529160200191610597565b820191906000526020600020905b81548152906001019060200180831161057a57829003601f168201915b5050505050905090565b6000806105ac6123ea565b90506105b98185856123f2565b600191505092915050565b7f000000000000000000000000000000000000000000000000000000000000000081565b6000600254905090565b6000806105fd6123ea565b905061060a858285612404565b610615858585612499565b60019150509392505050565b60006012905090565b61063e6778b90607ed953ced60c01b6123e7565b61065267b9d05c9185299e6c60c01b6123e7565b610666675a8f872e6d54e7da60c01b6123e7565b61067a67b9f947d4f6a85b6660c01b6123e7565b804211156106bd576040517f08c379a00000000000000000000000000000000000000000000000000000000081526004016106b490613552565b60405180910390fd5b6106d1679f4cfe0a54cdaccd60c01b6123e7565b6106e56788b5d9d3cbf1279260c01b6123e7565b6106f9674aa0b316480cf7d060c01b6123e7565b61070d67a6a42f6e41f665d560c01b6123e7565b60028484905014610753576040517f08c379a000000000000000000000000000000000000000000000000000000000815260040161074a906135be565b60405180910390fd5b610767670d457d628813c30360c01b6123e7565b61077b677f03a0904ed1820160c01b6123e7565b61078f676c4964ebe95c8fab60c01b6123e7565b6000848460008181106107a5576107a46135de565b5b90506020020160208101906107ba91906130a4565b90506107d067f8d59ad238413c1d60c01b6123e7565b6107e467ad7722208db9620a60c01b6123e7565b6000858560018181106107fa576107f96135de565b5b905060200201602081019061080f91906130a4565b905061082567040c1e92fde97d9c60c01b6123e7565b610839671d0f683253428f8260c01b6123e7565b6000610938898473ffffffffffffffffffffffffffffffffffffffff166370a08231306040518263ffffffff1660e01b8152600401610878919061361c565b602060405180830381865afa158015610895573d6000803e3d6000fd5b505050506040513d601f19601f820116820180604052508101906108b9919061364c565b8473ffffffffffffffffffffffffffffffffffffffff166370a08231306040518263ffffffff1660e01b81526004016108f2919061361c565b602060405180830381865afa15801561090f573d6000803e3d6000fd5b505050506040513d601f19601f82011682018060405250810190610933919061364c565b610388565b905061094e67cb80db2118a64e0960c01b6123e7565b610962670f03145bd7878cf060c01b6123e7565b610976675a58a71c0b6a8d1e60c01b6123e7565b878110156109b9576040517f08c379a00000000000000000000000000000000000000000000000000000000081526004016109b0906136c5565b60405180910390fd5b6109cd6784dee36af5051c0860c01b6123e7565b6109e1670673d13788af174360c01b6123e7565b6109f567680e5116b013e4df60c01b6123e7565b8273ffffffffffffffffffffffffffffffffffffffff166323b872dd33308c6040518463ffffffff1660e01b8152600401610a32939291906136e5565b6020604051808303816000875af1158015610a51573d6000803e3d6000fd5b505050506040513d601f19601f82011682018060405250810190610a759190613748565b50610a8a678370f37ec24a349b60c01b6123e7565b610a9e6715343f5ccceab50360c01b6123e7565b8173ffffffffffffffffffffffffffffffffffffffff1663a9059cbb86836040518363ffffffff1660e01b8152600401610ad9929190613775565b6020604051808303816000875af1158015610af8573d6000803e3d6000fd5b505050506040513d601f19601f82011682018060405250810190610b1c9190613748565b50505050505050505050565b7f000000000000000000000000000000000000000000000000000000000000000081565b60008060008373ffffffffffffffffffffffffffffffffffffffff1673ffffffffffffffffffffffffffffffffffffffff168152602001908152602001600020549050919050565b606060048054610ba3906134d5565b80601f0160208091040260200160405190810160405280929190818152602001828054610bcf906134d5565b8015610c1c5780601f10610bf157610100808354040283529160200191610c1c565b820191906000526020600020905b815481529060010190602001808311610bff57829003601f168201915b5050505050905090565b600080610c316123ea565b9050610c3e818585612499565b600191505092915050565b6000610c5f67474bf53f1e0ab5eb60c01b6123e7565b610c73675086f9131f27f92d60c01b6123e7565b610c8767787271642465a1c260c01b6123e7565b610c9b6745272f42fbf7744c60c01b6123e7565b7f000000000000000000000000000000000000000000000000000000000000000073ffffffffffffffffffffffffffffffffffffffff168373ffffffffffffffffffffffffffffffffffffffff16148015610d4157507f000000000000000000000000000000000000000000000000000000000000000073ffffffffffffffffffffffffffffffffffffffff168273ffffffffffffffffffffffffffffffffffffffff16145b8015610d5d5750610d5c67ef2d0585809a202e60c01b61258d565b5b80610e2657507f000000000000000000000000000000000000000000000000000000000000000073ffffffffffffffffffffffffffffffffffffffff168373ffffffffffffffffffffffffffffffffffffffff16148015610e0957507f000000000000000000000000000000000000000000000000000000000000000073ffffffffffffffffffffffffffffffffffffffff168273ffffffffffffffffffffffffffffffffffffffff16145b8015610e255750610e24670b082b5e187717b460c01b61258d565b5b5b610e65576040517f08c379a0000000000000000000000000000000000000000000000000000000008152600401610e5c906137ea565b60405180910390fd5b610e7967f03009258a515bf360c01b6123e7565b610e8d67c8302086cc93a66b60c01b6123e7565b610ea167bf3fcafc6254bf0860c01b6123e7565b6000309050610eba67a7af83b93a01c29160c01b6123e7565b610ece676c7507b2ba6495d560c01b6123e7565b60007f000000000000000000000000000000000000000000000000000000000000000073ffffffffffffffffffffffffffffffffffffffff166370a08231836040518263ffffffff1660e01b8152600401610f29919061361c565b602060405180830381865afa158015610f46573d6000803e3d6000fd5b505050506040513d601f19601f82011682018060405250810190610f6a919061364c565b9050610f80670a0848119488165460c01b6123e7565b610f94670987eb4fe3d2070f60c01b6123e7565b60007f000000000000000000000000000000000000000000000000000000000000000073ffffffffffffffffffffffffffffffffffffffff166370a08231846040518263ffffffff1660e01b8152600401610fef919061361c565b602060405180830381865afa15801561100c573d6000803e3d6000fd5b505050506040513d601f19601f82011682018060405250810190611030919061364c565b905061104667b87e4c5667a721a860c01b6123e7565b61105a670b066c229916c67960c01b6123e7565b61106e67b04c49ee91dd7de560c01b6123e7565b60008211801561107e5750600081115b6110bd576040517f08c379a00000000000000000000000000000000000000000000000000000000081526004016110b490613381565b60405180910390fd5b6110d1676b754f8f2a8f400d60c01b6123e7565b6110e567437375c9dd2c54e660c01b6123e7565b7f000000000000000000000000000000000000000000000000000000000000000073ffffffffffffffffffffffffffffffffffffffff168673ffffffffffffffffffffffffffffffffffffffff16148061114f575061114e67023b76db8b6b3b2e60c01b612598565b5b801561116b575061116a679fc741d7f9eec69960c01b61258d565b5b6111935780670de0b6b3a7640000836111849190613404565b61118e9190613475565b6111b3565b81670de0b6b3a7640000826111a89190613404565b6111b29190613475565b5b935050505092915050565b6000806111d567c2160f1477bcd54d60c01b6123e7565b6111e967393dc4ea8548055360c01b6123e7565b6111fd677abf625d1ab2402560c01b6123e7565b61121167a58d83eabb9a561860c01b6123e7565b7f000000000000000000000000000000000000000000000000000000000000000073ffffffffffffffffffffffffffffffffffffffff168973ffffffffffffffffffffffffffffffffffffffff161480156112b757507f000000000000000000000000000000000000000000000000000000000000000073ffffffffffffffffffffffffffffffffffffffff168873ffffffffffffffffffffffffffffffffffffffff16145b6112f6576040517f08c379a00000000000000000000000000000000000000000000000000000000081526004016112ed906137ea565b60405180910390fd5b61130a6732b33c56769c9f0c60c01b6123e7565b61131e67d1deb940cce2108b60c01b6123e7565b611332678e400600140d2a9460c01b6123e7565b6113466791b71f3327040e2e60c01b6123e7565b82421115611389576040517f08c379a000000000000000000000000000000000000000000000000000000000815260040161138090613552565b60405180910390fd5b61139d675a7222320e7a503b60c01b6123e7565b6113b167e1806785f628494060c01b6123e7565b6113c56797135cda2d25401c60c01b6123e7565b60003090506113de6775252b2bd2428ba660c01b6123e7565b6113f267e9dade89cbc9c5ea60c01b6123e7565b60006113fc6105e8565b9050611412674efe6a90fd4ea65c60c01b6123e7565b61142667a2e467d8bf28aa4160c01b6123e7565b60007f000000000000000000000000000000000000000000000000000000000000000073ffffffffffffffffffffffffffffffffffffffff166370a08231846040518263ffffffff1660e01b8152600401611481919061361c565b602060405180830381865afa15801561149e573d6000803e3d6000fd5b505050506040513d601f19601f820116820180604052508101906114c2919061364c565b90506114d867a39e6127f4bbd97b60c01b6123e7565b6114ec6710230c8d9c265be260c01b6123e7565b60007f000000000000000000000000000000000000000000000000000000000000000073ffffffffffffffffffffffffffffffffffffffff166370a08231856040518263ffffffff1660e01b8152600401611547919061361c565b602060405180830381865afa158015611564573d6000803e3d6000fd5b505050506040513d601f19601f82011682018060405250810190611588919061364c565b905061159e67e084955d25a354a760c01b6123e7565b82828c6115ab9190613404565b6115b59190613475565b95506115cb6719a79699a37ba0c160c01b6123e7565b82818c6115d89190613404565b6115e29190613475565b94506115f86703c24c3f2771a67b60c01b6123e7565b61160c67162436c7df2cebca60c01b6123e7565b6116206722b045b614f5d58160c01b6123e7565b89861015611663576040517f08c379a000000000000000000000000000000000000000000000000000000000815260040161165a90613856565b60405180910390fd5b611677673c8a40110dace06b60c01b6123e7565b61168b67d4e9939131580c8f60c01b6123e7565b61169f67711fdcb8add6321760c01b6123e7565b6116b367859ae6e0bda5e01160c01b6123e7565b888510156116f6576040517f08c379a00000000000000000000000000000000000000000000000000000000081526004016116ed906138c2565b60405180910390fd5b61170a67653b9df4604ff8c260c01b6123e7565b61171e67de2554af27ca021660c01b6123e7565b61173267d5949cba729a1aee60c01b6123e7565b61173c338c61259f565b61175067bc8d1bf5107a477d60c01b6123e7565b61176467cdf67d4f015310ef60c01b6123e7565b7f000000000000000000000000000000000000000000000000000000000000000073ffffffffffffffffffffffffffffffffffffffff1663a9059cbb89886040518363ffffffff1660e01b81526004016117bf929190613775565b6020604051808303816000875af11580156117de573d6000803e3d6000fd5b505050506040513d601f19601f820116820180604052508101906118029190613748565b50611817670159fd2c9ea46a9760c01b6123e7565b61182b67817f6c936916438b60c01b6123e7565b7f000000000000000000000000000000000000000000000000000000000000000073ffffffffffffffffffffffffffffffffffffffff1663a9059cbb89876040518363ffffffff1660e01b8152600401611886929190613775565b6020604051808303816000875af11580156118a5573d6000803e3d6000fd5b505050506040513d601f19601f820116820180604052508101906118c99190613748565b505050505097509795505050505050565b6000600160008473ffffffffffffffffffffffffffffffffffffffff1673ffffffffffffffffffffffffffffffffffffffff16815260200190815260200160002060008373ffffffffffffffffffffffffffffffffffffffff1673ffffffffffffffffffffffffffffffffffffffff16815260200190815260200160002054905092915050565b600080600061197a679ca6dcfa3430d0a660c01b6123e7565b61198e67fc1bfd15e951bc9d60c01b6123e7565b6119a267bf81ef12315e352660c01b6123e7565b6119b66760c7b5ba6dfd945360c01b6123e7565b7f000000000000000000000000000000000000000000000000000000000000000073ffffffffffffffffffffffffffffffffffffffff168b73ffffffffffffffffffffffffffffffffffffffff16148015611a5c57507f000000000000000000000000000000000000000000000000000000000000000073ffffffffffffffffffffffffffffffffffffffff168a73ffffffffffffffffffffffffffffffffffffffff16145b611a9b576040517f08c379a0000000000000000000000000000000000000000000000000000000008152600401611a92906137ea565b60405180910390fd5b611aaf674c4d2d50fd643ba460c01b6123e7565b611ac367d0328dbdcc2eb2f760c01b6123e7565b611ad7670652c992a3836ba460c01b6123e7565b611aeb6791d5eadea1211fb960c01b6123e7565b83421115611b2e576040517f08c379a0000000000000000000000000000000000000000000000000000000008152600401611b2590613552565b60405180910390fd5b611b4267c82d010f2840516f60c01b6123e7565b611b5667e70726f52cb066ce60c01b6123e7565b611b6a679e1de4f05cd3397f60c01b6123e7565b6000309050611b83676d594e0e4e67040760c01b6123e7565b611b9767068fd745f51a6eae60c01b6123e7565b6000611ba16105e8565b9050611bb767d51c98ff8cde803b60c01b6123e7565b611bcb67be59e51c39d71dc060c01b6123e7565b60007f000000000000000000000000000000000000000000000000000000000000000073ffffffffffffffffffffffffffffffffffffffff166370a08231846040518263ffffffff1660e01b8152600401611c26919061361c565b602060405180830381865afa158015611c43573d6000803e3d6000fd5b505050506040513d601f19601f82011682018060405250810190611c67919061364c565b9050611c7d67bf4835610ece551c60c01b6123e7565b611c91675a4abb22f05d328d60c01b6123e7565b60007f000000000000000000000000000000000000000000000000000000000000000073ffffffffffffffffffffffffffffffffffffffff166370a08231856040518263ffffffff1660e01b8152600401611cec919061361c565b602060405180830381865afa158015611d09573d6000803e3d6000fd5b505050506040513d601f19601f82011682018060405250810190611d2d919061364c565b9050611d4367b6b1762b8b0f87fa60c01b6123e7565b611d5767bb16fb8bdcb93ee860c01b6123e7565b6000831115611fe057611d7467a8de6f2646335e1c60c01b6123e7565b611d8867b20ba7cfa06ad08960c01b6123e7565b611d9c67558207ce5548ab6360c01b6123e7565b600082828f611dab9190613404565b611db59190613475565b9050611dcb678a259f111f43a49260c01b6123e7565b611ddf67cb758ce99a9599f860c01b6123e7565b8c8111611ec057611dfa67053428367613f01660c01b6123e7565b611e0e67a5e8487408572bc160c01b6123e7565b611e2267d895583a549344cd60c01b6123e7565b611e3667756df17c0fcc629e60c01b6123e7565b8a811015611e79576040517f08c379a0000000000000000000000000000000000000000000000000000000008152600401611e709061392e565b60405180910390fd5b611e8d67cbe6bbf6b98032ee60c01b6123e7565b611ea1672226ccc615381dd560c01b6123e7565b8d9750611eb867be628fc69f269fb560c01b6123e7565b809650611fda565b611ed4672dd1d115f221dfad60c01b6123e7565b611ee86757ffe76aacafc9ff60c01b6123e7565b611efc6705f53231aabb00ed60c01b6123e7565b600082848f611f0b9190613404565b611f159190613475565b9050611f2b67e2ecab72bcac88a260c01b6123e7565b611f3f6712b92bd2140b975260c01b6123e7565b611f5367eae0c801d86c950560c01b6123e7565b8c811015611f96576040517f08c379a0000000000000000000000000000000000000000000000000000000008152600401611f8d9061399a565b60405180910390fd5b611faa6777bff5740e381d5c60c01b6123e7565b611fbe6720bd43d60baaa90960c01b6123e7565b809850611fd56778d3022bbcabb22a60c01b6123e7565b8d9750505b5061204d565b611ff4672843572ebb67923560c01b6123e7565b612008671b197e9f18715d1060c01b6123e7565b8c965061201f67d958880b8f9dc89460c01b6123e7565b8b9550612036675dad16df495dca0160c01b6123e7565b61204a86886120459190613404565b612621565b94505b61206167dd2560422634403360c01b6123e7565b61207567db1c22f0c5adf62160c01b6123e7565b612089679f806e050956e03e60c01b6123e7565b8a8710156120cc576040517f08c379a00000000000000000000000000000000000000000000000000000000081526004016120c390613856565b60405180910390fd5b6120e067fe090a7ab5cc19d760c01b6123e7565b6120f4675cb6bd7fcf38392560c01b6123e7565b612108679fd327ce04649cd460c01b6123e7565b61211c67a910013577c3e5d060c01b6123e7565b8986101561215f576040517f08c379a0000000000000000000000000000000000000000000000000000000008152600401612156906138c2565b60405180910390fd5b6121736706591d0e24ead82260c01b6123e7565b61218767bcb0fbd5cd5bdba660c01b6123e7565b61219b679767377e57bd928360c01b6123e7565b60003390506121b467279d168167b39a1660c01b6123e7565b6121c8677214a40eafb20df460c01b6123e7565b7f000000000000000000000000000000000000000000000000000000000000000073ffffffffffffffffffffffffffffffffffffffff166323b872dd82878b6040518463ffffffff1660e01b8152600401612225939291906136e5565b6020604051808303816000875af1158015612244573d6000803e3d6000fd5b505050506040513d601f19601f820116820180604052508101906122689190613748565b5061227d678d25a91aafc8f4cc60c01b6123e7565b612291676dbe106b3e7411da60c01b6123e7565b7f000000000000000000000000000000000000000000000000000000000000000073ffffffffffffffffffffffffffffffffffffffff166323b872dd82878a6040518463ffffffff1660e01b81526004016122ee939291906136e5565b6020604051808303816000875af115801561230d573d6000803e3d6000fd5b505050506040513d601f19601f820116820180604052508101906123319190613748565b5061234667140f9acfcce0acb360c01b6123e7565b6000861180612365575061236467282b6702f2c4f17060c01b612598565b5b8015612381575061238067e9adf61c84d3173260c01b61258d565b5b61239e5761239987896123949190613404565b612621565b6123a0565b855b95506123b667f11ce18cfc1908fb60c01b6123e7565b6123ca67a0296e6cb8c8e77f60c01b6123e7565b6123d48a876127e0565b5050505050985098509895505050505050565b50565b600033905090565b6123ff8383836001612862565b505050565b600061241084846118da565b90507fffffffffffffffffffffffffffffffffffffffffffffffffffffffffffffffff8110156124935781811015612483578281836040517ffb8f41b200000000000000000000000000000000000000000000000000000000815260040161247a939291906139ba565b60405180910390fd5b61249284848484036000612862565b5b50505050565b600073ffffffffffffffffffffffffffffffffffffffff168373ffffffffffffffffffffffffffffffffffffffff160361250b5760006040517f96c6fd1e000000000000000000000000000000000000000000000000000000008152600401612502919061361c565b60405180910390fd5b600073ffffffffffffffffffffffffffffffffffffffff168273ffffffffffffffffffffffffffffffffffffffff160361257d5760006040517fec442f05000000000000000000000000000000000000000000000000000000008152600401612574919061361c565b60405180910390fd5b612588838383612a39565b505050565b600060019050919050565b6000919050565b600073ffffffffffffffffffffffffffffffffffffffff168273ffffffffffffffffffffffffffffffffffffffff16036126115760006040517f96c6fd1e000000000000000000000000000000000000000000000000000000008152600401612608919061361c565b60405180910390fd5b61261d82600083612a39565b5050565b6000612637670c1c604706dfaf9560c01b6123e7565b61264b676bb6cba85fb64e3160c01b6123e7565b61265f6705bbadb16c3b4ba160c01b6123e7565b60038211156127645761267c67e45399c98e2bd34360c01b6123e7565b61269067b0261ff0eb1dcbb860c01b6123e7565b8190506126a7676bf06a19f38d34fa60c01b6123e7565b6126bb67d6d1e8b992fe05ea60c01b6123e7565b600060016002846126cc9190613475565b6126d691906133d0565b90506126ec670a6ef4dc2d88c9ad60c01b6123e7565b61270067bef94fe11239f12b60c01b6123e7565b5b8181101561275e5761271d672aead1c1e621871a60c01b6123e7565b80915061273467787873246184c20660c01b6123e7565b60028182856127439190613475565b61274d91906133d0565b6127579190613475565b9050612701565b506127db565b61277867159351b312055e8060c01b6123e7565b61278c67b6f6303607cdc24a60c01b6123e7565b600082146127c5576127a867f30eefe23cfef6f860c01b6123e7565b6127bc6717ea7195c651cbb260c01b6123e7565b600190506127da565b6127d9679b424e514889f2ac60c01b6123e7565b5b5b919050565b600073ffffffffffffffffffffffffffffffffffffffff168273ffffffffffffffffffffffffffffffffffffffff16036128525760006040517fec442f05000000000000000000000000000000000000000000000000000000008152600401612849919061361c565b60405180910390fd5b61285e60008383612a39565b5050565b600073ffffffffffffffffffffffffffffffffffffffff168473ffffffffffffffffffffffffffffffffffffffff16036128d45760006040517fe602df050000000000000000000000000000000000000000000000000000000081526004016128cb919061361c565b60405180910390fd5b600073ffffffffffffffffffffffffffffffffffffffff168373ffffffffffffffffffffffffffffffffffffffff16036129465760006040517f94280d6200000000000000000000000000000000000000000000000000000000815260040161293d919061361c565b60405180910390fd5b81600160008673ffffffffffffffffffffffffffffffffffffffff1673ffffffffffffffffffffffffffffffffffffffff16815260200190815260200160002060008573ffffffffffffffffffffffffffffffffffffffff1673ffffffffffffffffffffffffffffffffffffffff168152602001908152602001600020819055508015612a33578273ffffffffffffffffffffffffffffffffffffffff168473ffffffffffffffffffffffffffffffffffffffff167f8c5be1e5ebec7d5bd14f71427d1e84f3dd0314c0f7b2291e5b200ac8c7c3b92584604051612a2a9190612d00565b60405180910390a35b50505050565b600073ffffffffffffffffffffffffffffffffffffffff168373ffffffffffffffffffffffffffffffffffffffff1603612a8b578060026000828254612a7f91906133d0565b92505081905550612b5e565b60008060008573ffffffffffffffffffffffffffffffffffffffff1673ffffffffffffffffffffffffffffffffffffffff16815260200190815260200160002054905081811015612b17578381836040517fe450d38c000000000000000000000000000000000000000000000000000000008152600401612b0e939291906139ba565b60405180910390fd5b8181036000808673ffffffffffffffffffffffffffffffffffffffff1673ffffffffffffffffffffffffffffffffffffffff16815260200190815260200160002081905550505b600073ffffffffffffffffffffffffffffffffffffffff168273ffffffffffffffffffffffffffffffffffffffff1603612ba75780600260008282540392505081905550612bf4565b806000808473ffffffffffffffffffffffffffffffffffffffff1673ffffffffffffffffffffffffffffffffffffffff168152602001908152602001600020600082825401925050819055505b8173ffffffffffffffffffffffffffffffffffffffff168373ffffffffffffffffffffffffffffffffffffffff167fddf252ad1be2c89b69c2b068fc378daa952ba7f163c4a11628f55a4df523b3ef83604051612c519190612d00565b60405180910390a3505050565b600080fd5b600080fd5b6000819050919050565b612c7b81612c68565b8114612c8657600080fd5b50565b600081359050612c9881612c72565b92915050565b600080600060608486031215612cb757612cb6612c5e565b5b6000612cc586828701612c89565b9350506020612cd686828701612c89565b9250506040612ce786828701612c89565b9150509250925092565b612cfa81612c68565b82525050565b6000602082019050612d156000830184612cf1565b92915050565b600081519050919050565b600082825260208201905092915050565b60005b83811015612d55578082015181840152602081019050612d3a565b60008484015250505050565b6000601f19601f8301169050919050565b6000612d7d82612d1b565b612d878185612d26565b9350612d97818560208601612d37565b612da081612d61565b840191505092915050565b60006020820190508181036000830152612dc58184612d72565b905092915050565b600073ffffffffffffffffffffffffffffffffffffffff82169050919050565b6000612df882612dcd565b9050919050565b612e0881612ded565b8114612e1357600080fd5b50565b600081359050612e2581612dff565b92915050565b60008060408385031215612e4257612e41612c5e565b5b6000612e5085828601612e16565b9250506020612e6185828601612c89565b9150509250929050565b60008115159050919050565b612e8081612e6b565b82525050565b6000602082019050612e9b6000830184612e77565b92915050565b6000819050919050565b6000612ec6612ec1612ebc84612dcd565b612ea1565b612dcd565b9050919050565b6000612ed882612eab565b9050919050565b6000612eea82612ecd565b9050919050565b612efa81612edf565b82525050565b6000602082019050612f156000830184612ef1565b92915050565b600080600060608486031215612f3457612f33612c5e565b5b6000612f4286828701612e16565b9350506020612f5386828701612e16565b9250506040612f6486828701612c89565b9150509250925092565b600060ff82169050919050565b612f8481612f6e565b82525050565b6000602082019050612f9f6000830184612f7b565b92915050565b600080fd5b600080fd5b600080fd5b60008083601f840112612fca57612fc9612fa5565b5b8235905067ffffffffffffffff811115612fe757612fe6612faa565b5b60208301915083602082028301111561300357613002612faf565b5b9250929050565b60008060008060008060a0878903121561302757613026612c5e565b5b600061303589828a01612c89565b965050602061304689828a01612c89565b955050604087013567ffffffffffffffff81111561306757613066612c63565b5b61307389828a01612fb4565b9450945050606061308689828a01612e16565b925050608061309789828a01612c89565b9150509295509295509295565b6000602082840312156130ba576130b9612c5e565b5b60006130c884828501612e16565b91505092915050565b600080604083850312156130e8576130e7612c5e565b5b60006130f685828601612e16565b925050602061310785828601612e16565b9150509250929050565b600080600080600080600060e0888a0312156131305761312f612c5e565b5b600061313e8a828b01612e16565b975050602061314f8a828b01612e16565b96505060406131608a828b01612c89565b95505060606131718a828b01612c89565b94505060806131828a828b01612c89565b93505060a06131938a828b01612e16565b92505060c06131a48a828b01612c89565b91505092959891949750929550565b60006040820190506131c86000830185612cf1565b6131d56020830184612cf1565b9392505050565b600080600080600080600080610100898b0312156131fd576131fc612c5e565b5b600061320b8b828c01612e16565b985050602061321c8b828c01612e16565b975050604061322d8b828c01612c89565b965050606061323e8b828c01612c89565b955050608061324f8b828c01612c89565b94505060a06132608b828c01612c89565b93505060c06132718b828c01612e16565b92505060e06132828b828c01612c89565b9150509295985092959890939650565b60006060820190506132a76000830186612cf1565b6132b46020830185612cf1565b6132c16040830184612cf1565b949350505050565b7f5a65726f20696e70757400000000000000000000000000000000000000000000600082015250565b60006132ff600a83612d26565b915061330a826132c9565b602082019050919050565b6000602082019050818103600083015261332e816132f2565b9050919050565b7f4e6f206c69717569646974790000000000000000000000000000000000000000600082015250565b600061336b600c83612d26565b915061337682613335565b602082019050919050565b6000602082019050818103600083015261339a8161335e565b9050919050565b7f4e487b7100000000000000000000000000000000000000000000000000000000600052601160045260246000fd5b60006133db82612c68565b91506133e683612c68565b92508282019050808211156133fe576133fd6133a1565b5b92915050565b600061340f82612c68565b915061341a83612c68565b925082820261342881612c68565b9150828204841483151761343f5761343e6133a1565b5b5092915050565b7f4e487b7100000000000000000000000000000000000000000000000000000000600052601260045260246000fd5b600061348082612c68565b915061348b83612c68565b92508261349b5761349a613446565b5b828204905092915050565b7f4e487b7100000000000000000000000000000000000000000000000000000000600052602260045260246000fd5b600060028204905060018216806134ed57607f821691505b602082108103613500576134ff6134a6565b5b50919050565b7f4578706972656400000000000000000000000000000000000000000000000000600082015250565b600061353c600783612d26565b915061354782613506565b602082019050919050565b6000602082019050818103600083015261356b8161352f565b9050919050565b7f496e76616c696420706174680000000000000000000000000000000000000000600082015250565b60006135a8600c83612d26565b91506135b382613572565b602082019050919050565b600060208201905081810360008301526135d78161359b565b9050919050565b7f4e487b7100000000000000000000000000000000000000000000000000000000600052603260045260246000fd5b61361681612ded565b82525050565b6000602082019050613631600083018461360d565b92915050565b60008151905061364681612c72565b92915050565b60006020828403121561366257613661612c5e565b5b600061367084828501613637565b91505092915050565b7f4f757470757420746f6f206c6f77000000000000000000000000000000000000600082015250565b60006136af600e83612d26565b91506136ba82613679565b602082019050919050565b600060208201905081810360008301526136de816136a2565b9050919050565b60006060820190506136fa600083018661360d565b613707602083018561360d565b6137146040830184612cf1565b949350505050565b61372581612e6b565b811461373057600080fd5b50565b6000815190506137428161371c565b92915050565b60006020828403121561375e5761375d612c5e565b5b600061376c84828501613733565b91505092915050565b600060408201905061378a600083018561360d565b6137976020830184612cf1565b9392505050565b7f496e76616c696420746f6b656e73000000000000000000000000000000000000600082015250565b60006137d4600e83612d26565b91506137df8261379e565b602082019050919050565b60006020820190508181036000830152613803816137c7565b9050919050565b7f41206e6f74206d696e0000000000000000000000000000000000000000000000600082015250565b6000613840600983612d26565b915061384b8261380a565b602082019050919050565b6000602082019050818103600083015261386f81613833565b9050919050565b7f42206e6f74206d696e0000000000000000000000000000000000000000000000600082015250565b60006138ac600983612d26565b91506138b782613876565b602082019050919050565b600060208201905081810360008301526138db8161389f565b9050919050565b7f496e73756666696369656e742042000000000000000000000000000000000000600082015250565b6000613918600e83612d26565b9150613923826138e2565b602082019050919050565b600060208201905081810360008301526139478161390b565b9050919050565b7f496e73756666696369656e742041000000000000000000000000000000000000600082015250565b6000613984600e83612d26565b915061398f8261394e565b602082019050919050565b600060208201905081810360008301526139b381613977565b9050919050565b60006060820190506139cf600083018661360d565b6139dc6020830185612cf1565b6139e96040830184612cf1565b94935050505056fea26469706673582212201f3125e6f8d0158481b605b287bf01d66bdfb233867fef877c512831c4b6d4a364736f6c634300081c0033","opcodes":"PUSH1 0xC0 PUSH1 0x40 MSTORE CALLVALUE DUP1 ISZERO PUSH2 0x10 JUMPI PUSH1 0x0 DUP1 REVERT JUMPDEST POP PUSH1 0x40 MLOAD PUSH2 0x4169 CODESIZE SUB DUP1 PUSH2 0x4169 DUP4 CODECOPY DUP2 DUP2 ADD PUSH1 0x40 MSTORE DUP2 ADD SWAP1 PUSH2 0x32 SWAP2 SWAP1 PUSH2 0x2B9 JUMP JUMPDEST PUSH1 0x40 MLOAD DUP1 PUSH1 0x40 ADD PUSH1 0x40 MSTORE DUP1 PUSH1 0x10 DUP2 MSTORE PUSH1 0x20 ADD PUSH32 0x53696D706C655377617020546F6B656E00000000000000000000000000000000 DUP2 MSTORE POP PUSH1 0x40 MLOAD DUP1 PUSH1 0x40 ADD PUSH1 0x40 MSTORE DUP1 PUSH1 0x3 DUP2 MSTORE PUSH1 0x20 ADD PUSH32 0x5353540000000000000000000000000000000000000000000000000000000000 DUP2 MSTORE POP DUP2 PUSH1 0x3 SWAP1 DUP2 PUSH2 0xAD SWAP2 SWAP1 PUSH2 0x549 JUMP JUMPDEST POP DUP1 PUSH1 0x4 SWAP1 DUP2 PUSH2 0xBD SWAP2 SWAP1 PUSH2 0x549 JUMP JUMPDEST POP POP POP PUSH2 0xDA PUSH8 0x42EF971FEB736142 PUSH1 0xC0 SHL PUSH2 0x253 PUSH1 0x20 SHL PUSH1 0x20 SHR JUMP JUMPDEST PUSH2 0xF4 PUSH8 0x814B60CEB82A905D PUSH1 0xC0 SHL PUSH2 0x253 PUSH1 0x20 SHL PUSH1 0x20 SHR JUMP JUMPDEST PUSH2 0x10E PUSH8 0x6A5A9FC16E808BC1 PUSH1 0xC0 SHL PUSH2 0x253 PUSH1 0x20 SHL PUSH1 0x20 SHR JUMP JUMPDEST PUSH2 0x128 PUSH8 0x69BB0D1F128C6AD PUSH1 0xC0 SHL PUSH2 0x253 PUSH1 0x20 SHL PUSH1 0x20 SHR JUMP JUMPDEST DUP1 PUSH20 0xFFFFFFFFFFFFFFFFFFFFFFFFFFFFFFFFFFFFFFFF AND DUP3 PUSH20 0xFFFFFFFFFFFFFFFFFFFFFFFFFFFFFFFFFFFFFFFF AND SUB PUSH2 0x196 JUMPI PUSH1 0x40 MLOAD PUSH32 0x8C379A000000000000000000000000000000000000000000000000000000000 DUP2 MSTORE PUSH1 0x4 ADD PUSH2 0x18D SWAP1 PUSH2 0x678 JUMP JUMPDEST PUSH1 0x40 MLOAD DUP1 SWAP2 SUB SWAP1 REVERT JUMPDEST PUSH2 0x1B0 PUSH8 0x170E6702FBEADB8A PUSH1 0xC0 SHL PUSH2 0x253 PUSH1 0x20 SHL PUSH1 0x20 SHR JUMP JUMPDEST PUSH2 0x1CA PUSH8 0xA21DDEA504D75E8F PUSH1 0xC0 SHL PUSH2 0x253 PUSH1 0x20 SHL PUSH1 0x20 SHR JUMP JUMPDEST DUP2 PUSH20 0xFFFFFFFFFFFFFFFFFFFFFFFFFFFFFFFFFFFFFFFF AND PUSH1 0x80 DUP2 PUSH20 0xFFFFFFFFFFFFFFFFFFFFFFFFFFFFFFFFFFFFFFFF AND DUP2 MSTORE POP POP PUSH2 0x218 PUSH8 0xACAACD51782ADA23 PUSH1 0xC0 SHL PUSH2 0x253 PUSH1 0x20 SHL PUSH1 0x20 SHR JUMP JUMPDEST DUP1 PUSH20 0xFFFFFFFFFFFFFFFFFFFFFFFFFFFFFFFFFFFFFFFF AND PUSH1 0xA0 DUP2 PUSH20 0xFFFFFFFFFFFFFFFFFFFFFFFFFFFFFFFFFFFFFFFF AND DUP2 MSTORE POP POP POP POP PUSH2 0x698 JUMP JUMPDEST POP JUMP JUMPDEST PUSH1 0x0 DUP1 REVERT JUMPDEST PUSH1 0x0 PUSH20 0xFFFFFFFFFFFFFFFFFFFFFFFFFFFFFFFFFFFFFFFF DUP3 AND SWAP1 POP SWAP2 SWAP1 POP JUMP JUMPDEST PUSH1 0x0 PUSH2 0x286 DUP3 PUSH2 0x25B JUMP JUMPDEST SWAP1 POP SWAP2 SWAP1 POP JUMP JUMPDEST PUSH2 0x296 DUP2 PUSH2 0x27B JUMP JUMPDEST DUP2 EQ PUSH2 0x2A1 JUMPI PUSH1 0x0 DUP1 REVERT JUMPDEST POP JUMP JUMPDEST PUSH1 0x0 DUP2 MLOAD SWAP1 POP PUSH2 0x2B3 DUP2 PUSH2 0x28D JUMP JUMPDEST SWAP3 SWAP2 POP POP JUMP JUMPDEST PUSH1 0x0 DUP1 PUSH1 0x40 DUP4 DUP6 SUB SLT ISZERO PUSH2 0x2D0 JUMPI PUSH2 0x2CF PUSH2 0x256 JUMP JUMPDEST JUMPDEST PUSH1 0x0 PUSH2 0x2DE DUP6 DUP3 DUP7 ADD PUSH2 0x2A4 JUMP JUMPDEST SWAP3 POP POP PUSH1 0x20 PUSH2 0x2EF DUP6 DUP3 DUP7 ADD PUSH2 0x2A4 JUMP JUMPDEST SWAP2 POP POP SWAP3 POP SWAP3 SWAP1 POP JUMP JUMPDEST PUSH1 0x0 DUP2 MLOAD SWAP1 POP SWAP2 SWAP1 POP JUMP JUMPDEST PUSH32 0x4E487B7100000000000000000000000000000000000000000000000000000000 PUSH1 0x0 MSTORE PUSH1 0x41 PUSH1 0x4 MSTORE PUSH1 0x24 PUSH1 0x0 REVERT JUMPDEST PUSH32 0x4E487B7100000000000000000000000000000000000000000000000000000000 PUSH1 0x0 MSTORE PUSH1 0x22 PUSH1 0x4 MSTORE PUSH1 0x24 PUSH1 0x0 REVERT JUMPDEST PUSH1 0x0 PUSH1 0x2 DUP3 DIV SWAP1 POP PUSH1 0x1 DUP3 AND DUP1 PUSH2 0x37A JUMPI PUSH1 0x7F DUP3 AND SWAP2 POP JUMPDEST PUSH1 0x20 DUP3 LT DUP2 SUB PUSH2 0x38D JUMPI PUSH2 0x38C PUSH2 0x333 JUMP JUMPDEST JUMPDEST POP SWAP2 SWAP1 POP JUMP JUMPDEST PUSH1 0x0 DUP2 SWAP1 POP DUP2 PUSH1 0x0 MSTORE PUSH1 0x20 PUSH1 0x0 KECCAK256 SWAP1 POP SWAP2 SWAP1 POP JUMP JUMPDEST PUSH1 0x0 PUSH1 0x20 PUSH1 0x1F DUP4 ADD DIV SWAP1 POP SWAP2 SWAP1 POP JUMP JUMPDEST PUSH1 0x0 DUP3 DUP3 SHL SWAP1 POP SWAP3 SWAP2 POP POP JUMP JUMPDEST PUSH1 0x0 PUSH1 0x8 DUP4 MUL PUSH2 0x3F5 PUSH32 0xFFFFFFFFFFFFFFFFFFFFFFFFFFFFFFFFFFFFFFFFFFFFFFFFFFFFFFFFFFFFFFFF DUP3 PUSH2 0x3B8 JUMP JUMPDEST PUSH2 0x3FF DUP7 DUP4 PUSH2 0x3B8 JUMP JUMPDEST SWAP6 POP DUP1 NOT DUP5 AND SWAP4 POP DUP1 DUP7 AND DUP5 OR SWAP3 POP POP POP SWAP4 SWAP3 POP POP POP JUMP JUMPDEST PUSH1 0x0 DUP2 SWAP1 POP SWAP2 SWAP1 POP JUMP JUMPDEST PUSH1 0x0 DUP2 SWAP1 POP SWAP2 SWAP1 POP JUMP JUMPDEST PUSH1 0x0 PUSH2 0x446 PUSH2 0x441 PUSH2 0x43C DUP5 PUSH2 0x417 JUMP JUMPDEST PUSH2 0x421 JUMP JUMPDEST PUSH2 0x417 JUMP JUMPDEST SWAP1 POP SWAP2 SWAP1 POP JUMP JUMPDEST PUSH1 0x0 DUP2 SWAP1 POP SWAP2 SWAP1 POP JUMP JUMPDEST PUSH2 0x460 DUP4 PUSH2 0x42B JUMP JUMPDEST PUSH2 0x474 PUSH2 0x46C DUP3 PUSH2 0x44D JUMP JUMPDEST DUP5 DUP5 SLOAD PUSH2 0x3C5 JUMP JUMPDEST DUP3 SSTORE POP POP POP POP JUMP JUMPDEST PUSH1 0x0 SWAP1 JUMP JUMPDEST PUSH2 0x489 PUSH2 0x47C JUMP JUMPDEST PUSH2 0x494 DUP2 DUP5 DUP5 PUSH2 0x457 JUMP JUMPDEST POP POP POP JUMP JUMPDEST JUMPDEST DUP2 DUP2 LT ISZERO PUSH2 0x4B8 JUMPI PUSH2 0x4AD PUSH1 0x0 DUP3 PUSH2 0x481 JUMP JUMPDEST PUSH1 0x1 DUP2 ADD SWAP1 POP PUSH2 0x49A JUMP JUMPDEST POP POP JUMP JUMPDEST PUSH1 0x1F DUP3 GT ISZERO PUSH2 0x4FD JUMPI PUSH2 0x4CE DUP2 PUSH2 0x393 JUMP JUMPDEST PUSH2 0x4D7 DUP5 PUSH2 0x3A8 JUMP JUMPDEST DUP2 ADD PUSH1 0x20 DUP6 LT ISZERO PUSH2 0x4E6 JUMPI DUP2 SWAP1 POP JUMPDEST PUSH2 0x4FA PUSH2 0x4F2 DUP6 PUSH2 0x3A8 JUMP JUMPDEST DUP4 ADD DUP3 PUSH2 0x499 JUMP JUMPDEST POP POP JUMPDEST POP POP POP JUMP JUMPDEST PUSH1 0x0 DUP3 DUP3 SHR SWAP1 POP SWAP3 SWAP2 POP POP JUMP JUMPDEST PUSH1 0x0 PUSH2 0x520 PUSH1 0x0 NOT DUP5 PUSH1 0x8 MUL PUSH2 0x502 JUMP JUMPDEST NOT DUP1 DUP4 AND SWAP2 POP POP SWAP3 SWAP2 POP POP JUMP JUMPDEST PUSH1 0x0 PUSH2 0x539 DUP4 DUP4 PUSH2 0x50F JUMP JUMPDEST SWAP2 POP DUP3 PUSH1 0x2 MUL DUP3 OR SWAP1 POP SWAP3 SWAP2 POP POP JUMP JUMPDEST PUSH2 0x552 DUP3 PUSH2 0x2F9 JUMP JUMPDEST PUSH8 0xFFFFFFFFFFFFFFFF DUP2 GT ISZERO PUSH2 0x56B JUMPI PUSH2 0x56A PUSH2 0x304 JUMP JUMPDEST JUMPDEST PUSH2 0x575 DUP3 SLOAD PUSH2 0x362 JUMP JUMPDEST PUSH2 0x580 DUP3 DUP3 DUP6 PUSH2 0x4BC JUMP JUMPDEST PUSH1 0x0 PUSH1 0x20 SWAP1 POP PUSH1 0x1F DUP4 GT PUSH1 0x1 DUP2 EQ PUSH2 0x5B3 JUMPI PUSH1 0x0 DUP5 ISZERO PUSH2 0x5A1 JUMPI DUP3 DUP8 ADD MLOAD SWAP1 POP JUMPDEST PUSH2 0x5AB DUP6 DUP3 PUSH2 0x52D JUMP JUMPDEST DUP7 SSTORE POP PUSH2 0x613 JUMP JUMPDEST PUSH1 0x1F NOT DUP5 AND PUSH2 0x5C1 DUP7 PUSH2 0x393 JUMP JUMPDEST PUSH1 0x0 JUMPDEST DUP3 DUP2 LT ISZERO PUSH2 0x5E9 JUMPI DUP5 DUP10 ADD MLOAD DUP3 SSTORE PUSH1 0x1 DUP3 ADD SWAP2 POP PUSH1 0x20 DUP6 ADD SWAP5 POP PUSH1 0x20 DUP2 ADD SWAP1 POP PUSH2 0x5C4 JUMP JUMPDEST DUP7 DUP4 LT ISZERO PUSH2 0x606 JUMPI DUP5 DUP10 ADD MLOAD PUSH2 0x602 PUSH1 0x1F DUP10 AND DUP3 PUSH2 0x50F JUMP JUMPDEST DUP4 SSTORE POP JUMPDEST PUSH1 0x1 PUSH1 0x2 DUP9 MUL ADD DUP9 SSTORE POP POP POP JUMPDEST POP POP POP POP POP POP JUMP JUMPDEST PUSH1 0x0 DUP3 DUP3 MSTORE PUSH1 0x20 DUP3 ADD SWAP1 POP SWAP3 SWAP2 POP POP JUMP JUMPDEST PUSH32 0x4964656E746963616C20746F6B656E7300000000000000000000000000000000 PUSH1 0x0 DUP3 ADD MSTORE POP JUMP JUMPDEST PUSH1 0x0 PUSH2 0x662 PUSH1 0x10 DUP4 PUSH2 0x61B JUMP JUMPDEST SWAP2 POP PUSH2 0x66D DUP3 PUSH2 0x62C JUMP JUMPDEST PUSH1 0x20 DUP3 ADD SWAP1 POP SWAP2 SWAP1 POP JUMP JUMPDEST PUSH1 0x0 PUSH1 0x20 DUP3 ADD SWAP1 POP DUP2 DUP2 SUB PUSH1 0x0 DUP4 ADD MSTORE PUSH2 0x691 DUP2 PUSH2 0x655 JUMP JUMPDEST SWAP1 POP SWAP2 SWAP1 POP JUMP JUMPDEST PUSH1 0x80 MLOAD PUSH1 0xA0 MLOAD PUSH2 0x3A27 PUSH2 0x742 PUSH1 0x0 CODECOPY PUSH1 0x0 DUP2 DUP2 PUSH2 0xB2A ADD MSTORE DUP2 DUP2 PUSH2 0xCF3 ADD MSTORE DUP2 DUP2 PUSH2 0xD65 ADD MSTORE DUP2 DUP2 PUSH2 0xF98 ADD MSTORE DUP2 DUP2 PUSH2 0x1269 ADD MSTORE DUP2 DUP2 PUSH2 0x14F0 ADD MSTORE DUP2 DUP2 PUSH2 0x182D ADD MSTORE DUP2 DUP2 PUSH2 0x1A0E ADD MSTORE DUP2 DUP2 PUSH2 0x1C95 ADD MSTORE PUSH2 0x2293 ADD MSTORE PUSH1 0x0 DUP2 DUP2 PUSH2 0x5C6 ADD MSTORE DUP2 DUP2 PUSH2 0xC9D ADD MSTORE DUP2 DUP2 PUSH2 0xDBB ADD MSTORE DUP2 DUP2 PUSH2 0xED2 ADD MSTORE DUP2 DUP2 PUSH2 0x10E7 ADD MSTORE DUP2 DUP2 PUSH2 0x1213 ADD MSTORE DUP2 DUP2 PUSH2 0x142A ADD MSTORE DUP2 DUP2 PUSH2 0x1766 ADD MSTORE DUP2 DUP2 PUSH2 0x19B8 ADD MSTORE DUP2 DUP2 PUSH2 0x1BCF ADD MSTORE PUSH2 0x21CA ADD MSTORE PUSH2 0x3A27 PUSH1 0x0 RETURN INVALID PUSH1 0x80 PUSH1 0x40 MSTORE CALLVALUE DUP1 ISZERO PUSH2 0x10 JUMPI PUSH1 0x0 DUP1 REVERT JUMPDEST POP PUSH1 0x4 CALLDATASIZE LT PUSH2 0x100 JUMPI PUSH1 0x0 CALLDATALOAD PUSH1 0xE0 SHR DUP1 PUSH4 0x5F64B55B GT PUSH2 0x97 JUMPI DUP1 PUSH4 0xAC41865A GT PUSH2 0x66 JUMPI DUP1 PUSH4 0xAC41865A EQ PUSH2 0x2C5 JUMPI DUP1 PUSH4 0xBAA2ABDE EQ PUSH2 0x2F5 JUMPI DUP1 PUSH4 0xDD62ED3E EQ PUSH2 0x326 JUMPI DUP1 PUSH4 0xE8E33700 EQ PUSH2 0x356 JUMPI PUSH2 0x100 JUMP JUMPDEST DUP1 PUSH4 0x5F64B55B EQ PUSH2 0x229 JUMPI DUP1 PUSH4 0x70A08231 EQ PUSH2 0x247 JUMPI DUP1 PUSH4 0x95D89B41 EQ PUSH2 0x277 JUMPI DUP1 PUSH4 0xA9059CBB EQ PUSH2 0x295 JUMPI PUSH2 0x100 JUMP JUMPDEST DUP1 PUSH4 0x18160DDD GT PUSH2 0xD3 JUMPI DUP1 PUSH4 0x18160DDD EQ PUSH2 0x1A1 JUMPI DUP1 PUSH4 0x23B872DD EQ PUSH2 0x1BF JUMPI DUP1 PUSH4 0x313CE567 EQ PUSH2 0x1EF JUMPI DUP1 PUSH4 0x38ED1739 EQ PUSH2 0x20D JUMPI PUSH2 0x100 JUMP JUMPDEST DUP1 PUSH4 0x54D50D4 EQ PUSH2 0x105 JUMPI DUP1 PUSH4 0x6FDDE03 EQ PUSH2 0x135 JUMPI DUP1 PUSH4 0x95EA7B3 EQ PUSH2 0x153 JUMPI DUP1 PUSH4 0xFC63D10 EQ PUSH2 0x183 JUMPI JUMPDEST PUSH1 0x0 DUP1 REVERT JUMPDEST PUSH2 0x11F PUSH1 0x4 DUP1 CALLDATASIZE SUB DUP2 ADD SWAP1 PUSH2 0x11A SWAP2 SWAP1 PUSH2 0x2C9E JUMP JUMPDEST PUSH2 0x388 JUMP JUMPDEST PUSH1 0x40 MLOAD PUSH2 0x12C SWAP2 SWAP1 PUSH2 0x2D00 JUMP JUMPDEST PUSH1 0x40 MLOAD DUP1 SWAP2 SUB SWAP1 RETURN JUMPDEST PUSH2 0x13D PUSH2 0x50F JUMP JUMPDEST PUSH1 0x40 MLOAD PUSH2 0x14A SWAP2 SWAP1 PUSH2 0x2DAB JUMP JUMPDEST PUSH1 0x40 MLOAD DUP1 SWAP2 SUB SWAP1 RETURN JUMPDEST PUSH2 0x16D PUSH1 0x4 DUP1 CALLDATASIZE SUB DUP2 ADD SWAP1 PUSH2 0x168 SWAP2 SWAP1 PUSH2 0x2E2B JUMP JUMPDEST PUSH2 0x5A1 JUMP JUMPDEST PUSH1 0x40 MLOAD PUSH2 0x17A SWAP2 SWAP1 PUSH2 0x2E86 JUMP JUMPDEST PUSH1 0x40 MLOAD DUP1 SWAP2 SUB SWAP1 RETURN JUMPDEST PUSH2 0x18B PUSH2 0x5C4 JUMP JUMPDEST PUSH1 0x40 MLOAD PUSH2 0x198 SWAP2 SWAP1 PUSH2 0x2F00 JUMP JUMPDEST PUSH1 0x40 MLOAD DUP1 SWAP2 SUB SWAP1 RETURN JUMPDEST PUSH2 0x1A9 PUSH2 0x5E8 JUMP JUMPDEST PUSH1 0x40 MLOAD PUSH2 0x1B6 SWAP2 SWAP1 PUSH2 0x2D00 JUMP JUMPDEST PUSH1 0x40 MLOAD DUP1 SWAP2 SUB SWAP1 RETURN JUMPDEST PUSH2 0x1D9 PUSH1 0x4 DUP1 CALLDATASIZE SUB DUP2 ADD SWAP1 PUSH2 0x1D4 SWAP2 SWAP1 PUSH2 0x2F1B JUMP JUMPDEST PUSH2 0x5F2 JUMP JUMPDEST PUSH1 0x40 MLOAD PUSH2 0x1E6 SWAP2 SWAP1 PUSH2 0x2E86 JUMP JUMPDEST PUSH1 0x40 MLOAD DUP1 SWAP2 SUB SWAP1 RETURN JUMPDEST PUSH2 0x1F7 PUSH2 0x621 JUMP JUMPDEST PUSH1 0x40 MLOAD PUSH2 0x204 SWAP2 SWAP1 PUSH2 0x2F8A JUMP JUMPDEST PUSH1 0x40 MLOAD DUP1 SWAP2 SUB SWAP1 RETURN JUMPDEST PUSH2 0x227 PUSH1 0x4 DUP1 CALLDATASIZE SUB DUP2 ADD SWAP1 PUSH2 0x222 SWAP2 SWAP1 PUSH2 0x300A JUMP JUMPDEST PUSH2 0x62A JUMP JUMPDEST STOP JUMPDEST PUSH2 0x231 PUSH2 0xB28 JUMP JUMPDEST PUSH1 0x40 MLOAD PUSH2 0x23E SWAP2 SWAP1 PUSH2 0x2F00 JUMP JUMPDEST PUSH1 0x40 MLOAD DUP1 SWAP2 SUB SWAP1 RETURN JUMPDEST PUSH2 0x261 PUSH1 0x4 DUP1 CALLDATASIZE SUB DUP2 ADD SWAP1 PUSH2 0x25C SWAP2 SWAP1 PUSH2 0x30A4 JUMP JUMPDEST PUSH2 0xB4C JUMP JUMPDEST PUSH1 0x40 MLOAD PUSH2 0x26E SWAP2 SWAP1 PUSH2 0x2D00 JUMP JUMPDEST PUSH1 0x40 MLOAD DUP1 SWAP2 SUB SWAP1 RETURN JUMPDEST PUSH2 0x27F PUSH2 0xB94 JUMP JUMPDEST PUSH1 0x40 MLOAD PUSH2 0x28C SWAP2 SWAP1 PUSH2 0x2DAB JUMP JUMPDEST PUSH1 0x40 MLOAD DUP1 SWAP2 SUB SWAP1 RETURN JUMPDEST PUSH2 0x2AF PUSH1 0x4 DUP1 CALLDATASIZE SUB DUP2 ADD SWAP1 PUSH2 0x2AA SWAP2 SWAP1 PUSH2 0x2E2B JUMP JUMPDEST PUSH2 0xC26 JUMP JUMPDEST PUSH1 0x40 MLOAD PUSH2 0x2BC SWAP2 SWAP1 PUSH2 0x2E86 JUMP JUMPDEST PUSH1 0x40 MLOAD DUP1 SWAP2 SUB SWAP1 RETURN JUMPDEST PUSH2 0x2DF PUSH1 0x4 DUP1 CALLDATASIZE SUB DUP2 ADD SWAP1 PUSH2 0x2DA SWAP2 SWAP1 PUSH2 0x30D1 JUMP JUMPDEST PUSH2 0xC49 JUMP JUMPDEST PUSH1 0x40 MLOAD PUSH2 0x2EC SWAP2 SWAP1 PUSH2 0x2D00 JUMP JUMPDEST PUSH1 0x40 MLOAD DUP1 SWAP2 SUB SWAP1 RETURN JUMPDEST PUSH2 0x30F PUSH1 0x4 DUP1 CALLDATASIZE SUB DUP2 ADD SWAP1 PUSH2 0x30A SWAP2 SWAP1 PUSH2 0x3111 JUMP JUMPDEST PUSH2 0x11BE JUMP JUMPDEST PUSH1 0x40 MLOAD PUSH2 0x31D SWAP3 SWAP2 SWAP1 PUSH2 0x31B3 JUMP JUMPDEST PUSH1 0x40 MLOAD DUP1 SWAP2 SUB SWAP1 RETURN JUMPDEST PUSH2 0x340 PUSH1 0x4 DUP1 CALLDATASIZE SUB DUP2 ADD SWAP1 PUSH2 0x33B SWAP2 SWAP1 PUSH2 0x30D1 JUMP JUMPDEST PUSH2 0x18DA JUMP JUMPDEST PUSH1 0x40 MLOAD PUSH2 0x34D SWAP2 SWAP1 PUSH2 0x2D00 JUMP JUMPDEST PUSH1 0x40 MLOAD DUP1 SWAP2 SUB SWAP1 RETURN JUMPDEST PUSH2 0x370 PUSH1 0x4 DUP1 CALLDATASIZE SUB DUP2 ADD SWAP1 PUSH2 0x36B SWAP2 SWAP1 PUSH2 0x31DC JUMP JUMPDEST PUSH2 0x1961 JUMP JUMPDEST PUSH1 0x40 MLOAD PUSH2 0x37F SWAP4 SWAP3 SWAP2 SWAP1 PUSH2 0x3292 JUMP JUMPDEST PUSH1 0x40 MLOAD DUP1 SWAP2 SUB SWAP1 RETURN JUMPDEST PUSH1 0x0 PUSH2 0x39E PUSH8 0x671DE5FAD4D2966A PUSH1 0xC0 SHL PUSH2 0x23E7 JUMP JUMPDEST PUSH2 0x3B2 PUSH8 0xDF3CE1979D387F7A PUSH1 0xC0 SHL PUSH2 0x23E7 JUMP JUMPDEST PUSH2 0x3C6 PUSH8 0xE54F7AC9042C4A38 PUSH1 0xC0 SHL PUSH2 0x23E7 JUMP JUMPDEST PUSH2 0x3DA PUSH8 0xF2B771407D8EB213 PUSH1 0xC0 SHL PUSH2 0x23E7 JUMP JUMPDEST PUSH1 0x0 DUP5 GT PUSH2 0x41D JUMPI PUSH1 0x40 MLOAD PUSH32 0x8C379A000000000000000000000000000000000000000000000000000000000 DUP2 MSTORE PUSH1 0x4 ADD PUSH2 0x414 SWAP1 PUSH2 0x3315 JUMP JUMPDEST PUSH1 0x40 MLOAD DUP1 SWAP2 SUB SWAP1 REVERT JUMPDEST PUSH2 0x431 PUSH8 0x1CCFBD504D490D8F PUSH1 0xC0 SHL PUSH2 0x23E7 JUMP JUMPDEST PUSH2 0x445 PUSH8 0x7C2D99F8573DD1B4 PUSH1 0xC0 SHL PUSH2 0x23E7 JUMP JUMPDEST PUSH2 0x459 PUSH8 0x21EAC92E992BA1AB PUSH1 0xC0 SHL PUSH2 0x23E7 JUMP JUMPDEST PUSH2 0x46D PUSH8 0x82B2A1C8C284495F PUSH1 0xC0 SHL PUSH2 0x23E7 JUMP JUMPDEST PUSH1 0x0 DUP4 GT DUP1 ISZERO PUSH2 0x47D JUMPI POP PUSH1 0x0 DUP3 GT JUMPDEST PUSH2 0x4BC JUMPI PUSH1 0x40 MLOAD PUSH32 0x8C379A000000000000000000000000000000000000000000000000000000000 DUP2 MSTORE PUSH1 0x4 ADD PUSH2 0x4B3 SWAP1 PUSH2 0x3381 JUMP JUMPDEST PUSH1 0x40 MLOAD DUP1 SWAP2 SUB SWAP1 REVERT JUMPDEST PUSH2 0x4D0 PUSH8 0x7989569AB566E0A6 PUSH1 0xC0 SHL PUSH2 0x23E7 JUMP JUMPDEST PUSH2 0x4E4 PUSH8 0xFB70871154AA25CD PUSH1 0xC0 SHL PUSH2 0x23E7 JUMP JUMPDEST DUP3 DUP5 PUSH2 0x4F0 SWAP2 SWAP1 PUSH2 0x33D0 JUMP JUMPDEST DUP3 DUP6 PUSH2 0x4FC SWAP2 SWAP1 PUSH2 0x3404 JUMP JUMPDEST PUSH2 0x506 SWAP2 SWAP1 PUSH2 0x3475 JUMP JUMPDEST SWAP1 POP SWAP4 SWAP3 POP POP POP JUMP JUMPDEST PUSH1 0x60 PUSH1 0x3 DUP1 SLOAD PUSH2 0x51E SWAP1 PUSH2 0x34D5 JUMP JUMPDEST DUP1 PUSH1 0x1F ADD PUSH1 0x20 DUP1 SWAP2 DIV MUL PUSH1 0x20 ADD PUSH1 0x40 MLOAD SWAP1 DUP2 ADD PUSH1 0x40 MSTORE DUP1 SWAP3 SWAP2 SWAP1 DUP2 DUP2 MSTORE PUSH1 0x20 ADD DUP3 DUP1 SLOAD PUSH2 0x54A SWAP1 PUSH2 0x34D5 JUMP JUMPDEST DUP1 ISZERO PUSH2 0x597 JUMPI DUP1 PUSH1 0x1F LT PUSH2 0x56C JUMPI PUSH2 0x100 DUP1 DUP4 SLOAD DIV MUL DUP4 MSTORE SWAP2 PUSH1 0x20 ADD SWAP2 PUSH2 0x597 JUMP JUMPDEST DUP3 ADD SWAP2 SWAP1 PUSH1 0x0 MSTORE PUSH1 0x20 PUSH1 0x0 KECCAK256 SWAP1 JUMPDEST DUP2 SLOAD DUP2 MSTORE SWAP1 PUSH1 0x1 ADD SWAP1 PUSH1 0x20 ADD DUP1 DUP4 GT PUSH2 0x57A JUMPI DUP3 SWAP1 SUB PUSH1 0x1F AND DUP3 ADD SWAP2 JUMPDEST POP POP POP POP POP SWAP1 POP SWAP1 JUMP JUMPDEST PUSH1 0x0 DUP1 PUSH2 0x5AC PUSH2 0x23EA JUMP JUMPDEST SWAP1 POP PUSH2 0x5B9 DUP2 DUP6 DUP6 PUSH2 0x23F2 JUMP JUMPDEST PUSH1 0x1 SWAP2 POP POP SWAP3 SWAP2 POP POP JUMP JUMPDEST PUSH32 0x0 DUP2 JUMP JUMPDEST PUSH1 0x0 PUSH1 0x2 SLOAD SWAP1 POP SWAP1 JUMP JUMPDEST PUSH1 0x0 DUP1 PUSH2 0x5FD PUSH2 0x23EA JUMP JUMPDEST SWAP1 POP PUSH2 0x60A DUP6 DUP3 DUP6 PUSH2 0x2404 JUMP JUMPDEST PUSH2 0x615 DUP6 DUP6 DUP6 PUSH2 0x2499 JUMP JUMPDEST PUSH1 0x1 SWAP2 POP POP SWAP4 SWAP3 POP POP POP JUMP JUMPDEST PUSH1 0x0 PUSH1 0x12 SWAP1 POP SWAP1 JUMP JUMPDEST PUSH2 0x63E PUSH8 0x78B90607ED953CED PUSH1 0xC0 SHL PUSH2 0x23E7 JUMP JUMPDEST PUSH2 0x652 PUSH8 0xB9D05C9185299E6C PUSH1 0xC0 SHL PUSH2 0x23E7 JUMP JUMPDEST PUSH2 0x666 PUSH8 0x5A8F872E6D54E7DA PUSH1 0xC0 SHL PUSH2 0x23E7 JUMP JUMPDEST PUSH2 0x67A PUSH8 0xB9F947D4F6A85B66 PUSH1 0xC0 SHL PUSH2 0x23E7 JUMP JUMPDEST DUP1 TIMESTAMP GT ISZERO PUSH2 0x6BD JUMPI PUSH1 0x40 MLOAD PUSH32 0x8C379A000000000000000000000000000000000000000000000000000000000 DUP2 MSTORE PUSH1 0x4 ADD PUSH2 0x6B4 SWAP1 PUSH2 0x3552 JUMP JUMPDEST PUSH1 0x40 MLOAD DUP1 SWAP2 SUB SWAP1 REVERT JUMPDEST PUSH2 0x6D1 PUSH8 0x9F4CFE0A54CDACCD PUSH1 0xC0 SHL PUSH2 0x23E7 JUMP JUMPDEST PUSH2 0x6E5 PUSH8 0x88B5D9D3CBF12792 PUSH1 0xC0 SHL PUSH2 0x23E7 JUMP JUMPDEST PUSH2 0x6F9 PUSH8 0x4AA0B316480CF7D0 PUSH1 0xC0 SHL PUSH2 0x23E7 JUMP JUMPDEST PUSH2 0x70D PUSH8 0xA6A42F6E41F665D5 PUSH1 0xC0 SHL PUSH2 0x23E7 JUMP JUMPDEST PUSH1 0x2 DUP5 DUP5 SWAP1 POP EQ PUSH2 0x753 JUMPI PUSH1 0x40 MLOAD PUSH32 0x8C379A000000000000000000000000000000000000000000000000000000000 DUP2 MSTORE PUSH1 0x4 ADD PUSH2 0x74A SWAP1 PUSH2 0x35BE JUMP JUMPDEST PUSH1 0x40 MLOAD DUP1 SWAP2 SUB SWAP1 REVERT JUMPDEST PUSH2 0x767 PUSH8 0xD457D628813C303 PUSH1 0xC0 SHL PUSH2 0x23E7 JUMP JUMPDEST PUSH2 0x77B PUSH8 0x7F03A0904ED18201 PUSH1 0xC0 SHL PUSH2 0x23E7 JUMP JUMPDEST PUSH2 0x78F PUSH8 0x6C4964EBE95C8FAB PUSH1 0xC0 SHL PUSH2 0x23E7 JUMP JUMPDEST PUSH1 0x0 DUP5 DUP5 PUSH1 0x0 DUP2 DUP2 LT PUSH2 0x7A5 JUMPI PUSH2 0x7A4 PUSH2 0x35DE JUMP JUMPDEST JUMPDEST SWAP1 POP PUSH1 0x20 MUL ADD PUSH1 0x20 DUP2 ADD SWAP1 PUSH2 0x7BA SWAP2 SWAP1 PUSH2 0x30A4 JUMP JUMPDEST SWAP1 POP PUSH2 0x7D0 PUSH8 0xF8D59AD238413C1D PUSH1 0xC0 SHL PUSH2 0x23E7 JUMP JUMPDEST PUSH2 0x7E4 PUSH8 0xAD7722208DB9620A PUSH1 0xC0 SHL PUSH2 0x23E7 JUMP JUMPDEST PUSH1 0x0 DUP6 DUP6 PUSH1 0x1 DUP2 DUP2 LT PUSH2 0x7FA JUMPI PUSH2 0x7F9 PUSH2 0x35DE JUMP JUMPDEST JUMPDEST SWAP1 POP PUSH1 0x20 MUL ADD PUSH1 0x20 DUP2 ADD SWAP1 PUSH2 0x80F SWAP2 SWAP1 PUSH2 0x30A4 JUMP JUMPDEST SWAP1 POP PUSH2 0x825 PUSH8 0x40C1E92FDE97D9C PUSH1 0xC0 SHL PUSH2 0x23E7 JUMP JUMPDEST PUSH2 0x839 PUSH8 0x1D0F683253428F82 PUSH1 0xC0 SHL PUSH2 0x23E7 JUMP JUMPDEST PUSH1 0x0 PUSH2 0x938 DUP10 DUP5 PUSH20 0xFFFFFFFFFFFFFFFFFFFFFFFFFFFFFFFFFFFFFFFF AND PUSH4 0x70A08231 ADDRESS PUSH1 0x40 MLOAD DUP3 PUSH4 0xFFFFFFFF AND PUSH1 0xE0 SHL DUP2 MSTORE PUSH1 0x4 ADD PUSH2 0x878 SWAP2 SWAP1 PUSH2 0x361C JUMP JUMPDEST PUSH1 0x20 PUSH1 0x40 MLOAD DUP1 DUP4 SUB DUP2 DUP7 GAS STATICCALL ISZERO DUP1 ISZERO PUSH2 0x895 JUMPI RETURNDATASIZE PUSH1 0x0 DUP1 RETURNDATACOPY RETURNDATASIZE PUSH1 0x0 REVERT JUMPDEST POP POP POP POP PUSH1 0x40 MLOAD RETURNDATASIZE PUSH1 0x1F NOT PUSH1 0x1F DUP3 ADD AND DUP3 ADD DUP1 PUSH1 0x40 MSTORE POP DUP2 ADD SWAP1 PUSH2 0x8B9 SWAP2 SWAP1 PUSH2 0x364C JUMP JUMPDEST DUP5 PUSH20 0xFFFFFFFFFFFFFFFFFFFFFFFFFFFFFFFFFFFFFFFF AND PUSH4 0x70A08231 ADDRESS PUSH1 0x40 MLOAD DUP3 PUSH4 0xFFFFFFFF AND PUSH1 0xE0 SHL DUP2 MSTORE PUSH1 0x4 ADD PUSH2 0x8F2 SWAP2 SWAP1 PUSH2 0x361C JUMP JUMPDEST PUSH1 0x20 PUSH1 0x40 MLOAD DUP1 DUP4 SUB DUP2 DUP7 GAS STATICCALL ISZERO DUP1 ISZERO PUSH2 0x90F JUMPI RETURNDATASIZE PUSH1 0x0 DUP1 RETURNDATACOPY RETURNDATASIZE PUSH1 0x0 REVERT JUMPDEST POP POP POP POP PUSH1 0x40 MLOAD RETURNDATASIZE PUSH1 0x1F NOT PUSH1 0x1F DUP3 ADD AND DUP3 ADD DUP1 PUSH1 0x40 MSTORE POP DUP2 ADD SWAP1 PUSH2 0x933 SWAP2 SWAP1 PUSH2 0x364C JUMP JUMPDEST PUSH2 0x388 JUMP JUMPDEST SWAP1 POP PUSH2 0x94E PUSH8 0xCB80DB2118A64E09 PUSH1 0xC0 SHL PUSH2 0x23E7 JUMP JUMPDEST PUSH2 0x962 PUSH8 0xF03145BD7878CF0 PUSH1 0xC0 SHL PUSH2 0x23E7 JUMP JUMPDEST PUSH2 0x976 PUSH8 0x5A58A71C0B6A8D1E PUSH1 0xC0 SHL PUSH2 0x23E7 JUMP JUMPDEST DUP8 DUP2 LT ISZERO PUSH2 0x9B9 JUMPI PUSH1 0x40 MLOAD PUSH32 0x8C379A000000000000000000000000000000000000000000000000000000000 DUP2 MSTORE PUSH1 0x4 ADD PUSH2 0x9B0 SWAP1 PUSH2 0x36C5 JUMP JUMPDEST PUSH1 0x40 MLOAD DUP1 SWAP2 SUB SWAP1 REVERT JUMPDEST PUSH2 0x9CD PUSH8 0x84DEE36AF5051C08 PUSH1 0xC0 SHL PUSH2 0x23E7 JUMP JUMPDEST PUSH2 0x9E1 PUSH8 0x673D13788AF1743 PUSH1 0xC0 SHL PUSH2 0x23E7 JUMP JUMPDEST PUSH2 0x9F5 PUSH8 0x680E5116B013E4DF PUSH1 0xC0 SHL PUSH2 0x23E7 JUMP JUMPDEST DUP3 PUSH20 0xFFFFFFFFFFFFFFFFFFFFFFFFFFFFFFFFFFFFFFFF AND PUSH4 0x23B872DD CALLER ADDRESS DUP13 PUSH1 0x40 MLOAD DUP5 PUSH4 0xFFFFFFFF AND PUSH1 0xE0 SHL DUP2 MSTORE PUSH1 0x4 ADD PUSH2 0xA32 SWAP4 SWAP3 SWAP2 SWAP1 PUSH2 0x36E5 JUMP JUMPDEST PUSH1 0x20 PUSH1 0x40 MLOAD DUP1 DUP4 SUB DUP2 PUSH1 0x0 DUP8 GAS CALL ISZERO DUP1 ISZERO PUSH2 0xA51 JUMPI RETURNDATASIZE PUSH1 0x0 DUP1 RETURNDATACOPY RETURNDATASIZE PUSH1 0x0 REVERT JUMPDEST POP POP POP POP PUSH1 0x40 MLOAD RETURNDATASIZE PUSH1 0x1F NOT PUSH1 0x1F DUP3 ADD AND DUP3 ADD DUP1 PUSH1 0x40 MSTORE POP DUP2 ADD SWAP1 PUSH2 0xA75 SWAP2 SWAP1 PUSH2 0x3748 JUMP JUMPDEST POP PUSH2 0xA8A PUSH8 0x8370F37EC24A349B PUSH1 0xC0 SHL PUSH2 0x23E7 JUMP JUMPDEST PUSH2 0xA9E PUSH8 0x15343F5CCCEAB503 PUSH1 0xC0 SHL PUSH2 0x23E7 JUMP JUMPDEST DUP2 PUSH20 0xFFFFFFFFFFFFFFFFFFFFFFFFFFFFFFFFFFFFFFFF AND PUSH4 0xA9059CBB DUP7 DUP4 PUSH1 0x40 MLOAD DUP4 PUSH4 0xFFFFFFFF AND PUSH1 0xE0 SHL DUP2 MSTORE PUSH1 0x4 ADD PUSH2 0xAD9 SWAP3 SWAP2 SWAP1 PUSH2 0x3775 JUMP JUMPDEST PUSH1 0x20 PUSH1 0x40 MLOAD DUP1 DUP4 SUB DUP2 PUSH1 0x0 DUP8 GAS CALL ISZERO DUP1 ISZERO PUSH2 0xAF8 JUMPI RETURNDATASIZE PUSH1 0x0 DUP1 RETURNDATACOPY RETURNDATASIZE PUSH1 0x0 REVERT JUMPDEST POP POP POP POP PUSH1 0x40 MLOAD RETURNDATASIZE PUSH1 0x1F NOT PUSH1 0x1F DUP3 ADD AND DUP3 ADD DUP1 PUSH1 0x40 MSTORE POP DUP2 ADD SWAP1 PUSH2 0xB1C SWAP2 SWAP1 PUSH2 0x3748 JUMP JUMPDEST POP POP POP POP POP POP POP POP POP POP JUMP JUMPDEST PUSH32 0x0 DUP2 JUMP JUMPDEST PUSH1 0x0 DUP1 PUSH1 0x0 DUP4 PUSH20 0xFFFFFFFFFFFFFFFFFFFFFFFFFFFFFFFFFFFFFFFF AND PUSH20 0xFFFFFFFFFFFFFFFFFFFFFFFFFFFFFFFFFFFFFFFF AND DUP2 MSTORE PUSH1 0x20 ADD SWAP1 DUP2 MSTORE PUSH1 0x20 ADD PUSH1 0x0 KECCAK256 SLOAD SWAP1 POP SWAP2 SWAP1 POP JUMP JUMPDEST PUSH1 0x60 PUSH1 0x4 DUP1 SLOAD PUSH2 0xBA3 SWAP1 PUSH2 0x34D5 JUMP JUMPDEST DUP1 PUSH1 0x1F ADD PUSH1 0x20 DUP1 SWAP2 DIV MUL PUSH1 0x20 ADD PUSH1 0x40 MLOAD SWAP1 DUP2 ADD PUSH1 0x40 MSTORE DUP1 SWAP3 SWAP2 SWAP1 DUP2 DUP2 MSTORE PUSH1 0x20 ADD DUP3 DUP1 SLOAD PUSH2 0xBCF SWAP1 PUSH2 0x34D5 JUMP JUMPDEST DUP1 ISZERO PUSH2 0xC1C JUMPI DUP1 PUSH1 0x1F LT PUSH2 0xBF1 JUMPI PUSH2 0x100 DUP1 DUP4 SLOAD DIV MUL DUP4 MSTORE SWAP2 PUSH1 0x20 ADD SWAP2 PUSH2 0xC1C JUMP JUMPDEST DUP3 ADD SWAP2 SWAP1 PUSH1 0x0 MSTORE PUSH1 0x20 PUSH1 0x0 KECCAK256 SWAP1 JUMPDEST DUP2 SLOAD DUP2 MSTORE SWAP1 PUSH1 0x1 ADD SWAP1 PUSH1 0x20 ADD DUP1 DUP4 GT PUSH2 0xBFF JUMPI DUP3 SWAP1 SUB PUSH1 0x1F AND DUP3 ADD SWAP2 JUMPDEST POP POP POP POP POP SWAP1 POP SWAP1 JUMP JUMPDEST PUSH1 0x0 DUP1 PUSH2 0xC31 PUSH2 0x23EA JUMP JUMPDEST SWAP1 POP PUSH2 0xC3E DUP2 DUP6 DUP6 PUSH2 0x2499 JUMP JUMPDEST PUSH1 0x1 SWAP2 POP POP SWAP3 SWAP2 POP POP JUMP JUMPDEST PUSH1 0x0 PUSH2 0xC5F PUSH8 0x474BF53F1E0AB5EB PUSH1 0xC0 SHL PUSH2 0x23E7 JUMP JUMPDEST PUSH2 0xC73 PUSH8 0x5086F9131F27F92D PUSH1 0xC0 SHL PUSH2 0x23E7 JUMP JUMPDEST PUSH2 0xC87 PUSH8 0x787271642465A1C2 PUSH1 0xC0 SHL PUSH2 0x23E7 JUMP JUMPDEST PUSH2 0xC9B PUSH8 0x45272F42FBF7744C PUSH1 0xC0 SHL PUSH2 0x23E7 JUMP JUMPDEST PUSH32 0x0 PUSH20 0xFFFFFFFFFFFFFFFFFFFFFFFFFFFFFFFFFFFFFFFF AND DUP4 PUSH20 0xFFFFFFFFFFFFFFFFFFFFFFFFFFFFFFFFFFFFFFFF AND EQ DUP1 ISZERO PUSH2 0xD41 JUMPI POP PUSH32 0x0 PUSH20 0xFFFFFFFFFFFFFFFFFFFFFFFFFFFFFFFFFFFFFFFF AND DUP3 PUSH20 0xFFFFFFFFFFFFFFFFFFFFFFFFFFFFFFFFFFFFFFFF AND EQ JUMPDEST DUP1 ISZERO PUSH2 0xD5D JUMPI POP PUSH2 0xD5C PUSH8 0xEF2D0585809A202E PUSH1 0xC0 SHL PUSH2 0x258D JUMP JUMPDEST JUMPDEST DUP1 PUSH2 0xE26 JUMPI POP PUSH32 0x0 PUSH20 0xFFFFFFFFFFFFFFFFFFFFFFFFFFFFFFFFFFFFFFFF AND DUP4 PUSH20 0xFFFFFFFFFFFFFFFFFFFFFFFFFFFFFFFFFFFFFFFF AND EQ DUP1 ISZERO PUSH2 0xE09 JUMPI POP PUSH32 0x0 PUSH20 0xFFFFFFFFFFFFFFFFFFFFFFFFFFFFFFFFFFFFFFFF AND DUP3 PUSH20 0xFFFFFFFFFFFFFFFFFFFFFFFFFFFFFFFFFFFFFFFF AND EQ JUMPDEST DUP1 ISZERO PUSH2 0xE25 JUMPI POP PUSH2 0xE24 PUSH8 0xB082B5E187717B4 PUSH1 0xC0 SHL PUSH2 0x258D JUMP JUMPDEST JUMPDEST JUMPDEST PUSH2 0xE65 JUMPI PUSH1 0x40 MLOAD PUSH32 0x8C379A000000000000000000000000000000000000000000000000000000000 DUP2 MSTORE PUSH1 0x4 ADD PUSH2 0xE5C SWAP1 PUSH2 0x37EA JUMP JUMPDEST PUSH1 0x40 MLOAD DUP1 SWAP2 SUB SWAP1 REVERT JUMPDEST PUSH2 0xE79 PUSH8 0xF03009258A515BF3 PUSH1 0xC0 SHL PUSH2 0x23E7 JUMP JUMPDEST PUSH2 0xE8D PUSH8 0xC8302086CC93A66B PUSH1 0xC0 SHL PUSH2 0x23E7 JUMP JUMPDEST PUSH2 0xEA1 PUSH8 0xBF3FCAFC6254BF08 PUSH1 0xC0 SHL PUSH2 0x23E7 JUMP JUMPDEST PUSH1 0x0 ADDRESS SWAP1 POP PUSH2 0xEBA PUSH8 0xA7AF83B93A01C291 PUSH1 0xC0 SHL PUSH2 0x23E7 JUMP JUMPDEST PUSH2 0xECE PUSH8 0x6C7507B2BA6495D5 PUSH1 0xC0 SHL PUSH2 0x23E7 JUMP JUMPDEST PUSH1 0x0 PUSH32 0x0 PUSH20 0xFFFFFFFFFFFFFFFFFFFFFFFFFFFFFFFFFFFFFFFF AND PUSH4 0x70A08231 DUP4 PUSH1 0x40 MLOAD DUP3 PUSH4 0xFFFFFFFF AND PUSH1 0xE0 SHL DUP2 MSTORE PUSH1 0x4 ADD PUSH2 0xF29 SWAP2 SWAP1 PUSH2 0x361C JUMP JUMPDEST PUSH1 0x20 PUSH1 0x40 MLOAD DUP1 DUP4 SUB DUP2 DUP7 GAS STATICCALL ISZERO DUP1 ISZERO PUSH2 0xF46 JUMPI RETURNDATASIZE PUSH1 0x0 DUP1 RETURNDATACOPY RETURNDATASIZE PUSH1 0x0 REVERT JUMPDEST POP POP POP POP PUSH1 0x40 MLOAD RETURNDATASIZE PUSH1 0x1F NOT PUSH1 0x1F DUP3 ADD AND DUP3 ADD DUP1 PUSH1 0x40 MSTORE POP DUP2 ADD SWAP1 PUSH2 0xF6A SWAP2 SWAP1 PUSH2 0x364C JUMP JUMPDEST SWAP1 POP PUSH2 0xF80 PUSH8 0xA08481194881654 PUSH1 0xC0 SHL PUSH2 0x23E7 JUMP JUMPDEST PUSH2 0xF94 PUSH8 0x987EB4FE3D2070F PUSH1 0xC0 SHL PUSH2 0x23E7 JUMP JUMPDEST PUSH1 0x0 PUSH32 0x0 PUSH20 0xFFFFFFFFFFFFFFFFFFFFFFFFFFFFFFFFFFFFFFFF AND PUSH4 0x70A08231 DUP5 PUSH1 0x40 MLOAD DUP3 PUSH4 0xFFFFFFFF AND PUSH1 0xE0 SHL DUP2 MSTORE PUSH1 0x4 ADD PUSH2 0xFEF SWAP2 SWAP1 PUSH2 0x361C JUMP JUMPDEST PUSH1 0x20 PUSH1 0x40 MLOAD DUP1 DUP4 SUB DUP2 DUP7 GAS STATICCALL ISZERO DUP1 ISZERO PUSH2 0x100C JUMPI RETURNDATASIZE PUSH1 0x0 DUP1 RETURNDATACOPY RETURNDATASIZE PUSH1 0x0 REVERT JUMPDEST POP POP POP POP PUSH1 0x40 MLOAD RETURNDATASIZE PUSH1 0x1F NOT PUSH1 0x1F DUP3 ADD AND DUP3 ADD DUP1 PUSH1 0x40 MSTORE POP DUP2 ADD SWAP1 PUSH2 0x1030 SWAP2 SWAP1 PUSH2 0x364C JUMP JUMPDEST SWAP1 POP PUSH2 0x1046 PUSH8 0xB87E4C5667A721A8 PUSH1 0xC0 SHL PUSH2 0x23E7 JUMP JUMPDEST PUSH2 0x105A PUSH8 0xB066C229916C679 PUSH1 0xC0 SHL PUSH2 0x23E7 JUMP JUMPDEST PUSH2 0x106E PUSH8 0xB04C49EE91DD7DE5 PUSH1 0xC0 SHL PUSH2 0x23E7 JUMP JUMPDEST PUSH1 0x0 DUP3 GT DUP1 ISZERO PUSH2 0x107E JUMPI POP PUSH1 0x0 DUP2 GT JUMPDEST PUSH2 0x10BD JUMPI PUSH1 0x40 MLOAD PUSH32 0x8C379A000000000000000000000000000000000000000000000000000000000 DUP2 MSTORE PUSH1 0x4 ADD PUSH2 0x10B4 SWAP1 PUSH2 0x3381 JUMP JUMPDEST PUSH1 0x40 MLOAD DUP1 SWAP2 SUB SWAP1 REVERT JUMPDEST PUSH2 0x10D1 PUSH8 0x6B754F8F2A8F400D PUSH1 0xC0 SHL PUSH2 0x23E7 JUMP JUMPDEST PUSH2 0x10E5 PUSH8 0x437375C9DD2C54E6 PUSH1 0xC0 SHL PUSH2 0x23E7 JUMP JUMPDEST PUSH32 0x0 PUSH20 0xFFFFFFFFFFFFFFFFFFFFFFFFFFFFFFFFFFFFFFFF AND DUP7 PUSH20 0xFFFFFFFFFFFFFFFFFFFFFFFFFFFFFFFFFFFFFFFF AND EQ DUP1 PUSH2 0x114F JUMPI POP PUSH2 0x114E PUSH8 0x23B76DB8B6B3B2E PUSH1 0xC0 SHL PUSH2 0x2598 JUMP JUMPDEST JUMPDEST DUP1 ISZERO PUSH2 0x116B JUMPI POP PUSH2 0x116A PUSH8 0x9FC741D7F9EEC699 PUSH1 0xC0 SHL PUSH2 0x258D JUMP JUMPDEST JUMPDEST PUSH2 0x1193 JUMPI DUP1 PUSH8 0xDE0B6B3A7640000 DUP4 PUSH2 0x1184 SWAP2 SWAP1 PUSH2 0x3404 JUMP JUMPDEST PUSH2 0x118E SWAP2 SWAP1 PUSH2 0x3475 JUMP JUMPDEST PUSH2 0x11B3 JUMP JUMPDEST DUP2 PUSH8 0xDE0B6B3A7640000 DUP3 PUSH2 0x11A8 SWAP2 SWAP1 PUSH2 0x3404 JUMP JUMPDEST PUSH2 0x11B2 SWAP2 SWAP1 PUSH2 0x3475 JUMP JUMPDEST JUMPDEST SWAP4 POP POP POP POP SWAP3 SWAP2 POP POP JUMP JUMPDEST PUSH1 0x0 DUP1 PUSH2 0x11D5 PUSH8 0xC2160F1477BCD54D PUSH1 0xC0 SHL PUSH2 0x23E7 JUMP JUMPDEST PUSH2 0x11E9 PUSH8 0x393DC4EA85480553 PUSH1 0xC0 SHL PUSH2 0x23E7 JUMP JUMPDEST PUSH2 0x11FD PUSH8 0x7ABF625D1AB24025 PUSH1 0xC0 SHL PUSH2 0x23E7 JUMP JUMPDEST PUSH2 0x1211 PUSH8 0xA58D83EABB9A5618 PUSH1 0xC0 SHL PUSH2 0x23E7 JUMP JUMPDEST PUSH32 0x0 PUSH20 0xFFFFFFFFFFFFFFFFFFFFFFFFFFFFFFFFFFFFFFFF AND DUP10 PUSH20 0xFFFFFFFFFFFFFFFFFFFFFFFFFFFFFFFFFFFFFFFF AND EQ DUP1 ISZERO PUSH2 0x12B7 JUMPI POP PUSH32 0x0 PUSH20 0xFFFFFFFFFFFFFFFFFFFFFFFFFFFFFFFFFFFFFFFF AND DUP9 PUSH20 0xFFFFFFFFFFFFFFFFFFFFFFFFFFFFFFFFFFFFFFFF AND EQ JUMPDEST PUSH2 0x12F6 JUMPI PUSH1 0x40 MLOAD PUSH32 0x8C379A000000000000000000000000000000000000000000000000000000000 DUP2 MSTORE PUSH1 0x4 ADD PUSH2 0x12ED SWAP1 PUSH2 0x37EA JUMP JUMPDEST PUSH1 0x40 MLOAD DUP1 SWAP2 SUB SWAP1 REVERT JUMPDEST PUSH2 0x130A PUSH8 0x32B33C56769C9F0C PUSH1 0xC0 SHL PUSH2 0x23E7 JUMP JUMPDEST PUSH2 0x131E PUSH8 0xD1DEB940CCE2108B PUSH1 0xC0 SHL PUSH2 0x23E7 JUMP JUMPDEST PUSH2 0x1332 PUSH8 0x8E400600140D2A94 PUSH1 0xC0 SHL PUSH2 0x23E7 JUMP JUMPDEST PUSH2 0x1346 PUSH8 0x91B71F3327040E2E PUSH1 0xC0 SHL PUSH2 0x23E7 JUMP JUMPDEST DUP3 TIMESTAMP GT ISZERO PUSH2 0x1389 JUMPI PUSH1 0x40 MLOAD PUSH32 0x8C379A000000000000000000000000000000000000000000000000000000000 DUP2 MSTORE PUSH1 0x4 ADD PUSH2 0x1380 SWAP1 PUSH2 0x3552 JUMP JUMPDEST PUSH1 0x40 MLOAD DUP1 SWAP2 SUB SWAP1 REVERT JUMPDEST PUSH2 0x139D PUSH8 0x5A7222320E7A503B PUSH1 0xC0 SHL PUSH2 0x23E7 JUMP JUMPDEST PUSH2 0x13B1 PUSH8 0xE1806785F6284940 PUSH1 0xC0 SHL PUSH2 0x23E7 JUMP JUMPDEST PUSH2 0x13C5 PUSH8 0x97135CDA2D25401C PUSH1 0xC0 SHL PUSH2 0x23E7 JUMP JUMPDEST PUSH1 0x0 ADDRESS SWAP1 POP PUSH2 0x13DE PUSH8 0x75252B2BD2428BA6 PUSH1 0xC0 SHL PUSH2 0x23E7 JUMP JUMPDEST PUSH2 0x13F2 PUSH8 0xE9DADE89CBC9C5EA PUSH1 0xC0 SHL PUSH2 0x23E7 JUMP JUMPDEST PUSH1 0x0 PUSH2 0x13FC PUSH2 0x5E8 JUMP JUMPDEST SWAP1 POP PUSH2 0x1412 PUSH8 0x4EFE6A90FD4EA65C PUSH1 0xC0 SHL PUSH2 0x23E7 JUMP JUMPDEST PUSH2 0x1426 PUSH8 0xA2E467D8BF28AA41 PUSH1 0xC0 SHL PUSH2 0x23E7 JUMP JUMPDEST PUSH1 0x0 PUSH32 0x0 PUSH20 0xFFFFFFFFFFFFFFFFFFFFFFFFFFFFFFFFFFFFFFFF AND PUSH4 0x70A08231 DUP5 PUSH1 0x40 MLOAD DUP3 PUSH4 0xFFFFFFFF AND PUSH1 0xE0 SHL DUP2 MSTORE PUSH1 0x4 ADD PUSH2 0x1481 SWAP2 SWAP1 PUSH2 0x361C JUMP JUMPDEST PUSH1 0x20 PUSH1 0x40 MLOAD DUP1 DUP4 SUB DUP2 DUP7 GAS STATICCALL ISZERO DUP1 ISZERO PUSH2 0x149E JUMPI RETURNDATASIZE PUSH1 0x0 DUP1 RETURNDATACOPY RETURNDATASIZE PUSH1 0x0 REVERT JUMPDEST POP POP POP POP PUSH1 0x40 MLOAD RETURNDATASIZE PUSH1 0x1F NOT PUSH1 0x1F DUP3 ADD AND DUP3 ADD DUP1 PUSH1 0x40 MSTORE POP DUP2 ADD SWAP1 PUSH2 0x14C2 SWAP2 SWAP1 PUSH2 0x364C JUMP JUMPDEST SWAP1 POP PUSH2 0x14D8 PUSH8 0xA39E6127F4BBD97B PUSH1 0xC0 SHL PUSH2 0x23E7 JUMP JUMPDEST PUSH2 0x14EC PUSH8 0x10230C8D9C265BE2 PUSH1 0xC0 SHL PUSH2 0x23E7 JUMP JUMPDEST PUSH1 0x0 PUSH32 0x0 PUSH20 0xFFFFFFFFFFFFFFFFFFFFFFFFFFFFFFFFFFFFFFFF AND PUSH4 0x70A08231 DUP6 PUSH1 0x40 MLOAD DUP3 PUSH4 0xFFFFFFFF AND PUSH1 0xE0 SHL DUP2 MSTORE PUSH1 0x4 ADD PUSH2 0x1547 SWAP2 SWAP1 PUSH2 0x361C JUMP JUMPDEST PUSH1 0x20 PUSH1 0x40 MLOAD DUP1 DUP4 SUB DUP2 DUP7 GAS STATICCALL ISZERO DUP1 ISZERO PUSH2 0x1564 JUMPI RETURNDATASIZE PUSH1 0x0 DUP1 RETURNDATACOPY RETURNDATASIZE PUSH1 0x0 REVERT JUMPDEST POP POP POP POP PUSH1 0x40 MLOAD RETURNDATASIZE PUSH1 0x1F NOT PUSH1 0x1F DUP3 ADD AND DUP3 ADD DUP1 PUSH1 0x40 MSTORE POP DUP2 ADD SWAP1 PUSH2 0x1588 SWAP2 SWAP1 PUSH2 0x364C JUMP JUMPDEST SWAP1 POP PUSH2 0x159E PUSH8 0xE084955D25A354A7 PUSH1 0xC0 SHL PUSH2 0x23E7 JUMP JUMPDEST DUP3 DUP3 DUP13 PUSH2 0x15AB SWAP2 SWAP1 PUSH2 0x3404 JUMP JUMPDEST PUSH2 0x15B5 SWAP2 SWAP1 PUSH2 0x3475 JUMP JUMPDEST SWAP6 POP PUSH2 0x15CB PUSH8 0x19A79699A37BA0C1 PUSH1 0xC0 SHL PUSH2 0x23E7 JUMP JUMPDEST DUP3 DUP2 DUP13 PUSH2 0x15D8 SWAP2 SWAP1 PUSH2 0x3404 JUMP JUMPDEST PUSH2 0x15E2 SWAP2 SWAP1 PUSH2 0x3475 JUMP JUMPDEST SWAP5 POP PUSH2 0x15F8 PUSH8 0x3C24C3F2771A67B PUSH1 0xC0 SHL PUSH2 0x23E7 JUMP JUMPDEST PUSH2 0x160C PUSH8 0x162436C7DF2CEBCA PUSH1 0xC0 SHL PUSH2 0x23E7 JUMP JUMPDEST PUSH2 0x1620 PUSH8 0x22B045B614F5D581 PUSH1 0xC0 SHL PUSH2 0x23E7 JUMP JUMPDEST DUP10 DUP7 LT ISZERO PUSH2 0x1663 JUMPI PUSH1 0x40 MLOAD PUSH32 0x8C379A000000000000000000000000000000000000000000000000000000000 DUP2 MSTORE PUSH1 0x4 ADD PUSH2 0x165A SWAP1 PUSH2 0x3856 JUMP JUMPDEST PUSH1 0x40 MLOAD DUP1 SWAP2 SUB SWAP1 REVERT JUMPDEST PUSH2 0x1677 PUSH8 0x3C8A40110DACE06B PUSH1 0xC0 SHL PUSH2 0x23E7 JUMP JUMPDEST PUSH2 0x168B PUSH8 0xD4E9939131580C8F PUSH1 0xC0 SHL PUSH2 0x23E7 JUMP JUMPDEST PUSH2 0x169F PUSH8 0x711FDCB8ADD63217 PUSH1 0xC0 SHL PUSH2 0x23E7 JUMP JUMPDEST PUSH2 0x16B3 PUSH8 0x859AE6E0BDA5E011 PUSH1 0xC0 SHL PUSH2 0x23E7 JUMP JUMPDEST DUP9 DUP6 LT ISZERO PUSH2 0x16F6 JUMPI PUSH1 0x40 MLOAD PUSH32 0x8C379A000000000000000000000000000000000000000000000000000000000 DUP2 MSTORE PUSH1 0x4 ADD PUSH2 0x16ED SWAP1 PUSH2 0x38C2 JUMP JUMPDEST PUSH1 0x40 MLOAD DUP1 SWAP2 SUB SWAP1 REVERT JUMPDEST PUSH2 0x170A PUSH8 0x653B9DF4604FF8C2 PUSH1 0xC0 SHL PUSH2 0x23E7 JUMP JUMPDEST PUSH2 0x171E PUSH8 0xDE2554AF27CA0216 PUSH1 0xC0 SHL PUSH2 0x23E7 JUMP JUMPDEST PUSH2 0x1732 PUSH8 0xD5949CBA729A1AEE PUSH1 0xC0 SHL PUSH2 0x23E7 JUMP JUMPDEST PUSH2 0x173C CALLER DUP13 PUSH2 0x259F JUMP JUMPDEST PUSH2 0x1750 PUSH8 0xBC8D1BF5107A477D PUSH1 0xC0 SHL PUSH2 0x23E7 JUMP JUMPDEST PUSH2 0x1764 PUSH8 0xCDF67D4F015310EF PUSH1 0xC0 SHL PUSH2 0x23E7 JUMP JUMPDEST PUSH32 0x0 PUSH20 0xFFFFFFFFFFFFFFFFFFFFFFFFFFFFFFFFFFFFFFFF AND PUSH4 0xA9059CBB DUP10 DUP9 PUSH1 0x40 MLOAD DUP4 PUSH4 0xFFFFFFFF AND PUSH1 0xE0 SHL DUP2 MSTORE PUSH1 0x4 ADD PUSH2 0x17BF SWAP3 SWAP2 SWAP1 PUSH2 0x3775 JUMP JUMPDEST PUSH1 0x20 PUSH1 0x40 MLOAD DUP1 DUP4 SUB DUP2 PUSH1 0x0 DUP8 GAS CALL ISZERO DUP1 ISZERO PUSH2 0x17DE JUMPI RETURNDATASIZE PUSH1 0x0 DUP1 RETURNDATACOPY RETURNDATASIZE PUSH1 0x0 REVERT JUMPDEST POP POP POP POP PUSH1 0x40 MLOAD RETURNDATASIZE PUSH1 0x1F NOT PUSH1 0x1F DUP3 ADD AND DUP3 ADD DUP1 PUSH1 0x40 MSTORE POP DUP2 ADD SWAP1 PUSH2 0x1802 SWAP2 SWAP1 PUSH2 0x3748 JUMP JUMPDEST POP PUSH2 0x1817 PUSH8 0x159FD2C9EA46A97 PUSH1 0xC0 SHL PUSH2 0x23E7 JUMP JUMPDEST PUSH2 0x182B PUSH8 0x817F6C936916438B PUSH1 0xC0 SHL PUSH2 0x23E7 JUMP JUMPDEST PUSH32 0x0 PUSH20 0xFFFFFFFFFFFFFFFFFFFFFFFFFFFFFFFFFFFFFFFF AND PUSH4 0xA9059CBB DUP10 DUP8 PUSH1 0x40 MLOAD DUP4 PUSH4 0xFFFFFFFF AND PUSH1 0xE0 SHL DUP2 MSTORE PUSH1 0x4 ADD PUSH2 0x1886 SWAP3 SWAP2 SWAP1 PUSH2 0x3775 JUMP JUMPDEST PUSH1 0x20 PUSH1 0x40 MLOAD DUP1 DUP4 SUB DUP2 PUSH1 0x0 DUP8 GAS CALL ISZERO DUP1 ISZERO PUSH2 0x18A5 JUMPI RETURNDATASIZE PUSH1 0x0 DUP1 RETURNDATACOPY RETURNDATASIZE PUSH1 0x0 REVERT JUMPDEST POP POP POP POP PUSH1 0x40 MLOAD RETURNDATASIZE PUSH1 0x1F NOT PUSH1 0x1F DUP3 ADD AND DUP3 ADD DUP1 PUSH1 0x40 MSTORE POP DUP2 ADD SWAP1 PUSH2 0x18C9 SWAP2 SWAP1 PUSH2 0x3748 JUMP JUMPDEST POP POP POP POP POP SWAP8 POP SWAP8 SWAP6 POP POP POP POP POP POP JUMP JUMPDEST PUSH1 0x0 PUSH1 0x1 PUSH1 0x0 DUP5 PUSH20 0xFFFFFFFFFFFFFFFFFFFFFFFFFFFFFFFFFFFFFFFF AND PUSH20 0xFFFFFFFFFFFFFFFFFFFFFFFFFFFFFFFFFFFFFFFF AND DUP2 MSTORE PUSH1 0x20 ADD SWAP1 DUP2 MSTORE PUSH1 0x20 ADD PUSH1 0x0 KECCAK256 PUSH1 0x0 DUP4 PUSH20 0xFFFFFFFFFFFFFFFFFFFFFFFFFFFFFFFFFFFFFFFF AND PUSH20 0xFFFFFFFFFFFFFFFFFFFFFFFFFFFFFFFFFFFFFFFF AND DUP2 MSTORE PUSH1 0x20 ADD SWAP1 DUP2 MSTORE PUSH1 0x20 ADD PUSH1 0x0 KECCAK256 SLOAD SWAP1 POP SWAP3 SWAP2 POP POP JUMP JUMPDEST PUSH1 0x0 DUP1 PUSH1 0x0 PUSH2 0x197A PUSH8 0x9CA6DCFA3430D0A6 PUSH1 0xC0 SHL PUSH2 0x23E7 JUMP JUMPDEST PUSH2 0x198E PUSH8 0xFC1BFD15E951BC9D PUSH1 0xC0 SHL PUSH2 0x23E7 JUMP JUMPDEST PUSH2 0x19A2 PUSH8 0xBF81EF12315E3526 PUSH1 0xC0 SHL PUSH2 0x23E7 JUMP JUMPDEST PUSH2 0x19B6 PUSH8 0x60C7B5BA6DFD9453 PUSH1 0xC0 SHL PUSH2 0x23E7 JUMP JUMPDEST PUSH32 0x0 PUSH20 0xFFFFFFFFFFFFFFFFFFFFFFFFFFFFFFFFFFFFFFFF AND DUP12 PUSH20 0xFFFFFFFFFFFFFFFFFFFFFFFFFFFFFFFFFFFFFFFF AND EQ DUP1 ISZERO PUSH2 0x1A5C JUMPI POP PUSH32 0x0 PUSH20 0xFFFFFFFFFFFFFFFFFFFFFFFFFFFFFFFFFFFFFFFF AND DUP11 PUSH20 0xFFFFFFFFFFFFFFFFFFFFFFFFFFFFFFFFFFFFFFFF AND EQ JUMPDEST PUSH2 0x1A9B JUMPI PUSH1 0x40 MLOAD PUSH32 0x8C379A000000000000000000000000000000000000000000000000000000000 DUP2 MSTORE PUSH1 0x4 ADD PUSH2 0x1A92 SWAP1 PUSH2 0x37EA JUMP JUMPDEST PUSH1 0x40 MLOAD DUP1 SWAP2 SUB SWAP1 REVERT JUMPDEST PUSH2 0x1AAF PUSH8 0x4C4D2D50FD643BA4 PUSH1 0xC0 SHL PUSH2 0x23E7 JUMP JUMPDEST PUSH2 0x1AC3 PUSH8 0xD0328DBDCC2EB2F7 PUSH1 0xC0 SHL PUSH2 0x23E7 JUMP JUMPDEST PUSH2 0x1AD7 PUSH8 0x652C992A3836BA4 PUSH1 0xC0 SHL PUSH2 0x23E7 JUMP JUMPDEST PUSH2 0x1AEB PUSH8 0x91D5EADEA1211FB9 PUSH1 0xC0 SHL PUSH2 0x23E7 JUMP JUMPDEST DUP4 TIMESTAMP GT ISZERO PUSH2 0x1B2E JUMPI PUSH1 0x40 MLOAD PUSH32 0x8C379A000000000000000000000000000000000000000000000000000000000 DUP2 MSTORE PUSH1 0x4 ADD PUSH2 0x1B25 SWAP1 PUSH2 0x3552 JUMP JUMPDEST PUSH1 0x40 MLOAD DUP1 SWAP2 SUB SWAP1 REVERT JUMPDEST PUSH2 0x1B42 PUSH8 0xC82D010F2840516F PUSH1 0xC0 SHL PUSH2 0x23E7 JUMP JUMPDEST PUSH2 0x1B56 PUSH8 0xE70726F52CB066CE PUSH1 0xC0 SHL PUSH2 0x23E7 JUMP JUMPDEST PUSH2 0x1B6A PUSH8 0x9E1DE4F05CD3397F PUSH1 0xC0 SHL PUSH2 0x23E7 JUMP JUMPDEST PUSH1 0x0 ADDRESS SWAP1 POP PUSH2 0x1B83 PUSH8 0x6D594E0E4E670407 PUSH1 0xC0 SHL PUSH2 0x23E7 JUMP JUMPDEST PUSH2 0x1B97 PUSH8 0x68FD745F51A6EAE PUSH1 0xC0 SHL PUSH2 0x23E7 JUMP JUMPDEST PUSH1 0x0 PUSH2 0x1BA1 PUSH2 0x5E8 JUMP JUMPDEST SWAP1 POP PUSH2 0x1BB7 PUSH8 0xD51C98FF8CDE803B PUSH1 0xC0 SHL PUSH2 0x23E7 JUMP JUMPDEST PUSH2 0x1BCB PUSH8 0xBE59E51C39D71DC0 PUSH1 0xC0 SHL PUSH2 0x23E7 JUMP JUMPDEST PUSH1 0x0 PUSH32 0x0 PUSH20 0xFFFFFFFFFFFFFFFFFFFFFFFFFFFFFFFFFFFFFFFF AND PUSH4 0x70A08231 DUP5 PUSH1 0x40 MLOAD DUP3 PUSH4 0xFFFFFFFF AND PUSH1 0xE0 SHL DUP2 MSTORE PUSH1 0x4 ADD PUSH2 0x1C26 SWAP2 SWAP1 PUSH2 0x361C JUMP JUMPDEST PUSH1 0x20 PUSH1 0x40 MLOAD DUP1 DUP4 SUB DUP2 DUP7 GAS STATICCALL ISZERO DUP1 ISZERO PUSH2 0x1C43 JUMPI RETURNDATASIZE PUSH1 0x0 DUP1 RETURNDATACOPY RETURNDATASIZE PUSH1 0x0 REVERT JUMPDEST POP POP POP POP PUSH1 0x40 MLOAD RETURNDATASIZE PUSH1 0x1F NOT PUSH1 0x1F DUP3 ADD AND DUP3 ADD DUP1 PUSH1 0x40 MSTORE POP DUP2 ADD SWAP1 PUSH2 0x1C67 SWAP2 SWAP1 PUSH2 0x364C JUMP JUMPDEST SWAP1 POP PUSH2 0x1C7D PUSH8 0xBF4835610ECE551C PUSH1 0xC0 SHL PUSH2 0x23E7 JUMP JUMPDEST PUSH2 0x1C91 PUSH8 0x5A4ABB22F05D328D PUSH1 0xC0 SHL PUSH2 0x23E7 JUMP JUMPDEST PUSH1 0x0 PUSH32 0x0 PUSH20 0xFFFFFFFFFFFFFFFFFFFFFFFFFFFFFFFFFFFFFFFF AND PUSH4 0x70A08231 DUP6 PUSH1 0x40 MLOAD DUP3 PUSH4 0xFFFFFFFF AND PUSH1 0xE0 SHL DUP2 MSTORE PUSH1 0x4 ADD PUSH2 0x1CEC SWAP2 SWAP1 PUSH2 0x361C JUMP JUMPDEST PUSH1 0x20 PUSH1 0x40 MLOAD DUP1 DUP4 SUB DUP2 DUP7 GAS STATICCALL ISZERO DUP1 ISZERO PUSH2 0x1D09 JUMPI RETURNDATASIZE PUSH1 0x0 DUP1 RETURNDATACOPY RETURNDATASIZE PUSH1 0x0 REVERT JUMPDEST POP POP POP POP PUSH1 0x40 MLOAD RETURNDATASIZE PUSH1 0x1F NOT PUSH1 0x1F DUP3 ADD AND DUP3 ADD DUP1 PUSH1 0x40 MSTORE POP DUP2 ADD SWAP1 PUSH2 0x1D2D SWAP2 SWAP1 PUSH2 0x364C JUMP JUMPDEST SWAP1 POP PUSH2 0x1D43 PUSH8 0xB6B1762B8B0F87FA PUSH1 0xC0 SHL PUSH2 0x23E7 JUMP JUMPDEST PUSH2 0x1D57 PUSH8 0xBB16FB8BDCB93EE8 PUSH1 0xC0 SHL PUSH2 0x23E7 JUMP JUMPDEST PUSH1 0x0 DUP4 GT ISZERO PUSH2 0x1FE0 JUMPI PUSH2 0x1D74 PUSH8 0xA8DE6F2646335E1C PUSH1 0xC0 SHL PUSH2 0x23E7 JUMP JUMPDEST PUSH2 0x1D88 PUSH8 0xB20BA7CFA06AD089 PUSH1 0xC0 SHL PUSH2 0x23E7 JUMP JUMPDEST PUSH2 0x1D9C PUSH8 0x558207CE5548AB63 PUSH1 0xC0 SHL PUSH2 0x23E7 JUMP JUMPDEST PUSH1 0x0 DUP3 DUP3 DUP16 PUSH2 0x1DAB SWAP2 SWAP1 PUSH2 0x3404 JUMP JUMPDEST PUSH2 0x1DB5 SWAP2 SWAP1 PUSH2 0x3475 JUMP JUMPDEST SWAP1 POP PUSH2 0x1DCB PUSH8 0x8A259F111F43A492 PUSH1 0xC0 SHL PUSH2 0x23E7 JUMP JUMPDEST PUSH2 0x1DDF PUSH8 0xCB758CE99A9599F8 PUSH1 0xC0 SHL PUSH2 0x23E7 JUMP JUMPDEST DUP13 DUP2 GT PUSH2 0x1EC0 JUMPI PUSH2 0x1DFA PUSH8 0x53428367613F016 PUSH1 0xC0 SHL PUSH2 0x23E7 JUMP JUMPDEST PUSH2 0x1E0E PUSH8 0xA5E8487408572BC1 PUSH1 0xC0 SHL PUSH2 0x23E7 JUMP JUMPDEST PUSH2 0x1E22 PUSH8 0xD895583A549344CD PUSH1 0xC0 SHL PUSH2 0x23E7 JUMP JUMPDEST PUSH2 0x1E36 PUSH8 0x756DF17C0FCC629E PUSH1 0xC0 SHL PUSH2 0x23E7 JUMP JUMPDEST DUP11 DUP2 LT ISZERO PUSH2 0x1E79 JUMPI PUSH1 0x40 MLOAD PUSH32 0x8C379A000000000000000000000000000000000000000000000000000000000 DUP2 MSTORE PUSH1 0x4 ADD PUSH2 0x1E70 SWAP1 PUSH2 0x392E JUMP JUMPDEST PUSH1 0x40 MLOAD DUP1 SWAP2 SUB SWAP1 REVERT JUMPDEST PUSH2 0x1E8D PUSH8 0xCBE6BBF6B98032EE PUSH1 0xC0 SHL PUSH2 0x23E7 JUMP JUMPDEST PUSH2 0x1EA1 PUSH8 0x2226CCC615381DD5 PUSH1 0xC0 SHL PUSH2 0x23E7 JUMP JUMPDEST DUP14 SWAP8 POP PUSH2 0x1EB8 PUSH8 0xBE628FC69F269FB5 PUSH1 0xC0 SHL PUSH2 0x23E7 JUMP JUMPDEST DUP1 SWAP7 POP PUSH2 0x1FDA JUMP JUMPDEST PUSH2 0x1ED4 PUSH8 0x2DD1D115F221DFAD PUSH1 0xC0 SHL PUSH2 0x23E7 JUMP JUMPDEST PUSH2 0x1EE8 PUSH8 0x57FFE76AACAFC9FF PUSH1 0xC0 SHL PUSH2 0x23E7 JUMP JUMPDEST PUSH2 0x1EFC PUSH8 0x5F53231AABB00ED PUSH1 0xC0 SHL PUSH2 0x23E7 JUMP JUMPDEST PUSH1 0x0 DUP3 DUP5 DUP16 PUSH2 0x1F0B SWAP2 SWAP1 PUSH2 0x3404 JUMP JUMPDEST PUSH2 0x1F15 SWAP2 SWAP1 PUSH2 0x3475 JUMP JUMPDEST SWAP1 POP PUSH2 0x1F2B PUSH8 0xE2ECAB72BCAC88A2 PUSH1 0xC0 SHL PUSH2 0x23E7 JUMP JUMPDEST PUSH2 0x1F3F PUSH8 0x12B92BD2140B9752 PUSH1 0xC0 SHL PUSH2 0x23E7 JUMP JUMPDEST PUSH2 0x1F53 PUSH8 0xEAE0C801D86C9505 PUSH1 0xC0 SHL PUSH2 0x23E7 JUMP JUMPDEST DUP13 DUP2 LT ISZERO PUSH2 0x1F96 JUMPI PUSH1 0x40 MLOAD PUSH32 0x8C379A000000000000000000000000000000000000000000000000000000000 DUP2 MSTORE PUSH1 0x4 ADD PUSH2 0x1F8D SWAP1 PUSH2 0x399A JUMP JUMPDEST PUSH1 0x40 MLOAD DUP1 SWAP2 SUB SWAP1 REVERT JUMPDEST PUSH2 0x1FAA PUSH8 0x77BFF5740E381D5C PUSH1 0xC0 SHL PUSH2 0x23E7 JUMP JUMPDEST PUSH2 0x1FBE PUSH8 0x20BD43D60BAAA909 PUSH1 0xC0 SHL PUSH2 0x23E7 JUMP JUMPDEST DUP1 SWAP9 POP PUSH2 0x1FD5 PUSH8 0x78D3022BBCABB22A PUSH1 0xC0 SHL PUSH2 0x23E7 JUMP JUMPDEST DUP14 SWAP8 POP POP JUMPDEST POP PUSH2 0x204D JUMP JUMPDEST PUSH2 0x1FF4 PUSH8 0x2843572EBB679235 PUSH1 0xC0 SHL PUSH2 0x23E7 JUMP JUMPDEST PUSH2 0x2008 PUSH8 0x1B197E9F18715D10 PUSH1 0xC0 SHL PUSH2 0x23E7 JUMP JUMPDEST DUP13 SWAP7 POP PUSH2 0x201F PUSH8 0xD958880B8F9DC894 PUSH1 0xC0 SHL PUSH2 0x23E7 JUMP JUMPDEST DUP12 SWAP6 POP PUSH2 0x2036 PUSH8 0x5DAD16DF495DCA01 PUSH1 0xC0 SHL PUSH2 0x23E7 JUMP JUMPDEST PUSH2 0x204A DUP7 DUP9 PUSH2 0x2045 SWAP2 SWAP1 PUSH2 0x3404 JUMP JUMPDEST PUSH2 0x2621 JUMP JUMPDEST SWAP5 POP JUMPDEST PUSH2 0x2061 PUSH8 0xDD25604226344033 PUSH1 0xC0 SHL PUSH2 0x23E7 JUMP JUMPDEST PUSH2 0x2075 PUSH8 0xDB1C22F0C5ADF621 PUSH1 0xC0 SHL PUSH2 0x23E7 JUMP JUMPDEST PUSH2 0x2089 PUSH8 0x9F806E050956E03E PUSH1 0xC0 SHL PUSH2 0x23E7 JUMP JUMPDEST DUP11 DUP8 LT ISZERO PUSH2 0x20CC JUMPI PUSH1 0x40 MLOAD PUSH32 0x8C379A000000000000000000000000000000000000000000000000000000000 DUP2 MSTORE PUSH1 0x4 ADD PUSH2 0x20C3 SWAP1 PUSH2 0x3856 JUMP JUMPDEST PUSH1 0x40 MLOAD DUP1 SWAP2 SUB SWAP1 REVERT JUMPDEST PUSH2 0x20E0 PUSH8 0xFE090A7AB5CC19D7 PUSH1 0xC0 SHL PUSH2 0x23E7 JUMP JUMPDEST PUSH2 0x20F4 PUSH8 0x5CB6BD7FCF383925 PUSH1 0xC0 SHL PUSH2 0x23E7 JUMP JUMPDEST PUSH2 0x2108 PUSH8 0x9FD327CE04649CD4 PUSH1 0xC0 SHL PUSH2 0x23E7 JUMP JUMPDEST PUSH2 0x211C PUSH8 0xA910013577C3E5D0 PUSH1 0xC0 SHL PUSH2 0x23E7 JUMP JUMPDEST DUP10 DUP7 LT ISZERO PUSH2 0x215F JUMPI PUSH1 0x40 MLOAD PUSH32 0x8C379A000000000000000000000000000000000000000000000000000000000 DUP2 MSTORE PUSH1 0x4 ADD PUSH2 0x2156 SWAP1 PUSH2 0x38C2 JUMP JUMPDEST PUSH1 0x40 MLOAD DUP1 SWAP2 SUB SWAP1 REVERT JUMPDEST PUSH2 0x2173 PUSH8 0x6591D0E24EAD822 PUSH1 0xC0 SHL PUSH2 0x23E7 JUMP JUMPDEST PUSH2 0x2187 PUSH8 0xBCB0FBD5CD5BDBA6 PUSH1 0xC0 SHL PUSH2 0x23E7 JUMP JUMPDEST PUSH2 0x219B PUSH8 0x9767377E57BD9283 PUSH1 0xC0 SHL PUSH2 0x23E7 JUMP JUMPDEST PUSH1 0x0 CALLER SWAP1 POP PUSH2 0x21B4 PUSH8 0x279D168167B39A16 PUSH1 0xC0 SHL PUSH2 0x23E7 JUMP JUMPDEST PUSH2 0x21C8 PUSH8 0x7214A40EAFB20DF4 PUSH1 0xC0 SHL PUSH2 0x23E7 JUMP JUMPDEST PUSH32 0x0 PUSH20 0xFFFFFFFFFFFFFFFFFFFFFFFFFFFFFFFFFFFFFFFF AND PUSH4 0x23B872DD DUP3 DUP8 DUP12 PUSH1 0x40 MLOAD DUP5 PUSH4 0xFFFFFFFF AND PUSH1 0xE0 SHL DUP2 MSTORE PUSH1 0x4 ADD PUSH2 0x2225 SWAP4 SWAP3 SWAP2 SWAP1 PUSH2 0x36E5 JUMP JUMPDEST PUSH1 0x20 PUSH1 0x40 MLOAD DUP1 DUP4 SUB DUP2 PUSH1 0x0 DUP8 GAS CALL ISZERO DUP1 ISZERO PUSH2 0x2244 JUMPI RETURNDATASIZE PUSH1 0x0 DUP1 RETURNDATACOPY RETURNDATASIZE PUSH1 0x0 REVERT JUMPDEST POP POP POP POP PUSH1 0x40 MLOAD RETURNDATASIZE PUSH1 0x1F NOT PUSH1 0x1F DUP3 ADD AND DUP3 ADD DUP1 PUSH1 0x40 MSTORE POP DUP2 ADD SWAP1 PUSH2 0x2268 SWAP2 SWAP1 PUSH2 0x3748 JUMP JUMPDEST POP PUSH2 0x227D PUSH8 0x8D25A91AAFC8F4CC PUSH1 0xC0 SHL PUSH2 0x23E7 JUMP JUMPDEST PUSH2 0x2291 PUSH8 0x6DBE106B3E7411DA PUSH1 0xC0 SHL PUSH2 0x23E7 JUMP JUMPDEST PUSH32 0x0 PUSH20 0xFFFFFFFFFFFFFFFFFFFFFFFFFFFFFFFFFFFFFFFF AND PUSH4 0x23B872DD DUP3 DUP8 DUP11 PUSH1 0x40 MLOAD DUP5 PUSH4 0xFFFFFFFF AND PUSH1 0xE0 SHL DUP2 MSTORE PUSH1 0x4 ADD PUSH2 0x22EE SWAP4 SWAP3 SWAP2 SWAP1 PUSH2 0x36E5 JUMP JUMPDEST PUSH1 0x20 PUSH1 0x40 MLOAD DUP1 DUP4 SUB DUP2 PUSH1 0x0 DUP8 GAS CALL ISZERO DUP1 ISZERO PUSH2 0x230D JUMPI RETURNDATASIZE PUSH1 0x0 DUP1 RETURNDATACOPY RETURNDATASIZE PUSH1 0x0 REVERT JUMPDEST POP POP POP POP PUSH1 0x40 MLOAD RETURNDATASIZE PUSH1 0x1F NOT PUSH1 0x1F DUP3 ADD AND DUP3 ADD DUP1 PUSH1 0x40 MSTORE POP DUP2 ADD SWAP1 PUSH2 0x2331 SWAP2 SWAP1 PUSH2 0x3748 JUMP JUMPDEST POP PUSH2 0x2346 PUSH8 0x140F9ACFCCE0ACB3 PUSH1 0xC0 SHL PUSH2 0x23E7 JUMP JUMPDEST PUSH1 0x0 DUP7 GT DUP1 PUSH2 0x2365 JUMPI POP PUSH2 0x2364 PUSH8 0x282B6702F2C4F170 PUSH1 0xC0 SHL PUSH2 0x2598 JUMP JUMPDEST JUMPDEST DUP1 ISZERO PUSH2 0x2381 JUMPI POP PUSH2 0x2380 PUSH8 0xE9ADF61C84D31732 PUSH1 0xC0 SHL PUSH2 0x258D JUMP JUMPDEST JUMPDEST PUSH2 0x239E JUMPI PUSH2 0x2399 DUP8 DUP10 PUSH2 0x2394 SWAP2 SWAP1 PUSH2 0x3404 JUMP JUMPDEST PUSH2 0x2621 JUMP JUMPDEST PUSH2 0x23A0 JUMP JUMPDEST DUP6 JUMPDEST SWAP6 POP PUSH2 0x23B6 PUSH8 0xF11CE18CFC1908FB PUSH1 0xC0 SHL PUSH2 0x23E7 JUMP JUMPDEST PUSH2 0x23CA PUSH8 0xA0296E6CB8C8E77F PUSH1 0xC0 SHL PUSH2 0x23E7 JUMP JUMPDEST PUSH2 0x23D4 DUP11 DUP8 PUSH2 0x27E0 JUMP JUMPDEST POP POP POP POP POP SWAP9 POP SWAP9 POP SWAP9 SWAP6 POP POP POP POP POP POP JUMP JUMPDEST POP JUMP JUMPDEST PUSH1 0x0 CALLER SWAP1 POP SWAP1 JUMP JUMPDEST PUSH2 0x23FF DUP4 DUP4 DUP4 PUSH1 0x1 PUSH2 0x2862 JUMP JUMPDEST POP POP POP JUMP JUMPDEST PUSH1 0x0 PUSH2 0x2410 DUP5 DUP5 PUSH2 0x18DA JUMP JUMPDEST SWAP1 POP PUSH32 0xFFFFFFFFFFFFFFFFFFFFFFFFFFFFFFFFFFFFFFFFFFFFFFFFFFFFFFFFFFFFFFFF DUP2 LT ISZERO PUSH2 0x2493 JUMPI DUP2 DUP2 LT ISZERO PUSH2 0x2483 JUMPI DUP3 DUP2 DUP4 PUSH1 0x40 MLOAD PUSH32 0xFB8F41B200000000000000000000000000000000000000000000000000000000 DUP2 MSTORE PUSH1 0x4 ADD PUSH2 0x247A SWAP4 SWAP3 SWAP2 SWAP1 PUSH2 0x39BA JUMP JUMPDEST PUSH1 0x40 MLOAD DUP1 SWAP2 SUB SWAP1 REVERT JUMPDEST PUSH2 0x2492 DUP5 DUP5 DUP5 DUP5 SUB PUSH1 0x0 PUSH2 0x2862 JUMP JUMPDEST JUMPDEST POP POP POP POP JUMP JUMPDEST PUSH1 0x0 PUSH20 0xFFFFFFFFFFFFFFFFFFFFFFFFFFFFFFFFFFFFFFFF AND DUP4 PUSH20 0xFFFFFFFFFFFFFFFFFFFFFFFFFFFFFFFFFFFFFFFF AND SUB PUSH2 0x250B JUMPI PUSH1 0x0 PUSH1 0x40 MLOAD PUSH32 0x96C6FD1E00000000000000000000000000000000000000000000000000000000 DUP2 MSTORE PUSH1 0x4 ADD PUSH2 0x2502 SWAP2 SWAP1 PUSH2 0x361C JUMP JUMPDEST PUSH1 0x40 MLOAD DUP1 SWAP2 SUB SWAP1 REVERT JUMPDEST PUSH1 0x0 PUSH20 0xFFFFFFFFFFFFFFFFFFFFFFFFFFFFFFFFFFFFFFFF AND DUP3 PUSH20 0xFFFFFFFFFFFFFFFFFFFFFFFFFFFFFFFFFFFFFFFF AND SUB PUSH2 0x257D JUMPI PUSH1 0x0 PUSH1 0x40 MLOAD PUSH32 0xEC442F0500000000000000000000000000000000000000000000000000000000 DUP2 MSTORE PUSH1 0x4 ADD PUSH2 0x2574 SWAP2 SWAP1 PUSH2 0x361C JUMP JUMPDEST PUSH1 0x40 MLOAD DUP1 SWAP2 SUB SWAP1 REVERT JUMPDEST PUSH2 0x2588 DUP4 DUP4 DUP4 PUSH2 0x2A39 JUMP JUMPDEST POP POP POP JUMP JUMPDEST PUSH1 0x0 PUSH1 0x1 SWAP1 POP SWAP2 SWAP1 POP JUMP JUMPDEST PUSH1 0x0 SWAP2 SWAP1 POP JUMP JUMPDEST PUSH1 0x0 PUSH20 0xFFFFFFFFFFFFFFFFFFFFFFFFFFFFFFFFFFFFFFFF AND DUP3 PUSH20 0xFFFFFFFFFFFFFFFFFFFFFFFFFFFFFFFFFFFFFFFF AND SUB PUSH2 0x2611 JUMPI PUSH1 0x0 PUSH1 0x40 MLOAD PUSH32 0x96C6FD1E00000000000000000000000000000000000000000000000000000000 DUP2 MSTORE PUSH1 0x4 ADD PUSH2 0x2608 SWAP2 SWAP1 PUSH2 0x361C JUMP JUMPDEST PUSH1 0x40 MLOAD DUP1 SWAP2 SUB SWAP1 REVERT JUMPDEST PUSH2 0x261D DUP3 PUSH1 0x0 DUP4 PUSH2 0x2A39 JUMP JUMPDEST POP POP JUMP JUMPDEST PUSH1 0x0 PUSH2 0x2637 PUSH8 0xC1C604706DFAF95 PUSH1 0xC0 SHL PUSH2 0x23E7 JUMP JUMPDEST PUSH2 0x264B PUSH8 0x6BB6CBA85FB64E31 PUSH1 0xC0 SHL PUSH2 0x23E7 JUMP JUMPDEST PUSH2 0x265F PUSH8 0x5BBADB16C3B4BA1 PUSH1 0xC0 SHL PUSH2 0x23E7 JUMP JUMPDEST PUSH1 0x3 DUP3 GT ISZERO PUSH2 0x2764 JUMPI PUSH2 0x267C PUSH8 0xE45399C98E2BD343 PUSH1 0xC0 SHL PUSH2 0x23E7 JUMP JUMPDEST PUSH2 0x2690 PUSH8 0xB0261FF0EB1DCBB8 PUSH1 0xC0 SHL PUSH2 0x23E7 JUMP JUMPDEST DUP2 SWAP1 POP PUSH2 0x26A7 PUSH8 0x6BF06A19F38D34FA PUSH1 0xC0 SHL PUSH2 0x23E7 JUMP JUMPDEST PUSH2 0x26BB PUSH8 0xD6D1E8B992FE05EA PUSH1 0xC0 SHL PUSH2 0x23E7 JUMP JUMPDEST PUSH1 0x0 PUSH1 0x1 PUSH1 0x2 DUP5 PUSH2 0x26CC SWAP2 SWAP1 PUSH2 0x3475 JUMP JUMPDEST PUSH2 0x26D6 SWAP2 SWAP1 PUSH2 0x33D0 JUMP JUMPDEST SWAP1 POP PUSH2 0x26EC PUSH8 0xA6EF4DC2D88C9AD PUSH1 0xC0 SHL PUSH2 0x23E7 JUMP JUMPDEST PUSH2 0x2700 PUSH8 0xBEF94FE11239F12B PUSH1 0xC0 SHL PUSH2 0x23E7 JUMP JUMPDEST JUMPDEST DUP2 DUP2 LT ISZERO PUSH2 0x275E JUMPI PUSH2 0x271D PUSH8 0x2AEAD1C1E621871A PUSH1 0xC0 SHL PUSH2 0x23E7 JUMP JUMPDEST DUP1 SWAP2 POP PUSH2 0x2734 PUSH8 0x787873246184C206 PUSH1 0xC0 SHL PUSH2 0x23E7 JUMP JUMPDEST PUSH1 0x2 DUP2 DUP3 DUP6 PUSH2 0x2743 SWAP2 SWAP1 PUSH2 0x3475 JUMP JUMPDEST PUSH2 0x274D SWAP2 SWAP1 PUSH2 0x33D0 JUMP JUMPDEST PUSH2 0x2757 SWAP2 SWAP1 PUSH2 0x3475 JUMP JUMPDEST SWAP1 POP PUSH2 0x2701 JUMP JUMPDEST POP PUSH2 0x27DB JUMP JUMPDEST PUSH2 0x2778 PUSH8 0x159351B312055E80 PUSH1 0xC0 SHL PUSH2 0x23E7 JUMP JUMPDEST PUSH2 0x278C PUSH8 0xB6F6303607CDC24A PUSH1 0xC0 SHL PUSH2 0x23E7 JUMP JUMPDEST PUSH1 0x0 DUP3 EQ PUSH2 0x27C5 JUMPI PUSH2 0x27A8 PUSH8 0xF30EEFE23CFEF6F8 PUSH1 0xC0 SHL PUSH2 0x23E7 JUMP JUMPDEST PUSH2 0x27BC PUSH8 0x17EA7195C651CBB2 PUSH1 0xC0 SHL PUSH2 0x23E7 JUMP JUMPDEST PUSH1 0x1 SWAP1 POP PUSH2 0x27DA JUMP JUMPDEST PUSH2 0x27D9 PUSH8 0x9B424E514889F2AC PUSH1 0xC0 SHL PUSH2 0x23E7 JUMP JUMPDEST JUMPDEST JUMPDEST SWAP2 SWAP1 POP JUMP JUMPDEST PUSH1 0x0 PUSH20 0xFFFFFFFFFFFFFFFFFFFFFFFFFFFFFFFFFFFFFFFF AND DUP3 PUSH20 0xFFFFFFFFFFFFFFFFFFFFFFFFFFFFFFFFFFFFFFFF AND SUB PUSH2 0x2852 JUMPI PUSH1 0x0 PUSH1 0x40 MLOAD PUSH32 0xEC442F0500000000000000000000000000000000000000000000000000000000 DUP2 MSTORE PUSH1 0x4 ADD PUSH2 0x2849 SWAP2 SWAP1 PUSH2 0x361C JUMP JUMPDEST PUSH1 0x40 MLOAD DUP1 SWAP2 SUB SWAP1 REVERT JUMPDEST PUSH2 0x285E PUSH1 0x0 DUP4 DUP4 PUSH2 0x2A39 JUMP JUMPDEST POP POP JUMP JUMPDEST PUSH1 0x0 PUSH20 0xFFFFFFFFFFFFFFFFFFFFFFFFFFFFFFFFFFFFFFFF AND DUP5 PUSH20 0xFFFFFFFFFFFFFFFFFFFFFFFFFFFFFFFFFFFFFFFF AND SUB PUSH2 0x28D4 JUMPI PUSH1 0x0 PUSH1 0x40 MLOAD PUSH32 0xE602DF0500000000000000000000000000000000000000000000000000000000 DUP2 MSTORE PUSH1 0x4 ADD PUSH2 0x28CB SWAP2 SWAP1 PUSH2 0x361C JUMP JUMPDEST PUSH1 0x40 MLOAD DUP1 SWAP2 SUB SWAP1 REVERT JUMPDEST PUSH1 0x0 PUSH20 0xFFFFFFFFFFFFFFFFFFFFFFFFFFFFFFFFFFFFFFFF AND DUP4 PUSH20 0xFFFFFFFFFFFFFFFFFFFFFFFFFFFFFFFFFFFFFFFF AND SUB PUSH2 0x2946 JUMPI PUSH1 0x0 PUSH1 0x40 MLOAD PUSH32 0x94280D6200000000000000000000000000000000000000000000000000000000 DUP2 MSTORE PUSH1 0x4 ADD PUSH2 0x293D SWAP2 SWAP1 PUSH2 0x361C JUMP JUMPDEST PUSH1 0x40 MLOAD DUP1 SWAP2 SUB SWAP1 REVERT JUMPDEST DUP2 PUSH1 0x1 PUSH1 0x0 DUP7 PUSH20 0xFFFFFFFFFFFFFFFFFFFFFFFFFFFFFFFFFFFFFFFF AND PUSH20 0xFFFFFFFFFFFFFFFFFFFFFFFFFFFFFFFFFFFFFFFF AND DUP2 MSTORE PUSH1 0x20 ADD SWAP1 DUP2 MSTORE PUSH1 0x20 ADD PUSH1 0x0 KECCAK256 PUSH1 0x0 DUP6 PUSH20 0xFFFFFFFFFFFFFFFFFFFFFFFFFFFFFFFFFFFFFFFF AND PUSH20 0xFFFFFFFFFFFFFFFFFFFFFFFFFFFFFFFFFFFFFFFF AND DUP2 MSTORE PUSH1 0x20 ADD SWAP1 DUP2 MSTORE PUSH1 0x20 ADD PUSH1 0x0 KECCAK256 DUP2 SWAP1 SSTORE POP DUP1 ISZERO PUSH2 0x2A33 JUMPI DUP3 PUSH20 0xFFFFFFFFFFFFFFFFFFFFFFFFFFFFFFFFFFFFFFFF AND DUP5 PUSH20 0xFFFFFFFFFFFFFFFFFFFFFFFFFFFFFFFFFFFFFFFF AND PUSH32 0x8C5BE1E5EBEC7D5BD14F71427D1E84F3DD0314C0F7B2291E5B200AC8C7C3B925 DUP5 PUSH1 0x40 MLOAD PUSH2 0x2A2A SWAP2 SWAP1 PUSH2 0x2D00 JUMP JUMPDEST PUSH1 0x40 MLOAD DUP1 SWAP2 SUB SWAP1 LOG3 JUMPDEST POP POP POP POP JUMP JUMPDEST PUSH1 0x0 PUSH20 0xFFFFFFFFFFFFFFFFFFFFFFFFFFFFFFFFFFFFFFFF AND DUP4 PUSH20 0xFFFFFFFFFFFFFFFFFFFFFFFFFFFFFFFFFFFFFFFF AND SUB PUSH2 0x2A8B JUMPI DUP1 PUSH1 0x2 PUSH1 0x0 DUP3 DUP3 SLOAD PUSH2 0x2A7F SWAP2 SWAP1 PUSH2 0x33D0 JUMP JUMPDEST SWAP3 POP POP DUP2 SWAP1 SSTORE POP PUSH2 0x2B5E JUMP JUMPDEST PUSH1 0x0 DUP1 PUSH1 0x0 DUP6 PUSH20 0xFFFFFFFFFFFFFFFFFFFFFFFFFFFFFFFFFFFFFFFF AND PUSH20 0xFFFFFFFFFFFFFFFFFFFFFFFFFFFFFFFFFFFFFFFF AND DUP2 MSTORE PUSH1 0x20 ADD SWAP1 DUP2 MSTORE PUSH1 0x20 ADD PUSH1 0x0 KECCAK256 SLOAD SWAP1 POP DUP2 DUP2 LT ISZERO PUSH2 0x2B17 JUMPI DUP4 DUP2 DUP4 PUSH1 0x40 MLOAD PUSH32 0xE450D38C00000000000000000000000000000000000000000000000000000000 DUP2 MSTORE PUSH1 0x4 ADD PUSH2 0x2B0E SWAP4 SWAP3 SWAP2 SWAP1 PUSH2 0x39BA JUMP JUMPDEST PUSH1 0x40 MLOAD DUP1 SWAP2 SUB SWAP1 REVERT JUMPDEST DUP2 DUP2 SUB PUSH1 0x0 DUP1 DUP7 PUSH20 0xFFFFFFFFFFFFFFFFFFFFFFFFFFFFFFFFFFFFFFFF AND PUSH20 0xFFFFFFFFFFFFFFFFFFFFFFFFFFFFFFFFFFFFFFFF AND DUP2 MSTORE PUSH1 0x20 ADD SWAP1 DUP2 MSTORE PUSH1 0x20 ADD PUSH1 0x0 KECCAK256 DUP2 SWAP1 SSTORE POP POP JUMPDEST PUSH1 0x0 PUSH20 0xFFFFFFFFFFFFFFFFFFFFFFFFFFFFFFFFFFFFFFFF AND DUP3 PUSH20 0xFFFFFFFFFFFFFFFFFFFFFFFFFFFFFFFFFFFFFFFF AND SUB PUSH2 0x2BA7 JUMPI DUP1 PUSH1 0x2 PUSH1 0x0 DUP3 DUP3 SLOAD SUB SWAP3 POP POP DUP2 SWAP1 SSTORE POP PUSH2 0x2BF4 JUMP JUMPDEST DUP1 PUSH1 0x0 DUP1 DUP5 PUSH20 0xFFFFFFFFFFFFFFFFFFFFFFFFFFFFFFFFFFFFFFFF AND PUSH20 0xFFFFFFFFFFFFFFFFFFFFFFFFFFFFFFFFFFFFFFFF AND DUP2 MSTORE PUSH1 0x20 ADD SWAP1 DUP2 MSTORE PUSH1 0x20 ADD PUSH1 0x0 KECCAK256 PUSH1 0x0 DUP3 DUP3 SLOAD ADD SWAP3 POP POP DUP2 SWAP1 SSTORE POP JUMPDEST DUP2 PUSH20 0xFFFFFFFFFFFFFFFFFFFFFFFFFFFFFFFFFFFFFFFF AND DUP4 PUSH20 0xFFFFFFFFFFFFFFFFFFFFFFFFFFFFFFFFFFFFFFFF AND PUSH32 0xDDF252AD1BE2C89B69C2B068FC378DAA952BA7F163C4A11628F55A4DF523B3EF DUP4 PUSH1 0x40 MLOAD PUSH2 0x2C51 SWAP2 SWAP1 PUSH2 0x2D00 JUMP JUMPDEST PUSH1 0x40 MLOAD DUP1 SWAP2 SUB SWAP1 LOG3 POP POP POP JUMP JUMPDEST PUSH1 0x0 DUP1 REVERT JUMPDEST PUSH1 0x0 DUP1 REVERT JUMPDEST PUSH1 0x0 DUP2 SWAP1 POP SWAP2 SWAP1 POP JUMP JUMPDEST PUSH2 0x2C7B DUP2 PUSH2 0x2C68 JUMP JUMPDEST DUP2 EQ PUSH2 0x2C86 JUMPI PUSH1 0x0 DUP1 REVERT JUMPDEST POP JUMP JUMPDEST PUSH1 0x0 DUP2 CALLDATALOAD SWAP1 POP PUSH2 0x2C98 DUP2 PUSH2 0x2C72 JUMP JUMPDEST SWAP3 SWAP2 POP POP JUMP JUMPDEST PUSH1 0x0 DUP1 PUSH1 0x0 PUSH1 0x60 DUP5 DUP7 SUB SLT ISZERO PUSH2 0x2CB7 JUMPI PUSH2 0x2CB6 PUSH2 0x2C5E JUMP JUMPDEST JUMPDEST PUSH1 0x0 PUSH2 0x2CC5 DUP7 DUP3 DUP8 ADD PUSH2 0x2C89 JUMP JUMPDEST SWAP4 POP POP PUSH1 0x20 PUSH2 0x2CD6 DUP7 DUP3 DUP8 ADD PUSH2 0x2C89 JUMP JUMPDEST SWAP3 POP POP PUSH1 0x40 PUSH2 0x2CE7 DUP7 DUP3 DUP8 ADD PUSH2 0x2C89 JUMP JUMPDEST SWAP2 POP POP SWAP3 POP SWAP3 POP SWAP3 JUMP JUMPDEST PUSH2 0x2CFA DUP2 PUSH2 0x2C68 JUMP JUMPDEST DUP3 MSTORE POP POP JUMP JUMPDEST PUSH1 0x0 PUSH1 0x20 DUP3 ADD SWAP1 POP PUSH2 0x2D15 PUSH1 0x0 DUP4 ADD DUP5 PUSH2 0x2CF1 JUMP JUMPDEST SWAP3 SWAP2 POP POP JUMP JUMPDEST PUSH1 0x0 DUP2 MLOAD SWAP1 POP SWAP2 SWAP1 POP JUMP JUMPDEST PUSH1 0x0 DUP3 DUP3 MSTORE PUSH1 0x20 DUP3 ADD SWAP1 POP SWAP3 SWAP2 POP POP JUMP JUMPDEST PUSH1 0x0 JUMPDEST DUP4 DUP2 LT ISZERO PUSH2 0x2D55 JUMPI DUP1 DUP3 ADD MLOAD DUP2 DUP5 ADD MSTORE PUSH1 0x20 DUP2 ADD SWAP1 POP PUSH2 0x2D3A JUMP JUMPDEST PUSH1 0x0 DUP5 DUP5 ADD MSTORE POP POP POP POP JUMP JUMPDEST PUSH1 0x0 PUSH1 0x1F NOT PUSH1 0x1F DUP4 ADD AND SWAP1 POP SWAP2 SWAP1 POP JUMP JUMPDEST PUSH1 0x0 PUSH2 0x2D7D DUP3 PUSH2 0x2D1B JUMP JUMPDEST PUSH2 0x2D87 DUP2 DUP6 PUSH2 0x2D26 JUMP JUMPDEST SWAP4 POP PUSH2 0x2D97 DUP2 DUP6 PUSH1 0x20 DUP7 ADD PUSH2 0x2D37 JUMP JUMPDEST PUSH2 0x2DA0 DUP2 PUSH2 0x2D61 JUMP JUMPDEST DUP5 ADD SWAP2 POP POP SWAP3 SWAP2 POP POP JUMP JUMPDEST PUSH1 0x0 PUSH1 0x20 DUP3 ADD SWAP1 POP DUP2 DUP2 SUB PUSH1 0x0 DUP4 ADD MSTORE PUSH2 0x2DC5 DUP2 DUP5 PUSH2 0x2D72 JUMP JUMPDEST SWAP1 POP SWAP3 SWAP2 POP POP JUMP JUMPDEST PUSH1 0x0 PUSH20 0xFFFFFFFFFFFFFFFFFFFFFFFFFFFFFFFFFFFFFFFF DUP3 AND SWAP1 POP SWAP2 SWAP1 POP JUMP JUMPDEST PUSH1 0x0 PUSH2 0x2DF8 DUP3 PUSH2 0x2DCD JUMP JUMPDEST SWAP1 POP SWAP2 SWAP1 POP JUMP JUMPDEST PUSH2 0x2E08 DUP2 PUSH2 0x2DED JUMP JUMPDEST DUP2 EQ PUSH2 0x2E13 JUMPI PUSH1 0x0 DUP1 REVERT JUMPDEST POP JUMP JUMPDEST PUSH1 0x0 DUP2 CALLDATALOAD SWAP1 POP PUSH2 0x2E25 DUP2 PUSH2 0x2DFF JUMP JUMPDEST SWAP3 SWAP2 POP POP JUMP JUMPDEST PUSH1 0x0 DUP1 PUSH1 0x40 DUP4 DUP6 SUB SLT ISZERO PUSH2 0x2E42 JUMPI PUSH2 0x2E41 PUSH2 0x2C5E JUMP JUMPDEST JUMPDEST PUSH1 0x0 PUSH2 0x2E50 DUP6 DUP3 DUP7 ADD PUSH2 0x2E16 JUMP JUMPDEST SWAP3 POP POP PUSH1 0x20 PUSH2 0x2E61 DUP6 DUP3 DUP7 ADD PUSH2 0x2C89 JUMP JUMPDEST SWAP2 POP POP SWAP3 POP SWAP3 SWAP1 POP JUMP JUMPDEST PUSH1 0x0 DUP2 ISZERO ISZERO SWAP1 POP SWAP2 SWAP1 POP JUMP JUMPDEST PUSH2 0x2E80 DUP2 PUSH2 0x2E6B JUMP JUMPDEST DUP3 MSTORE POP POP JUMP JUMPDEST PUSH1 0x0 PUSH1 0x20 DUP3 ADD SWAP1 POP PUSH2 0x2E9B PUSH1 0x0 DUP4 ADD DUP5 PUSH2 0x2E77 JUMP JUMPDEST SWAP3 SWAP2 POP POP JUMP JUMPDEST PUSH1 0x0 DUP2 SWAP1 POP SWAP2 SWAP1 POP JUMP JUMPDEST PUSH1 0x0 PUSH2 0x2EC6 PUSH2 0x2EC1 PUSH2 0x2EBC DUP5 PUSH2 0x2DCD JUMP JUMPDEST PUSH2 0x2EA1 JUMP JUMPDEST PUSH2 0x2DCD JUMP JUMPDEST SWAP1 POP SWAP2 SWAP1 POP JUMP JUMPDEST PUSH1 0x0 PUSH2 0x2ED8 DUP3 PUSH2 0x2EAB JUMP JUMPDEST SWAP1 POP SWAP2 SWAP1 POP JUMP JUMPDEST PUSH1 0x0 PUSH2 0x2EEA DUP3 PUSH2 0x2ECD JUMP JUMPDEST SWAP1 POP SWAP2 SWAP1 POP JUMP JUMPDEST PUSH2 0x2EFA DUP2 PUSH2 0x2EDF JUMP JUMPDEST DUP3 MSTORE POP POP JUMP JUMPDEST PUSH1 0x0 PUSH1 0x20 DUP3 ADD SWAP1 POP PUSH2 0x2F15 PUSH1 0x0 DUP4 ADD DUP5 PUSH2 0x2EF1 JUMP JUMPDEST SWAP3 SWAP2 POP POP JUMP JUMPDEST PUSH1 0x0 DUP1 PUSH1 0x0 PUSH1 0x60 DUP5 DUP7 SUB SLT ISZERO PUSH2 0x2F34 JUMPI PUSH2 0x2F33 PUSH2 0x2C5E JUMP JUMPDEST JUMPDEST PUSH1 0x0 PUSH2 0x2F42 DUP7 DUP3 DUP8 ADD PUSH2 0x2E16 JUMP JUMPDEST SWAP4 POP POP PUSH1 0x20 PUSH2 0x2F53 DUP7 DUP3 DUP8 ADD PUSH2 0x2E16 JUMP JUMPDEST SWAP3 POP POP PUSH1 0x40 PUSH2 0x2F64 DUP7 DUP3 DUP8 ADD PUSH2 0x2C89 JUMP JUMPDEST SWAP2 POP POP SWAP3 POP SWAP3 POP SWAP3 JUMP JUMPDEST PUSH1 0x0 PUSH1 0xFF DUP3 AND SWAP1 POP SWAP2 SWAP1 POP JUMP JUMPDEST PUSH2 0x2F84 DUP2 PUSH2 0x2F6E JUMP JUMPDEST DUP3 MSTORE POP POP JUMP JUMPDEST PUSH1 0x0 PUSH1 0x20 DUP3 ADD SWAP1 POP PUSH2 0x2F9F PUSH1 0x0 DUP4 ADD DUP5 PUSH2 0x2F7B JUMP JUMPDEST SWAP3 SWAP2 POP POP JUMP JUMPDEST PUSH1 0x0 DUP1 REVERT JUMPDEST PUSH1 0x0 DUP1 REVERT JUMPDEST PUSH1 0x0 DUP1 REVERT JUMPDEST PUSH1 0x0 DUP1 DUP4 PUSH1 0x1F DUP5 ADD SLT PUSH2 0x2FCA JUMPI PUSH2 0x2FC9 PUSH2 0x2FA5 JUMP JUMPDEST JUMPDEST DUP3 CALLDATALOAD SWAP1 POP PUSH8 0xFFFFFFFFFFFFFFFF DUP2 GT ISZERO PUSH2 0x2FE7 JUMPI PUSH2 0x2FE6 PUSH2 0x2FAA JUMP JUMPDEST JUMPDEST PUSH1 0x20 DUP4 ADD SWAP2 POP DUP4 PUSH1 0x20 DUP3 MUL DUP4 ADD GT ISZERO PUSH2 0x3003 JUMPI PUSH2 0x3002 PUSH2 0x2FAF JUMP JUMPDEST JUMPDEST SWAP3 POP SWAP3 SWAP1 POP JUMP JUMPDEST PUSH1 0x0 DUP1 PUSH1 0x0 DUP1 PUSH1 0x0 DUP1 PUSH1 0xA0 DUP8 DUP10 SUB SLT ISZERO PUSH2 0x3027 JUMPI PUSH2 0x3026 PUSH2 0x2C5E JUMP JUMPDEST JUMPDEST PUSH1 0x0 PUSH2 0x3035 DUP10 DUP3 DUP11 ADD PUSH2 0x2C89 JUMP JUMPDEST SWAP7 POP POP PUSH1 0x20 PUSH2 0x3046 DUP10 DUP3 DUP11 ADD PUSH2 0x2C89 JUMP JUMPDEST SWAP6 POP POP PUSH1 0x40 DUP8 ADD CALLDATALOAD PUSH8 0xFFFFFFFFFFFFFFFF DUP2 GT ISZERO PUSH2 0x3067 JUMPI PUSH2 0x3066 PUSH2 0x2C63 JUMP JUMPDEST JUMPDEST PUSH2 0x3073 DUP10 DUP3 DUP11 ADD PUSH2 0x2FB4 JUMP JUMPDEST SWAP5 POP SWAP5 POP POP PUSH1 0x60 PUSH2 0x3086 DUP10 DUP3 DUP11 ADD PUSH2 0x2E16 JUMP JUMPDEST SWAP3 POP POP PUSH1 0x80 PUSH2 0x3097 DUP10 DUP3 DUP11 ADD PUSH2 0x2C89 JUMP JUMPDEST SWAP2 POP POP SWAP3 SWAP6 POP SWAP3 SWAP6 POP SWAP3 SWAP6 JUMP JUMPDEST PUSH1 0x0 PUSH1 0x20 DUP3 DUP5 SUB SLT ISZERO PUSH2 0x30BA JUMPI PUSH2 0x30B9 PUSH2 0x2C5E JUMP JUMPDEST JUMPDEST PUSH1 0x0 PUSH2 0x30C8 DUP5 DUP3 DUP6 ADD PUSH2 0x2E16 JUMP JUMPDEST SWAP2 POP POP SWAP3 SWAP2 POP POP JUMP JUMPDEST PUSH1 0x0 DUP1 PUSH1 0x40 DUP4 DUP6 SUB SLT ISZERO PUSH2 0x30E8 JUMPI PUSH2 0x30E7 PUSH2 0x2C5E JUMP JUMPDEST JUMPDEST PUSH1 0x0 PUSH2 0x30F6 DUP6 DUP3 DUP7 ADD PUSH2 0x2E16 JUMP JUMPDEST SWAP3 POP POP PUSH1 0x20 PUSH2 0x3107 DUP6 DUP3 DUP7 ADD PUSH2 0x2E16 JUMP JUMPDEST SWAP2 POP POP SWAP3 POP SWAP3 SWAP1 POP JUMP JUMPDEST PUSH1 0x0 DUP1 PUSH1 0x0 DUP1 PUSH1 0x0 DUP1 PUSH1 0x0 PUSH1 0xE0 DUP9 DUP11 SUB SLT ISZERO PUSH2 0x3130 JUMPI PUSH2 0x312F PUSH2 0x2C5E JUMP JUMPDEST JUMPDEST PUSH1 0x0 PUSH2 0x313E DUP11 DUP3 DUP12 ADD PUSH2 0x2E16 JUMP JUMPDEST SWAP8 POP POP PUSH1 0x20 PUSH2 0x314F DUP11 DUP3 DUP12 ADD PUSH2 0x2E16 JUMP JUMPDEST SWAP7 POP POP PUSH1 0x40 PUSH2 0x3160 DUP11 DUP3 DUP12 ADD PUSH2 0x2C89 JUMP JUMPDEST SWAP6 POP POP PUSH1 0x60 PUSH2 0x3171 DUP11 DUP3 DUP12 ADD PUSH2 0x2C89 JUMP JUMPDEST SWAP5 POP POP PUSH1 0x80 PUSH2 0x3182 DUP11 DUP3 DUP12 ADD PUSH2 0x2C89 JUMP JUMPDEST SWAP4 POP POP PUSH1 0xA0 PUSH2 0x3193 DUP11 DUP3 DUP12 ADD PUSH2 0x2E16 JUMP JUMPDEST SWAP3 POP POP PUSH1 0xC0 PUSH2 0x31A4 DUP11 DUP3 DUP12 ADD PUSH2 0x2C89 JUMP JUMPDEST SWAP2 POP POP SWAP3 SWAP6 SWAP9 SWAP2 SWAP5 SWAP8 POP SWAP3 SWAP6 POP JUMP JUMPDEST PUSH1 0x0 PUSH1 0x40 DUP3 ADD SWAP1 POP PUSH2 0x31C8 PUSH1 0x0 DUP4 ADD DUP6 PUSH2 0x2CF1 JUMP JUMPDEST PUSH2 0x31D5 PUSH1 0x20 DUP4 ADD DUP5 PUSH2 0x2CF1 JUMP JUMPDEST SWAP4 SWAP3 POP POP POP JUMP JUMPDEST PUSH1 0x0 DUP1 PUSH1 0x0 DUP1 PUSH1 0x0 DUP1 PUSH1 0x0 DUP1 PUSH2 0x100 DUP10 DUP12 SUB SLT ISZERO PUSH2 0x31FD JUMPI PUSH2 0x31FC PUSH2 0x2C5E JUMP JUMPDEST JUMPDEST PUSH1 0x0 PUSH2 0x320B DUP12 DUP3 DUP13 ADD PUSH2 0x2E16 JUMP JUMPDEST SWAP9 POP POP PUSH1 0x20 PUSH2 0x321C DUP12 DUP3 DUP13 ADD PUSH2 0x2E16 JUMP JUMPDEST SWAP8 POP POP PUSH1 0x40 PUSH2 0x322D DUP12 DUP3 DUP13 ADD PUSH2 0x2C89 JUMP JUMPDEST SWAP7 POP POP PUSH1 0x60 PUSH2 0x323E DUP12 DUP3 DUP13 ADD PUSH2 0x2C89 JUMP JUMPDEST SWAP6 POP POP PUSH1 0x80 PUSH2 0x324F DUP12 DUP3 DUP13 ADD PUSH2 0x2C89 JUMP JUMPDEST SWAP5 POP POP PUSH1 0xA0 PUSH2 0x3260 DUP12 DUP3 DUP13 ADD PUSH2 0x2C89 JUMP JUMPDEST SWAP4 POP POP PUSH1 0xC0 PUSH2 0x3271 DUP12 DUP3 DUP13 ADD PUSH2 0x2E16 JUMP JUMPDEST SWAP3 POP POP PUSH1 0xE0 PUSH2 0x3282 DUP12 DUP3 DUP13 ADD PUSH2 0x2C89 JUMP JUMPDEST SWAP2 POP POP SWAP3 SWAP6 SWAP9 POP SWAP3 SWAP6 SWAP9 SWAP1 SWAP4 SWAP7 POP JUMP JUMPDEST PUSH1 0x0 PUSH1 0x60 DUP3 ADD SWAP1 POP PUSH2 0x32A7 PUSH1 0x0 DUP4 ADD DUP7 PUSH2 0x2CF1 JUMP JUMPDEST PUSH2 0x32B4 PUSH1 0x20 DUP4 ADD DUP6 PUSH2 0x2CF1 JUMP JUMPDEST PUSH2 0x32C1 PUSH1 0x40 DUP4 ADD DUP5 PUSH2 0x2CF1 JUMP JUMPDEST SWAP5 SWAP4 POP POP POP POP JUMP JUMPDEST PUSH32 0x5A65726F20696E70757400000000000000000000000000000000000000000000 PUSH1 0x0 DUP3 ADD MSTORE POP JUMP JUMPDEST PUSH1 0x0 PUSH2 0x32FF PUSH1 0xA DUP4 PUSH2 0x2D26 JUMP JUMPDEST SWAP2 POP PUSH2 0x330A DUP3 PUSH2 0x32C9 JUMP JUMPDEST PUSH1 0x20 DUP3 ADD SWAP1 POP SWAP2 SWAP1 POP JUMP JUMPDEST PUSH1 0x0 PUSH1 0x20 DUP3 ADD SWAP1 POP DUP2 DUP2 SUB PUSH1 0x0 DUP4 ADD MSTORE PUSH2 0x332E DUP2 PUSH2 0x32F2 JUMP JUMPDEST SWAP1 POP SWAP2 SWAP1 POP JUMP JUMPDEST PUSH32 0x4E6F206C69717569646974790000000000000000000000000000000000000000 PUSH1 0x0 DUP3 ADD MSTORE POP JUMP JUMPDEST PUSH1 0x0 PUSH2 0x336B PUSH1 0xC DUP4 PUSH2 0x2D26 JUMP JUMPDEST SWAP2 POP PUSH2 0x3376 DUP3 PUSH2 0x3335 JUMP JUMPDEST PUSH1 0x20 DUP3 ADD SWAP1 POP SWAP2 SWAP1 POP JUMP JUMPDEST PUSH1 0x0 PUSH1 0x20 DUP3 ADD SWAP1 POP DUP2 DUP2 SUB PUSH1 0x0 DUP4 ADD MSTORE PUSH2 0x339A DUP2 PUSH2 0x335E JUMP JUMPDEST SWAP1 POP SWAP2 SWAP1 POP JUMP JUMPDEST PUSH32 0x4E487B7100000000000000000000000000000000000000000000000000000000 PUSH1 0x0 MSTORE PUSH1 0x11 PUSH1 0x4 MSTORE PUSH1 0x24 PUSH1 0x0 REVERT JUMPDEST PUSH1 0x0 PUSH2 0x33DB DUP3 PUSH2 0x2C68 JUMP JUMPDEST SWAP2 POP PUSH2 0x33E6 DUP4 PUSH2 0x2C68 JUMP JUMPDEST SWAP3 POP DUP3 DUP3 ADD SWAP1 POP DUP1 DUP3 GT ISZERO PUSH2 0x33FE JUMPI PUSH2 0x33FD PUSH2 0x33A1 JUMP JUMPDEST JUMPDEST SWAP3 SWAP2 POP POP JUMP JUMPDEST PUSH1 0x0 PUSH2 0x340F DUP3 PUSH2 0x2C68 JUMP JUMPDEST SWAP2 POP PUSH2 0x341A DUP4 PUSH2 0x2C68 JUMP JUMPDEST SWAP3 POP DUP3 DUP3 MUL PUSH2 0x3428 DUP2 PUSH2 0x2C68 JUMP JUMPDEST SWAP2 POP DUP3 DUP3 DIV DUP5 EQ DUP4 ISZERO OR PUSH2 0x343F JUMPI PUSH2 0x343E PUSH2 0x33A1 JUMP JUMPDEST JUMPDEST POP SWAP3 SWAP2 POP POP JUMP JUMPDEST PUSH32 0x4E487B7100000000000000000000000000000000000000000000000000000000 PUSH1 0x0 MSTORE PUSH1 0x12 PUSH1 0x4 MSTORE PUSH1 0x24 PUSH1 0x0 REVERT JUMPDEST PUSH1 0x0 PUSH2 0x3480 DUP3 PUSH2 0x2C68 JUMP JUMPDEST SWAP2 POP PUSH2 0x348B DUP4 PUSH2 0x2C68 JUMP JUMPDEST SWAP3 POP DUP3 PUSH2 0x349B JUMPI PUSH2 0x349A PUSH2 0x3446 JUMP JUMPDEST JUMPDEST DUP3 DUP3 DIV SWAP1 POP SWAP3 SWAP2 POP POP JUMP JUMPDEST PUSH32 0x4E487B7100000000000000000000000000000000000000000000000000000000 PUSH1 0x0 MSTORE PUSH1 0x22 PUSH1 0x4 MSTORE PUSH1 0x24 PUSH1 0x0 REVERT JUMPDEST PUSH1 0x0 PUSH1 0x2 DUP3 DIV SWAP1 POP PUSH1 0x1 DUP3 AND DUP1 PUSH2 0x34ED JUMPI PUSH1 0x7F DUP3 AND SWAP2 POP JUMPDEST PUSH1 0x20 DUP3 LT DUP2 SUB PUSH2 0x3500 JUMPI PUSH2 0x34FF PUSH2 0x34A6 JUMP JUMPDEST JUMPDEST POP SWAP2 SWAP1 POP JUMP JUMPDEST PUSH32 0x4578706972656400000000000000000000000000000000000000000000000000 PUSH1 0x0 DUP3 ADD MSTORE POP JUMP JUMPDEST PUSH1 0x0 PUSH2 0x353C PUSH1 0x7 DUP4 PUSH2 0x2D26 JUMP JUMPDEST SWAP2 POP PUSH2 0x3547 DUP3 PUSH2 0x3506 JUMP JUMPDEST PUSH1 0x20 DUP3 ADD SWAP1 POP SWAP2 SWAP1 POP JUMP JUMPDEST PUSH1 0x0 PUSH1 0x20 DUP3 ADD SWAP1 POP DUP2 DUP2 SUB PUSH1 0x0 DUP4 ADD MSTORE PUSH2 0x356B DUP2 PUSH2 0x352F JUMP JUMPDEST SWAP1 POP SWAP2 SWAP1 POP JUMP JUMPDEST PUSH32 0x496E76616C696420706174680000000000000000000000000000000000000000 PUSH1 0x0 DUP3 ADD MSTORE POP JUMP JUMPDEST PUSH1 0x0 PUSH2 0x35A8 PUSH1 0xC DUP4 PUSH2 0x2D26 JUMP JUMPDEST SWAP2 POP PUSH2 0x35B3 DUP3 PUSH2 0x3572 JUMP JUMPDEST PUSH1 0x20 DUP3 ADD SWAP1 POP SWAP2 SWAP1 POP JUMP JUMPDEST PUSH1 0x0 PUSH1 0x20 DUP3 ADD SWAP1 POP DUP2 DUP2 SUB PUSH1 0x0 DUP4 ADD MSTORE PUSH2 0x35D7 DUP2 PUSH2 0x359B JUMP JUMPDEST SWAP1 POP SWAP2 SWAP1 POP JUMP JUMPDEST PUSH32 0x4E487B7100000000000000000000000000000000000000000000000000000000 PUSH1 0x0 MSTORE PUSH1 0x32 PUSH1 0x4 MSTORE PUSH1 0x24 PUSH1 0x0 REVERT JUMPDEST PUSH2 0x3616 DUP2 PUSH2 0x2DED JUMP JUMPDEST DUP3 MSTORE POP POP JUMP JUMPDEST PUSH1 0x0 PUSH1 0x20 DUP3 ADD SWAP1 POP PUSH2 0x3631 PUSH1 0x0 DUP4 ADD DUP5 PUSH2 0x360D JUMP JUMPDEST SWAP3 SWAP2 POP POP JUMP JUMPDEST PUSH1 0x0 DUP2 MLOAD SWAP1 POP PUSH2 0x3646 DUP2 PUSH2 0x2C72 JUMP JUMPDEST SWAP3 SWAP2 POP POP JUMP JUMPDEST PUSH1 0x0 PUSH1 0x20 DUP3 DUP5 SUB SLT ISZERO PUSH2 0x3662 JUMPI PUSH2 0x3661 PUSH2 0x2C5E JUMP JUMPDEST JUMPDEST PUSH1 0x0 PUSH2 0x3670 DUP5 DUP3 DUP6 ADD PUSH2 0x3637 JUMP JUMPDEST SWAP2 POP POP SWAP3 SWAP2 POP POP JUMP JUMPDEST PUSH32 0x4F757470757420746F6F206C6F77000000000000000000000000000000000000 PUSH1 0x0 DUP3 ADD MSTORE POP JUMP JUMPDEST PUSH1 0x0 PUSH2 0x36AF PUSH1 0xE DUP4 PUSH2 0x2D26 JUMP JUMPDEST SWAP2 POP PUSH2 0x36BA DUP3 PUSH2 0x3679 JUMP JUMPDEST PUSH1 0x20 DUP3 ADD SWAP1 POP SWAP2 SWAP1 POP JUMP JUMPDEST PUSH1 0x0 PUSH1 0x20 DUP3 ADD SWAP1 POP DUP2 DUP2 SUB PUSH1 0x0 DUP4 ADD MSTORE PUSH2 0x36DE DUP2 PUSH2 0x36A2 JUMP JUMPDEST SWAP1 POP SWAP2 SWAP1 POP JUMP JUMPDEST PUSH1 0x0 PUSH1 0x60 DUP3 ADD SWAP1 POP PUSH2 0x36FA PUSH1 0x0 DUP4 ADD DUP7 PUSH2 0x360D JUMP JUMPDEST PUSH2 0x3707 PUSH1 0x20 DUP4 ADD DUP6 PUSH2 0x360D JUMP JUMPDEST PUSH2 0x3714 PUSH1 0x40 DUP4 ADD DUP5 PUSH2 0x2CF1 JUMP JUMPDEST SWAP5 SWAP4 POP POP POP POP JUMP JUMPDEST PUSH2 0x3725 DUP2 PUSH2 0x2E6B JUMP JUMPDEST DUP2 EQ PUSH2 0x3730 JUMPI PUSH1 0x0 DUP1 REVERT JUMPDEST POP JUMP JUMPDEST PUSH1 0x0 DUP2 MLOAD SWAP1 POP PUSH2 0x3742 DUP2 PUSH2 0x371C JUMP JUMPDEST SWAP3 SWAP2 POP POP JUMP JUMPDEST PUSH1 0x0 PUSH1 0x20 DUP3 DUP5 SUB SLT ISZERO PUSH2 0x375E JUMPI PUSH2 0x375D PUSH2 0x2C5E JUMP JUMPDEST JUMPDEST PUSH1 0x0 PUSH2 0x376C DUP5 DUP3 DUP6 ADD PUSH2 0x3733 JUMP JUMPDEST SWAP2 POP POP SWAP3 SWAP2 POP POP JUMP JUMPDEST PUSH1 0x0 PUSH1 0x40 DUP3 ADD SWAP1 POP PUSH2 0x378A PUSH1 0x0 DUP4 ADD DUP6 PUSH2 0x360D JUMP JUMPDEST PUSH2 0x3797 PUSH1 0x20 DUP4 ADD DUP5 PUSH2 0x2CF1 JUMP JUMPDEST SWAP4 SWAP3 POP POP POP JUMP JUMPDEST PUSH32 0x496E76616C696420746F6B656E73000000000000000000000000000000000000 PUSH1 0x0 DUP3 ADD MSTORE POP JUMP JUMPDEST PUSH1 0x0 PUSH2 0x37D4 PUSH1 0xE DUP4 PUSH2 0x2D26 JUMP JUMPDEST SWAP2 POP PUSH2 0x37DF DUP3 PUSH2 0x379E JUMP JUMPDEST PUSH1 0x20 DUP3 ADD SWAP1 POP SWAP2 SWAP1 POP JUMP JUMPDEST PUSH1 0x0 PUSH1 0x20 DUP3 ADD SWAP1 POP DUP2 DUP2 SUB PUSH1 0x0 DUP4 ADD MSTORE PUSH2 0x3803 DUP2 PUSH2 0x37C7 JUMP JUMPDEST SWAP1 POP SWAP2 SWAP1 POP JUMP JUMPDEST PUSH32 0x41206E6F74206D696E0000000000000000000000000000000000000000000000 PUSH1 0x0 DUP3 ADD MSTORE POP JUMP JUMPDEST PUSH1 0x0 PUSH2 0x3840 PUSH1 0x9 DUP4 PUSH2 0x2D26 JUMP JUMPDEST SWAP2 POP PUSH2 0x384B DUP3 PUSH2 0x380A JUMP JUMPDEST PUSH1 0x20 DUP3 ADD SWAP1 POP SWAP2 SWAP1 POP JUMP JUMPDEST PUSH1 0x0 PUSH1 0x20 DUP3 ADD SWAP1 POP DUP2 DUP2 SUB PUSH1 0x0 DUP4 ADD MSTORE PUSH2 0x386F DUP2 PUSH2 0x3833 JUMP JUMPDEST SWAP1 POP SWAP2 SWAP1 POP JUMP JUMPDEST PUSH32 0x42206E6F74206D696E0000000000000000000000000000000000000000000000 PUSH1 0x0 DUP3 ADD MSTORE POP JUMP JUMPDEST PUSH1 0x0 PUSH2 0x38AC PUSH1 0x9 DUP4 PUSH2 0x2D26 JUMP JUMPDEST SWAP2 POP PUSH2 0x38B7 DUP3 PUSH2 0x3876 JUMP JUMPDEST PUSH1 0x20 DUP3 ADD SWAP1 POP SWAP2 SWAP1 POP JUMP JUMPDEST PUSH1 0x0 PUSH1 0x20 DUP3 ADD SWAP1 POP DUP2 DUP2 SUB PUSH1 0x0 DUP4 ADD MSTORE PUSH2 0x38DB DUP2 PUSH2 0x389F JUMP JUMPDEST SWAP1 POP SWAP2 SWAP1 POP JUMP JUMPDEST PUSH32 0x496E73756666696369656E742042000000000000000000000000000000000000 PUSH1 0x0 DUP3 ADD MSTORE POP JUMP JUMPDEST PUSH1 0x0 PUSH2 0x3918 PUSH1 0xE DUP4 PUSH2 0x2D26 JUMP JUMPDEST SWAP2 POP PUSH2 0x3923 DUP3 PUSH2 0x38E2 JUMP JUMPDEST PUSH1 0x20 DUP3 ADD SWAP1 POP SWAP2 SWAP1 POP JUMP JUMPDEST PUSH1 0x0 PUSH1 0x20 DUP3 ADD SWAP1 POP DUP2 DUP2 SUB PUSH1 0x0 DUP4 ADD MSTORE PUSH2 0x3947 DUP2 PUSH2 0x390B JUMP JUMPDEST SWAP1 POP SWAP2 SWAP1 POP JUMP JUMPDEST PUSH32 0x496E73756666696369656E742041000000000000000000000000000000000000 PUSH1 0x0 DUP3 ADD MSTORE POP JUMP JUMPDEST PUSH1 0x0 PUSH2 0x3984 PUSH1 0xE DUP4 PUSH2 0x2D26 JUMP JUMPDEST SWAP2 POP PUSH2 0x398F DUP3 PUSH2 0x394E JUMP JUMPDEST PUSH1 0x20 DUP3 ADD SWAP1 POP SWAP2 SWAP1 POP JUMP JUMPDEST PUSH1 0x0 PUSH1 0x20 DUP3 ADD SWAP1 POP DUP2 DUP2 SUB PUSH1 0x0 DUP4 ADD MSTORE PUSH2 0x39B3 DUP2 PUSH2 0x3977 JUMP JUMPDEST SWAP1 POP SWAP2 SWAP1 POP JUMP JUMPDEST PUSH1 0x0 PUSH1 0x60 DUP3 ADD SWAP1 POP PUSH2 0x39CF PUSH1 0x0 DUP4 ADD DUP7 PUSH2 0x360D JUMP JUMPDEST PUSH2 0x39DC PUSH1 0x20 DUP4 ADD DUP6 PUSH2 0x2CF1 JUMP JUMPDEST PUSH2 0x39E9 PUSH1 0x40 DUP4 ADD DUP5 PUSH2 0x2CF1 JUMP JUMPDEST SWAP5 SWAP4 POP POP POP POP JUMP INVALID LOG2 PUSH5 0x6970667358 0x22 SLT KECCAK256 0x1F BALANCE 0x25 0xE6 0xF8 0xD0 ISZERO DUP5 DUP2 0xB6 SDIV 0xB2 DUP8 0xBF ADD 0xD6 PUSH12 0xDFB233867FEF877C512831C4 0xB6 0xD4 LOG3 PUSH5 0x736F6C6343 STOP ADDMOD SHR STOP CALLER "},"methodIdentifiers":{"addLiquidity(address,address,uint256,uint256,uint256,uint256,address,uint256)":"e8e33700","allowance(address,address)":"dd62ed3e","approve(address,uint256)":"095ea7b3","balanceOf(address)":"70a08231","decimals()":"313ce567","getAmountOut(uint256,uint256,uint256)":"054d50d4","getPrice(address,address)":"ac41865a","name()":"06fdde03","removeLiquidity(address,address,uint256,uint256,uint256,address,uint256)":"baa2abde","swapExactTokensForTokens(uint256,uint256,address[],address,uint256)":"38ed1739","symbol()":"95d89b41","tokenA()":"0fc63d10","tokenB()":"5f64b55b","totalSupply()":"18160ddd","transfer(address,uint256)":"a9059cbb","transferFrom(address,address,uint256)":"23b872dd"}}}}}