{"contracts/SimpleSwap.sol":{"SimpleSwap":{"abi":[{"inputs":[{"internalType":"address","name":"_tokenA","type":"address"},{"internalType":"address","name":"_tokenB","type":"address"}],"stateMutability":"nonpayable","type":"constructor"},{"inputs":[{"internalType":"address","name":"spender","type":"address"},{"internalType":"uint256","name":"allowance","type":"uint256"},{"internalType":"uint256","name":"needed","type":"uint256"}],"name":"ERC20InsufficientAllowance","type":"error"},{"inputs":[{"internalType":"address","name":"sender","type":"address"},{"internalType":"uint256","name":"balance","type":"uint256"},{"internalType":"uint256","name":"needed","type":"uint256"}],"name":"ERC20InsufficientBalance","type":"error"},{"inputs":[{"internalType":"address","name":"approver","type":"address"}],"name":"ERC20InvalidApprover","type":"error"},{"inputs":[{"internalType":"address","name":"receiver","type":"address"}],"name":"ERC20InvalidReceiver","type":"error"},{"inputs":[{"internalType":"address","name":"sender","type":"address"}],"name":"ERC20InvalidSender","type":"error"},{"inputs":[{"internalType":"address","name":"spender","type":"address"}],"name":"ERC20InvalidSpender","type":"error"},{"anonymous":false,"inputs":[{"indexed":true,"internalType":"address","name":"owner","type":"address"},{"indexed":true,"internalType":"address","name":"spender","type":"address"},{"indexed":false,"internalType":"uint256","name":"value","type":"uint256"}],"name":"Approval","type":"event"},{"anonymous":false,"inputs":[{"indexed":true,"internalType":"address","name":"from","type":"address"},{"indexed":true,"internalType":"address","name":"to","type":"address"},{"indexed":false,"internalType":"uint256","name":"value","type":"uint256"}],"name":"Transfer","type":"event"},{"inputs":[{"internalType":"address","name":"_tokenA","type":"address"},{"internalType":"address","name":"_tokenB","type":"address"},{"internalType":"uint256","name":"amountADesired","type":"uint256"},{"internalType":"uint256","name":"amountBDesired","type":"uint256"},{"internalType":"uint256","name":"amountAMin","type":"uint256"},{"internalType":"uint256","name":"amountBMin","type":"uint256"},{"internalType":"address","name":"to","type":"address"},{"internalType":"uint256","name":"deadline","type":"uint256"}],"name":"addLiquidity","outputs":[{"internalType":"uint256","name":"amountA","type":"uint256"},{"internalType":"uint256","name":"amountB","type":"uint256"},{"internalType":"uint256","name":"liquidity","type":"uint256"}],"stateMutability":"nonpayable","type":"function"},{"inputs":[{"internalType":"address","name":"owner","type":"address"},{"internalType":"address","name":"spender","type":"address"}],"name":"allowance","outputs":[{"internalType":"uint256","name":"","type":"uint256"}],"stateMutability":"view","type":"function"},{"inputs":[{"internalType":"address","name":"spender","type":"address"},{"internalType":"uint256","name":"value","type":"uint256"}],"name":"approve","outputs":[{"internalType":"bool","name":"","type":"bool"}],"stateMutability":"nonpayable","type":"function"},{"inputs":[{"internalType":"address","name":"account","type":"address"}],"name":"balanceOf","outputs":[{"internalType":"uint256","name":"","type":"uint256"}],"stateMutability":"view","type":"function"},{"inputs":[],"name":"decimals","outputs":[{"internalType":"uint8","name":"","type":"uint8"}],"stateMutability":"view","type":"function"},{"inputs":[{"internalType":"uint256","name":"amountIn","type":"uint256"},{"internalType":"uint256","name":"reserveIn","type":"uint256"},{"internalType":"uint256","name":"reserveOut","type":"uint256"}],"name":"getAmountOut","outputs":[{"internalType":"uint256","name":"amountOut","type":"uint256"}],"stateMutability":"pure","type":"function"},{"inputs":[{"internalType":"address","name":"_tokenA","type":"address"},{"internalType":"address","name":"_tokenB","type":"address"}],"name":"getPrice","outputs":[{"internalType":"uint256","name":"price","type":"uint256"}],"stateMutability":"view","type":"function"},{"inputs":[],"name":"name","outputs":[{"internalType":"string","name":"","type":"string"}],"stateMutability":"view","type":"function"},{"inputs":[{"internalType":"address","name":"_tokenA","type":"address"},{"internalType":"address","name":"_tokenB","type":"address"},{"internalType":"uint256","name":"liquidity","type":"uint256"},{"internalType":"uint256","name":"amountAMin","type":"uint256"},{"internalType":"uint256","name":"amountBMin","type":"uint256"},{"internalType":"address","name":"to","type":"address"},{"internalType":"uint256","name":"deadline","type":"uint256"}],"name":"removeLiquidity","outputs":[{"internalType":"uint256","name":"amountA","type":"uint256"},{"internalType":"uint256","name":"amountB","type":"uint256"}],"stateMutability":"nonpayable","type":"function"},{"inputs":[{"internalType":"uint256","name":"amountIn","type":"uint256"},{"internalType":"uint256","name":"amountOutMin","type":"uint256"},{"internalType":"address[]","name":"path","type":"address[]"},{"internalType":"address","name":"to","type":"address"},{"internalType":"uint256","name":"deadline","type":"uint256"}],"name":"swapExactTokensForTokens","outputs":[],"stateMutability":"nonpayable","type":"function"},{"inputs":[],"name":"symbol","outputs":[{"internalType":"string","name":"","type":"string"}],"stateMutability":"view","type":"function"},{"inputs":[],"name":"tokenA","outputs":[{"internalType":"contract IERC20","name":"","type":"address"}],"stateMutability":"view","type":"function"},{"inputs":[],"name":"tokenB","outputs":[{"internalType":"contract IERC20","name":"","type":"address"}],"stateMutability":"view","type":"function"},{"inputs":[],"name":"totalSupply","outputs":[{"internalType":"uint256","name":"","type":"uint256"}],"stateMutability":"view","type":"function"},{"inputs":[{"internalType":"address","name":"to","type":"address"},{"internalType":"uint256","name":"value","type":"uint256"}],"name":"transfer","outputs":[{"internalType":"bool","name":"","type":"bool"}],"stateMutability":"nonpayable","type":"function"},{"inputs":[{"internalType":"address","name":"from","type":"address"},{"internalType":"address","name":"to","type":"address"},{"internalType":"uint256","name":"value","type":"uint256"}],"name":"transferFrom","outputs":[{"internalType":"bool","name":"","type":"bool"}],"stateMutability":"nonpayable","type":"function"}],"evm":{"bytecode":{"linkReferences":{},"object":"60c060405234801561001057600080fd5b5060405161413b38038061413b833981810160405281019061003291906102b9565b6040518060400160405280601081526020017f53696d706c655377617020546f6b656e000000000000000000000000000000008152506040518060400160405280600381526020017f535354000000000000000000000000000000000000000000000000000000000081525081600390816100ad9190610549565b5080600490816100bd9190610549565b5050506100da67de4c0339ea0bfa9460c01b61025360201b60201c565b6100f4670481af8b80d9d47160c01b61025360201b60201c565b61010e6768c7efd07797b42060c01b61025360201b60201c565b61012867b771cd85dc7be62360c01b61025360201b60201c565b8073ffffffffffffffffffffffffffffffffffffffff168273ffffffffffffffffffffffffffffffffffffffff1603610196576040517f08c379a000000000000000000000000000000000000000000000000000000000815260040161018d90610678565b60405180910390fd5b6101b067d63c60e25eaa95bd60c01b61025360201b60201c565b6101ca67717561f875c5a71e60c01b61025360201b60201c565b8173ffffffffffffffffffffffffffffffffffffffff1660808173ffffffffffffffffffffffffffffffffffffffff168152505061021867b714776118f2e37860c01b61025360201b60201c565b8073ffffffffffffffffffffffffffffffffffffffff1660a08173ffffffffffffffffffffffffffffffffffffffff16815250505050610698565b50565b600080fd5b600073ffffffffffffffffffffffffffffffffffffffff82169050919050565b60006102868261025b565b9050919050565b6102968161027b565b81146102a157600080fd5b50565b6000815190506102b38161028d565b92915050565b600080604083850312156102d0576102cf610256565b5b60006102de858286016102a4565b92505060206102ef858286016102a4565b9150509250929050565b600081519050919050565b7f4e487b7100000000000000000000000000000000000000000000000000000000600052604160045260246000fd5b7f4e487b7100000000000000000000000000000000000000000000000000000000600052602260045260246000fd5b6000600282049050600182168061037a57607f821691505b60208210810361038d5761038c610333565b5b50919050565b60008190508160005260206000209050919050565b60006020601f8301049050919050565b600082821b905092915050565b6000600883026103f57fffffffffffffffffffffffffffffffffffffffffffffffffffffffffffffffff826103b8565b6103ff86836103b8565b95508019841693508086168417925050509392505050565b6000819050919050565b6000819050919050565b600061044661044161043c84610417565b610421565b610417565b9050919050565b6000819050919050565b6104608361042b565b61047461046c8261044d565b8484546103c5565b825550505050565b600090565b61048961047c565b610494818484610457565b505050565b5b818110156104b8576104ad600082610481565b60018101905061049a565b5050565b601f8211156104fd576104ce81610393565b6104d7846103a8565b810160208510156104e6578190505b6104fa6104f2856103a8565b830182610499565b50505b505050565b600082821c905092915050565b600061052060001984600802610502565b1980831691505092915050565b6000610539838361050f565b9150826002028217905092915050565b610552826102f9565b67ffffffffffffffff81111561056b5761056a610304565b5b6105758254610362565b6105808282856104bc565b600060209050601f8311600181146105b357600084156105a1578287015190505b6105ab858261052d565b865550610613565b601f1984166105c186610393565b60005b828110156105e9578489015182556001820191506020850194506020810190506105c4565b868310156106065784890151610602601f89168261050f565b8355505b6001600288020188555050505b505050505050565b600082825260208201905092915050565b7f4964656e746963616c20746f6b656e7300000000000000000000000000000000600082015250565b600061066260108361061b565b915061066d8261062c565b602082019050919050565b6000602082019050818103600083015261069181610655565b9050919050565b60805160a0516139f961074260003960008181610b8601528181610d4f01528181610dc101528181610fc6015281816112c50152818161151f0152818161185c01528181611a3c01528181611cdb01526122690152600081816105c601528181610cf901528181610e1701528181610f01015281816111290152818161126f0152818161145901528181611795015281816119e601528181611c1501526121a001526139f96000f3fe608060405234801561001057600080fd5b50600436106101005760003560e01c80635f64b55b11610097578063ac41865a11610066578063ac41865a146102c5578063baa2abde146102f5578063dd62ed3e14610326578063e8e337001461035657610100565b80635f64b55b1461022957806370a082311461024757806395d89b4114610277578063a9059cbb1461029557610100565b806318160ddd116100d357806318160ddd146101a157806323b872dd146101bf578063313ce567146101ef57806338ed17391461020d57610100565b8063054d50d41461010557806306fdde0314610135578063095ea7b3146101535780630fc63d1014610183575b600080fd5b61011f600480360381019061011a9190612c70565b610388565b60405161012c9190612cd2565b60405180910390f35b61013d61050f565b60405161014a9190612d7d565b60405180910390f35b61016d60048036038101906101689190612dfd565b6105a1565b60405161017a9190612e58565b60405180910390f35b61018b6105c4565b6040516101989190612ed2565b60405180910390f35b6101a96105e8565b6040516101b69190612cd2565b60405180910390f35b6101d960048036038101906101d49190612eed565b6105f2565b6040516101e69190612e58565b60405180910390f35b6101f7610621565b6040516102049190612f5c565b60405180910390f35b61022760048036038101906102229190612fdc565b61062a565b005b610231610b84565b60405161023e9190612ed2565b60405180910390f35b610261600480360381019061025c9190613076565b610ba8565b60405161026e9190612cd2565b60405180910390f35b61027f610bf0565b60405161028c9190612d7d565b60405180910390f35b6102af60048036038101906102aa9190612dfd565b610c82565b6040516102bc9190612e58565b60405180910390f35b6102df60048036038101906102da91906130a3565b610ca5565b6040516102ec9190612cd2565b60405180910390f35b61030f600480360381019061030a91906130e3565b61121a565b60405161031d929190613185565b60405180910390f35b610340600480360381019061033b91906130a3565b611908565b60405161034d9190612cd2565b60405180910390f35b610370600480360381019061036b91906131ae565b61198f565b60405161037f93929190613264565b60405180910390f35b600061039e67ac6953c50e6e930f60c01b6123b9565b6103b267cdcf1c0abc6f2e9460c01b6123b9565b6103c6675885f3238578314b60c01b6123b9565b6103da678eedb3e73b7de9e260c01b6123b9565b6000841161041d576040517f08c379a0000000000000000000000000000000000000000000000000000000008152600401610414906132e7565b60405180910390fd5b61043167a0983fa99db5d7c760c01b6123b9565b61044567a9c3811060fb3e6e60c01b6123b9565b610459671d49c8fffb1d029760c01b6123b9565b61046d67379f1eb63ced9a7560c01b6123b9565b60008311801561047d5750600082115b6104bc576040517f08c379a00000000000000000000000000000000000000000000000000000000081526004016104b390613353565b60405180910390fd5b6104d06709af7344964fd4c360c01b6123b9565b6104e467e087c80e2195a40260c01b6123b9565b82846104f091906133a2565b82856104fc91906133d6565b6105069190613447565b90509392505050565b60606003805461051e906134a7565b80601f016020809104026020016040519081016040528092919081815260200182805461054a906134a7565b80156105975780601f1061056c57610100808354040283529160200191610597565b820191906000526020600020905b81548152906001019060200180831161057a57829003601f168201915b5050505050905090565b6000806105ac6123bc565b90506105b98185856123c4565b600191505092915050565b7f000000000000000000000000000000000000000000000000000000000000000081565b6000600254905090565b6000806105fd6123bc565b905061060a8582856123d6565b61061585858561246b565b60019150509392505050565b60006012905090565b61063e676e3024e59e4f15a360c01b6123b9565b61065267405e358a5865d0e660c01b6123b9565b61066667d05fccc057902f9360c01b6123b9565b61067a679cdcf7476cb396d760c01b6123b9565b804211156106bd576040517f08c379a00000000000000000000000000000000000000000000000000000000081526004016106b490613524565b60405180910390fd5b6106d1673533e7f29ebe7f8460c01b6123b9565b6106e5676325360fe0c4d0ac60c01b6123b9565b6106f9677c51c209e99113bb60c01b6123b9565b61070d67efd7883d02733ab260c01b6123b9565b60028484905014610753576040517f08c379a000000000000000000000000000000000000000000000000000000000815260040161074a90613590565b60405180910390fd5b6107676778208ad466f7895360c01b6123b9565b61077b676f33d433a5ad8ec760c01b6123b9565b61078f67f55d09239abc5a7560c01b6123b9565b6000848460008181106107a5576107a46135b0565b5b90506020020160208101906107ba9190613076565b90506107d067b408d1d764f1831a60c01b6123b9565b6107e4674f016c63c341f11560c01b6123b9565b6000858560018181106107fa576107f96135b0565b5b905060200201602081019061080f9190613076565b90506108256796a0dd4f4a396d6260c01b6123b9565b61083967f8b6bfce52c0c87660c01b6123b9565b60008273ffffffffffffffffffffffffffffffffffffffff166370a08231306040518263ffffffff1660e01b815260040161087491906135ee565b602060405180830381865afa158015610891573d6000803e3d6000fd5b505050506040513d601f19601f820116820180604052508101906108b5919061361e565b90506108cb6704cafcc66273c44660c01b6123b9565b6108df6768b70100173ca50560c01b6123b9565b60008273ffffffffffffffffffffffffffffffffffffffff166370a08231306040518263ffffffff1660e01b815260040161091a91906135ee565b602060405180830381865afa158015610937573d6000803e3d6000fd5b505050506040513d601f19601f8201168201806040525081019061095b919061361e565b90506109716793bec06a4c519d2a60c01b6123b9565b61098567858f2a888f88b26660c01b6123b9565b60006109928b8484610388565b90506109a867257a1793216be56260c01b6123b9565b6109bc67f5d7239a6b8d443e60c01b6123b9565b6109d067e16000140fff2d1460c01b6123b9565b89811015610a13576040517f08c379a0000000000000000000000000000000000000000000000000000000008152600401610a0a90613697565b60405180910390fd5b610a27670c2ac821c1e8b2de60c01b6123b9565b610a3b671d2f4b54f31aef2e60c01b6123b9565b610a4f6734fb8832ca2fa30860c01b6123b9565b8473ffffffffffffffffffffffffffffffffffffffff166323b872dd33308e6040518463ffffffff1660e01b8152600401610a8c939291906136b7565b6020604051808303816000875af1158015610aab573d6000803e3d6000fd5b505050506040513d601f19601f82011682018060405250810190610acf919061371a565b50610ae467041ff01824c44b6460c01b6123b9565b610af867887fe9cae6d5db0560c01b6123b9565b8373ffffffffffffffffffffffffffffffffffffffff1663a9059cbb88836040518363ffffffff1660e01b8152600401610b33929190613747565b6020604051808303816000875af1158015610b52573d6000803e3d6000fd5b505050506040513d601f19601f82011682018060405250810190610b76919061371a565b505050505050505050505050565b7f000000000000000000000000000000000000000000000000000000000000000081565b60008060008373ffffffffffffffffffffffffffffffffffffffff1673ffffffffffffffffffffffffffffffffffffffff168152602001908152602001600020549050919050565b606060048054610bff906134a7565b80601f0160208091040260200160405190810160405280929190818152602001828054610c2b906134a7565b8015610c785780601f10610c4d57610100808354040283529160200191610c78565b820191906000526020600020905b815481529060010190602001808311610c5b57829003601f168201915b5050505050905090565b600080610c8d6123bc565b9050610c9a81858561246b565b600191505092915050565b6000610cbb67c1f6e6128f74d94360c01b6123b9565b610ccf6744a247d23c1afea260c01b6123b9565b610ce367a4fe71c3f304bc4c60c01b6123b9565b610cf7674ffca05d7e3dc5b660c01b6123b9565b7f000000000000000000000000000000000000000000000000000000000000000073ffffffffffffffffffffffffffffffffffffffff168373ffffffffffffffffffffffffffffffffffffffff16148015610d9d57507f000000000000000000000000000000000000000000000000000000000000000073ffffffffffffffffffffffffffffffffffffffff168273ffffffffffffffffffffffffffffffffffffffff16145b8015610db95750610db8679354bf53435d4ab260c01b61255f565b5b80610e8257507f000000000000000000000000000000000000000000000000000000000000000073ffffffffffffffffffffffffffffffffffffffff168373ffffffffffffffffffffffffffffffffffffffff16148015610e6557507f000000000000000000000000000000000000000000000000000000000000000073ffffffffffffffffffffffffffffffffffffffff168273ffffffffffffffffffffffffffffffffffffffff16145b8015610e815750610e8067132c532717d0ef0b60c01b61255f565b5b5b610ec1576040517f08c379a0000000000000000000000000000000000000000000000000000000008152600401610eb8906137bc565b60405180910390fd5b610ed5673b3bed2b862ac7e660c01b6123b9565b610ee96712c231baeb190a6160c01b6123b9565b610efd67c88df571b7d1daaa60c01b6123b9565b60007f000000000000000000000000000000000000000000000000000000000000000073ffffffffffffffffffffffffffffffffffffffff166370a08231306040518263ffffffff1660e01b8152600401610f5891906135ee565b602060405180830381865afa158015610f75573d6000803e3d6000fd5b505050506040513d601f19601f82011682018060405250810190610f99919061361e565b9050610fae6657c4449d2cf67160c01b6123b9565b610fc267bf2192ac949de63b60c01b6123b9565b60007f000000000000000000000000000000000000000000000000000000000000000073ffffffffffffffffffffffffffffffffffffffff166370a08231306040518263ffffffff1660e01b815260040161101d91906135ee565b602060405180830381865afa15801561103a573d6000803e3d6000fd5b505050506040513d601f19601f8201168201806040525081019061105e919061361e565b90506110746754375829b8fe62a760c01b6123b9565b61108867fb7c01b86170446a60c01b6123b9565b61109c672566956bf7ecde6560c01b6123b9565b6000821180156110ac5750600081115b6110eb576040517f08c379a00000000000000000000000000000000000000000000000000000000081526004016110e290613353565b60405180910390fd5b6110ff67e1a579da454312af60c01b6123b9565b611113671fa928743a1b30b160c01b6123b9565b611127678673484ba851a88860c01b6123b9565b7f000000000000000000000000000000000000000000000000000000000000000073ffffffffffffffffffffffffffffffffffffffff168573ffffffffffffffffffffffffffffffffffffffff16036111c85761118e677bb59c3d51bffa3060c01b6123b9565b6111a2679f1dabb75941e87d60c01b6123b9565b81670de0b6b3a7640000826111b791906133d6565b6111c19190613447565b9250611212565b6111dc678e6b8f14a83d099560c01b6123b9565b6111f06704e60e1526d0b97b60c01b6123b9565b80670de0b6b3a76400008361120591906133d6565b61120f9190613447565b92505b505092915050565b6000806112316758639b0906b728b260c01b6123b9565b611245676c09d9037812c58860c01b6123b9565b6112596719e305f2028516d260c01b6123b9565b61126d6798ebef6f068f69db60c01b6123b9565b7f000000000000000000000000000000000000000000000000000000000000000073ffffffffffffffffffffffffffffffffffffffff168973ffffffffffffffffffffffffffffffffffffffff1614801561131357507f000000000000000000000000000000000000000000000000000000000000000073ffffffffffffffffffffffffffffffffffffffff168873ffffffffffffffffffffffffffffffffffffffff16145b611352576040517f08c379a0000000000000000000000000000000000000000000000000000000008152600401611349906137bc565b60405180910390fd5b6113666752133d8aa612606a60c01b6123b9565b61137a676391f8c6fb192ee160c01b6123b9565b61138e671b7274beec9d851b60c01b6123b9565b6113a2670f0d5cf5ad052da060c01b6123b9565b824211156113e5576040517f08c379a00000000000000000000000000000000000000000000000000000000081526004016113dc90613524565b60405180910390fd5b6113f967068af7b83bb72a8060c01b6123b9565b61140d679bbaa8bf651249d760c01b6123b9565b6114216751cd2c38db45d60c60c01b6123b9565b600061142b6105e8565b905061144167f4d700ec525ad7d460c01b6123b9565b611455678a87390ec0343e4760c01b6123b9565b60007f000000000000000000000000000000000000000000000000000000000000000073ffffffffffffffffffffffffffffffffffffffff166370a08231306040518263ffffffff1660e01b81526004016114b091906135ee565b602060405180830381865afa1580156114cd573d6000803e3d6000fd5b505050506040513d601f19601f820116820180604052508101906114f1919061361e565b9050611507677c8b6fd45c7b56cb60c01b6123b9565b61151b67e8cb8b1a9bab9b1c60c01b6123b9565b60007f000000000000000000000000000000000000000000000000000000000000000073ffffffffffffffffffffffffffffffffffffffff166370a08231306040518263ffffffff1660e01b815260040161157691906135ee565b602060405180830381865afa158015611593573d6000803e3d6000fd5b505050506040513d601f19601f820116820180604052508101906115b7919061361e565b90506115cd6797a2d87be39e2b3d60c01b6123b9565b82828b6115da91906133d6565b6115e49190613447565b94506115fa671a354bf5928b059660c01b6123b9565b82818b61160791906133d6565b6116119190613447565b9350611627674434da9de4144ca260c01b6123b9565b61163b674f19cd48fc08acc560c01b6123b9565b61164f67a6fe4812e1a38b9f60c01b6123b9565b88851015611692576040517f08c379a000000000000000000000000000000000000000000000000000000000815260040161168990613828565b60405180910390fd5b6116a66709faaf0140573e5660c01b6123b9565b6116ba6766667addcda27a7060c01b6123b9565b6116ce67d50b9ae13c0fdba560c01b6123b9565b6116e26751ecbbdd8d2d395960c01b6123b9565b87841015611725576040517f08c379a000000000000000000000000000000000000000000000000000000000815260040161171c90613894565b60405180910390fd5b61173967720a070a500347ad60c01b6123b9565b61174d67bf4ba7aeddd19bb760c01b6123b9565b61176167362efdea485fa7c760c01b6123b9565b61176b338b61256a565b61177f67a7a3c8acfd5fe42060c01b6123b9565b61179367af245a587fccf07660c01b6123b9565b7f000000000000000000000000000000000000000000000000000000000000000073ffffffffffffffffffffffffffffffffffffffff1663a9059cbb88876040518363ffffffff1660e01b81526004016117ee929190613747565b6020604051808303816000875af115801561180d573d6000803e3d6000fd5b505050506040513d601f19601f82011682018060405250810190611831919061371a565b50611846675c968199e92b661b60c01b6123b9565b61185a67345a17214faabefc60c01b6123b9565b7f000000000000000000000000000000000000000000000000000000000000000073ffffffffffffffffffffffffffffffffffffffff1663a9059cbb88866040518363ffffffff1660e01b81526004016118b5929190613747565b6020604051808303816000875af11580156118d4573d6000803e3d6000fd5b505050506040513d601f19601f820116820180604052508101906118f8919061371a565b5050505097509795505050505050565b6000600160008473ffffffffffffffffffffffffffffffffffffffff1673ffffffffffffffffffffffffffffffffffffffff16815260200190815260200160002060008373ffffffffffffffffffffffffffffffffffffffff1673ffffffffffffffffffffffffffffffffffffffff16815260200190815260200160002054905092915050565b60008060006119a867a45d7511783c0ac160c01b6123b9565b6119bc672a9c90efd50af51360c01b6123b9565b6119d06795120868d56577ac60c01b6123b9565b6119e4676b767fada32f864e60c01b6123b9565b7f000000000000000000000000000000000000000000000000000000000000000073ffffffffffffffffffffffffffffffffffffffff168b73ffffffffffffffffffffffffffffffffffffffff16148015611a8a57507f000000000000000000000000000000000000000000000000000000000000000073ffffffffffffffffffffffffffffffffffffffff168a73ffffffffffffffffffffffffffffffffffffffff16145b611ac9576040517f08c379a0000000000000000000000000000000000000000000000000000000008152600401611ac0906137bc565b60405180910390fd5b611add67990f8c26950ba0b360c01b6123b9565b611af16783818befb621cc2f60c01b6123b9565b611b0567ca56c97d81d5091860c01b6123b9565b611b1967f886591378cb829860c01b6123b9565b83421115611b5c576040517f08c379a0000000000000000000000000000000000000000000000000000000008152600401611b5390613524565b60405180910390fd5b611b706777ad270560cd0a1760c01b6123b9565b611b84671b476b593281ac5460c01b6123b9565b611b98672c888d4b77aea01160c01b6123b9565b6000611ba26105e8565b9050611bb86743b41cb0904f34a960c01b6123b9565b611bcc671a63ac4460a2a9fe60c01b6123b9565b6000811115611fe357611be967e99838ea45ce653960c01b6123b9565b611bfd6776e3305d3a26759860c01b6123b9565b611c1167539dfa31ef4eb71360c01b6123b9565b60007f000000000000000000000000000000000000000000000000000000000000000073ffffffffffffffffffffffffffffffffffffffff166370a08231306040518263ffffffff1660e01b8152600401611c6c91906135ee565b602060405180830381865afa158015611c89573d6000803e3d6000fd5b505050506040513d601f19601f82011682018060405250810190611cad919061361e565b9050611cc3674d326934de53a9c160c01b6123b9565b611cd7673c41bc41d7b1ba2e60c01b6123b9565b60007f000000000000000000000000000000000000000000000000000000000000000073ffffffffffffffffffffffffffffffffffffffff166370a08231306040518263ffffffff1660e01b8152600401611d3291906135ee565b602060405180830381865afa158015611d4f573d6000803e3d6000fd5b505050506040513d601f19601f82011682018060405250810190611d73919061361e565b9050611d896739e2050a449fbc8a60c01b6123b9565b611d9d67ba7d8d97adbad74560c01b6123b9565b600082828e611dac91906133d6565b611db69190613447565b9050611dcc679b397cf8c35218c160c01b6123b9565b611de067ff2be08511afa2a860c01b6123b9565b8b8111611ec157611dfb67319fba471a8cc5be60c01b6123b9565b611e0f67e7b6d90374b10eb760c01b6123b9565b611e2367cb0671f5aa3bac2160c01b6123b9565b611e3767a8d55ab8b669230560c01b6123b9565b89811015611e7a576040517f08c379a0000000000000000000000000000000000000000000000000000000008152600401611e7190613900565b60405180910390fd5b611e8e6711098e860596184d60c01b6123b9565b611ea267751f68bf6863221860c01b6123b9565b8c9650611eb9676fba110964acb85860c01b6123b9565b809550611fdb565b611ed5670f845ef0102dc59b60c01b6123b9565b611ee967991acc36c1983c7260c01b6123b9565b611efd675cbce2991e6287e160c01b6123b9565b600082848e611f0c91906133d6565b611f169190613447565b9050611f2c670fe84fce5e420d3c60c01b6123b9565b611f4067c0e49102b3a21e1b60c01b6123b9565b611f5467f5f146311e19d6c660c01b6123b9565b8b811015611f97576040517f08c379a0000000000000000000000000000000000000000000000000000000008152600401611f8e9061396c565b60405180910390fd5b611fab67c3848f8cbf7ad77e60c01b6123b9565b611fbf6748a9710a12b1a03460c01b6123b9565b809750611fd667d8e3c03a5bac52a760c01b6123b9565b8c9650505b505050612050565b611ff767537973b39607c17460c01b6123b9565b61200b67a1cdc0870fccce5160c01b6123b9565b899350612022678e0a93a743a8951760c01b6123b9565b889250612039670128cedc8aa53cef60c01b6123b9565b61204d838561204891906133d6565b6125ec565b91505b61206467d02b23d745ab92b760c01b6123b9565b61207867bbc8015398ad187f60c01b6123b9565b61208c67fb68251308a1e27360c01b6123b9565b878410156120cf576040517f08c379a00000000000000000000000000000000000000000000000000000000081526004016120c690613828565b60405180910390fd5b6120e367a0e2fba29532beb060c01b6123b9565b6120f7670660a7b23cadb9ee60c01b6123b9565b61210b6704fe983fc27dca1f60c01b6123b9565b61211f67d0e43fff35460c3360c01b6123b9565b86831015612162576040517f08c379a000000000000000000000000000000000000000000000000000000000815260040161215990613894565b60405180910390fd5b61217667ed2698a894be708f60c01b6123b9565b61218a67846b7e285b4153fe60c01b6123b9565b61219e67bc10133a6e83359f60c01b6123b9565b7f000000000000000000000000000000000000000000000000000000000000000073ffffffffffffffffffffffffffffffffffffffff166323b872dd3330876040518463ffffffff1660e01b81526004016121fb939291906136b7565b6020604051808303816000875af115801561221a573d6000803e3d6000fd5b505050506040513d601f19601f8201168201806040525081019061223e919061371a565b50612253678b87016cfd9014e060c01b6123b9565b612267671cc65e7c339166e460c01b6123b9565b7f000000000000000000000000000000000000000000000000000000000000000073ffffffffffffffffffffffffffffffffffffffff166323b872dd3330866040518463ffffffff1660e01b81526004016122c4939291906136b7565b6020604051808303816000875af11580156122e3573d6000803e3d6000fd5b505050506040513d601f19601f82011682018060405250810190612307919061371a565b5061231c6755d2831c92cd25df60c01b6123b9565b600082118061233b575061233a672c4628a27c7ac69960c01b6127ab565b5b80156123575750612356678c4bb674f936199860c01b61255f565b5b6123745761236f838561236a91906133d6565b6125ec565b612376565b815b915061238c67eaf9c392eb531b8f60c01b6123b9565b6123a067c2ec64b3fdd2fd5260c01b6123b9565b6123aa86836127b2565b50985098509895505050505050565b50565b600033905090565b6123d18383836001612834565b505050565b60006123e28484611908565b90507fffffffffffffffffffffffffffffffffffffffffffffffffffffffffffffffff8110156124655781811015612455578281836040517ffb8f41b200000000000000000000000000000000000000000000000000000000815260040161244c9392919061398c565b60405180910390fd5b61246484848484036000612834565b5b50505050565b600073ffffffffffffffffffffffffffffffffffffffff168373ffffffffffffffffffffffffffffffffffffffff16036124dd5760006040517f96c6fd1e0000000000000000000000000000000000000000000000000000000081526004016124d491906135ee565b60405180910390fd5b600073ffffffffffffffffffffffffffffffffffffffff168273ffffffffffffffffffffffffffffffffffffffff160361254f5760006040517fec442f0500000000000000000000000000000000000000000000000000000000815260040161254691906135ee565b60405180910390fd5b61255a838383612a0b565b505050565b600060019050919050565b600073ffffffffffffffffffffffffffffffffffffffff168273ffffffffffffffffffffffffffffffffffffffff16036125dc5760006040517f96c6fd1e0000000000000000000000000000000000000000000000000000000081526004016125d391906135ee565b60405180910390fd5b6125e882600083612a0b565b5050565b600061260267c30bc7ff812aa81860c01b6123b9565b61261667cc07c2840bfc4d1660c01b6123b9565b61262a676ae6efa36c300c4760c01b6123b9565b600382111561272f57612647670260282ad32205cc60c01b6123b9565b61265b678bd5026a09cd7b8160c01b6123b9565b819050612672676f1579ad4027423560c01b6123b9565b61268667c6defeb7623014b260c01b6123b9565b600060016002846126979190613447565b6126a191906133a2565b90506126b7674b4cac09b4eede4e60c01b6123b9565b6126cb67ce9bb4d6cb864cca60c01b6123b9565b5b81811015612729576126e86781bdd2e70ef5169e60c01b6123b9565b8091506126ff6744a33cfaa34b41dd60c01b6123b9565b600281828561270e9190613447565b61271891906133a2565b6127229190613447565b90506126cc565b506127a6565b61274367b090d1109ad842b460c01b6123b9565b6127576757a3cb637673b39e60c01b6123b9565b60008214612790576127736714df616ea02bd30160c01b6123b9565b61278767c2ddba34f9423f1d60c01b6123b9565b600190506127a5565b6127a467abffc665f2ce569460c01b6123b9565b5b5b919050565b6000919050565b600073ffffffffffffffffffffffffffffffffffffffff168273ffffffffffffffffffffffffffffffffffffffff16036128245760006040517fec442f0500000000000000000000000000000000000000000000000000000000815260040161281b91906135ee565b60405180910390fd5b61283060008383612a0b565b5050565b600073ffffffffffffffffffffffffffffffffffffffff168473ffffffffffffffffffffffffffffffffffffffff16036128a65760006040517fe602df0500000000000000000000000000000000000000000000000000000000815260040161289d91906135ee565b60405180910390fd5b600073ffffffffffffffffffffffffffffffffffffffff168373ffffffffffffffffffffffffffffffffffffffff16036129185760006040517f94280d6200000000000000000000000000000000000000000000000000000000815260040161290f91906135ee565b60405180910390fd5b81600160008673ffffffffffffffffffffffffffffffffffffffff1673ffffffffffffffffffffffffffffffffffffffff16815260200190815260200160002060008573ffffffffffffffffffffffffffffffffffffffff1673ffffffffffffffffffffffffffffffffffffffff168152602001908152602001600020819055508015612a05578273ffffffffffffffffffffffffffffffffffffffff168473ffffffffffffffffffffffffffffffffffffffff167f8c5be1e5ebec7d5bd14f71427d1e84f3dd0314c0f7b2291e5b200ac8c7c3b925846040516129fc9190612cd2565b60405180910390a35b50505050565b600073ffffffffffffffffffffffffffffffffffffffff168373ffffffffffffffffffffffffffffffffffffffff1603612a5d578060026000828254612a5191906133a2565b92505081905550612b30565b60008060008573ffffffffffffffffffffffffffffffffffffffff1673ffffffffffffffffffffffffffffffffffffffff16815260200190815260200160002054905081811015612ae9578381836040517fe450d38c000000000000000000000000000000000000000000000000000000008152600401612ae09392919061398c565b60405180910390fd5b8181036000808673ffffffffffffffffffffffffffffffffffffffff1673ffffffffffffffffffffffffffffffffffffffff16815260200190815260200160002081905550505b600073ffffffffffffffffffffffffffffffffffffffff168273ffffffffffffffffffffffffffffffffffffffff1603612b795780600260008282540392505081905550612bc6565b806000808473ffffffffffffffffffffffffffffffffffffffff1673ffffffffffffffffffffffffffffffffffffffff168152602001908152602001600020600082825401925050819055505b8173ffffffffffffffffffffffffffffffffffffffff168373ffffffffffffffffffffffffffffffffffffffff167fddf252ad1be2c89b69c2b068fc378daa952ba7f163c4a11628f55a4df523b3ef83604051612c239190612cd2565b60405180910390a3505050565b600080fd5b600080fd5b6000819050919050565b612c4d81612c3a565b8114612c5857600080fd5b50565b600081359050612c6a81612c44565b92915050565b600080600060608486031215612c8957612c88612c30565b5b6000612c9786828701612c5b565b9350506020612ca886828701612c5b565b9250506040612cb986828701612c5b565b9150509250925092565b612ccc81612c3a565b82525050565b6000602082019050612ce76000830184612cc3565b92915050565b600081519050919050565b600082825260208201905092915050565b60005b83811015612d27578082015181840152602081019050612d0c565b60008484015250505050565b6000601f19601f8301169050919050565b6000612d4f82612ced565b612d598185612cf8565b9350612d69818560208601612d09565b612d7281612d33565b840191505092915050565b60006020820190508181036000830152612d978184612d44565b905092915050565b600073ffffffffffffffffffffffffffffffffffffffff82169050919050565b6000612dca82612d9f565b9050919050565b612dda81612dbf565b8114612de557600080fd5b50565b600081359050612df781612dd1565b92915050565b60008060408385031215612e1457612e13612c30565b5b6000612e2285828601612de8565b9250506020612e3385828601612c5b565b9150509250929050565b60008115159050919050565b612e5281612e3d565b82525050565b6000602082019050612e6d6000830184612e49565b92915050565b6000819050919050565b6000612e98612e93612e8e84612d9f565b612e73565b612d9f565b9050919050565b6000612eaa82612e7d565b9050919050565b6000612ebc82612e9f565b9050919050565b612ecc81612eb1565b82525050565b6000602082019050612ee76000830184612ec3565b92915050565b600080600060608486031215612f0657612f05612c30565b5b6000612f1486828701612de8565b9350506020612f2586828701612de8565b9250506040612f3686828701612c5b565b9150509250925092565b600060ff82169050919050565b612f5681612f40565b82525050565b6000602082019050612f716000830184612f4d565b92915050565b600080fd5b600080fd5b600080fd5b60008083601f840112612f9c57612f9b612f77565b5b8235905067ffffffffffffffff811115612fb957612fb8612f7c565b5b602083019150836020820283011115612fd557612fd4612f81565b5b9250929050565b60008060008060008060a08789031215612ff957612ff8612c30565b5b600061300789828a01612c5b565b965050602061301889828a01612c5b565b955050604087013567ffffffffffffffff81111561303957613038612c35565b5b61304589828a01612f86565b9450945050606061305889828a01612de8565b925050608061306989828a01612c5b565b9150509295509295509295565b60006020828403121561308c5761308b612c30565b5b600061309a84828501612de8565b91505092915050565b600080604083850312156130ba576130b9612c30565b5b60006130c885828601612de8565b92505060206130d985828601612de8565b9150509250929050565b600080600080600080600060e0888a03121561310257613101612c30565b5b60006131108a828b01612de8565b97505060206131218a828b01612de8565b96505060406131328a828b01612c5b565b95505060606131438a828b01612c5b565b94505060806131548a828b01612c5b565b93505060a06131658a828b01612de8565b92505060c06131768a828b01612c5b565b91505092959891949750929550565b600060408201905061319a6000830185612cc3565b6131a76020830184612cc3565b9392505050565b600080600080600080600080610100898b0312156131cf576131ce612c30565b5b60006131dd8b828c01612de8565b98505060206131ee8b828c01612de8565b97505060406131ff8b828c01612c5b565b96505060606132108b828c01612c5b565b95505060806132218b828c01612c5b565b94505060a06132328b828c01612c5b565b93505060c06132438b828c01612de8565b92505060e06132548b828c01612c5b565b9150509295985092959890939650565b60006060820190506132796000830186612cc3565b6132866020830185612cc3565b6132936040830184612cc3565b949350505050565b7f5a65726f20696e70757400000000000000000000000000000000000000000000600082015250565b60006132d1600a83612cf8565b91506132dc8261329b565b602082019050919050565b60006020820190508181036000830152613300816132c4565b9050919050565b7f4e6f206c69717569646974790000000000000000000000000000000000000000600082015250565b600061333d600c83612cf8565b915061334882613307565b602082019050919050565b6000602082019050818103600083015261336c81613330565b9050919050565b7f4e487b7100000000000000000000000000000000000000000000000000000000600052601160045260246000fd5b60006133ad82612c3a565b91506133b883612c3a565b92508282019050808211156133d0576133cf613373565b5b92915050565b60006133e182612c3a565b91506133ec83612c3a565b92508282026133fa81612c3a565b9150828204841483151761341157613410613373565b5b5092915050565b7f4e487b7100000000000000000000000000000000000000000000000000000000600052601260045260246000fd5b600061345282612c3a565b915061345d83612c3a565b92508261346d5761346c613418565b5b828204905092915050565b7f4e487b7100000000000000000000000000000000000000000000000000000000600052602260045260246000fd5b600060028204905060018216806134bf57607f821691505b6020821081036134d2576134d1613478565b5b50919050565b7f4578706972656400000000000000000000000000000000000000000000000000600082015250565b600061350e600783612cf8565b9150613519826134d8565b602082019050919050565b6000602082019050818103600083015261353d81613501565b9050919050565b7f496e76616c696420706174680000000000000000000000000000000000000000600082015250565b600061357a600c83612cf8565b915061358582613544565b602082019050919050565b600060208201905081810360008301526135a98161356d565b9050919050565b7f4e487b7100000000000000000000000000000000000000000000000000000000600052603260045260246000fd5b6135e881612dbf565b82525050565b600060208201905061360360008301846135df565b92915050565b60008151905061361881612c44565b92915050565b60006020828403121561363457613633612c30565b5b600061364284828501613609565b91505092915050565b7f4f757470757420746f6f206c6f77000000000000000000000000000000000000600082015250565b6000613681600e83612cf8565b915061368c8261364b565b602082019050919050565b600060208201905081810360008301526136b081613674565b9050919050565b60006060820190506136cc60008301866135df565b6136d960208301856135df565b6136e66040830184612cc3565b949350505050565b6136f781612e3d565b811461370257600080fd5b50565b600081519050613714816136ee565b92915050565b6000602082840312156137305761372f612c30565b5b600061373e84828501613705565b91505092915050565b600060408201905061375c60008301856135df565b6137696020830184612cc3565b9392505050565b7f496e76616c696420746f6b656e73000000000000000000000000000000000000600082015250565b60006137a6600e83612cf8565b91506137b182613770565b602082019050919050565b600060208201905081810360008301526137d581613799565b9050919050565b7f41206e6f74206d696e0000000000000000000000000000000000000000000000600082015250565b6000613812600983612cf8565b915061381d826137dc565b602082019050919050565b6000602082019050818103600083015261384181613805565b9050919050565b7f42206e6f74206d696e0000000000000000000000000000000000000000000000600082015250565b600061387e600983612cf8565b915061388982613848565b602082019050919050565b600060208201905081810360008301526138ad81613871565b9050919050565b7f496e73756666696369656e742042000000000000000000000000000000000000600082015250565b60006138ea600e83612cf8565b91506138f5826138b4565b602082019050919050565b60006020820190508181036000830152613919816138dd565b9050919050565b7f496e73756666696369656e742041000000000000000000000000000000000000600082015250565b6000613956600e83612cf8565b915061396182613920565b602082019050919050565b6000602082019050818103600083015261398581613949565b9050919050565b60006060820190506139a160008301866135df565b6139ae6020830185612cc3565b6139bb6040830184612cc3565b94935050505056fea2646970667358221220d9e897251ddded5e4ee2b7efe0f5b19cedfe476a4c99ab6bc538dd591b3cbaae64736f6c634300081c0033","opcodes":"PUSH1 0xC0 PUSH1 0x40 MSTORE CALLVALUE DUP1 ISZERO PUSH2 0x10 JUMPI PUSH1 0x0 DUP1 REVERT JUMPDEST POP PUSH1 0x40 MLOAD PUSH2 0x413B CODESIZE SUB DUP1 PUSH2 0x413B DUP4 CODECOPY DUP2 DUP2 ADD PUSH1 0x40 MSTORE DUP2 ADD SWAP1 PUSH2 0x32 SWAP2 SWAP1 PUSH2 0x2B9 JUMP JUMPDEST PUSH1 0x40 MLOAD DUP1 PUSH1 0x40 ADD PUSH1 0x40 MSTORE DUP1 PUSH1 0x10 DUP2 MSTORE PUSH1 0x20 ADD PUSH32 0x53696D706C655377617020546F6B656E00000000000000000000000000000000 DUP2 MSTORE POP PUSH1 0x40 MLOAD DUP1 PUSH1 0x40 ADD PUSH1 0x40 MSTORE DUP1 PUSH1 0x3 DUP2 MSTORE PUSH1 0x20 ADD PUSH32 0x5353540000000000000000000000000000000000000000000000000000000000 DUP2 MSTORE POP DUP2 PUSH1 0x3 SWAP1 DUP2 PUSH2 0xAD SWAP2 SWAP1 PUSH2 0x549 JUMP JUMPDEST POP DUP1 PUSH1 0x4 SWAP1 DUP2 PUSH2 0xBD SWAP2 SWAP1 PUSH2 0x549 JUMP JUMPDEST POP POP POP PUSH2 0xDA PUSH8 0xDE4C0339EA0BFA94 PUSH1 0xC0 SHL PUSH2 0x253 PUSH1 0x20 SHL PUSH1 0x20 SHR JUMP JUMPDEST PUSH2 0xF4 PUSH8 0x481AF8B80D9D471 PUSH1 0xC0 SHL PUSH2 0x253 PUSH1 0x20 SHL PUSH1 0x20 SHR JUMP JUMPDEST PUSH2 0x10E PUSH8 0x68C7EFD07797B420 PUSH1 0xC0 SHL PUSH2 0x253 PUSH1 0x20 SHL PUSH1 0x20 SHR JUMP JUMPDEST PUSH2 0x128 PUSH8 0xB771CD85DC7BE623 PUSH1 0xC0 SHL PUSH2 0x253 PUSH1 0x20 SHL PUSH1 0x20 SHR JUMP JUMPDEST DUP1 PUSH20 0xFFFFFFFFFFFFFFFFFFFFFFFFFFFFFFFFFFFFFFFF AND DUP3 PUSH20 0xFFFFFFFFFFFFFFFFFFFFFFFFFFFFFFFFFFFFFFFF AND SUB PUSH2 0x196 JUMPI PUSH1 0x40 MLOAD PUSH32 0x8C379A000000000000000000000000000000000000000000000000000000000 DUP2 MSTORE PUSH1 0x4 ADD PUSH2 0x18D SWAP1 PUSH2 0x678 JUMP JUMPDEST PUSH1 0x40 MLOAD DUP1 SWAP2 SUB SWAP1 REVERT JUMPDEST PUSH2 0x1B0 PUSH8 0xD63C60E25EAA95BD PUSH1 0xC0 SHL PUSH2 0x253 PUSH1 0x20 SHL PUSH1 0x20 SHR JUMP JUMPDEST PUSH2 0x1CA PUSH8 0x717561F875C5A71E PUSH1 0xC0 SHL PUSH2 0x253 PUSH1 0x20 SHL PUSH1 0x20 SHR JUMP JUMPDEST DUP2 PUSH20 0xFFFFFFFFFFFFFFFFFFFFFFFFFFFFFFFFFFFFFFFF AND PUSH1 0x80 DUP2 PUSH20 0xFFFFFFFFFFFFFFFFFFFFFFFFFFFFFFFFFFFFFFFF AND DUP2 MSTORE POP POP PUSH2 0x218 PUSH8 0xB714776118F2E378 PUSH1 0xC0 SHL PUSH2 0x253 PUSH1 0x20 SHL PUSH1 0x20 SHR JUMP JUMPDEST DUP1 PUSH20 0xFFFFFFFFFFFFFFFFFFFFFFFFFFFFFFFFFFFFFFFF AND PUSH1 0xA0 DUP2 PUSH20 0xFFFFFFFFFFFFFFFFFFFFFFFFFFFFFFFFFFFFFFFF AND DUP2 MSTORE POP POP POP POP PUSH2 0x698 JUMP JUMPDEST POP JUMP JUMPDEST PUSH1 0x0 DUP1 REVERT JUMPDEST PUSH1 0x0 PUSH20 0xFFFFFFFFFFFFFFFFFFFFFFFFFFFFFFFFFFFFFFFF DUP3 AND SWAP1 POP SWAP2 SWAP1 POP JUMP JUMPDEST PUSH1 0x0 PUSH2 0x286 DUP3 PUSH2 0x25B JUMP JUMPDEST SWAP1 POP SWAP2 SWAP1 POP JUMP JUMPDEST PUSH2 0x296 DUP2 PUSH2 0x27B JUMP JUMPDEST DUP2 EQ PUSH2 0x2A1 JUMPI PUSH1 0x0 DUP1 REVERT JUMPDEST POP JUMP JUMPDEST PUSH1 0x0 DUP2 MLOAD SWAP1 POP PUSH2 0x2B3 DUP2 PUSH2 0x28D JUMP JUMPDEST SWAP3 SWAP2 POP POP JUMP JUMPDEST PUSH1 0x0 DUP1 PUSH1 0x40 DUP4 DUP6 SUB SLT ISZERO PUSH2 0x2D0 JUMPI PUSH2 0x2CF PUSH2 0x256 JUMP JUMPDEST JUMPDEST PUSH1 0x0 PUSH2 0x2DE DUP6 DUP3 DUP7 ADD PUSH2 0x2A4 JUMP JUMPDEST SWAP3 POP POP PUSH1 0x20 PUSH2 0x2EF DUP6 DUP3 DUP7 ADD PUSH2 0x2A4 JUMP JUMPDEST SWAP2 POP POP SWAP3 POP SWAP3 SWAP1 POP JUMP JUMPDEST PUSH1 0x0 DUP2 MLOAD SWAP1 POP SWAP2 SWAP1 POP JUMP JUMPDEST PUSH32 0x4E487B7100000000000000000000000000000000000000000000000000000000 PUSH1 0x0 MSTORE PUSH1 0x41 PUSH1 0x4 MSTORE PUSH1 0x24 PUSH1 0x0 REVERT JUMPDEST PUSH32 0x4E487B7100000000000000000000000000000000000000000000000000000000 PUSH1 0x0 MSTORE PUSH1 0x22 PUSH1 0x4 MSTORE PUSH1 0x24 PUSH1 0x0 REVERT JUMPDEST PUSH1 0x0 PUSH1 0x2 DUP3 DIV SWAP1 POP PUSH1 0x1 DUP3 AND DUP1 PUSH2 0x37A JUMPI PUSH1 0x7F DUP3 AND SWAP2 POP JUMPDEST PUSH1 0x20 DUP3 LT DUP2 SUB PUSH2 0x38D JUMPI PUSH2 0x38C PUSH2 0x333 JUMP JUMPDEST JUMPDEST POP SWAP2 SWAP1 POP JUMP JUMPDEST PUSH1 0x0 DUP2 SWAP1 POP DUP2 PUSH1 0x0 MSTORE PUSH1 0x20 PUSH1 0x0 KECCAK256 SWAP1 POP SWAP2 SWAP1 POP JUMP JUMPDEST PUSH1 0x0 PUSH1 0x20 PUSH1 0x1F DUP4 ADD DIV SWAP1 POP SWAP2 SWAP1 POP JUMP JUMPDEST PUSH1 0x0 DUP3 DUP3 SHL SWAP1 POP SWAP3 SWAP2 POP POP JUMP JUMPDEST PUSH1 0x0 PUSH1 0x8 DUP4 MUL PUSH2 0x3F5 PUSH32 0xFFFFFFFFFFFFFFFFFFFFFFFFFFFFFFFFFFFFFFFFFFFFFFFFFFFFFFFFFFFFFFFF DUP3 PUSH2 0x3B8 JUMP JUMPDEST PUSH2 0x3FF DUP7 DUP4 PUSH2 0x3B8 JUMP JUMPDEST SWAP6 POP DUP1 NOT DUP5 AND SWAP4 POP DUP1 DUP7 AND DUP5 OR SWAP3 POP POP POP SWAP4 SWAP3 POP POP POP JUMP JUMPDEST PUSH1 0x0 DUP2 SWAP1 POP SWAP2 SWAP1 POP JUMP JUMPDEST PUSH1 0x0 DUP2 SWAP1 POP SWAP2 SWAP1 POP JUMP JUMPDEST PUSH1 0x0 PUSH2 0x446 PUSH2 0x441 PUSH2 0x43C DUP5 PUSH2 0x417 JUMP JUMPDEST PUSH2 0x421 JUMP JUMPDEST PUSH2 0x417 JUMP JUMPDEST SWAP1 POP SWAP2 SWAP1 POP JUMP JUMPDEST PUSH1 0x0 DUP2 SWAP1 POP SWAP2 SWAP1 POP JUMP JUMPDEST PUSH2 0x460 DUP4 PUSH2 0x42B JUMP JUMPDEST PUSH2 0x474 PUSH2 0x46C DUP3 PUSH2 0x44D JUMP JUMPDEST DUP5 DUP5 SLOAD PUSH2 0x3C5 JUMP JUMPDEST DUP3 SSTORE POP POP POP POP JUMP JUMPDEST PUSH1 0x0 SWAP1 JUMP JUMPDEST PUSH2 0x489 PUSH2 0x47C JUMP JUMPDEST PUSH2 0x494 DUP2 DUP5 DUP5 PUSH2 0x457 JUMP JUMPDEST POP POP POP JUMP JUMPDEST JUMPDEST DUP2 DUP2 LT ISZERO PUSH2 0x4B8 JUMPI PUSH2 0x4AD PUSH1 0x0 DUP3 PUSH2 0x481 JUMP JUMPDEST PUSH1 0x1 DUP2 ADD SWAP1 POP PUSH2 0x49A JUMP JUMPDEST POP POP JUMP JUMPDEST PUSH1 0x1F DUP3 GT ISZERO PUSH2 0x4FD JUMPI PUSH2 0x4CE DUP2 PUSH2 0x393 JUMP JUMPDEST PUSH2 0x4D7 DUP5 PUSH2 0x3A8 JUMP JUMPDEST DUP2 ADD PUSH1 0x20 DUP6 LT ISZERO PUSH2 0x4E6 JUMPI DUP2 SWAP1 POP JUMPDEST PUSH2 0x4FA PUSH2 0x4F2 DUP6 PUSH2 0x3A8 JUMP JUMPDEST DUP4 ADD DUP3 PUSH2 0x499 JUMP JUMPDEST POP POP JUMPDEST POP POP POP JUMP JUMPDEST PUSH1 0x0 DUP3 DUP3 SHR SWAP1 POP SWAP3 SWAP2 POP POP JUMP JUMPDEST PUSH1 0x0 PUSH2 0x520 PUSH1 0x0 NOT DUP5 PUSH1 0x8 MUL PUSH2 0x502 JUMP JUMPDEST NOT DUP1 DUP4 AND SWAP2 POP POP SWAP3 SWAP2 POP POP JUMP JUMPDEST PUSH1 0x0 PUSH2 0x539 DUP4 DUP4 PUSH2 0x50F JUMP JUMPDEST SWAP2 POP DUP3 PUSH1 0x2 MUL DUP3 OR SWAP1 POP SWAP3 SWAP2 POP POP JUMP JUMPDEST PUSH2 0x552 DUP3 PUSH2 0x2F9 JUMP JUMPDEST PUSH8 0xFFFFFFFFFFFFFFFF DUP2 GT ISZERO PUSH2 0x56B JUMPI PUSH2 0x56A PUSH2 0x304 JUMP JUMPDEST JUMPDEST PUSH2 0x575 DUP3 SLOAD PUSH2 0x362 JUMP JUMPDEST PUSH2 0x580 DUP3 DUP3 DUP6 PUSH2 0x4BC JUMP JUMPDEST PUSH1 0x0 PUSH1 0x20 SWAP1 POP PUSH1 0x1F DUP4 GT PUSH1 0x1 DUP2 EQ PUSH2 0x5B3 JUMPI PUSH1 0x0 DUP5 ISZERO PUSH2 0x5A1 JUMPI DUP3 DUP8 ADD MLOAD SWAP1 POP JUMPDEST PUSH2 0x5AB DUP6 DUP3 PUSH2 0x52D JUMP JUMPDEST DUP7 SSTORE POP PUSH2 0x613 JUMP JUMPDEST PUSH1 0x1F NOT DUP5 AND PUSH2 0x5C1 DUP7 PUSH2 0x393 JUMP JUMPDEST PUSH1 0x0 JUMPDEST DUP3 DUP2 LT ISZERO PUSH2 0x5E9 JUMPI DUP5 DUP10 ADD MLOAD DUP3 SSTORE PUSH1 0x1 DUP3 ADD SWAP2 POP PUSH1 0x20 DUP6 ADD SWAP5 POP PUSH1 0x20 DUP2 ADD SWAP1 POP PUSH2 0x5C4 JUMP JUMPDEST DUP7 DUP4 LT ISZERO PUSH2 0x606 JUMPI DUP5 DUP10 ADD MLOAD PUSH2 0x602 PUSH1 0x1F DUP10 AND DUP3 PUSH2 0x50F JUMP JUMPDEST DUP4 SSTORE POP JUMPDEST PUSH1 0x1 PUSH1 0x2 DUP9 MUL ADD DUP9 SSTORE POP POP POP JUMPDEST POP POP POP POP POP POP JUMP JUMPDEST PUSH1 0x0 DUP3 DUP3 MSTORE PUSH1 0x20 DUP3 ADD SWAP1 POP SWAP3 SWAP2 POP POP JUMP JUMPDEST PUSH32 0x4964656E746963616C20746F6B656E7300000000000000000000000000000000 PUSH1 0x0 DUP3 ADD MSTORE POP JUMP JUMPDEST PUSH1 0x0 PUSH2 0x662 PUSH1 0x10 DUP4 PUSH2 0x61B JUMP JUMPDEST SWAP2 POP PUSH2 0x66D DUP3 PUSH2 0x62C JUMP JUMPDEST PUSH1 0x20 DUP3 ADD SWAP1 POP SWAP2 SWAP1 POP JUMP JUMPDEST PUSH1 0x0 PUSH1 0x20 DUP3 ADD SWAP1 POP DUP2 DUP2 SUB PUSH1 0x0 DUP4 ADD MSTORE PUSH2 0x691 DUP2 PUSH2 0x655 JUMP JUMPDEST SWAP1 POP SWAP2 SWAP1 POP JUMP JUMPDEST PUSH1 0x80 MLOAD PUSH1 0xA0 MLOAD PUSH2 0x39F9 PUSH2 0x742 PUSH1 0x0 CODECOPY PUSH1 0x0 DUP2 DUP2 PUSH2 0xB86 ADD MSTORE DUP2 DUP2 PUSH2 0xD4F ADD MSTORE DUP2 DUP2 PUSH2 0xDC1 ADD MSTORE DUP2 DUP2 PUSH2 0xFC6 ADD MSTORE DUP2 DUP2 PUSH2 0x12C5 ADD MSTORE DUP2 DUP2 PUSH2 0x151F ADD MSTORE DUP2 DUP2 PUSH2 0x185C ADD MSTORE DUP2 DUP2 PUSH2 0x1A3C ADD MSTORE DUP2 DUP2 PUSH2 0x1CDB ADD MSTORE PUSH2 0x2269 ADD MSTORE PUSH1 0x0 DUP2 DUP2 PUSH2 0x5C6 ADD MSTORE DUP2 DUP2 PUSH2 0xCF9 ADD MSTORE DUP2 DUP2 PUSH2 0xE17 ADD MSTORE DUP2 DUP2 PUSH2 0xF01 ADD MSTORE DUP2 DUP2 PUSH2 0x1129 ADD MSTORE DUP2 DUP2 PUSH2 0x126F ADD MSTORE DUP2 DUP2 PUSH2 0x1459 ADD MSTORE DUP2 DUP2 PUSH2 0x1795 ADD MSTORE DUP2 DUP2 PUSH2 0x19E6 ADD MSTORE DUP2 DUP2 PUSH2 0x1C15 ADD MSTORE PUSH2 0x21A0 ADD MSTORE PUSH2 0x39F9 PUSH1 0x0 RETURN INVALID PUSH1 0x80 PUSH1 0x40 MSTORE CALLVALUE DUP1 ISZERO PUSH2 0x10 JUMPI PUSH1 0x0 DUP1 REVERT JUMPDEST POP PUSH1 0x4 CALLDATASIZE LT PUSH2 0x100 JUMPI PUSH1 0x0 CALLDATALOAD PUSH1 0xE0 SHR DUP1 PUSH4 0x5F64B55B GT PUSH2 0x97 JUMPI DUP1 PUSH4 0xAC41865A GT PUSH2 0x66 JUMPI DUP1 PUSH4 0xAC41865A EQ PUSH2 0x2C5 JUMPI DUP1 PUSH4 0xBAA2ABDE EQ PUSH2 0x2F5 JUMPI DUP1 PUSH4 0xDD62ED3E EQ PUSH2 0x326 JUMPI DUP1 PUSH4 0xE8E33700 EQ PUSH2 0x356 JUMPI PUSH2 0x100 JUMP JUMPDEST DUP1 PUSH4 0x5F64B55B EQ PUSH2 0x229 JUMPI DUP1 PUSH4 0x70A08231 EQ PUSH2 0x247 JUMPI DUP1 PUSH4 0x95D89B41 EQ PUSH2 0x277 JUMPI DUP1 PUSH4 0xA9059CBB EQ PUSH2 0x295 JUMPI PUSH2 0x100 JUMP JUMPDEST DUP1 PUSH4 0x18160DDD GT PUSH2 0xD3 JUMPI DUP1 PUSH4 0x18160DDD EQ PUSH2 0x1A1 JUMPI DUP1 PUSH4 0x23B872DD EQ PUSH2 0x1BF JUMPI DUP1 PUSH4 0x313CE567 EQ PUSH2 0x1EF JUMPI DUP1 PUSH4 0x38ED1739 EQ PUSH2 0x20D JUMPI PUSH2 0x100 JUMP JUMPDEST DUP1 PUSH4 0x54D50D4 EQ PUSH2 0x105 JUMPI DUP1 PUSH4 0x6FDDE03 EQ PUSH2 0x135 JUMPI DUP1 PUSH4 0x95EA7B3 EQ PUSH2 0x153 JUMPI DUP1 PUSH4 0xFC63D10 EQ PUSH2 0x183 JUMPI JUMPDEST PUSH1 0x0 DUP1 REVERT JUMPDEST PUSH2 0x11F PUSH1 0x4 DUP1 CALLDATASIZE SUB DUP2 ADD SWAP1 PUSH2 0x11A SWAP2 SWAP1 PUSH2 0x2C70 JUMP JUMPDEST PUSH2 0x388 JUMP JUMPDEST PUSH1 0x40 MLOAD PUSH2 0x12C SWAP2 SWAP1 PUSH2 0x2CD2 JUMP JUMPDEST PUSH1 0x40 MLOAD DUP1 SWAP2 SUB SWAP1 RETURN JUMPDEST PUSH2 0x13D PUSH2 0x50F JUMP JUMPDEST PUSH1 0x40 MLOAD PUSH2 0x14A SWAP2 SWAP1 PUSH2 0x2D7D JUMP JUMPDEST PUSH1 0x40 MLOAD DUP1 SWAP2 SUB SWAP1 RETURN JUMPDEST PUSH2 0x16D PUSH1 0x4 DUP1 CALLDATASIZE SUB DUP2 ADD SWAP1 PUSH2 0x168 SWAP2 SWAP1 PUSH2 0x2DFD JUMP JUMPDEST PUSH2 0x5A1 JUMP JUMPDEST PUSH1 0x40 MLOAD PUSH2 0x17A SWAP2 SWAP1 PUSH2 0x2E58 JUMP JUMPDEST PUSH1 0x40 MLOAD DUP1 SWAP2 SUB SWAP1 RETURN JUMPDEST PUSH2 0x18B PUSH2 0x5C4 JUMP JUMPDEST PUSH1 0x40 MLOAD PUSH2 0x198 SWAP2 SWAP1 PUSH2 0x2ED2 JUMP JUMPDEST PUSH1 0x40 MLOAD DUP1 SWAP2 SUB SWAP1 RETURN JUMPDEST PUSH2 0x1A9 PUSH2 0x5E8 JUMP JUMPDEST PUSH1 0x40 MLOAD PUSH2 0x1B6 SWAP2 SWAP1 PUSH2 0x2CD2 JUMP JUMPDEST PUSH1 0x40 MLOAD DUP1 SWAP2 SUB SWAP1 RETURN JUMPDEST PUSH2 0x1D9 PUSH1 0x4 DUP1 CALLDATASIZE SUB DUP2 ADD SWAP1 PUSH2 0x1D4 SWAP2 SWAP1 PUSH2 0x2EED JUMP JUMPDEST PUSH2 0x5F2 JUMP JUMPDEST PUSH1 0x40 MLOAD PUSH2 0x1E6 SWAP2 SWAP1 PUSH2 0x2E58 JUMP JUMPDEST PUSH1 0x40 MLOAD DUP1 SWAP2 SUB SWAP1 RETURN JUMPDEST PUSH2 0x1F7 PUSH2 0x621 JUMP JUMPDEST PUSH1 0x40 MLOAD PUSH2 0x204 SWAP2 SWAP1 PUSH2 0x2F5C JUMP JUMPDEST PUSH1 0x40 MLOAD DUP1 SWAP2 SUB SWAP1 RETURN JUMPDEST PUSH2 0x227 PUSH1 0x4 DUP1 CALLDATASIZE SUB DUP2 ADD SWAP1 PUSH2 0x222 SWAP2 SWAP1 PUSH2 0x2FDC JUMP JUMPDEST PUSH2 0x62A JUMP JUMPDEST STOP JUMPDEST PUSH2 0x231 PUSH2 0xB84 JUMP JUMPDEST PUSH1 0x40 MLOAD PUSH2 0x23E SWAP2 SWAP1 PUSH2 0x2ED2 JUMP JUMPDEST PUSH1 0x40 MLOAD DUP1 SWAP2 SUB SWAP1 RETURN JUMPDEST PUSH2 0x261 PUSH1 0x4 DUP1 CALLDATASIZE SUB DUP2 ADD SWAP1 PUSH2 0x25C SWAP2 SWAP1 PUSH2 0x3076 JUMP JUMPDEST PUSH2 0xBA8 JUMP JUMPDEST PUSH1 0x40 MLOAD PUSH2 0x26E SWAP2 SWAP1 PUSH2 0x2CD2 JUMP JUMPDEST PUSH1 0x40 MLOAD DUP1 SWAP2 SUB SWAP1 RETURN JUMPDEST PUSH2 0x27F PUSH2 0xBF0 JUMP JUMPDEST PUSH1 0x40 MLOAD PUSH2 0x28C SWAP2 SWAP1 PUSH2 0x2D7D JUMP JUMPDEST PUSH1 0x40 MLOAD DUP1 SWAP2 SUB SWAP1 RETURN JUMPDEST PUSH2 0x2AF PUSH1 0x4 DUP1 CALLDATASIZE SUB DUP2 ADD SWAP1 PUSH2 0x2AA SWAP2 SWAP1 PUSH2 0x2DFD JUMP JUMPDEST PUSH2 0xC82 JUMP JUMPDEST PUSH1 0x40 MLOAD PUSH2 0x2BC SWAP2 SWAP1 PUSH2 0x2E58 JUMP JUMPDEST PUSH1 0x40 MLOAD DUP1 SWAP2 SUB SWAP1 RETURN JUMPDEST PUSH2 0x2DF PUSH1 0x4 DUP1 CALLDATASIZE SUB DUP2 ADD SWAP1 PUSH2 0x2DA SWAP2 SWAP1 PUSH2 0x30A3 JUMP JUMPDEST PUSH2 0xCA5 JUMP JUMPDEST PUSH1 0x40 MLOAD PUSH2 0x2EC SWAP2 SWAP1 PUSH2 0x2CD2 JUMP JUMPDEST PUSH1 0x40 MLOAD DUP1 SWAP2 SUB SWAP1 RETURN JUMPDEST PUSH2 0x30F PUSH1 0x4 DUP1 CALLDATASIZE SUB DUP2 ADD SWAP1 PUSH2 0x30A SWAP2 SWAP1 PUSH2 0x30E3 JUMP JUMPDEST PUSH2 0x121A JUMP JUMPDEST PUSH1 0x40 MLOAD PUSH2 0x31D SWAP3 SWAP2 SWAP1 PUSH2 0x3185 JUMP JUMPDEST PUSH1 0x40 MLOAD DUP1 SWAP2 SUB SWAP1 RETURN JUMPDEST PUSH2 0x340 PUSH1 0x4 DUP1 CALLDATASIZE SUB DUP2 ADD SWAP1 PUSH2 0x33B SWAP2 SWAP1 PUSH2 0x30A3 JUMP JUMPDEST PUSH2 0x1908 JUMP JUMPDEST PUSH1 0x40 MLOAD PUSH2 0x34D SWAP2 SWAP1 PUSH2 0x2CD2 JUMP JUMPDEST PUSH1 0x40 MLOAD DUP1 SWAP2 SUB SWAP1 RETURN JUMPDEST PUSH2 0x370 PUSH1 0x4 DUP1 CALLDATASIZE SUB DUP2 ADD SWAP1 PUSH2 0x36B SWAP2 SWAP1 PUSH2 0x31AE JUMP JUMPDEST PUSH2 0x198F JUMP JUMPDEST PUSH1 0x40 MLOAD PUSH2 0x37F SWAP4 SWAP3 SWAP2 SWAP1 PUSH2 0x3264 JUMP JUMPDEST PUSH1 0x40 MLOAD DUP1 SWAP2 SUB SWAP1 RETURN JUMPDEST PUSH1 0x0 PUSH2 0x39E PUSH8 0xAC6953C50E6E930F PUSH1 0xC0 SHL PUSH2 0x23B9 JUMP JUMPDEST PUSH2 0x3B2 PUSH8 0xCDCF1C0ABC6F2E94 PUSH1 0xC0 SHL PUSH2 0x23B9 JUMP JUMPDEST PUSH2 0x3C6 PUSH8 0x5885F3238578314B PUSH1 0xC0 SHL PUSH2 0x23B9 JUMP JUMPDEST PUSH2 0x3DA PUSH8 0x8EEDB3E73B7DE9E2 PUSH1 0xC0 SHL PUSH2 0x23B9 JUMP JUMPDEST PUSH1 0x0 DUP5 GT PUSH2 0x41D JUMPI PUSH1 0x40 MLOAD PUSH32 0x8C379A000000000000000000000000000000000000000000000000000000000 DUP2 MSTORE PUSH1 0x4 ADD PUSH2 0x414 SWAP1 PUSH2 0x32E7 JUMP JUMPDEST PUSH1 0x40 MLOAD DUP1 SWAP2 SUB SWAP1 REVERT JUMPDEST PUSH2 0x431 PUSH8 0xA0983FA99DB5D7C7 PUSH1 0xC0 SHL PUSH2 0x23B9 JUMP JUMPDEST PUSH2 0x445 PUSH8 0xA9C3811060FB3E6E PUSH1 0xC0 SHL PUSH2 0x23B9 JUMP JUMPDEST PUSH2 0x459 PUSH8 0x1D49C8FFFB1D0297 PUSH1 0xC0 SHL PUSH2 0x23B9 JUMP JUMPDEST PUSH2 0x46D PUSH8 0x379F1EB63CED9A75 PUSH1 0xC0 SHL PUSH2 0x23B9 JUMP JUMPDEST PUSH1 0x0 DUP4 GT DUP1 ISZERO PUSH2 0x47D JUMPI POP PUSH1 0x0 DUP3 GT JUMPDEST PUSH2 0x4BC JUMPI PUSH1 0x40 MLOAD PUSH32 0x8C379A000000000000000000000000000000000000000000000000000000000 DUP2 MSTORE PUSH1 0x4 ADD PUSH2 0x4B3 SWAP1 PUSH2 0x3353 JUMP JUMPDEST PUSH1 0x40 MLOAD DUP1 SWAP2 SUB SWAP1 REVERT JUMPDEST PUSH2 0x4D0 PUSH8 0x9AF7344964FD4C3 PUSH1 0xC0 SHL PUSH2 0x23B9 JUMP JUMPDEST PUSH2 0x4E4 PUSH8 0xE087C80E2195A402 PUSH1 0xC0 SHL PUSH2 0x23B9 JUMP JUMPDEST DUP3 DUP5 PUSH2 0x4F0 SWAP2 SWAP1 PUSH2 0x33A2 JUMP JUMPDEST DUP3 DUP6 PUSH2 0x4FC SWAP2 SWAP1 PUSH2 0x33D6 JUMP JUMPDEST PUSH2 0x506 SWAP2 SWAP1 PUSH2 0x3447 JUMP JUMPDEST SWAP1 POP SWAP4 SWAP3 POP POP POP JUMP JUMPDEST PUSH1 0x60 PUSH1 0x3 DUP1 SLOAD PUSH2 0x51E SWAP1 PUSH2 0x34A7 JUMP JUMPDEST DUP1 PUSH1 0x1F ADD PUSH1 0x20 DUP1 SWAP2 DIV MUL PUSH1 0x20 ADD PUSH1 0x40 MLOAD SWAP1 DUP2 ADD PUSH1 0x40 MSTORE DUP1 SWAP3 SWAP2 SWAP1 DUP2 DUP2 MSTORE PUSH1 0x20 ADD DUP3 DUP1 SLOAD PUSH2 0x54A SWAP1 PUSH2 0x34A7 JUMP JUMPDEST DUP1 ISZERO PUSH2 0x597 JUMPI DUP1 PUSH1 0x1F LT PUSH2 0x56C JUMPI PUSH2 0x100 DUP1 DUP4 SLOAD DIV MUL DUP4 MSTORE SWAP2 PUSH1 0x20 ADD SWAP2 PUSH2 0x597 JUMP JUMPDEST DUP3 ADD SWAP2 SWAP1 PUSH1 0x0 MSTORE PUSH1 0x20 PUSH1 0x0 KECCAK256 SWAP1 JUMPDEST DUP2 SLOAD DUP2 MSTORE SWAP1 PUSH1 0x1 ADD SWAP1 PUSH1 0x20 ADD DUP1 DUP4 GT PUSH2 0x57A JUMPI DUP3 SWAP1 SUB PUSH1 0x1F AND DUP3 ADD SWAP2 JUMPDEST POP POP POP POP POP SWAP1 POP SWAP1 JUMP JUMPDEST PUSH1 0x0 DUP1 PUSH2 0x5AC PUSH2 0x23BC JUMP JUMPDEST SWAP1 POP PUSH2 0x5B9 DUP2 DUP6 DUP6 PUSH2 0x23C4 JUMP JUMPDEST PUSH1 0x1 SWAP2 POP POP SWAP3 SWAP2 POP POP JUMP JUMPDEST PUSH32 0x0 DUP2 JUMP JUMPDEST PUSH1 0x0 PUSH1 0x2 SLOAD SWAP1 POP SWAP1 JUMP JUMPDEST PUSH1 0x0 DUP1 PUSH2 0x5FD PUSH2 0x23BC JUMP JUMPDEST SWAP1 POP PUSH2 0x60A DUP6 DUP3 DUP6 PUSH2 0x23D6 JUMP JUMPDEST PUSH2 0x615 DUP6 DUP6 DUP6 PUSH2 0x246B JUMP JUMPDEST PUSH1 0x1 SWAP2 POP POP SWAP4 SWAP3 POP POP POP JUMP JUMPDEST PUSH1 0x0 PUSH1 0x12 SWAP1 POP SWAP1 JUMP JUMPDEST PUSH2 0x63E PUSH8 0x6E3024E59E4F15A3 PUSH1 0xC0 SHL PUSH2 0x23B9 JUMP JUMPDEST PUSH2 0x652 PUSH8 0x405E358A5865D0E6 PUSH1 0xC0 SHL PUSH2 0x23B9 JUMP JUMPDEST PUSH2 0x666 PUSH8 0xD05FCCC057902F93 PUSH1 0xC0 SHL PUSH2 0x23B9 JUMP JUMPDEST PUSH2 0x67A PUSH8 0x9CDCF7476CB396D7 PUSH1 0xC0 SHL PUSH2 0x23B9 JUMP JUMPDEST DUP1 TIMESTAMP GT ISZERO PUSH2 0x6BD JUMPI PUSH1 0x40 MLOAD PUSH32 0x8C379A000000000000000000000000000000000000000000000000000000000 DUP2 MSTORE PUSH1 0x4 ADD PUSH2 0x6B4 SWAP1 PUSH2 0x3524 JUMP JUMPDEST PUSH1 0x40 MLOAD DUP1 SWAP2 SUB SWAP1 REVERT JUMPDEST PUSH2 0x6D1 PUSH8 0x3533E7F29EBE7F84 PUSH1 0xC0 SHL PUSH2 0x23B9 JUMP JUMPDEST PUSH2 0x6E5 PUSH8 0x6325360FE0C4D0AC PUSH1 0xC0 SHL PUSH2 0x23B9 JUMP JUMPDEST PUSH2 0x6F9 PUSH8 0x7C51C209E99113BB PUSH1 0xC0 SHL PUSH2 0x23B9 JUMP JUMPDEST PUSH2 0x70D PUSH8 0xEFD7883D02733AB2 PUSH1 0xC0 SHL PUSH2 0x23B9 JUMP JUMPDEST PUSH1 0x2 DUP5 DUP5 SWAP1 POP EQ PUSH2 0x753 JUMPI PUSH1 0x40 MLOAD PUSH32 0x8C379A000000000000000000000000000000000000000000000000000000000 DUP2 MSTORE PUSH1 0x4 ADD PUSH2 0x74A SWAP1 PUSH2 0x3590 JUMP JUMPDEST PUSH1 0x40 MLOAD DUP1 SWAP2 SUB SWAP1 REVERT JUMPDEST PUSH2 0x767 PUSH8 0x78208AD466F78953 PUSH1 0xC0 SHL PUSH2 0x23B9 JUMP JUMPDEST PUSH2 0x77B PUSH8 0x6F33D433A5AD8EC7 PUSH1 0xC0 SHL PUSH2 0x23B9 JUMP JUMPDEST PUSH2 0x78F PUSH8 0xF55D09239ABC5A75 PUSH1 0xC0 SHL PUSH2 0x23B9 JUMP JUMPDEST PUSH1 0x0 DUP5 DUP5 PUSH1 0x0 DUP2 DUP2 LT PUSH2 0x7A5 JUMPI PUSH2 0x7A4 PUSH2 0x35B0 JUMP JUMPDEST JUMPDEST SWAP1 POP PUSH1 0x20 MUL ADD PUSH1 0x20 DUP2 ADD SWAP1 PUSH2 0x7BA SWAP2 SWAP1 PUSH2 0x3076 JUMP JUMPDEST SWAP1 POP PUSH2 0x7D0 PUSH8 0xB408D1D764F1831A PUSH1 0xC0 SHL PUSH2 0x23B9 JUMP JUMPDEST PUSH2 0x7E4 PUSH8 0x4F016C63C341F115 PUSH1 0xC0 SHL PUSH2 0x23B9 JUMP JUMPDEST PUSH1 0x0 DUP6 DUP6 PUSH1 0x1 DUP2 DUP2 LT PUSH2 0x7FA JUMPI PUSH2 0x7F9 PUSH2 0x35B0 JUMP JUMPDEST JUMPDEST SWAP1 POP PUSH1 0x20 MUL ADD PUSH1 0x20 DUP2 ADD SWAP1 PUSH2 0x80F SWAP2 SWAP1 PUSH2 0x3076 JUMP JUMPDEST SWAP1 POP PUSH2 0x825 PUSH8 0x96A0DD4F4A396D62 PUSH1 0xC0 SHL PUSH2 0x23B9 JUMP JUMPDEST PUSH2 0x839 PUSH8 0xF8B6BFCE52C0C876 PUSH1 0xC0 SHL PUSH2 0x23B9 JUMP JUMPDEST PUSH1 0x0 DUP3 PUSH20 0xFFFFFFFFFFFFFFFFFFFFFFFFFFFFFFFFFFFFFFFF AND PUSH4 0x70A08231 ADDRESS PUSH1 0x40 MLOAD DUP3 PUSH4 0xFFFFFFFF AND PUSH1 0xE0 SHL DUP2 MSTORE PUSH1 0x4 ADD PUSH2 0x874 SWAP2 SWAP1 PUSH2 0x35EE JUMP JUMPDEST PUSH1 0x20 PUSH1 0x40 MLOAD DUP1 DUP4 SUB DUP2 DUP7 GAS STATICCALL ISZERO DUP1 ISZERO PUSH2 0x891 JUMPI RETURNDATASIZE PUSH1 0x0 DUP1 RETURNDATACOPY RETURNDATASIZE PUSH1 0x0 REVERT JUMPDEST POP POP POP POP PUSH1 0x40 MLOAD RETURNDATASIZE PUSH1 0x1F NOT PUSH1 0x1F DUP3 ADD AND DUP3 ADD DUP1 PUSH1 0x40 MSTORE POP DUP2 ADD SWAP1 PUSH2 0x8B5 SWAP2 SWAP1 PUSH2 0x361E JUMP JUMPDEST SWAP1 POP PUSH2 0x8CB PUSH8 0x4CAFCC66273C446 PUSH1 0xC0 SHL PUSH2 0x23B9 JUMP JUMPDEST PUSH2 0x8DF PUSH8 0x68B70100173CA505 PUSH1 0xC0 SHL PUSH2 0x23B9 JUMP JUMPDEST PUSH1 0x0 DUP3 PUSH20 0xFFFFFFFFFFFFFFFFFFFFFFFFFFFFFFFFFFFFFFFF AND PUSH4 0x70A08231 ADDRESS PUSH1 0x40 MLOAD DUP3 PUSH4 0xFFFFFFFF AND PUSH1 0xE0 SHL DUP2 MSTORE PUSH1 0x4 ADD PUSH2 0x91A SWAP2 SWAP1 PUSH2 0x35EE JUMP JUMPDEST PUSH1 0x20 PUSH1 0x40 MLOAD DUP1 DUP4 SUB DUP2 DUP7 GAS STATICCALL ISZERO DUP1 ISZERO PUSH2 0x937 JUMPI RETURNDATASIZE PUSH1 0x0 DUP1 RETURNDATACOPY RETURNDATASIZE PUSH1 0x0 REVERT JUMPDEST POP POP POP POP PUSH1 0x40 MLOAD RETURNDATASIZE PUSH1 0x1F NOT PUSH1 0x1F DUP3 ADD AND DUP3 ADD DUP1 PUSH1 0x40 MSTORE POP DUP2 ADD SWAP1 PUSH2 0x95B SWAP2 SWAP1 PUSH2 0x361E JUMP JUMPDEST SWAP1 POP PUSH2 0x971 PUSH8 0x93BEC06A4C519D2A PUSH1 0xC0 SHL PUSH2 0x23B9 JUMP JUMPDEST PUSH2 0x985 PUSH8 0x858F2A888F88B266 PUSH1 0xC0 SHL PUSH2 0x23B9 JUMP JUMPDEST PUSH1 0x0 PUSH2 0x992 DUP12 DUP5 DUP5 PUSH2 0x388 JUMP JUMPDEST SWAP1 POP PUSH2 0x9A8 PUSH8 0x257A1793216BE562 PUSH1 0xC0 SHL PUSH2 0x23B9 JUMP JUMPDEST PUSH2 0x9BC PUSH8 0xF5D7239A6B8D443E PUSH1 0xC0 SHL PUSH2 0x23B9 JUMP JUMPDEST PUSH2 0x9D0 PUSH8 0xE16000140FFF2D14 PUSH1 0xC0 SHL PUSH2 0x23B9 JUMP JUMPDEST DUP10 DUP2 LT ISZERO PUSH2 0xA13 JUMPI PUSH1 0x40 MLOAD PUSH32 0x8C379A000000000000000000000000000000000000000000000000000000000 DUP2 MSTORE PUSH1 0x4 ADD PUSH2 0xA0A SWAP1 PUSH2 0x3697 JUMP JUMPDEST PUSH1 0x40 MLOAD DUP1 SWAP2 SUB SWAP1 REVERT JUMPDEST PUSH2 0xA27 PUSH8 0xC2AC821C1E8B2DE PUSH1 0xC0 SHL PUSH2 0x23B9 JUMP JUMPDEST PUSH2 0xA3B PUSH8 0x1D2F4B54F31AEF2E PUSH1 0xC0 SHL PUSH2 0x23B9 JUMP JUMPDEST PUSH2 0xA4F PUSH8 0x34FB8832CA2FA308 PUSH1 0xC0 SHL PUSH2 0x23B9 JUMP JUMPDEST DUP5 PUSH20 0xFFFFFFFFFFFFFFFFFFFFFFFFFFFFFFFFFFFFFFFF AND PUSH4 0x23B872DD CALLER ADDRESS DUP15 PUSH1 0x40 MLOAD DUP5 PUSH4 0xFFFFFFFF AND PUSH1 0xE0 SHL DUP2 MSTORE PUSH1 0x4 ADD PUSH2 0xA8C SWAP4 SWAP3 SWAP2 SWAP1 PUSH2 0x36B7 JUMP JUMPDEST PUSH1 0x20 PUSH1 0x40 MLOAD DUP1 DUP4 SUB DUP2 PUSH1 0x0 DUP8 GAS CALL ISZERO DUP1 ISZERO PUSH2 0xAAB JUMPI RETURNDATASIZE PUSH1 0x0 DUP1 RETURNDATACOPY RETURNDATASIZE PUSH1 0x0 REVERT JUMPDEST POP POP POP POP PUSH1 0x40 MLOAD RETURNDATASIZE PUSH1 0x1F NOT PUSH1 0x1F DUP3 ADD AND DUP3 ADD DUP1 PUSH1 0x40 MSTORE POP DUP2 ADD SWAP1 PUSH2 0xACF SWAP2 SWAP1 PUSH2 0x371A JUMP JUMPDEST POP PUSH2 0xAE4 PUSH8 0x41FF01824C44B64 PUSH1 0xC0 SHL PUSH2 0x23B9 JUMP JUMPDEST PUSH2 0xAF8 PUSH8 0x887FE9CAE6D5DB05 PUSH1 0xC0 SHL PUSH2 0x23B9 JUMP JUMPDEST DUP4 PUSH20 0xFFFFFFFFFFFFFFFFFFFFFFFFFFFFFFFFFFFFFFFF AND PUSH4 0xA9059CBB DUP9 DUP4 PUSH1 0x40 MLOAD DUP4 PUSH4 0xFFFFFFFF AND PUSH1 0xE0 SHL DUP2 MSTORE PUSH1 0x4 ADD PUSH2 0xB33 SWAP3 SWAP2 SWAP1 PUSH2 0x3747 JUMP JUMPDEST PUSH1 0x20 PUSH1 0x40 MLOAD DUP1 DUP4 SUB DUP2 PUSH1 0x0 DUP8 GAS CALL ISZERO DUP1 ISZERO PUSH2 0xB52 JUMPI RETURNDATASIZE PUSH1 0x0 DUP1 RETURNDATACOPY RETURNDATASIZE PUSH1 0x0 REVERT JUMPDEST POP POP POP POP PUSH1 0x40 MLOAD RETURNDATASIZE PUSH1 0x1F NOT PUSH1 0x1F DUP3 ADD AND DUP3 ADD DUP1 PUSH1 0x40 MSTORE POP DUP2 ADD SWAP1 PUSH2 0xB76 SWAP2 SWAP1 PUSH2 0x371A JUMP JUMPDEST POP POP POP POP POP POP POP POP POP POP POP POP JUMP JUMPDEST PUSH32 0x0 DUP2 JUMP JUMPDEST PUSH1 0x0 DUP1 PUSH1 0x0 DUP4 PUSH20 0xFFFFFFFFFFFFFFFFFFFFFFFFFFFFFFFFFFFFFFFF AND PUSH20 0xFFFFFFFFFFFFFFFFFFFFFFFFFFFFFFFFFFFFFFFF AND DUP2 MSTORE PUSH1 0x20 ADD SWAP1 DUP2 MSTORE PUSH1 0x20 ADD PUSH1 0x0 KECCAK256 SLOAD SWAP1 POP SWAP2 SWAP1 POP JUMP JUMPDEST PUSH1 0x60 PUSH1 0x4 DUP1 SLOAD PUSH2 0xBFF SWAP1 PUSH2 0x34A7 JUMP JUMPDEST DUP1 PUSH1 0x1F ADD PUSH1 0x20 DUP1 SWAP2 DIV MUL PUSH1 0x20 ADD PUSH1 0x40 MLOAD SWAP1 DUP2 ADD PUSH1 0x40 MSTORE DUP1 SWAP3 SWAP2 SWAP1 DUP2 DUP2 MSTORE PUSH1 0x20 ADD DUP3 DUP1 SLOAD PUSH2 0xC2B SWAP1 PUSH2 0x34A7 JUMP JUMPDEST DUP1 ISZERO PUSH2 0xC78 JUMPI DUP1 PUSH1 0x1F LT PUSH2 0xC4D JUMPI PUSH2 0x100 DUP1 DUP4 SLOAD DIV MUL DUP4 MSTORE SWAP2 PUSH1 0x20 ADD SWAP2 PUSH2 0xC78 JUMP JUMPDEST DUP3 ADD SWAP2 SWAP1 PUSH1 0x0 MSTORE PUSH1 0x20 PUSH1 0x0 KECCAK256 SWAP1 JUMPDEST DUP2 SLOAD DUP2 MSTORE SWAP1 PUSH1 0x1 ADD SWAP1 PUSH1 0x20 ADD DUP1 DUP4 GT PUSH2 0xC5B JUMPI DUP3 SWAP1 SUB PUSH1 0x1F AND DUP3 ADD SWAP2 JUMPDEST POP POP POP POP POP SWAP1 POP SWAP1 JUMP JUMPDEST PUSH1 0x0 DUP1 PUSH2 0xC8D PUSH2 0x23BC JUMP JUMPDEST SWAP1 POP PUSH2 0xC9A DUP2 DUP6 DUP6 PUSH2 0x246B JUMP JUMPDEST PUSH1 0x1 SWAP2 POP POP SWAP3 SWAP2 POP POP JUMP JUMPDEST PUSH1 0x0 PUSH2 0xCBB PUSH8 0xC1F6E6128F74D943 PUSH1 0xC0 SHL PUSH2 0x23B9 JUMP JUMPDEST PUSH2 0xCCF PUSH8 0x44A247D23C1AFEA2 PUSH1 0xC0 SHL PUSH2 0x23B9 JUMP JUMPDEST PUSH2 0xCE3 PUSH8 0xA4FE71C3F304BC4C PUSH1 0xC0 SHL PUSH2 0x23B9 JUMP JUMPDEST PUSH2 0xCF7 PUSH8 0x4FFCA05D7E3DC5B6 PUSH1 0xC0 SHL PUSH2 0x23B9 JUMP JUMPDEST PUSH32 0x0 PUSH20 0xFFFFFFFFFFFFFFFFFFFFFFFFFFFFFFFFFFFFFFFF AND DUP4 PUSH20 0xFFFFFFFFFFFFFFFFFFFFFFFFFFFFFFFFFFFFFFFF AND EQ DUP1 ISZERO PUSH2 0xD9D JUMPI POP PUSH32 0x0 PUSH20 0xFFFFFFFFFFFFFFFFFFFFFFFFFFFFFFFFFFFFFFFF AND DUP3 PUSH20 0xFFFFFFFFFFFFFFFFFFFFFFFFFFFFFFFFFFFFFFFF AND EQ JUMPDEST DUP1 ISZERO PUSH2 0xDB9 JUMPI POP PUSH2 0xDB8 PUSH8 0x9354BF53435D4AB2 PUSH1 0xC0 SHL PUSH2 0x255F JUMP JUMPDEST JUMPDEST DUP1 PUSH2 0xE82 JUMPI POP PUSH32 0x0 PUSH20 0xFFFFFFFFFFFFFFFFFFFFFFFFFFFFFFFFFFFFFFFF AND DUP4 PUSH20 0xFFFFFFFFFFFFFFFFFFFFFFFFFFFFFFFFFFFFFFFF AND EQ DUP1 ISZERO PUSH2 0xE65 JUMPI POP PUSH32 0x0 PUSH20 0xFFFFFFFFFFFFFFFFFFFFFFFFFFFFFFFFFFFFFFFF AND DUP3 PUSH20 0xFFFFFFFFFFFFFFFFFFFFFFFFFFFFFFFFFFFFFFFF AND EQ JUMPDEST DUP1 ISZERO PUSH2 0xE81 JUMPI POP PUSH2 0xE80 PUSH8 0x132C532717D0EF0B PUSH1 0xC0 SHL PUSH2 0x255F JUMP JUMPDEST JUMPDEST JUMPDEST PUSH2 0xEC1 JUMPI PUSH1 0x40 MLOAD PUSH32 0x8C379A000000000000000000000000000000000000000000000000000000000 DUP2 MSTORE PUSH1 0x4 ADD PUSH2 0xEB8 SWAP1 PUSH2 0x37BC JUMP JUMPDEST PUSH1 0x40 MLOAD DUP1 SWAP2 SUB SWAP1 REVERT JUMPDEST PUSH2 0xED5 PUSH8 0x3B3BED2B862AC7E6 PUSH1 0xC0 SHL PUSH2 0x23B9 JUMP JUMPDEST PUSH2 0xEE9 PUSH8 0x12C231BAEB190A61 PUSH1 0xC0 SHL PUSH2 0x23B9 JUMP JUMPDEST PUSH2 0xEFD PUSH8 0xC88DF571B7D1DAAA PUSH1 0xC0 SHL PUSH2 0x23B9 JUMP JUMPDEST PUSH1 0x0 PUSH32 0x0 PUSH20 0xFFFFFFFFFFFFFFFFFFFFFFFFFFFFFFFFFFFFFFFF AND PUSH4 0x70A08231 ADDRESS PUSH1 0x40 MLOAD DUP3 PUSH4 0xFFFFFFFF AND PUSH1 0xE0 SHL DUP2 MSTORE PUSH1 0x4 ADD PUSH2 0xF58 SWAP2 SWAP1 PUSH2 0x35EE JUMP JUMPDEST PUSH1 0x20 PUSH1 0x40 MLOAD DUP1 DUP4 SUB DUP2 DUP7 GAS STATICCALL ISZERO DUP1 ISZERO PUSH2 0xF75 JUMPI RETURNDATASIZE PUSH1 0x0 DUP1 RETURNDATACOPY RETURNDATASIZE PUSH1 0x0 REVERT JUMPDEST POP POP POP POP PUSH1 0x40 MLOAD RETURNDATASIZE PUSH1 0x1F NOT PUSH1 0x1F DUP3 ADD AND DUP3 ADD DUP1 PUSH1 0x40 MSTORE POP DUP2 ADD SWAP1 PUSH2 0xF99 SWAP2 SWAP1 PUSH2 0x361E JUMP JUMPDEST SWAP1 POP PUSH2 0xFAE PUSH7 0x57C4449D2CF671 PUSH1 0xC0 SHL PUSH2 0x23B9 JUMP JUMPDEST PUSH2 0xFC2 PUSH8 0xBF2192AC949DE63B PUSH1 0xC0 SHL PUSH2 0x23B9 JUMP JUMPDEST PUSH1 0x0 PUSH32 0x0 PUSH20 0xFFFFFFFFFFFFFFFFFFFFFFFFFFFFFFFFFFFFFFFF AND PUSH4 0x70A08231 ADDRESS PUSH1 0x40 MLOAD DUP3 PUSH4 0xFFFFFFFF AND PUSH1 0xE0 SHL DUP2 MSTORE PUSH1 0x4 ADD PUSH2 0x101D SWAP2 SWAP1 PUSH2 0x35EE JUMP JUMPDEST PUSH1 0x20 PUSH1 0x40 MLOAD DUP1 DUP4 SUB DUP2 DUP7 GAS STATICCALL ISZERO DUP1 ISZERO PUSH2 0x103A JUMPI RETURNDATASIZE PUSH1 0x0 DUP1 RETURNDATACOPY RETURNDATASIZE PUSH1 0x0 REVERT JUMPDEST POP POP POP POP PUSH1 0x40 MLOAD RETURNDATASIZE PUSH1 0x1F NOT PUSH1 0x1F DUP3 ADD AND DUP3 ADD DUP1 PUSH1 0x40 MSTORE POP DUP2 ADD SWAP1 PUSH2 0x105E SWAP2 SWAP1 PUSH2 0x361E JUMP JUMPDEST SWAP1 POP PUSH2 0x1074 PUSH8 0x54375829B8FE62A7 PUSH1 0xC0 SHL PUSH2 0x23B9 JUMP JUMPDEST PUSH2 0x1088 PUSH8 0xFB7C01B86170446A PUSH1 0xC0 SHL PUSH2 0x23B9 JUMP JUMPDEST PUSH2 0x109C PUSH8 0x2566956BF7ECDE65 PUSH1 0xC0 SHL PUSH2 0x23B9 JUMP JUMPDEST PUSH1 0x0 DUP3 GT DUP1 ISZERO PUSH2 0x10AC JUMPI POP PUSH1 0x0 DUP2 GT JUMPDEST PUSH2 0x10EB JUMPI PUSH1 0x40 MLOAD PUSH32 0x8C379A000000000000000000000000000000000000000000000000000000000 DUP2 MSTORE PUSH1 0x4 ADD PUSH2 0x10E2 SWAP1 PUSH2 0x3353 JUMP JUMPDEST PUSH1 0x40 MLOAD DUP1 SWAP2 SUB SWAP1 REVERT JUMPDEST PUSH2 0x10FF PUSH8 0xE1A579DA454312AF PUSH1 0xC0 SHL PUSH2 0x23B9 JUMP JUMPDEST PUSH2 0x1113 PUSH8 0x1FA928743A1B30B1 PUSH1 0xC0 SHL PUSH2 0x23B9 JUMP JUMPDEST PUSH2 0x1127 PUSH8 0x8673484BA851A888 PUSH1 0xC0 SHL PUSH2 0x23B9 JUMP JUMPDEST PUSH32 0x0 PUSH20 0xFFFFFFFFFFFFFFFFFFFFFFFFFFFFFFFFFFFFFFFF AND DUP6 PUSH20 0xFFFFFFFFFFFFFFFFFFFFFFFFFFFFFFFFFFFFFFFF AND SUB PUSH2 0x11C8 JUMPI PUSH2 0x118E PUSH8 0x7BB59C3D51BFFA30 PUSH1 0xC0 SHL PUSH2 0x23B9 JUMP JUMPDEST PUSH2 0x11A2 PUSH8 0x9F1DABB75941E87D PUSH1 0xC0 SHL PUSH2 0x23B9 JUMP JUMPDEST DUP2 PUSH8 0xDE0B6B3A7640000 DUP3 PUSH2 0x11B7 SWAP2 SWAP1 PUSH2 0x33D6 JUMP JUMPDEST PUSH2 0x11C1 SWAP2 SWAP1 PUSH2 0x3447 JUMP JUMPDEST SWAP3 POP PUSH2 0x1212 JUMP JUMPDEST PUSH2 0x11DC PUSH8 0x8E6B8F14A83D0995 PUSH1 0xC0 SHL PUSH2 0x23B9 JUMP JUMPDEST PUSH2 0x11F0 PUSH8 0x4E60E1526D0B97B PUSH1 0xC0 SHL PUSH2 0x23B9 JUMP JUMPDEST DUP1 PUSH8 0xDE0B6B3A7640000 DUP4 PUSH2 0x1205 SWAP2 SWAP1 PUSH2 0x33D6 JUMP JUMPDEST PUSH2 0x120F SWAP2 SWAP1 PUSH2 0x3447 JUMP JUMPDEST SWAP3 POP JUMPDEST POP POP SWAP3 SWAP2 POP POP JUMP JUMPDEST PUSH1 0x0 DUP1 PUSH2 0x1231 PUSH8 0x58639B0906B728B2 PUSH1 0xC0 SHL PUSH2 0x23B9 JUMP JUMPDEST PUSH2 0x1245 PUSH8 0x6C09D9037812C588 PUSH1 0xC0 SHL PUSH2 0x23B9 JUMP JUMPDEST PUSH2 0x1259 PUSH8 0x19E305F2028516D2 PUSH1 0xC0 SHL PUSH2 0x23B9 JUMP JUMPDEST PUSH2 0x126D PUSH8 0x98EBEF6F068F69DB PUSH1 0xC0 SHL PUSH2 0x23B9 JUMP JUMPDEST PUSH32 0x0 PUSH20 0xFFFFFFFFFFFFFFFFFFFFFFFFFFFFFFFFFFFFFFFF AND DUP10 PUSH20 0xFFFFFFFFFFFFFFFFFFFFFFFFFFFFFFFFFFFFFFFF AND EQ DUP1 ISZERO PUSH2 0x1313 JUMPI POP PUSH32 0x0 PUSH20 0xFFFFFFFFFFFFFFFFFFFFFFFFFFFFFFFFFFFFFFFF AND DUP9 PUSH20 0xFFFFFFFFFFFFFFFFFFFFFFFFFFFFFFFFFFFFFFFF AND EQ JUMPDEST PUSH2 0x1352 JUMPI PUSH1 0x40 MLOAD PUSH32 0x8C379A000000000000000000000000000000000000000000000000000000000 DUP2 MSTORE PUSH1 0x4 ADD PUSH2 0x1349 SWAP1 PUSH2 0x37BC JUMP JUMPDEST PUSH1 0x40 MLOAD DUP1 SWAP2 SUB SWAP1 REVERT JUMPDEST PUSH2 0x1366 PUSH8 0x52133D8AA612606A PUSH1 0xC0 SHL PUSH2 0x23B9 JUMP JUMPDEST PUSH2 0x137A PUSH8 0x6391F8C6FB192EE1 PUSH1 0xC0 SHL PUSH2 0x23B9 JUMP JUMPDEST PUSH2 0x138E PUSH8 0x1B7274BEEC9D851B PUSH1 0xC0 SHL PUSH2 0x23B9 JUMP JUMPDEST PUSH2 0x13A2 PUSH8 0xF0D5CF5AD052DA0 PUSH1 0xC0 SHL PUSH2 0x23B9 JUMP JUMPDEST DUP3 TIMESTAMP GT ISZERO PUSH2 0x13E5 JUMPI PUSH1 0x40 MLOAD PUSH32 0x8C379A000000000000000000000000000000000000000000000000000000000 DUP2 MSTORE PUSH1 0x4 ADD PUSH2 0x13DC SWAP1 PUSH2 0x3524 JUMP JUMPDEST PUSH1 0x40 MLOAD DUP1 SWAP2 SUB SWAP1 REVERT JUMPDEST PUSH2 0x13F9 PUSH8 0x68AF7B83BB72A80 PUSH1 0xC0 SHL PUSH2 0x23B9 JUMP JUMPDEST PUSH2 0x140D PUSH8 0x9BBAA8BF651249D7 PUSH1 0xC0 SHL PUSH2 0x23B9 JUMP JUMPDEST PUSH2 0x1421 PUSH8 0x51CD2C38DB45D60C PUSH1 0xC0 SHL PUSH2 0x23B9 JUMP JUMPDEST PUSH1 0x0 PUSH2 0x142B PUSH2 0x5E8 JUMP JUMPDEST SWAP1 POP PUSH2 0x1441 PUSH8 0xF4D700EC525AD7D4 PUSH1 0xC0 SHL PUSH2 0x23B9 JUMP JUMPDEST PUSH2 0x1455 PUSH8 0x8A87390EC0343E47 PUSH1 0xC0 SHL PUSH2 0x23B9 JUMP JUMPDEST PUSH1 0x0 PUSH32 0x0 PUSH20 0xFFFFFFFFFFFFFFFFFFFFFFFFFFFFFFFFFFFFFFFF AND PUSH4 0x70A08231 ADDRESS PUSH1 0x40 MLOAD DUP3 PUSH4 0xFFFFFFFF AND PUSH1 0xE0 SHL DUP2 MSTORE PUSH1 0x4 ADD PUSH2 0x14B0 SWAP2 SWAP1 PUSH2 0x35EE JUMP JUMPDEST PUSH1 0x20 PUSH1 0x40 MLOAD DUP1 DUP4 SUB DUP2 DUP7 GAS STATICCALL ISZERO DUP1 ISZERO PUSH2 0x14CD JUMPI RETURNDATASIZE PUSH1 0x0 DUP1 RETURNDATACOPY RETURNDATASIZE PUSH1 0x0 REVERT JUMPDEST POP POP POP POP PUSH1 0x40 MLOAD RETURNDATASIZE PUSH1 0x1F NOT PUSH1 0x1F DUP3 ADD AND DUP3 ADD DUP1 PUSH1 0x40 MSTORE POP DUP2 ADD SWAP1 PUSH2 0x14F1 SWAP2 SWAP1 PUSH2 0x361E JUMP JUMPDEST SWAP1 POP PUSH2 0x1507 PUSH8 0x7C8B6FD45C7B56CB PUSH1 0xC0 SHL PUSH2 0x23B9 JUMP JUMPDEST PUSH2 0x151B PUSH8 0xE8CB8B1A9BAB9B1C PUSH1 0xC0 SHL PUSH2 0x23B9 JUMP JUMPDEST PUSH1 0x0 PUSH32 0x0 PUSH20 0xFFFFFFFFFFFFFFFFFFFFFFFFFFFFFFFFFFFFFFFF AND PUSH4 0x70A08231 ADDRESS PUSH1 0x40 MLOAD DUP3 PUSH4 0xFFFFFFFF AND PUSH1 0xE0 SHL DUP2 MSTORE PUSH1 0x4 ADD PUSH2 0x1576 SWAP2 SWAP1 PUSH2 0x35EE JUMP JUMPDEST PUSH1 0x20 PUSH1 0x40 MLOAD DUP1 DUP4 SUB DUP2 DUP7 GAS STATICCALL ISZERO DUP1 ISZERO PUSH2 0x1593 JUMPI RETURNDATASIZE PUSH1 0x0 DUP1 RETURNDATACOPY RETURNDATASIZE PUSH1 0x0 REVERT JUMPDEST POP POP POP POP PUSH1 0x40 MLOAD RETURNDATASIZE PUSH1 0x1F NOT PUSH1 0x1F DUP3 ADD AND DUP3 ADD DUP1 PUSH1 0x40 MSTORE POP DUP2 ADD SWAP1 PUSH2 0x15B7 SWAP2 SWAP1 PUSH2 0x361E JUMP JUMPDEST SWAP1 POP PUSH2 0x15CD PUSH8 0x97A2D87BE39E2B3D PUSH1 0xC0 SHL PUSH2 0x23B9 JUMP JUMPDEST DUP3 DUP3 DUP12 PUSH2 0x15DA SWAP2 SWAP1 PUSH2 0x33D6 JUMP JUMPDEST PUSH2 0x15E4 SWAP2 SWAP1 PUSH2 0x3447 JUMP JUMPDEST SWAP5 POP PUSH2 0x15FA PUSH8 0x1A354BF5928B0596 PUSH1 0xC0 SHL PUSH2 0x23B9 JUMP JUMPDEST DUP3 DUP2 DUP12 PUSH2 0x1607 SWAP2 SWAP1 PUSH2 0x33D6 JUMP JUMPDEST PUSH2 0x1611 SWAP2 SWAP1 PUSH2 0x3447 JUMP JUMPDEST SWAP4 POP PUSH2 0x1627 PUSH8 0x4434DA9DE4144CA2 PUSH1 0xC0 SHL PUSH2 0x23B9 JUMP JUMPDEST PUSH2 0x163B PUSH8 0x4F19CD48FC08ACC5 PUSH1 0xC0 SHL PUSH2 0x23B9 JUMP JUMPDEST PUSH2 0x164F PUSH8 0xA6FE4812E1A38B9F PUSH1 0xC0 SHL PUSH2 0x23B9 JUMP JUMPDEST DUP9 DUP6 LT ISZERO PUSH2 0x1692 JUMPI PUSH1 0x40 MLOAD PUSH32 0x8C379A000000000000000000000000000000000000000000000000000000000 DUP2 MSTORE PUSH1 0x4 ADD PUSH2 0x1689 SWAP1 PUSH2 0x3828 JUMP JUMPDEST PUSH1 0x40 MLOAD DUP1 SWAP2 SUB SWAP1 REVERT JUMPDEST PUSH2 0x16A6 PUSH8 0x9FAAF0140573E56 PUSH1 0xC0 SHL PUSH2 0x23B9 JUMP JUMPDEST PUSH2 0x16BA PUSH8 0x66667ADDCDA27A70 PUSH1 0xC0 SHL PUSH2 0x23B9 JUMP JUMPDEST PUSH2 0x16CE PUSH8 0xD50B9AE13C0FDBA5 PUSH1 0xC0 SHL PUSH2 0x23B9 JUMP JUMPDEST PUSH2 0x16E2 PUSH8 0x51ECBBDD8D2D3959 PUSH1 0xC0 SHL PUSH2 0x23B9 JUMP JUMPDEST DUP8 DUP5 LT ISZERO PUSH2 0x1725 JUMPI PUSH1 0x40 MLOAD PUSH32 0x8C379A000000000000000000000000000000000000000000000000000000000 DUP2 MSTORE PUSH1 0x4 ADD PUSH2 0x171C SWAP1 PUSH2 0x3894 JUMP JUMPDEST PUSH1 0x40 MLOAD DUP1 SWAP2 SUB SWAP1 REVERT JUMPDEST PUSH2 0x1739 PUSH8 0x720A070A500347AD PUSH1 0xC0 SHL PUSH2 0x23B9 JUMP JUMPDEST PUSH2 0x174D PUSH8 0xBF4BA7AEDDD19BB7 PUSH1 0xC0 SHL PUSH2 0x23B9 JUMP JUMPDEST PUSH2 0x1761 PUSH8 0x362EFDEA485FA7C7 PUSH1 0xC0 SHL PUSH2 0x23B9 JUMP JUMPDEST PUSH2 0x176B CALLER DUP12 PUSH2 0x256A JUMP JUMPDEST PUSH2 0x177F PUSH8 0xA7A3C8ACFD5FE420 PUSH1 0xC0 SHL PUSH2 0x23B9 JUMP JUMPDEST PUSH2 0x1793 PUSH8 0xAF245A587FCCF076 PUSH1 0xC0 SHL PUSH2 0x23B9 JUMP JUMPDEST PUSH32 0x0 PUSH20 0xFFFFFFFFFFFFFFFFFFFFFFFFFFFFFFFFFFFFFFFF AND PUSH4 0xA9059CBB DUP9 DUP8 PUSH1 0x40 MLOAD DUP4 PUSH4 0xFFFFFFFF AND PUSH1 0xE0 SHL DUP2 MSTORE PUSH1 0x4 ADD PUSH2 0x17EE SWAP3 SWAP2 SWAP1 PUSH2 0x3747 JUMP JUMPDEST PUSH1 0x20 PUSH1 0x40 MLOAD DUP1 DUP4 SUB DUP2 PUSH1 0x0 DUP8 GAS CALL ISZERO DUP1 ISZERO PUSH2 0x180D JUMPI RETURNDATASIZE PUSH1 0x0 DUP1 RETURNDATACOPY RETURNDATASIZE PUSH1 0x0 REVERT JUMPDEST POP POP POP POP PUSH1 0x40 MLOAD RETURNDATASIZE PUSH1 0x1F NOT PUSH1 0x1F DUP3 ADD AND DUP3 ADD DUP1 PUSH1 0x40 MSTORE POP DUP2 ADD SWAP1 PUSH2 0x1831 SWAP2 SWAP1 PUSH2 0x371A JUMP JUMPDEST POP PUSH2 0x1846 PUSH8 0x5C968199E92B661B PUSH1 0xC0 SHL PUSH2 0x23B9 JUMP JUMPDEST PUSH2 0x185A PUSH8 0x345A17214FAABEFC PUSH1 0xC0 SHL PUSH2 0x23B9 JUMP JUMPDEST PUSH32 0x0 PUSH20 0xFFFFFFFFFFFFFFFFFFFFFFFFFFFFFFFFFFFFFFFF AND PUSH4 0xA9059CBB DUP9 DUP7 PUSH1 0x40 MLOAD DUP4 PUSH4 0xFFFFFFFF AND PUSH1 0xE0 SHL DUP2 MSTORE PUSH1 0x4 ADD PUSH2 0x18B5 SWAP3 SWAP2 SWAP1 PUSH2 0x3747 JUMP JUMPDEST PUSH1 0x20 PUSH1 0x40 MLOAD DUP1 DUP4 SUB DUP2 PUSH1 0x0 DUP8 GAS CALL ISZERO DUP1 ISZERO PUSH2 0x18D4 JUMPI RETURNDATASIZE PUSH1 0x0 DUP1 RETURNDATACOPY RETURNDATASIZE PUSH1 0x0 REVERT JUMPDEST POP POP POP POP PUSH1 0x40 MLOAD RETURNDATASIZE PUSH1 0x1F NOT PUSH1 0x1F DUP3 ADD AND DUP3 ADD DUP1 PUSH1 0x40 MSTORE POP DUP2 ADD SWAP1 PUSH2 0x18F8 SWAP2 SWAP1 PUSH2 0x371A JUMP JUMPDEST POP POP POP POP SWAP8 POP SWAP8 SWAP6 POP POP POP POP POP POP JUMP JUMPDEST PUSH1 0x0 PUSH1 0x1 PUSH1 0x0 DUP5 PUSH20 0xFFFFFFFFFFFFFFFFFFFFFFFFFFFFFFFFFFFFFFFF AND PUSH20 0xFFFFFFFFFFFFFFFFFFFFFFFFFFFFFFFFFFFFFFFF AND DUP2 MSTORE PUSH1 0x20 ADD SWAP1 DUP2 MSTORE PUSH1 0x20 ADD PUSH1 0x0 KECCAK256 PUSH1 0x0 DUP4 PUSH20 0xFFFFFFFFFFFFFFFFFFFFFFFFFFFFFFFFFFFFFFFF AND PUSH20 0xFFFFFFFFFFFFFFFFFFFFFFFFFFFFFFFFFFFFFFFF AND DUP2 MSTORE PUSH1 0x20 ADD SWAP1 DUP2 MSTORE PUSH1 0x20 ADD PUSH1 0x0 KECCAK256 SLOAD SWAP1 POP SWAP3 SWAP2 POP POP JUMP JUMPDEST PUSH1 0x0 DUP1 PUSH1 0x0 PUSH2 0x19A8 PUSH8 0xA45D7511783C0AC1 PUSH1 0xC0 SHL PUSH2 0x23B9 JUMP JUMPDEST PUSH2 0x19BC PUSH8 0x2A9C90EFD50AF513 PUSH1 0xC0 SHL PUSH2 0x23B9 JUMP JUMPDEST PUSH2 0x19D0 PUSH8 0x95120868D56577AC PUSH1 0xC0 SHL PUSH2 0x23B9 JUMP JUMPDEST PUSH2 0x19E4 PUSH8 0x6B767FADA32F864E PUSH1 0xC0 SHL PUSH2 0x23B9 JUMP JUMPDEST PUSH32 0x0 PUSH20 0xFFFFFFFFFFFFFFFFFFFFFFFFFFFFFFFFFFFFFFFF AND DUP12 PUSH20 0xFFFFFFFFFFFFFFFFFFFFFFFFFFFFFFFFFFFFFFFF AND EQ DUP1 ISZERO PUSH2 0x1A8A JUMPI POP PUSH32 0x0 PUSH20 0xFFFFFFFFFFFFFFFFFFFFFFFFFFFFFFFFFFFFFFFF AND DUP11 PUSH20 0xFFFFFFFFFFFFFFFFFFFFFFFFFFFFFFFFFFFFFFFF AND EQ JUMPDEST PUSH2 0x1AC9 JUMPI PUSH1 0x40 MLOAD PUSH32 0x8C379A000000000000000000000000000000000000000000000000000000000 DUP2 MSTORE PUSH1 0x4 ADD PUSH2 0x1AC0 SWAP1 PUSH2 0x37BC JUMP JUMPDEST PUSH1 0x40 MLOAD DUP1 SWAP2 SUB SWAP1 REVERT JUMPDEST PUSH2 0x1ADD PUSH8 0x990F8C26950BA0B3 PUSH1 0xC0 SHL PUSH2 0x23B9 JUMP JUMPDEST PUSH2 0x1AF1 PUSH8 0x83818BEFB621CC2F PUSH1 0xC0 SHL PUSH2 0x23B9 JUMP JUMPDEST PUSH2 0x1B05 PUSH8 0xCA56C97D81D50918 PUSH1 0xC0 SHL PUSH2 0x23B9 JUMP JUMPDEST PUSH2 0x1B19 PUSH8 0xF886591378CB8298 PUSH1 0xC0 SHL PUSH2 0x23B9 JUMP JUMPDEST DUP4 TIMESTAMP GT ISZERO PUSH2 0x1B5C JUMPI PUSH1 0x40 MLOAD PUSH32 0x8C379A000000000000000000000000000000000000000000000000000000000 DUP2 MSTORE PUSH1 0x4 ADD PUSH2 0x1B53 SWAP1 PUSH2 0x3524 JUMP JUMPDEST PUSH1 0x40 MLOAD DUP1 SWAP2 SUB SWAP1 REVERT JUMPDEST PUSH2 0x1B70 PUSH8 0x77AD270560CD0A17 PUSH1 0xC0 SHL PUSH2 0x23B9 JUMP JUMPDEST PUSH2 0x1B84 PUSH8 0x1B476B593281AC54 PUSH1 0xC0 SHL PUSH2 0x23B9 JUMP JUMPDEST PUSH2 0x1B98 PUSH8 0x2C888D4B77AEA011 PUSH1 0xC0 SHL PUSH2 0x23B9 JUMP JUMPDEST PUSH1 0x0 PUSH2 0x1BA2 PUSH2 0x5E8 JUMP JUMPDEST SWAP1 POP PUSH2 0x1BB8 PUSH8 0x43B41CB0904F34A9 PUSH1 0xC0 SHL PUSH2 0x23B9 JUMP JUMPDEST PUSH2 0x1BCC PUSH8 0x1A63AC4460A2A9FE PUSH1 0xC0 SHL PUSH2 0x23B9 JUMP JUMPDEST PUSH1 0x0 DUP2 GT ISZERO PUSH2 0x1FE3 JUMPI PUSH2 0x1BE9 PUSH8 0xE99838EA45CE6539 PUSH1 0xC0 SHL PUSH2 0x23B9 JUMP JUMPDEST PUSH2 0x1BFD PUSH8 0x76E3305D3A267598 PUSH1 0xC0 SHL PUSH2 0x23B9 JUMP JUMPDEST PUSH2 0x1C11 PUSH8 0x539DFA31EF4EB713 PUSH1 0xC0 SHL PUSH2 0x23B9 JUMP JUMPDEST PUSH1 0x0 PUSH32 0x0 PUSH20 0xFFFFFFFFFFFFFFFFFFFFFFFFFFFFFFFFFFFFFFFF AND PUSH4 0x70A08231 ADDRESS PUSH1 0x40 MLOAD DUP3 PUSH4 0xFFFFFFFF AND PUSH1 0xE0 SHL DUP2 MSTORE PUSH1 0x4 ADD PUSH2 0x1C6C SWAP2 SWAP1 PUSH2 0x35EE JUMP JUMPDEST PUSH1 0x20 PUSH1 0x40 MLOAD DUP1 DUP4 SUB DUP2 DUP7 GAS STATICCALL ISZERO DUP1 ISZERO PUSH2 0x1C89 JUMPI RETURNDATASIZE PUSH1 0x0 DUP1 RETURNDATACOPY RETURNDATASIZE PUSH1 0x0 REVERT JUMPDEST POP POP POP POP PUSH1 0x40 MLOAD RETURNDATASIZE PUSH1 0x1F NOT PUSH1 0x1F DUP3 ADD AND DUP3 ADD DUP1 PUSH1 0x40 MSTORE POP DUP2 ADD SWAP1 PUSH2 0x1CAD SWAP2 SWAP1 PUSH2 0x361E JUMP JUMPDEST SWAP1 POP PUSH2 0x1CC3 PUSH8 0x4D326934DE53A9C1 PUSH1 0xC0 SHL PUSH2 0x23B9 JUMP JUMPDEST PUSH2 0x1CD7 PUSH8 0x3C41BC41D7B1BA2E PUSH1 0xC0 SHL PUSH2 0x23B9 JUMP JUMPDEST PUSH1 0x0 PUSH32 0x0 PUSH20 0xFFFFFFFFFFFFFFFFFFFFFFFFFFFFFFFFFFFFFFFF AND PUSH4 0x70A08231 ADDRESS PUSH1 0x40 MLOAD DUP3 PUSH4 0xFFFFFFFF AND PUSH1 0xE0 SHL DUP2 MSTORE PUSH1 0x4 ADD PUSH2 0x1D32 SWAP2 SWAP1 PUSH2 0x35EE JUMP JUMPDEST PUSH1 0x20 PUSH1 0x40 MLOAD DUP1 DUP4 SUB DUP2 DUP7 GAS STATICCALL ISZERO DUP1 ISZERO PUSH2 0x1D4F JUMPI RETURNDATASIZE PUSH1 0x0 DUP1 RETURNDATACOPY RETURNDATASIZE PUSH1 0x0 REVERT JUMPDEST POP POP POP POP PUSH1 0x40 MLOAD RETURNDATASIZE PUSH1 0x1F NOT PUSH1 0x1F DUP3 ADD AND DUP3 ADD DUP1 PUSH1 0x40 MSTORE POP DUP2 ADD SWAP1 PUSH2 0x1D73 SWAP2 SWAP1 PUSH2 0x361E JUMP JUMPDEST SWAP1 POP PUSH2 0x1D89 PUSH8 0x39E2050A449FBC8A PUSH1 0xC0 SHL PUSH2 0x23B9 JUMP JUMPDEST PUSH2 0x1D9D PUSH8 0xBA7D8D97ADBAD745 PUSH1 0xC0 SHL PUSH2 0x23B9 JUMP JUMPDEST PUSH1 0x0 DUP3 DUP3 DUP15 PUSH2 0x1DAC SWAP2 SWAP1 PUSH2 0x33D6 JUMP JUMPDEST PUSH2 0x1DB6 SWAP2 SWAP1 PUSH2 0x3447 JUMP JUMPDEST SWAP1 POP PUSH2 0x1DCC PUSH8 0x9B397CF8C35218C1 PUSH1 0xC0 SHL PUSH2 0x23B9 JUMP JUMPDEST PUSH2 0x1DE0 PUSH8 0xFF2BE08511AFA2A8 PUSH1 0xC0 SHL PUSH2 0x23B9 JUMP JUMPDEST DUP12 DUP2 GT PUSH2 0x1EC1 JUMPI PUSH2 0x1DFB PUSH8 0x319FBA471A8CC5BE PUSH1 0xC0 SHL PUSH2 0x23B9 JUMP JUMPDEST PUSH2 0x1E0F PUSH8 0xE7B6D90374B10EB7 PUSH1 0xC0 SHL PUSH2 0x23B9 JUMP JUMPDEST PUSH2 0x1E23 PUSH8 0xCB0671F5AA3BAC21 PUSH1 0xC0 SHL PUSH2 0x23B9 JUMP JUMPDEST PUSH2 0x1E37 PUSH8 0xA8D55AB8B6692305 PUSH1 0xC0 SHL PUSH2 0x23B9 JUMP JUMPDEST DUP10 DUP2 LT ISZERO PUSH2 0x1E7A JUMPI PUSH1 0x40 MLOAD PUSH32 0x8C379A000000000000000000000000000000000000000000000000000000000 DUP2 MSTORE PUSH1 0x4 ADD PUSH2 0x1E71 SWAP1 PUSH2 0x3900 JUMP JUMPDEST PUSH1 0x40 MLOAD DUP1 SWAP2 SUB SWAP1 REVERT JUMPDEST PUSH2 0x1E8E PUSH8 0x11098E860596184D PUSH1 0xC0 SHL PUSH2 0x23B9 JUMP JUMPDEST PUSH2 0x1EA2 PUSH8 0x751F68BF68632218 PUSH1 0xC0 SHL PUSH2 0x23B9 JUMP JUMPDEST DUP13 SWAP7 POP PUSH2 0x1EB9 PUSH8 0x6FBA110964ACB858 PUSH1 0xC0 SHL PUSH2 0x23B9 JUMP JUMPDEST DUP1 SWAP6 POP PUSH2 0x1FDB JUMP JUMPDEST PUSH2 0x1ED5 PUSH8 0xF845EF0102DC59B PUSH1 0xC0 SHL PUSH2 0x23B9 JUMP JUMPDEST PUSH2 0x1EE9 PUSH8 0x991ACC36C1983C72 PUSH1 0xC0 SHL PUSH2 0x23B9 JUMP JUMPDEST PUSH2 0x1EFD PUSH8 0x5CBCE2991E6287E1 PUSH1 0xC0 SHL PUSH2 0x23B9 JUMP JUMPDEST PUSH1 0x0 DUP3 DUP5 DUP15 PUSH2 0x1F0C SWAP2 SWAP1 PUSH2 0x33D6 JUMP JUMPDEST PUSH2 0x1F16 SWAP2 SWAP1 PUSH2 0x3447 JUMP JUMPDEST SWAP1 POP PUSH2 0x1F2C PUSH8 0xFE84FCE5E420D3C PUSH1 0xC0 SHL PUSH2 0x23B9 JUMP JUMPDEST PUSH2 0x1F40 PUSH8 0xC0E49102B3A21E1B PUSH1 0xC0 SHL PUSH2 0x23B9 JUMP JUMPDEST PUSH2 0x1F54 PUSH8 0xF5F146311E19D6C6 PUSH1 0xC0 SHL PUSH2 0x23B9 JUMP JUMPDEST DUP12 DUP2 LT ISZERO PUSH2 0x1F97 JUMPI PUSH1 0x40 MLOAD PUSH32 0x8C379A000000000000000000000000000000000000000000000000000000000 DUP2 MSTORE PUSH1 0x4 ADD PUSH2 0x1F8E SWAP1 PUSH2 0x396C JUMP JUMPDEST PUSH1 0x40 MLOAD DUP1 SWAP2 SUB SWAP1 REVERT JUMPDEST PUSH2 0x1FAB PUSH8 0xC3848F8CBF7AD77E PUSH1 0xC0 SHL PUSH2 0x23B9 JUMP JUMPDEST PUSH2 0x1FBF PUSH8 0x48A9710A12B1A034 PUSH1 0xC0 SHL PUSH2 0x23B9 JUMP JUMPDEST DUP1 SWAP8 POP PUSH2 0x1FD6 PUSH8 0xD8E3C03A5BAC52A7 PUSH1 0xC0 SHL PUSH2 0x23B9 JUMP JUMPDEST DUP13 SWAP7 POP POP JUMPDEST POP POP POP PUSH2 0x2050 JUMP JUMPDEST PUSH2 0x1FF7 PUSH8 0x537973B39607C174 PUSH1 0xC0 SHL PUSH2 0x23B9 JUMP JUMPDEST PUSH2 0x200B PUSH8 0xA1CDC0870FCCCE51 PUSH1 0xC0 SHL PUSH2 0x23B9 JUMP JUMPDEST DUP10 SWAP4 POP PUSH2 0x2022 PUSH8 0x8E0A93A743A89517 PUSH1 0xC0 SHL PUSH2 0x23B9 JUMP JUMPDEST DUP9 SWAP3 POP PUSH2 0x2039 PUSH8 0x128CEDC8AA53CEF PUSH1 0xC0 SHL PUSH2 0x23B9 JUMP JUMPDEST PUSH2 0x204D DUP4 DUP6 PUSH2 0x2048 SWAP2 SWAP1 PUSH2 0x33D6 JUMP JUMPDEST PUSH2 0x25EC JUMP JUMPDEST SWAP2 POP JUMPDEST PUSH2 0x2064 PUSH8 0xD02B23D745AB92B7 PUSH1 0xC0 SHL PUSH2 0x23B9 JUMP JUMPDEST PUSH2 0x2078 PUSH8 0xBBC8015398AD187F PUSH1 0xC0 SHL PUSH2 0x23B9 JUMP JUMPDEST PUSH2 0x208C PUSH8 0xFB68251308A1E273 PUSH1 0xC0 SHL PUSH2 0x23B9 JUMP JUMPDEST DUP8 DUP5 LT ISZERO PUSH2 0x20CF JUMPI PUSH1 0x40 MLOAD PUSH32 0x8C379A000000000000000000000000000000000000000000000000000000000 DUP2 MSTORE PUSH1 0x4 ADD PUSH2 0x20C6 SWAP1 PUSH2 0x3828 JUMP JUMPDEST PUSH1 0x40 MLOAD DUP1 SWAP2 SUB SWAP1 REVERT JUMPDEST PUSH2 0x20E3 PUSH8 0xA0E2FBA29532BEB0 PUSH1 0xC0 SHL PUSH2 0x23B9 JUMP JUMPDEST PUSH2 0x20F7 PUSH8 0x660A7B23CADB9EE PUSH1 0xC0 SHL PUSH2 0x23B9 JUMP JUMPDEST PUSH2 0x210B PUSH8 0x4FE983FC27DCA1F PUSH1 0xC0 SHL PUSH2 0x23B9 JUMP JUMPDEST PUSH2 0x211F PUSH8 0xD0E43FFF35460C33 PUSH1 0xC0 SHL PUSH2 0x23B9 JUMP JUMPDEST DUP7 DUP4 LT ISZERO PUSH2 0x2162 JUMPI PUSH1 0x40 MLOAD PUSH32 0x8C379A000000000000000000000000000000000000000000000000000000000 DUP2 MSTORE PUSH1 0x4 ADD PUSH2 0x2159 SWAP1 PUSH2 0x3894 JUMP JUMPDEST PUSH1 0x40 MLOAD DUP1 SWAP2 SUB SWAP1 REVERT JUMPDEST PUSH2 0x2176 PUSH8 0xED2698A894BE708F PUSH1 0xC0 SHL PUSH2 0x23B9 JUMP JUMPDEST PUSH2 0x218A PUSH8 0x846B7E285B4153FE PUSH1 0xC0 SHL PUSH2 0x23B9 JUMP JUMPDEST PUSH2 0x219E PUSH8 0xBC10133A6E83359F PUSH1 0xC0 SHL PUSH2 0x23B9 JUMP JUMPDEST PUSH32 0x0 PUSH20 0xFFFFFFFFFFFFFFFFFFFFFFFFFFFFFFFFFFFFFFFF AND PUSH4 0x23B872DD CALLER ADDRESS DUP8 PUSH1 0x40 MLOAD DUP5 PUSH4 0xFFFFFFFF AND PUSH1 0xE0 SHL DUP2 MSTORE PUSH1 0x4 ADD PUSH2 0x21FB SWAP4 SWAP3 SWAP2 SWAP1 PUSH2 0x36B7 JUMP JUMPDEST PUSH1 0x20 PUSH1 0x40 MLOAD DUP1 DUP4 SUB DUP2 PUSH1 0x0 DUP8 GAS CALL ISZERO DUP1 ISZERO PUSH2 0x221A JUMPI RETURNDATASIZE PUSH1 0x0 DUP1 RETURNDATACOPY RETURNDATASIZE PUSH1 0x0 REVERT JUMPDEST POP POP POP POP PUSH1 0x40 MLOAD RETURNDATASIZE PUSH1 0x1F NOT PUSH1 0x1F DUP3 ADD AND DUP3 ADD DUP1 PUSH1 0x40 MSTORE POP DUP2 ADD SWAP1 PUSH2 0x223E SWAP2 SWAP1 PUSH2 0x371A JUMP JUMPDEST POP PUSH2 0x2253 PUSH8 0x8B87016CFD9014E0 PUSH1 0xC0 SHL PUSH2 0x23B9 JUMP JUMPDEST PUSH2 0x2267 PUSH8 0x1CC65E7C339166E4 PUSH1 0xC0 SHL PUSH2 0x23B9 JUMP JUMPDEST PUSH32 0x0 PUSH20 0xFFFFFFFFFFFFFFFFFFFFFFFFFFFFFFFFFFFFFFFF AND PUSH4 0x23B872DD CALLER ADDRESS DUP7 PUSH1 0x40 MLOAD DUP5 PUSH4 0xFFFFFFFF AND PUSH1 0xE0 SHL DUP2 MSTORE PUSH1 0x4 ADD PUSH2 0x22C4 SWAP4 SWAP3 SWAP2 SWAP1 PUSH2 0x36B7 JUMP JUMPDEST PUSH1 0x20 PUSH1 0x40 MLOAD DUP1 DUP4 SUB DUP2 PUSH1 0x0 DUP8 GAS CALL ISZERO DUP1 ISZERO PUSH2 0x22E3 JUMPI RETURNDATASIZE PUSH1 0x0 DUP1 RETURNDATACOPY RETURNDATASIZE PUSH1 0x0 REVERT JUMPDEST POP POP POP POP PUSH1 0x40 MLOAD RETURNDATASIZE PUSH1 0x1F NOT PUSH1 0x1F DUP3 ADD AND DUP3 ADD DUP1 PUSH1 0x40 MSTORE POP DUP2 ADD SWAP1 PUSH2 0x2307 SWAP2 SWAP1 PUSH2 0x371A JUMP JUMPDEST POP PUSH2 0x231C PUSH8 0x55D2831C92CD25DF PUSH1 0xC0 SHL PUSH2 0x23B9 JUMP JUMPDEST PUSH1 0x0 DUP3 GT DUP1 PUSH2 0x233B JUMPI POP PUSH2 0x233A PUSH8 0x2C4628A27C7AC699 PUSH1 0xC0 SHL PUSH2 0x27AB JUMP JUMPDEST JUMPDEST DUP1 ISZERO PUSH2 0x2357 JUMPI POP PUSH2 0x2356 PUSH8 0x8C4BB674F9361998 PUSH1 0xC0 SHL PUSH2 0x255F JUMP JUMPDEST JUMPDEST PUSH2 0x2374 JUMPI PUSH2 0x236F DUP4 DUP6 PUSH2 0x236A SWAP2 SWAP1 PUSH2 0x33D6 JUMP JUMPDEST PUSH2 0x25EC JUMP JUMPDEST PUSH2 0x2376 JUMP JUMPDEST DUP2 JUMPDEST SWAP2 POP PUSH2 0x238C PUSH8 0xEAF9C392EB531B8F PUSH1 0xC0 SHL PUSH2 0x23B9 JUMP JUMPDEST PUSH2 0x23A0 PUSH8 0xC2EC64B3FDD2FD52 PUSH1 0xC0 SHL PUSH2 0x23B9 JUMP JUMPDEST PUSH2 0x23AA DUP7 DUP4 PUSH2 0x27B2 JUMP JUMPDEST POP SWAP9 POP SWAP9 POP SWAP9 SWAP6 POP POP POP POP POP POP JUMP JUMPDEST POP JUMP JUMPDEST PUSH1 0x0 CALLER SWAP1 POP SWAP1 JUMP JUMPDEST PUSH2 0x23D1 DUP4 DUP4 DUP4 PUSH1 0x1 PUSH2 0x2834 JUMP JUMPDEST POP POP POP JUMP JUMPDEST PUSH1 0x0 PUSH2 0x23E2 DUP5 DUP5 PUSH2 0x1908 JUMP JUMPDEST SWAP1 POP PUSH32 0xFFFFFFFFFFFFFFFFFFFFFFFFFFFFFFFFFFFFFFFFFFFFFFFFFFFFFFFFFFFFFFFF DUP2 LT ISZERO PUSH2 0x2465 JUMPI DUP2 DUP2 LT ISZERO PUSH2 0x2455 JUMPI DUP3 DUP2 DUP4 PUSH1 0x40 MLOAD PUSH32 0xFB8F41B200000000000000000000000000000000000000000000000000000000 DUP2 MSTORE PUSH1 0x4 ADD PUSH2 0x244C SWAP4 SWAP3 SWAP2 SWAP1 PUSH2 0x398C JUMP JUMPDEST PUSH1 0x40 MLOAD DUP1 SWAP2 SUB SWAP1 REVERT JUMPDEST PUSH2 0x2464 DUP5 DUP5 DUP5 DUP5 SUB PUSH1 0x0 PUSH2 0x2834 JUMP JUMPDEST JUMPDEST POP POP POP POP JUMP JUMPDEST PUSH1 0x0 PUSH20 0xFFFFFFFFFFFFFFFFFFFFFFFFFFFFFFFFFFFFFFFF AND DUP4 PUSH20 0xFFFFFFFFFFFFFFFFFFFFFFFFFFFFFFFFFFFFFFFF AND SUB PUSH2 0x24DD JUMPI PUSH1 0x0 PUSH1 0x40 MLOAD PUSH32 0x96C6FD1E00000000000000000000000000000000000000000000000000000000 DUP2 MSTORE PUSH1 0x4 ADD PUSH2 0x24D4 SWAP2 SWAP1 PUSH2 0x35EE JUMP JUMPDEST PUSH1 0x40 MLOAD DUP1 SWAP2 SUB SWAP1 REVERT JUMPDEST PUSH1 0x0 PUSH20 0xFFFFFFFFFFFFFFFFFFFFFFFFFFFFFFFFFFFFFFFF AND DUP3 PUSH20 0xFFFFFFFFFFFFFFFFFFFFFFFFFFFFFFFFFFFFFFFF AND SUB PUSH2 0x254F JUMPI PUSH1 0x0 PUSH1 0x40 MLOAD PUSH32 0xEC442F0500000000000000000000000000000000000000000000000000000000 DUP2 MSTORE PUSH1 0x4 ADD PUSH2 0x2546 SWAP2 SWAP1 PUSH2 0x35EE JUMP JUMPDEST PUSH1 0x40 MLOAD DUP1 SWAP2 SUB SWAP1 REVERT JUMPDEST PUSH2 0x255A DUP4 DUP4 DUP4 PUSH2 0x2A0B JUMP JUMPDEST POP POP POP JUMP JUMPDEST PUSH1 0x0 PUSH1 0x1 SWAP1 POP SWAP2 SWAP1 POP JUMP JUMPDEST PUSH1 0x0 PUSH20 0xFFFFFFFFFFFFFFFFFFFFFFFFFFFFFFFFFFFFFFFF AND DUP3 PUSH20 0xFFFFFFFFFFFFFFFFFFFFFFFFFFFFFFFFFFFFFFFF AND SUB PUSH2 0x25DC JUMPI PUSH1 0x0 PUSH1 0x40 MLOAD PUSH32 0x96C6FD1E00000000000000000000000000000000000000000000000000000000 DUP2 MSTORE PUSH1 0x4 ADD PUSH2 0x25D3 SWAP2 SWAP1 PUSH2 0x35EE JUMP JUMPDEST PUSH1 0x40 MLOAD DUP1 SWAP2 SUB SWAP1 REVERT JUMPDEST PUSH2 0x25E8 DUP3 PUSH1 0x0 DUP4 PUSH2 0x2A0B JUMP JUMPDEST POP POP JUMP JUMPDEST PUSH1 0x0 PUSH2 0x2602 PUSH8 0xC30BC7FF812AA818 PUSH1 0xC0 SHL PUSH2 0x23B9 JUMP JUMPDEST PUSH2 0x2616 PUSH8 0xCC07C2840BFC4D16 PUSH1 0xC0 SHL PUSH2 0x23B9 JUMP JUMPDEST PUSH2 0x262A PUSH8 0x6AE6EFA36C300C47 PUSH1 0xC0 SHL PUSH2 0x23B9 JUMP JUMPDEST PUSH1 0x3 DUP3 GT ISZERO PUSH2 0x272F JUMPI PUSH2 0x2647 PUSH8 0x260282AD32205CC PUSH1 0xC0 SHL PUSH2 0x23B9 JUMP JUMPDEST PUSH2 0x265B PUSH8 0x8BD5026A09CD7B81 PUSH1 0xC0 SHL PUSH2 0x23B9 JUMP JUMPDEST DUP2 SWAP1 POP PUSH2 0x2672 PUSH8 0x6F1579AD40274235 PUSH1 0xC0 SHL PUSH2 0x23B9 JUMP JUMPDEST PUSH2 0x2686 PUSH8 0xC6DEFEB7623014B2 PUSH1 0xC0 SHL PUSH2 0x23B9 JUMP JUMPDEST PUSH1 0x0 PUSH1 0x1 PUSH1 0x2 DUP5 PUSH2 0x2697 SWAP2 SWAP1 PUSH2 0x3447 JUMP JUMPDEST PUSH2 0x26A1 SWAP2 SWAP1 PUSH2 0x33A2 JUMP JUMPDEST SWAP1 POP PUSH2 0x26B7 PUSH8 0x4B4CAC09B4EEDE4E PUSH1 0xC0 SHL PUSH2 0x23B9 JUMP JUMPDEST PUSH2 0x26CB PUSH8 0xCE9BB4D6CB864CCA PUSH1 0xC0 SHL PUSH2 0x23B9 JUMP JUMPDEST JUMPDEST DUP2 DUP2 LT ISZERO PUSH2 0x2729 JUMPI PUSH2 0x26E8 PUSH8 0x81BDD2E70EF5169E PUSH1 0xC0 SHL PUSH2 0x23B9 JUMP JUMPDEST DUP1 SWAP2 POP PUSH2 0x26FF PUSH8 0x44A33CFAA34B41DD PUSH1 0xC0 SHL PUSH2 0x23B9 JUMP JUMPDEST PUSH1 0x2 DUP2 DUP3 DUP6 PUSH2 0x270E SWAP2 SWAP1 PUSH2 0x3447 JUMP JUMPDEST PUSH2 0x2718 SWAP2 SWAP1 PUSH2 0x33A2 JUMP JUMPDEST PUSH2 0x2722 SWAP2 SWAP1 PUSH2 0x3447 JUMP JUMPDEST SWAP1 POP PUSH2 0x26CC JUMP JUMPDEST POP PUSH2 0x27A6 JUMP JUMPDEST PUSH2 0x2743 PUSH8 0xB090D1109AD842B4 PUSH1 0xC0 SHL PUSH2 0x23B9 JUMP JUMPDEST PUSH2 0x2757 PUSH8 0x57A3CB637673B39E PUSH1 0xC0 SHL PUSH2 0x23B9 JUMP JUMPDEST PUSH1 0x0 DUP3 EQ PUSH2 0x2790 JUMPI PUSH2 0x2773 PUSH8 0x14DF616EA02BD301 PUSH1 0xC0 SHL PUSH2 0x23B9 JUMP JUMPDEST PUSH2 0x2787 PUSH8 0xC2DDBA34F9423F1D PUSH1 0xC0 SHL PUSH2 0x23B9 JUMP JUMPDEST PUSH1 0x1 SWAP1 POP PUSH2 0x27A5 JUMP JUMPDEST PUSH2 0x27A4 PUSH8 0xABFFC665F2CE5694 PUSH1 0xC0 SHL PUSH2 0x23B9 JUMP JUMPDEST JUMPDEST JUMPDEST SWAP2 SWAP1 POP JUMP JUMPDEST PUSH1 0x0 SWAP2 SWAP1 POP JUMP JUMPDEST PUSH1 0x0 PUSH20 0xFFFFFFFFFFFFFFFFFFFFFFFFFFFFFFFFFFFFFFFF AND DUP3 PUSH20 0xFFFFFFFFFFFFFFFFFFFFFFFFFFFFFFFFFFFFFFFF AND SUB PUSH2 0x2824 JUMPI PUSH1 0x0 PUSH1 0x40 MLOAD PUSH32 0xEC442F0500000000000000000000000000000000000000000000000000000000 DUP2 MSTORE PUSH1 0x4 ADD PUSH2 0x281B SWAP2 SWAP1 PUSH2 0x35EE JUMP JUMPDEST PUSH1 0x40 MLOAD DUP1 SWAP2 SUB SWAP1 REVERT JUMPDEST PUSH2 0x2830 PUSH1 0x0 DUP4 DUP4 PUSH2 0x2A0B JUMP JUMPDEST POP POP JUMP JUMPDEST PUSH1 0x0 PUSH20 0xFFFFFFFFFFFFFFFFFFFFFFFFFFFFFFFFFFFFFFFF AND DUP5 PUSH20 0xFFFFFFFFFFFFFFFFFFFFFFFFFFFFFFFFFFFFFFFF AND SUB PUSH2 0x28A6 JUMPI PUSH1 0x0 PUSH1 0x40 MLOAD PUSH32 0xE602DF0500000000000000000000000000000000000000000000000000000000 DUP2 MSTORE PUSH1 0x4 ADD PUSH2 0x289D SWAP2 SWAP1 PUSH2 0x35EE JUMP JUMPDEST PUSH1 0x40 MLOAD DUP1 SWAP2 SUB SWAP1 REVERT JUMPDEST PUSH1 0x0 PUSH20 0xFFFFFFFFFFFFFFFFFFFFFFFFFFFFFFFFFFFFFFFF AND DUP4 PUSH20 0xFFFFFFFFFFFFFFFFFFFFFFFFFFFFFFFFFFFFFFFF AND SUB PUSH2 0x2918 JUMPI PUSH1 0x0 PUSH1 0x40 MLOAD PUSH32 0x94280D6200000000000000000000000000000000000000000000000000000000 DUP2 MSTORE PUSH1 0x4 ADD PUSH2 0x290F SWAP2 SWAP1 PUSH2 0x35EE JUMP JUMPDEST PUSH1 0x40 MLOAD DUP1 SWAP2 SUB SWAP1 REVERT JUMPDEST DUP2 PUSH1 0x1 PUSH1 0x0 DUP7 PUSH20 0xFFFFFFFFFFFFFFFFFFFFFFFFFFFFFFFFFFFFFFFF AND PUSH20 0xFFFFFFFFFFFFFFFFFFFFFFFFFFFFFFFFFFFFFFFF AND DUP2 MSTORE PUSH1 0x20 ADD SWAP1 DUP2 MSTORE PUSH1 0x20 ADD PUSH1 0x0 KECCAK256 PUSH1 0x0 DUP6 PUSH20 0xFFFFFFFFFFFFFFFFFFFFFFFFFFFFFFFFFFFFFFFF AND PUSH20 0xFFFFFFFFFFFFFFFFFFFFFFFFFFFFFFFFFFFFFFFF AND DUP2 MSTORE PUSH1 0x20 ADD SWAP1 DUP2 MSTORE PUSH1 0x20 ADD PUSH1 0x0 KECCAK256 DUP2 SWAP1 SSTORE POP DUP1 ISZERO PUSH2 0x2A05 JUMPI DUP3 PUSH20 0xFFFFFFFFFFFFFFFFFFFFFFFFFFFFFFFFFFFFFFFF AND DUP5 PUSH20 0xFFFFFFFFFFFFFFFFFFFFFFFFFFFFFFFFFFFFFFFF AND PUSH32 0x8C5BE1E5EBEC7D5BD14F71427D1E84F3DD0314C0F7B2291E5B200AC8C7C3B925 DUP5 PUSH1 0x40 MLOAD PUSH2 0x29FC SWAP2 SWAP1 PUSH2 0x2CD2 JUMP JUMPDEST PUSH1 0x40 MLOAD DUP1 SWAP2 SUB SWAP1 LOG3 JUMPDEST POP POP POP POP JUMP JUMPDEST PUSH1 0x0 PUSH20 0xFFFFFFFFFFFFFFFFFFFFFFFFFFFFFFFFFFFFFFFF AND DUP4 PUSH20 0xFFFFFFFFFFFFFFFFFFFFFFFFFFFFFFFFFFFFFFFF AND SUB PUSH2 0x2A5D JUMPI DUP1 PUSH1 0x2 PUSH1 0x0 DUP3 DUP3 SLOAD PUSH2 0x2A51 SWAP2 SWAP1 PUSH2 0x33A2 JUMP JUMPDEST SWAP3 POP POP DUP2 SWAP1 SSTORE POP PUSH2 0x2B30 JUMP JUMPDEST PUSH1 0x0 DUP1 PUSH1 0x0 DUP6 PUSH20 0xFFFFFFFFFFFFFFFFFFFFFFFFFFFFFFFFFFFFFFFF AND PUSH20 0xFFFFFFFFFFFFFFFFFFFFFFFFFFFFFFFFFFFFFFFF AND DUP2 MSTORE PUSH1 0x20 ADD SWAP1 DUP2 MSTORE PUSH1 0x20 ADD PUSH1 0x0 KECCAK256 SLOAD SWAP1 POP DUP2 DUP2 LT ISZERO PUSH2 0x2AE9 JUMPI DUP4 DUP2 DUP4 PUSH1 0x40 MLOAD PUSH32 0xE450D38C00000000000000000000000000000000000000000000000000000000 DUP2 MSTORE PUSH1 0x4 ADD PUSH2 0x2AE0 SWAP4 SWAP3 SWAP2 SWAP1 PUSH2 0x398C JUMP JUMPDEST PUSH1 0x40 MLOAD DUP1 SWAP2 SUB SWAP1 REVERT JUMPDEST DUP2 DUP2 SUB PUSH1 0x0 DUP1 DUP7 PUSH20 0xFFFFFFFFFFFFFFFFFFFFFFFFFFFFFFFFFFFFFFFF AND PUSH20 0xFFFFFFFFFFFFFFFFFFFFFFFFFFFFFFFFFFFFFFFF AND DUP2 MSTORE PUSH1 0x20 ADD SWAP1 DUP2 MSTORE PUSH1 0x20 ADD PUSH1 0x0 KECCAK256 DUP2 SWAP1 SSTORE POP POP JUMPDEST PUSH1 0x0 PUSH20 0xFFFFFFFFFFFFFFFFFFFFFFFFFFFFFFFFFFFFFFFF AND DUP3 PUSH20 0xFFFFFFFFFFFFFFFFFFFFFFFFFFFFFFFFFFFFFFFF AND SUB PUSH2 0x2B79 JUMPI DUP1 PUSH1 0x2 PUSH1 0x0 DUP3 DUP3 SLOAD SUB SWAP3 POP POP DUP2 SWAP1 SSTORE POP PUSH2 0x2BC6 JUMP JUMPDEST DUP1 PUSH1 0x0 DUP1 DUP5 PUSH20 0xFFFFFFFFFFFFFFFFFFFFFFFFFFFFFFFFFFFFFFFF AND PUSH20 0xFFFFFFFFFFFFFFFFFFFFFFFFFFFFFFFFFFFFFFFF AND DUP2 MSTORE PUSH1 0x20 ADD SWAP1 DUP2 MSTORE PUSH1 0x20 ADD PUSH1 0x0 KECCAK256 PUSH1 0x0 DUP3 DUP3 SLOAD ADD SWAP3 POP POP DUP2 SWAP1 SSTORE POP JUMPDEST DUP2 PUSH20 0xFFFFFFFFFFFFFFFFFFFFFFFFFFFFFFFFFFFFFFFF AND DUP4 PUSH20 0xFFFFFFFFFFFFFFFFFFFFFFFFFFFFFFFFFFFFFFFF AND PUSH32 0xDDF252AD1BE2C89B69C2B068FC378DAA952BA7F163C4A11628F55A4DF523B3EF DUP4 PUSH1 0x40 MLOAD PUSH2 0x2C23 SWAP2 SWAP1 PUSH2 0x2CD2 JUMP JUMPDEST PUSH1 0x40 MLOAD DUP1 SWAP2 SUB SWAP1 LOG3 POP POP POP JUMP JUMPDEST PUSH1 0x0 DUP1 REVERT JUMPDEST PUSH1 0x0 DUP1 REVERT JUMPDEST PUSH1 0x0 DUP2 SWAP1 POP SWAP2 SWAP1 POP JUMP JUMPDEST PUSH2 0x2C4D DUP2 PUSH2 0x2C3A JUMP JUMPDEST DUP2 EQ PUSH2 0x2C58 JUMPI PUSH1 0x0 DUP1 REVERT JUMPDEST POP JUMP JUMPDEST PUSH1 0x0 DUP2 CALLDATALOAD SWAP1 POP PUSH2 0x2C6A DUP2 PUSH2 0x2C44 JUMP JUMPDEST SWAP3 SWAP2 POP POP JUMP JUMPDEST PUSH1 0x0 DUP1 PUSH1 0x0 PUSH1 0x60 DUP5 DUP7 SUB SLT ISZERO PUSH2 0x2C89 JUMPI PUSH2 0x2C88 PUSH2 0x2C30 JUMP JUMPDEST JUMPDEST PUSH1 0x0 PUSH2 0x2C97 DUP7 DUP3 DUP8 ADD PUSH2 0x2C5B JUMP JUMPDEST SWAP4 POP POP PUSH1 0x20 PUSH2 0x2CA8 DUP7 DUP3 DUP8 ADD PUSH2 0x2C5B JUMP JUMPDEST SWAP3 POP POP PUSH1 0x40 PUSH2 0x2CB9 DUP7 DUP3 DUP8 ADD PUSH2 0x2C5B JUMP JUMPDEST SWAP2 POP POP SWAP3 POP SWAP3 POP SWAP3 JUMP JUMPDEST PUSH2 0x2CCC DUP2 PUSH2 0x2C3A JUMP JUMPDEST DUP3 MSTORE POP POP JUMP JUMPDEST PUSH1 0x0 PUSH1 0x20 DUP3 ADD SWAP1 POP PUSH2 0x2CE7 PUSH1 0x0 DUP4 ADD DUP5 PUSH2 0x2CC3 JUMP JUMPDEST SWAP3 SWAP2 POP POP JUMP JUMPDEST PUSH1 0x0 DUP2 MLOAD SWAP1 POP SWAP2 SWAP1 POP JUMP JUMPDEST PUSH1 0x0 DUP3 DUP3 MSTORE PUSH1 0x20 DUP3 ADD SWAP1 POP SWAP3 SWAP2 POP POP JUMP JUMPDEST PUSH1 0x0 JUMPDEST DUP4 DUP2 LT ISZERO PUSH2 0x2D27 JUMPI DUP1 DUP3 ADD MLOAD DUP2 DUP5 ADD MSTORE PUSH1 0x20 DUP2 ADD SWAP1 POP PUSH2 0x2D0C JUMP JUMPDEST PUSH1 0x0 DUP5 DUP5 ADD MSTORE POP POP POP POP JUMP JUMPDEST PUSH1 0x0 PUSH1 0x1F NOT PUSH1 0x1F DUP4 ADD AND SWAP1 POP SWAP2 SWAP1 POP JUMP JUMPDEST PUSH1 0x0 PUSH2 0x2D4F DUP3 PUSH2 0x2CED JUMP JUMPDEST PUSH2 0x2D59 DUP2 DUP6 PUSH2 0x2CF8 JUMP JUMPDEST SWAP4 POP PUSH2 0x2D69 DUP2 DUP6 PUSH1 0x20 DUP7 ADD PUSH2 0x2D09 JUMP JUMPDEST PUSH2 0x2D72 DUP2 PUSH2 0x2D33 JUMP JUMPDEST DUP5 ADD SWAP2 POP POP SWAP3 SWAP2 POP POP JUMP JUMPDEST PUSH1 0x0 PUSH1 0x20 DUP3 ADD SWAP1 POP DUP2 DUP2 SUB PUSH1 0x0 DUP4 ADD MSTORE PUSH2 0x2D97 DUP2 DUP5 PUSH2 0x2D44 JUMP JUMPDEST SWAP1 POP SWAP3 SWAP2 POP POP JUMP JUMPDEST PUSH1 0x0 PUSH20 0xFFFFFFFFFFFFFFFFFFFFFFFFFFFFFFFFFFFFFFFF DUP3 AND SWAP1 POP SWAP2 SWAP1 POP JUMP JUMPDEST PUSH1 0x0 PUSH2 0x2DCA DUP3 PUSH2 0x2D9F JUMP JUMPDEST SWAP1 POP SWAP2 SWAP1 POP JUMP JUMPDEST PUSH2 0x2DDA DUP2 PUSH2 0x2DBF JUMP JUMPDEST DUP2 EQ PUSH2 0x2DE5 JUMPI PUSH1 0x0 DUP1 REVERT JUMPDEST POP JUMP JUMPDEST PUSH1 0x0 DUP2 CALLDATALOAD SWAP1 POP PUSH2 0x2DF7 DUP2 PUSH2 0x2DD1 JUMP JUMPDEST SWAP3 SWAP2 POP POP JUMP JUMPDEST PUSH1 0x0 DUP1 PUSH1 0x40 DUP4 DUP6 SUB SLT ISZERO PUSH2 0x2E14 JUMPI PUSH2 0x2E13 PUSH2 0x2C30 JUMP JUMPDEST JUMPDEST PUSH1 0x0 PUSH2 0x2E22 DUP6 DUP3 DUP7 ADD PUSH2 0x2DE8 JUMP JUMPDEST SWAP3 POP POP PUSH1 0x20 PUSH2 0x2E33 DUP6 DUP3 DUP7 ADD PUSH2 0x2C5B JUMP JUMPDEST SWAP2 POP POP SWAP3 POP SWAP3 SWAP1 POP JUMP JUMPDEST PUSH1 0x0 DUP2 ISZERO ISZERO SWAP1 POP SWAP2 SWAP1 POP JUMP JUMPDEST PUSH2 0x2E52 DUP2 PUSH2 0x2E3D JUMP JUMPDEST DUP3 MSTORE POP POP JUMP JUMPDEST PUSH1 0x0 PUSH1 0x20 DUP3 ADD SWAP1 POP PUSH2 0x2E6D PUSH1 0x0 DUP4 ADD DUP5 PUSH2 0x2E49 JUMP JUMPDEST SWAP3 SWAP2 POP POP JUMP JUMPDEST PUSH1 0x0 DUP2 SWAP1 POP SWAP2 SWAP1 POP JUMP JUMPDEST PUSH1 0x0 PUSH2 0x2E98 PUSH2 0x2E93 PUSH2 0x2E8E DUP5 PUSH2 0x2D9F JUMP JUMPDEST PUSH2 0x2E73 JUMP JUMPDEST PUSH2 0x2D9F JUMP JUMPDEST SWAP1 POP SWAP2 SWAP1 POP JUMP JUMPDEST PUSH1 0x0 PUSH2 0x2EAA DUP3 PUSH2 0x2E7D JUMP JUMPDEST SWAP1 POP SWAP2 SWAP1 POP JUMP JUMPDEST PUSH1 0x0 PUSH2 0x2EBC DUP3 PUSH2 0x2E9F JUMP JUMPDEST SWAP1 POP SWAP2 SWAP1 POP JUMP JUMPDEST PUSH2 0x2ECC DUP2 PUSH2 0x2EB1 JUMP JUMPDEST DUP3 MSTORE POP POP JUMP JUMPDEST PUSH1 0x0 PUSH1 0x20 DUP3 ADD SWAP1 POP PUSH2 0x2EE7 PUSH1 0x0 DUP4 ADD DUP5 PUSH2 0x2EC3 JUMP JUMPDEST SWAP3 SWAP2 POP POP JUMP JUMPDEST PUSH1 0x0 DUP1 PUSH1 0x0 PUSH1 0x60 DUP5 DUP7 SUB SLT ISZERO PUSH2 0x2F06 JUMPI PUSH2 0x2F05 PUSH2 0x2C30 JUMP JUMPDEST JUMPDEST PUSH1 0x0 PUSH2 0x2F14 DUP7 DUP3 DUP8 ADD PUSH2 0x2DE8 JUMP JUMPDEST SWAP4 POP POP PUSH1 0x20 PUSH2 0x2F25 DUP7 DUP3 DUP8 ADD PUSH2 0x2DE8 JUMP JUMPDEST SWAP3 POP POP PUSH1 0x40 PUSH2 0x2F36 DUP7 DUP3 DUP8 ADD PUSH2 0x2C5B JUMP JUMPDEST SWAP2 POP POP SWAP3 POP SWAP3 POP SWAP3 JUMP JUMPDEST PUSH1 0x0 PUSH1 0xFF DUP3 AND SWAP1 POP SWAP2 SWAP1 POP JUMP JUMPDEST PUSH2 0x2F56 DUP2 PUSH2 0x2F40 JUMP JUMPDEST DUP3 MSTORE POP POP JUMP JUMPDEST PUSH1 0x0 PUSH1 0x20 DUP3 ADD SWAP1 POP PUSH2 0x2F71 PUSH1 0x0 DUP4 ADD DUP5 PUSH2 0x2F4D JUMP JUMPDEST SWAP3 SWAP2 POP POP JUMP JUMPDEST PUSH1 0x0 DUP1 REVERT JUMPDEST PUSH1 0x0 DUP1 REVERT JUMPDEST PUSH1 0x0 DUP1 REVERT JUMPDEST PUSH1 0x0 DUP1 DUP4 PUSH1 0x1F DUP5 ADD SLT PUSH2 0x2F9C JUMPI PUSH2 0x2F9B PUSH2 0x2F77 JUMP JUMPDEST JUMPDEST DUP3 CALLDATALOAD SWAP1 POP PUSH8 0xFFFFFFFFFFFFFFFF DUP2 GT ISZERO PUSH2 0x2FB9 JUMPI PUSH2 0x2FB8 PUSH2 0x2F7C JUMP JUMPDEST JUMPDEST PUSH1 0x20 DUP4 ADD SWAP2 POP DUP4 PUSH1 0x20 DUP3 MUL DUP4 ADD GT ISZERO PUSH2 0x2FD5 JUMPI PUSH2 0x2FD4 PUSH2 0x2F81 JUMP JUMPDEST JUMPDEST SWAP3 POP SWAP3 SWAP1 POP JUMP JUMPDEST PUSH1 0x0 DUP1 PUSH1 0x0 DUP1 PUSH1 0x0 DUP1 PUSH1 0xA0 DUP8 DUP10 SUB SLT ISZERO PUSH2 0x2FF9 JUMPI PUSH2 0x2FF8 PUSH2 0x2C30 JUMP JUMPDEST JUMPDEST PUSH1 0x0 PUSH2 0x3007 DUP10 DUP3 DUP11 ADD PUSH2 0x2C5B JUMP JUMPDEST SWAP7 POP POP PUSH1 0x20 PUSH2 0x3018 DUP10 DUP3 DUP11 ADD PUSH2 0x2C5B JUMP JUMPDEST SWAP6 POP POP PUSH1 0x40 DUP8 ADD CALLDATALOAD PUSH8 0xFFFFFFFFFFFFFFFF DUP2 GT ISZERO PUSH2 0x3039 JUMPI PUSH2 0x3038 PUSH2 0x2C35 JUMP JUMPDEST JUMPDEST PUSH2 0x3045 DUP10 DUP3 DUP11 ADD PUSH2 0x2F86 JUMP JUMPDEST SWAP5 POP SWAP5 POP POP PUSH1 0x60 PUSH2 0x3058 DUP10 DUP3 DUP11 ADD PUSH2 0x2DE8 JUMP JUMPDEST SWAP3 POP POP PUSH1 0x80 PUSH2 0x3069 DUP10 DUP3 DUP11 ADD PUSH2 0x2C5B JUMP JUMPDEST SWAP2 POP POP SWAP3 SWAP6 POP SWAP3 SWAP6 POP SWAP3 SWAP6 JUMP JUMPDEST PUSH1 0x0 PUSH1 0x20 DUP3 DUP5 SUB SLT ISZERO PUSH2 0x308C JUMPI PUSH2 0x308B PUSH2 0x2C30 JUMP JUMPDEST JUMPDEST PUSH1 0x0 PUSH2 0x309A DUP5 DUP3 DUP6 ADD PUSH2 0x2DE8 JUMP JUMPDEST SWAP2 POP POP SWAP3 SWAP2 POP POP JUMP JUMPDEST PUSH1 0x0 DUP1 PUSH1 0x40 DUP4 DUP6 SUB SLT ISZERO PUSH2 0x30BA JUMPI PUSH2 0x30B9 PUSH2 0x2C30 JUMP JUMPDEST JUMPDEST PUSH1 0x0 PUSH2 0x30C8 DUP6 DUP3 DUP7 ADD PUSH2 0x2DE8 JUMP JUMPDEST SWAP3 POP POP PUSH1 0x20 PUSH2 0x30D9 DUP6 DUP3 DUP7 ADD PUSH2 0x2DE8 JUMP JUMPDEST SWAP2 POP POP SWAP3 POP SWAP3 SWAP1 POP JUMP JUMPDEST PUSH1 0x0 DUP1 PUSH1 0x0 DUP1 PUSH1 0x0 DUP1 PUSH1 0x0 PUSH1 0xE0 DUP9 DUP11 SUB SLT ISZERO PUSH2 0x3102 JUMPI PUSH2 0x3101 PUSH2 0x2C30 JUMP JUMPDEST JUMPDEST PUSH1 0x0 PUSH2 0x3110 DUP11 DUP3 DUP12 ADD PUSH2 0x2DE8 JUMP JUMPDEST SWAP8 POP POP PUSH1 0x20 PUSH2 0x3121 DUP11 DUP3 DUP12 ADD PUSH2 0x2DE8 JUMP JUMPDEST SWAP7 POP POP PUSH1 0x40 PUSH2 0x3132 DUP11 DUP3 DUP12 ADD PUSH2 0x2C5B JUMP JUMPDEST SWAP6 POP POP PUSH1 0x60 PUSH2 0x3143 DUP11 DUP3 DUP12 ADD PUSH2 0x2C5B JUMP JUMPDEST SWAP5 POP POP PUSH1 0x80 PUSH2 0x3154 DUP11 DUP3 DUP12 ADD PUSH2 0x2C5B JUMP JUMPDEST SWAP4 POP POP PUSH1 0xA0 PUSH2 0x3165 DUP11 DUP3 DUP12 ADD PUSH2 0x2DE8 JUMP JUMPDEST SWAP3 POP POP PUSH1 0xC0 PUSH2 0x3176 DUP11 DUP3 DUP12 ADD PUSH2 0x2C5B JUMP JUMPDEST SWAP2 POP POP SWAP3 SWAP6 SWAP9 SWAP2 SWAP5 SWAP8 POP SWAP3 SWAP6 POP JUMP JUMPDEST PUSH1 0x0 PUSH1 0x40 DUP3 ADD SWAP1 POP PUSH2 0x319A PUSH1 0x0 DUP4 ADD DUP6 PUSH2 0x2CC3 JUMP JUMPDEST PUSH2 0x31A7 PUSH1 0x20 DUP4 ADD DUP5 PUSH2 0x2CC3 JUMP JUMPDEST SWAP4 SWAP3 POP POP POP JUMP JUMPDEST PUSH1 0x0 DUP1 PUSH1 0x0 DUP1 PUSH1 0x0 DUP1 PUSH1 0x0 DUP1 PUSH2 0x100 DUP10 DUP12 SUB SLT ISZERO PUSH2 0x31CF JUMPI PUSH2 0x31CE PUSH2 0x2C30 JUMP JUMPDEST JUMPDEST PUSH1 0x0 PUSH2 0x31DD DUP12 DUP3 DUP13 ADD PUSH2 0x2DE8 JUMP JUMPDEST SWAP9 POP POP PUSH1 0x20 PUSH2 0x31EE DUP12 DUP3 DUP13 ADD PUSH2 0x2DE8 JUMP JUMPDEST SWAP8 POP POP PUSH1 0x40 PUSH2 0x31FF DUP12 DUP3 DUP13 ADD PUSH2 0x2C5B JUMP JUMPDEST SWAP7 POP POP PUSH1 0x60 PUSH2 0x3210 DUP12 DUP3 DUP13 ADD PUSH2 0x2C5B JUMP JUMPDEST SWAP6 POP POP PUSH1 0x80 PUSH2 0x3221 DUP12 DUP3 DUP13 ADD PUSH2 0x2C5B JUMP JUMPDEST SWAP5 POP POP PUSH1 0xA0 PUSH2 0x3232 DUP12 DUP3 DUP13 ADD PUSH2 0x2C5B JUMP JUMPDEST SWAP4 POP POP PUSH1 0xC0 PUSH2 0x3243 DUP12 DUP3 DUP13 ADD PUSH2 0x2DE8 JUMP JUMPDEST SWAP3 POP POP PUSH1 0xE0 PUSH2 0x3254 DUP12 DUP3 DUP13 ADD PUSH2 0x2C5B JUMP JUMPDEST SWAP2 POP POP SWAP3 SWAP6 SWAP9 POP SWAP3 SWAP6 SWAP9 SWAP1 SWAP4 SWAP7 POP JUMP JUMPDEST PUSH1 0x0 PUSH1 0x60 DUP3 ADD SWAP1 POP PUSH2 0x3279 PUSH1 0x0 DUP4 ADD DUP7 PUSH2 0x2CC3 JUMP JUMPDEST PUSH2 0x3286 PUSH1 0x20 DUP4 ADD DUP6 PUSH2 0x2CC3 JUMP JUMPDEST PUSH2 0x3293 PUSH1 0x40 DUP4 ADD DUP5 PUSH2 0x2CC3 JUMP JUMPDEST SWAP5 SWAP4 POP POP POP POP JUMP JUMPDEST PUSH32 0x5A65726F20696E70757400000000000000000000000000000000000000000000 PUSH1 0x0 DUP3 ADD MSTORE POP JUMP JUMPDEST PUSH1 0x0 PUSH2 0x32D1 PUSH1 0xA DUP4 PUSH2 0x2CF8 JUMP JUMPDEST SWAP2 POP PUSH2 0x32DC DUP3 PUSH2 0x329B JUMP JUMPDEST PUSH1 0x20 DUP3 ADD SWAP1 POP SWAP2 SWAP1 POP JUMP JUMPDEST PUSH1 0x0 PUSH1 0x20 DUP3 ADD SWAP1 POP DUP2 DUP2 SUB PUSH1 0x0 DUP4 ADD MSTORE PUSH2 0x3300 DUP2 PUSH2 0x32C4 JUMP JUMPDEST SWAP1 POP SWAP2 SWAP1 POP JUMP JUMPDEST PUSH32 0x4E6F206C69717569646974790000000000000000000000000000000000000000 PUSH1 0x0 DUP3 ADD MSTORE POP JUMP JUMPDEST PUSH1 0x0 PUSH2 0x333D PUSH1 0xC DUP4 PUSH2 0x2CF8 JUMP JUMPDEST SWAP2 POP PUSH2 0x3348 DUP3 PUSH2 0x3307 JUMP JUMPDEST PUSH1 0x20 DUP3 ADD SWAP1 POP SWAP2 SWAP1 POP JUMP JUMPDEST PUSH1 0x0 PUSH1 0x20 DUP3 ADD SWAP1 POP DUP2 DUP2 SUB PUSH1 0x0 DUP4 ADD MSTORE PUSH2 0x336C DUP2 PUSH2 0x3330 JUMP JUMPDEST SWAP1 POP SWAP2 SWAP1 POP JUMP JUMPDEST PUSH32 0x4E487B7100000000000000000000000000000000000000000000000000000000 PUSH1 0x0 MSTORE PUSH1 0x11 PUSH1 0x4 MSTORE PUSH1 0x24 PUSH1 0x0 REVERT JUMPDEST PUSH1 0x0 PUSH2 0x33AD DUP3 PUSH2 0x2C3A JUMP JUMPDEST SWAP2 POP PUSH2 0x33B8 DUP4 PUSH2 0x2C3A JUMP JUMPDEST SWAP3 POP DUP3 DUP3 ADD SWAP1 POP DUP1 DUP3 GT ISZERO PUSH2 0x33D0 JUMPI PUSH2 0x33CF PUSH2 0x3373 JUMP JUMPDEST JUMPDEST SWAP3 SWAP2 POP POP JUMP JUMPDEST PUSH1 0x0 PUSH2 0x33E1 DUP3 PUSH2 0x2C3A JUMP JUMPDEST SWAP2 POP PUSH2 0x33EC DUP4 PUSH2 0x2C3A JUMP JUMPDEST SWAP3 POP DUP3 DUP3 MUL PUSH2 0x33FA DUP2 PUSH2 0x2C3A JUMP JUMPDEST SWAP2 POP DUP3 DUP3 DIV DUP5 EQ DUP4 ISZERO OR PUSH2 0x3411 JUMPI PUSH2 0x3410 PUSH2 0x3373 JUMP JUMPDEST JUMPDEST POP SWAP3 SWAP2 POP POP JUMP JUMPDEST PUSH32 0x4E487B7100000000000000000000000000000000000000000000000000000000 PUSH1 0x0 MSTORE PUSH1 0x12 PUSH1 0x4 MSTORE PUSH1 0x24 PUSH1 0x0 REVERT JUMPDEST PUSH1 0x0 PUSH2 0x3452 DUP3 PUSH2 0x2C3A JUMP JUMPDEST SWAP2 POP PUSH2 0x345D DUP4 PUSH2 0x2C3A JUMP JUMPDEST SWAP3 POP DUP3 PUSH2 0x346D JUMPI PUSH2 0x346C PUSH2 0x3418 JUMP JUMPDEST JUMPDEST DUP3 DUP3 DIV SWAP1 POP SWAP3 SWAP2 POP POP JUMP JUMPDEST PUSH32 0x4E487B7100000000000000000000000000000000000000000000000000000000 PUSH1 0x0 MSTORE PUSH1 0x22 PUSH1 0x4 MSTORE PUSH1 0x24 PUSH1 0x0 REVERT JUMPDEST PUSH1 0x0 PUSH1 0x2 DUP3 DIV SWAP1 POP PUSH1 0x1 DUP3 AND DUP1 PUSH2 0x34BF JUMPI PUSH1 0x7F DUP3 AND SWAP2 POP JUMPDEST PUSH1 0x20 DUP3 LT DUP2 SUB PUSH2 0x34D2 JUMPI PUSH2 0x34D1 PUSH2 0x3478 JUMP JUMPDEST JUMPDEST POP SWAP2 SWAP1 POP JUMP JUMPDEST PUSH32 0x4578706972656400000000000000000000000000000000000000000000000000 PUSH1 0x0 DUP3 ADD MSTORE POP JUMP JUMPDEST PUSH1 0x0 PUSH2 0x350E PUSH1 0x7 DUP4 PUSH2 0x2CF8 JUMP JUMPDEST SWAP2 POP PUSH2 0x3519 DUP3 PUSH2 0x34D8 JUMP JUMPDEST PUSH1 0x20 DUP3 ADD SWAP1 POP SWAP2 SWAP1 POP JUMP JUMPDEST PUSH1 0x0 PUSH1 0x20 DUP3 ADD SWAP1 POP DUP2 DUP2 SUB PUSH1 0x0 DUP4 ADD MSTORE PUSH2 0x353D DUP2 PUSH2 0x3501 JUMP JUMPDEST SWAP1 POP SWAP2 SWAP1 POP JUMP JUMPDEST PUSH32 0x496E76616C696420706174680000000000000000000000000000000000000000 PUSH1 0x0 DUP3 ADD MSTORE POP JUMP JUMPDEST PUSH1 0x0 PUSH2 0x357A PUSH1 0xC DUP4 PUSH2 0x2CF8 JUMP JUMPDEST SWAP2 POP PUSH2 0x3585 DUP3 PUSH2 0x3544 JUMP JUMPDEST PUSH1 0x20 DUP3 ADD SWAP1 POP SWAP2 SWAP1 POP JUMP JUMPDEST PUSH1 0x0 PUSH1 0x20 DUP3 ADD SWAP1 POP DUP2 DUP2 SUB PUSH1 0x0 DUP4 ADD MSTORE PUSH2 0x35A9 DUP2 PUSH2 0x356D JUMP JUMPDEST SWAP1 POP SWAP2 SWAP1 POP JUMP JUMPDEST PUSH32 0x4E487B7100000000000000000000000000000000000000000000000000000000 PUSH1 0x0 MSTORE PUSH1 0x32 PUSH1 0x4 MSTORE PUSH1 0x24 PUSH1 0x0 REVERT JUMPDEST PUSH2 0x35E8 DUP2 PUSH2 0x2DBF JUMP JUMPDEST DUP3 MSTORE POP POP JUMP JUMPDEST PUSH1 0x0 PUSH1 0x20 DUP3 ADD SWAP1 POP PUSH2 0x3603 PUSH1 0x0 DUP4 ADD DUP5 PUSH2 0x35DF JUMP JUMPDEST SWAP3 SWAP2 POP POP JUMP JUMPDEST PUSH1 0x0 DUP2 MLOAD SWAP1 POP PUSH2 0x3618 DUP2 PUSH2 0x2C44 JUMP JUMPDEST SWAP3 SWAP2 POP POP JUMP JUMPDEST PUSH1 0x0 PUSH1 0x20 DUP3 DUP5 SUB SLT ISZERO PUSH2 0x3634 JUMPI PUSH2 0x3633 PUSH2 0x2C30 JUMP JUMPDEST JUMPDEST PUSH1 0x0 PUSH2 0x3642 DUP5 DUP3 DUP6 ADD PUSH2 0x3609 JUMP JUMPDEST SWAP2 POP POP SWAP3 SWAP2 POP POP JUMP JUMPDEST PUSH32 0x4F757470757420746F6F206C6F77000000000000000000000000000000000000 PUSH1 0x0 DUP3 ADD MSTORE POP JUMP JUMPDEST PUSH1 0x0 PUSH2 0x3681 PUSH1 0xE DUP4 PUSH2 0x2CF8 JUMP JUMPDEST SWAP2 POP PUSH2 0x368C DUP3 PUSH2 0x364B JUMP JUMPDEST PUSH1 0x20 DUP3 ADD SWAP1 POP SWAP2 SWAP1 POP JUMP JUMPDEST PUSH1 0x0 PUSH1 0x20 DUP3 ADD SWAP1 POP DUP2 DUP2 SUB PUSH1 0x0 DUP4 ADD MSTORE PUSH2 0x36B0 DUP2 PUSH2 0x3674 JUMP JUMPDEST SWAP1 POP SWAP2 SWAP1 POP JUMP JUMPDEST PUSH1 0x0 PUSH1 0x60 DUP3 ADD SWAP1 POP PUSH2 0x36CC PUSH1 0x0 DUP4 ADD DUP7 PUSH2 0x35DF JUMP JUMPDEST PUSH2 0x36D9 PUSH1 0x20 DUP4 ADD DUP6 PUSH2 0x35DF JUMP JUMPDEST PUSH2 0x36E6 PUSH1 0x40 DUP4 ADD DUP5 PUSH2 0x2CC3 JUMP JUMPDEST SWAP5 SWAP4 POP POP POP POP JUMP JUMPDEST PUSH2 0x36F7 DUP2 PUSH2 0x2E3D JUMP JUMPDEST DUP2 EQ PUSH2 0x3702 JUMPI PUSH1 0x0 DUP1 REVERT JUMPDEST POP JUMP JUMPDEST PUSH1 0x0 DUP2 MLOAD SWAP1 POP PUSH2 0x3714 DUP2 PUSH2 0x36EE JUMP JUMPDEST SWAP3 SWAP2 POP POP JUMP JUMPDEST PUSH1 0x0 PUSH1 0x20 DUP3 DUP5 SUB SLT ISZERO PUSH2 0x3730 JUMPI PUSH2 0x372F PUSH2 0x2C30 JUMP JUMPDEST JUMPDEST PUSH1 0x0 PUSH2 0x373E DUP5 DUP3 DUP6 ADD PUSH2 0x3705 JUMP JUMPDEST SWAP2 POP POP SWAP3 SWAP2 POP POP JUMP JUMPDEST PUSH1 0x0 PUSH1 0x40 DUP3 ADD SWAP1 POP PUSH2 0x375C PUSH1 0x0 DUP4 ADD DUP6 PUSH2 0x35DF JUMP JUMPDEST PUSH2 0x3769 PUSH1 0x20 DUP4 ADD DUP5 PUSH2 0x2CC3 JUMP JUMPDEST SWAP4 SWAP3 POP POP POP JUMP JUMPDEST PUSH32 0x496E76616C696420746F6B656E73000000000000000000000000000000000000 PUSH1 0x0 DUP3 ADD MSTORE POP JUMP JUMPDEST PUSH1 0x0 PUSH2 0x37A6 PUSH1 0xE DUP4 PUSH2 0x2CF8 JUMP JUMPDEST SWAP2 POP PUSH2 0x37B1 DUP3 PUSH2 0x3770 JUMP JUMPDEST PUSH1 0x20 DUP3 ADD SWAP1 POP SWAP2 SWAP1 POP JUMP JUMPDEST PUSH1 0x0 PUSH1 0x20 DUP3 ADD SWAP1 POP DUP2 DUP2 SUB PUSH1 0x0 DUP4 ADD MSTORE PUSH2 0x37D5 DUP2 PUSH2 0x3799 JUMP JUMPDEST SWAP1 POP SWAP2 SWAP1 POP JUMP JUMPDEST PUSH32 0x41206E6F74206D696E0000000000000000000000000000000000000000000000 PUSH1 0x0 DUP3 ADD MSTORE POP JUMP JUMPDEST PUSH1 0x0 PUSH2 0x3812 PUSH1 0x9 DUP4 PUSH2 0x2CF8 JUMP JUMPDEST SWAP2 POP PUSH2 0x381D DUP3 PUSH2 0x37DC JUMP JUMPDEST PUSH1 0x20 DUP3 ADD SWAP1 POP SWAP2 SWAP1 POP JUMP JUMPDEST PUSH1 0x0 PUSH1 0x20 DUP3 ADD SWAP1 POP DUP2 DUP2 SUB PUSH1 0x0 DUP4 ADD MSTORE PUSH2 0x3841 DUP2 PUSH2 0x3805 JUMP JUMPDEST SWAP1 POP SWAP2 SWAP1 POP JUMP JUMPDEST PUSH32 0x42206E6F74206D696E0000000000000000000000000000000000000000000000 PUSH1 0x0 DUP3 ADD MSTORE POP JUMP JUMPDEST PUSH1 0x0 PUSH2 0x387E PUSH1 0x9 DUP4 PUSH2 0x2CF8 JUMP JUMPDEST SWAP2 POP PUSH2 0x3889 DUP3 PUSH2 0x3848 JUMP JUMPDEST PUSH1 0x20 DUP3 ADD SWAP1 POP SWAP2 SWAP1 POP JUMP JUMPDEST PUSH1 0x0 PUSH1 0x20 DUP3 ADD SWAP1 POP DUP2 DUP2 SUB PUSH1 0x0 DUP4 ADD MSTORE PUSH2 0x38AD DUP2 PUSH2 0x3871 JUMP JUMPDEST SWAP1 POP SWAP2 SWAP1 POP JUMP JUMPDEST PUSH32 0x496E73756666696369656E742042000000000000000000000000000000000000 PUSH1 0x0 DUP3 ADD MSTORE POP JUMP JUMPDEST PUSH1 0x0 PUSH2 0x38EA PUSH1 0xE DUP4 PUSH2 0x2CF8 JUMP JUMPDEST SWAP2 POP PUSH2 0x38F5 DUP3 PUSH2 0x38B4 JUMP JUMPDEST PUSH1 0x20 DUP3 ADD SWAP1 POP SWAP2 SWAP1 POP JUMP JUMPDEST PUSH1 0x0 PUSH1 0x20 DUP3 ADD SWAP1 POP DUP2 DUP2 SUB PUSH1 0x0 DUP4 ADD MSTORE PUSH2 0x3919 DUP2 PUSH2 0x38DD JUMP JUMPDEST SWAP1 POP SWAP2 SWAP1 POP JUMP JUMPDEST PUSH32 0x496E73756666696369656E742041000000000000000000000000000000000000 PUSH1 0x0 DUP3 ADD MSTORE POP JUMP JUMPDEST PUSH1 0x0 PUSH2 0x3956 PUSH1 0xE DUP4 PUSH2 0x2CF8 JUMP JUMPDEST SWAP2 POP PUSH2 0x3961 DUP3 PUSH2 0x3920 JUMP JUMPDEST PUSH1 0x20 DUP3 ADD SWAP1 POP SWAP2 SWAP1 POP JUMP JUMPDEST PUSH1 0x0 PUSH1 0x20 DUP3 ADD SWAP1 POP DUP2 DUP2 SUB PUSH1 0x0 DUP4 ADD MSTORE PUSH2 0x3985 DUP2 PUSH2 0x3949 JUMP JUMPDEST SWAP1 POP SWAP2 SWAP1 POP JUMP JUMPDEST PUSH1 0x0 PUSH1 0x60 DUP3 ADD SWAP1 POP PUSH2 0x39A1 PUSH1 0x0 DUP4 ADD DUP7 PUSH2 0x35DF JUMP JUMPDEST PUSH2 0x39AE PUSH1 0x20 DUP4 ADD DUP6 PUSH2 0x2CC3 JUMP JUMPDEST PUSH2 0x39BB PUSH1 0x40 DUP4 ADD DUP5 PUSH2 0x2CC3 JUMP JUMPDEST SWAP5 SWAP4 POP POP POP POP JUMP INVALID LOG2 PUSH5 0x6970667358 0x22 SLT KECCAK256 0xD9 0xE8 SWAP8 0x25 SAR 0xDD 0xED MCOPY 0x4E 0xE2 0xB7 0xEF 0xE0 CREATE2 0xB1 SWAP13 0xED INVALID SELFBALANCE PUSH11 0x4C99AB6BC538DD591B3CBA 0xAE PUSH5 0x736F6C6343 STOP ADDMOD SHR STOP CALLER "},"methodIdentifiers":{"addLiquidity(address,address,uint256,uint256,uint256,uint256,address,uint256)":"e8e33700","allowance(address,address)":"dd62ed3e","approve(address,uint256)":"095ea7b3","balanceOf(address)":"70a08231","decimals()":"313ce567","getAmountOut(uint256,uint256,uint256)":"054d50d4","getPrice(address,address)":"ac41865a","name()":"06fdde03","removeLiquidity(address,address,uint256,uint256,uint256,address,uint256)":"baa2abde","swapExactTokensForTokens(uint256,uint256,address[],address,uint256)":"38ed1739","symbol()":"95d89b41","tokenA()":"0fc63d10","tokenB()":"5f64b55b","totalSupply()":"18160ddd","transfer(address,uint256)":"a9059cbb","transferFrom(address,address,uint256)":"23b872dd"}}}}}