{"contracts/SimpleSwap.sol":{"SimpleSwap":{"abi":[{"inputs":[{"internalType":"address","name":"_tokenA","type":"address"},{"internalType":"address","name":"_tokenB","type":"address"}],"stateMutability":"nonpayable","type":"constructor"},{"inputs":[{"internalType":"address","name":"spender","type":"address"},{"internalType":"uint256","name":"allowance","type":"uint256"},{"internalType":"uint256","name":"needed","type":"uint256"}],"name":"ERC20InsufficientAllowance","type":"error"},{"inputs":[{"internalType":"address","name":"sender","type":"address"},{"internalType":"uint256","name":"balance","type":"uint256"},{"internalType":"uint256","name":"needed","type":"uint256"}],"name":"ERC20InsufficientBalance","type":"error"},{"inputs":[{"internalType":"address","name":"approver","type":"address"}],"name":"ERC20InvalidApprover","type":"error"},{"inputs":[{"internalType":"address","name":"receiver","type":"address"}],"name":"ERC20InvalidReceiver","type":"error"},{"inputs":[{"internalType":"address","name":"sender","type":"address"}],"name":"ERC20InvalidSender","type":"error"},{"inputs":[{"internalType":"address","name":"spender","type":"address"}],"name":"ERC20InvalidSpender","type":"error"},{"anonymous":false,"inputs":[{"indexed":true,"internalType":"address","name":"owner","type":"address"},{"indexed":true,"internalType":"address","name":"spender","type":"address"},{"indexed":false,"internalType":"uint256","name":"value","type":"uint256"}],"name":"Approval","type":"event"},{"anonymous":false,"inputs":[{"indexed":true,"internalType":"address","name":"from","type":"address"},{"indexed":true,"internalType":"address","name":"to","type":"address"},{"indexed":false,"internalType":"uint256","name":"value","type":"uint256"}],"name":"Transfer","type":"event"},{"inputs":[{"internalType":"address","name":"_tokenA","type":"address"},{"internalType":"address","name":"_tokenB","type":"address"},{"internalType":"uint256","name":"amountADesired","type":"uint256"},{"internalType":"uint256","name":"amountBDesired","type":"uint256"},{"internalType":"uint256","name":"amountAMin","type":"uint256"},{"internalType":"uint256","name":"amountBMin","type":"uint256"},{"internalType":"address","name":"to","type":"address"},{"internalType":"uint256","name":"deadline","type":"uint256"}],"name":"addLiquidity","outputs":[{"internalType":"uint256","name":"amountA","type":"uint256"},{"internalType":"uint256","name":"amountB","type":"uint256"},{"internalType":"uint256","name":"liquidity","type":"uint256"}],"stateMutability":"nonpayable","type":"function"},{"inputs":[{"internalType":"address","name":"owner","type":"address"},{"internalType":"address","name":"spender","type":"address"}],"name":"allowance","outputs":[{"internalType":"uint256","name":"","type":"uint256"}],"stateMutability":"view","type":"function"},{"inputs":[{"internalType":"address","name":"spender","type":"address"},{"internalType":"uint256","name":"value","type":"uint256"}],"name":"approve","outputs":[{"internalType":"bool","name":"","type":"bool"}],"stateMutability":"nonpayable","type":"function"},{"inputs":[{"internalType":"address","name":"account","type":"address"}],"name":"balanceOf","outputs":[{"internalType":"uint256","name":"","type":"uint256"}],"stateMutability":"view","type":"function"},{"inputs":[],"name":"decimals","outputs":[{"internalType":"uint8","name":"","type":"uint8"}],"stateMutability":"view","type":"function"},{"inputs":[{"internalType":"uint256","name":"amountIn","type":"uint256"},{"internalType":"uint256","name":"reserveIn","type":"uint256"},{"internalType":"uint256","name":"reserveOut","type":"uint256"}],"name":"getAmountOut","outputs":[{"internalType":"uint256","name":"amountOut","type":"uint256"}],"stateMutability":"pure","type":"function"},{"inputs":[],"name":"getPrice","outputs":[{"internalType":"uint256","name":"price","type":"uint256"}],"stateMutability":"view","type":"function"},{"inputs":[],"name":"name","outputs":[{"internalType":"string","name":"","type":"string"}],"stateMutability":"view","type":"function"},{"inputs":[{"internalType":"address","name":"_tokenA","type":"address"},{"internalType":"address","name":"_tokenB","type":"address"},{"internalType":"uint256","name":"liquidity","type":"uint256"},{"internalType":"uint256","name":"amountAMin","type":"uint256"},{"internalType":"uint256","name":"amountBMin","type":"uint256"},{"internalType":"address","name":"to","type":"address"},{"internalType":"uint256","name":"deadline","type":"uint256"}],"name":"removeLiquidity","outputs":[{"internalType":"uint256","name":"amountA","type":"uint256"},{"internalType":"uint256","name":"amountB","type":"uint256"}],"stateMutability":"nonpayable","type":"function"},{"inputs":[{"internalType":"uint256","name":"amountIn","type":"uint256"},{"internalType":"uint256","name":"amountOutMin","type":"uint256"},{"internalType":"address[]","name":"path","type":"address[]"},{"internalType":"address","name":"to","type":"address"},{"internalType":"uint256","name":"deadline","type":"uint256"}],"name":"swapExactTokensForTokens","outputs":[],"stateMutability":"nonpayable","type":"function"},{"inputs":[],"name":"symbol","outputs":[{"internalType":"string","name":"","type":"string"}],"stateMutability":"view","type":"function"},{"inputs":[],"name":"tokenA","outputs":[{"internalType":"contract IERC20","name":"","type":"address"}],"stateMutability":"view","type":"function"},{"inputs":[],"name":"tokenB","outputs":[{"internalType":"contract IERC20","name":"","type":"address"}],"stateMutability":"view","type":"function"},{"inputs":[],"name":"totalSupply","outputs":[{"internalType":"uint256","name":"","type":"uint256"}],"stateMutability":"view","type":"function"},{"inputs":[{"internalType":"address","name":"to","type":"address"},{"internalType":"uint256","name":"value","type":"uint256"}],"name":"transfer","outputs":[{"internalType":"bool","name":"","type":"bool"}],"stateMutability":"nonpayable","type":"function"},{"inputs":[{"internalType":"address","name":"from","type":"address"},{"internalType":"address","name":"to","type":"address"},{"internalType":"uint256","name":"value","type":"uint256"}],"name":"transferFrom","outputs":[{"internalType":"bool","name":"","type":"bool"}],"stateMutability":"nonpayable","type":"function"}],"evm":{"bytecode":{"linkReferences":{},"object":"60c060405234801561001057600080fd5b50604051613eb1380380613eb1833981810160405281019061003291906102b9565b6040518060400160405280601081526020017f53696d706c655377617020546f6b656e000000000000000000000000000000008152506040518060400160405280600381526020017f535354000000000000000000000000000000000000000000000000000000000081525081600390816100ad9190610549565b5080600490816100bd9190610549565b5050506100da67392b123677d74b1660c01b61025360201b60201c565b6100f4671187dcb6f27d0a9660c01b61025360201b60201c565b61010e67b409993fcdd8a9fe60c01b61025360201b60201c565b61012867de4c0339ea0bfa9460c01b61025360201b60201c565b8073ffffffffffffffffffffffffffffffffffffffff168273ffffffffffffffffffffffffffffffffffffffff1603610196576040517f08c379a000000000000000000000000000000000000000000000000000000000815260040161018d90610678565b60405180910390fd5b6101b0670481af8b80d9d47160c01b61025360201b60201c565b6101ca6768c7efd07797b42060c01b61025360201b60201c565b8173ffffffffffffffffffffffffffffffffffffffff1660808173ffffffffffffffffffffffffffffffffffffffff168152505061021867b771cd85dc7be62360c01b61025360201b60201c565b8073ffffffffffffffffffffffffffffffffffffffff1660a08173ffffffffffffffffffffffffffffffffffffffff16815250505050610698565b50565b600080fd5b600073ffffffffffffffffffffffffffffffffffffffff82169050919050565b60006102868261025b565b9050919050565b6102968161027b565b81146102a157600080fd5b50565b6000815190506102b38161028d565b92915050565b600080604083850312156102d0576102cf610256565b5b60006102de858286016102a4565b92505060206102ef858286016102a4565b9150509250929050565b600081519050919050565b7f4e487b7100000000000000000000000000000000000000000000000000000000600052604160045260246000fd5b7f4e487b7100000000000000000000000000000000000000000000000000000000600052602260045260246000fd5b6000600282049050600182168061037a57607f821691505b60208210810361038d5761038c610333565b5b50919050565b60008190508160005260206000209050919050565b60006020601f8301049050919050565b600082821b905092915050565b6000600883026103f57fffffffffffffffffffffffffffffffffffffffffffffffffffffffffffffffff826103b8565b6103ff86836103b8565b95508019841693508086168417925050509392505050565b6000819050919050565b6000819050919050565b600061044661044161043c84610417565b610421565b610417565b9050919050565b6000819050919050565b6104608361042b565b61047461046c8261044d565b8484546103c5565b825550505050565b600090565b61048961047c565b610494818484610457565b505050565b5b818110156104b8576104ad600082610481565b60018101905061049a565b5050565b601f8211156104fd576104ce81610393565b6104d7846103a8565b810160208510156104e6578190505b6104fa6104f2856103a8565b830182610499565b50505b505050565b600082821c905092915050565b600061052060001984600802610502565b1980831691505092915050565b6000610539838361050f565b9150826002028217905092915050565b610552826102f9565b67ffffffffffffffff81111561056b5761056a610304565b5b6105758254610362565b6105808282856104bc565b600060209050601f8311600181146105b357600084156105a1578287015190505b6105ab858261052d565b865550610613565b601f1984166105c186610393565b60005b828110156105e9578489015182556001820191506020850194506020810190506105c4565b868310156106065784890151610602601f89168261050f565b8355505b6001600288020188555050505b505050505050565b600082825260208201905092915050565b7f4964656e746963616c20746f6b656e7300000000000000000000000000000000600082015250565b600061066260108361061b565b915061066d8261062c565b602082019050919050565b6000602082019050818103600083015261069181610655565b9050919050565b60805160a0516137ae61070360003960008181610ba201528181610dd201528181610ff90152818161179501528181611a1c015261201a0152600081816105b401528181610d0c01528181610fac0152818161173f015281816119560152611f5101526137ae6000f3fe608060405234801561001057600080fd5b50600436106101005760003560e01c80635f64b55b11610097578063a9059cbb11610066578063a9059cbb146102b3578063baa2abde146102e3578063dd62ed3e14610314578063e8e337001461034457610100565b80635f64b55b1461022957806370a082311461024757806395d89b411461027757806398d5fdca1461029557610100565b806318160ddd116100d357806318160ddd146101a157806323b872dd146101bf578063313ce567146101ef57806338ed17391461020d57610100565b8063054d50d41461010557806306fdde0314610135578063095ea7b3146101535780630fc63d1014610183575b600080fd5b61011f600480360381019061011a9190612a25565b610376565b60405161012c9190612a87565b60405180910390f35b61013d6104fd565b60405161014a9190612b32565b60405180910390f35b61016d60048036038101906101689190612bb2565b61058f565b60405161017a9190612c0d565b60405180910390f35b61018b6105b2565b6040516101989190612c87565b60405180910390f35b6101a96105d6565b6040516101b69190612a87565b60405180910390f35b6101d960048036038101906101d49190612ca2565b6105e0565b6040516101e69190612c0d565b60405180910390f35b6101f761060f565b6040516102049190612d11565b60405180910390f35b61022760048036038101906102229190612d91565b610618565b005b610231610ba0565b60405161023e9190612c87565b60405180910390f35b610261600480360381019061025c9190612e2b565b610bc4565b60405161026e9190612a87565b60405180910390f35b61027f610c0c565b60405161028c9190612b32565b60405180910390f35b61029d610c9e565b6040516102aa9190612a87565b60405180910390f35b6102cd60048036038101906102c89190612bb2565b610f46565b6040516102da9190612c0d565b60405180910390f35b6102fd60048036038101906102f89190612e58565b610f69565b60405161030b929190612efa565b60405180910390f35b61032e60048036038101906103299190612f23565b611661565b60405161033b9190612a87565b60405180910390f35b61035e60048036038101906103599190612f63565b6116e8565b60405161036d93929190613019565b60405180910390f35b600061038c67ac6953c50e6e930f60c01b61216e565b6103a067cdcf1c0abc6f2e9460c01b61216e565b6103b4675885f3238578314b60c01b61216e565b6103c8678eedb3e73b7de9e260c01b61216e565b6000841161040b576040517f08c379a00000000000000000000000000000000000000000000000000000000081526004016104029061309c565b60405180910390fd5b61041f67a0983fa99db5d7c760c01b61216e565b61043367a9c3811060fb3e6e60c01b61216e565b610447671d49c8fffb1d029760c01b61216e565b61045b67379f1eb63ced9a7560c01b61216e565b60008311801561046b5750600082115b6104aa576040517f08c379a00000000000000000000000000000000000000000000000000000000081526004016104a190613108565b60405180910390fd5b6104be6709af7344964fd4c360c01b61216e565b6104d267e087c80e2195a40260c01b61216e565b82846104de9190613157565b82856104ea919061318b565b6104f491906131fc565b90509392505050565b60606003805461050c9061325c565b80601f01602080910402602001604051908101604052809291908181526020018280546105389061325c565b80156105855780601f1061055a57610100808354040283529160200191610585565b820191906000526020600020905b81548152906001019060200180831161056857829003601f168201915b5050505050905090565b60008061059a612171565b90506105a7818585612179565b600191505092915050565b7f000000000000000000000000000000000000000000000000000000000000000081565b6000600254905090565b6000806105eb612171565b90506105f885828561218b565b610603858585612220565b60019150509392505050565b60006012905090565b61062c67efd7883d02733ab260c01b61216e565b6106406778208ad466f7895360c01b61216e565b610654676f33d433a5ad8ec760c01b61216e565b61066867f55d09239abc5a7560c01b61216e565b804211156106ab576040517f08c379a00000000000000000000000000000000000000000000000000000000081526004016106a2906132d9565b60405180910390fd5b6106bf67b408d1d764f1831a60c01b61216e565b6106d3674f016c63c341f11560c01b61216e565b6106e76796a0dd4f4a396d6260c01b61216e565b6106fb67f8b6bfce52c0c87660c01b61216e565b60028484905014610741576040517f08c379a000000000000000000000000000000000000000000000000000000000815260040161073890613345565b60405180910390fd5b6107556704cafcc66273c44660c01b61216e565b6107696768b70100173ca50560c01b61216e565b61077d6793bec06a4c519d2a60c01b61216e565b60008484600081811061079357610792613365565b5b90506020020160208101906107a89190612e2b565b90506107be67858f2a888f88b26660c01b61216e565b6107d267257a1793216be56260c01b61216e565b6000858560018181106107e8576107e7613365565b5b90506020020160208101906107fd9190612e2b565b905061081367f5d7239a6b8d443e60c01b61216e565b61082767e16000140fff2d1460c01b61216e565b6000309050610840670c2ac821c1e8b2de60c01b61216e565b610854671d2f4b54f31aef2e60c01b61216e565b60008373ffffffffffffffffffffffffffffffffffffffff166370a08231836040518263ffffffff1660e01b815260040161088f91906133a3565b602060405180830381865afa1580156108ac573d6000803e3d6000fd5b505050506040513d601f19601f820116820180604052508101906108d091906133d3565b90506108e66734fb8832ca2fa30860c01b61216e565b6108fa67041ff01824c44b6460c01b61216e565b60008373ffffffffffffffffffffffffffffffffffffffff166370a08231846040518263ffffffff1660e01b815260040161093591906133a3565b602060405180830381865afa158015610952573d6000803e3d6000fd5b505050506040513d601f19601f8201168201806040525081019061097691906133d3565b905061098c67887fe9cae6d5db0560c01b61216e565b6109a067c1f6e6128f74d94360c01b61216e565b60006109ad8c8484610376565b90506109c36744a247d23c1afea260c01b61216e565b6109d767a4fe71c3f304bc4c60c01b61216e565b6109eb674ffca05d7e3dc5b660c01b61216e565b8a811015610a2e576040517f08c379a0000000000000000000000000000000000000000000000000000000008152600401610a259061344c565b60405180910390fd5b610a42679354bf53435d4ab260c01b61216e565b610a5667132c532717d0ef0b60c01b61216e565b610a6a673b3bed2b862ac7e660c01b61216e565b8573ffffffffffffffffffffffffffffffffffffffff166323b872dd33868f6040518463ffffffff1660e01b8152600401610aa79392919061346c565b6020604051808303816000875af1158015610ac6573d6000803e3d6000fd5b505050506040513d601f19601f82011682018060405250810190610aea91906134cf565b50610aff6712c231baeb190a6160c01b61216e565b610b1367c88df571b7d1daaa60c01b61216e565b8473ffffffffffffffffffffffffffffffffffffffff1663a9059cbb89836040518363ffffffff1660e01b8152600401610b4e9291906134fc565b6020604051808303816000875af1158015610b6d573d6000803e3d6000fd5b505050506040513d601f19601f82011682018060405250810190610b9191906134cf565b50505050505050505050505050565b7f000000000000000000000000000000000000000000000000000000000000000081565b60008060008373ffffffffffffffffffffffffffffffffffffffff1673ffffffffffffffffffffffffffffffffffffffff168152602001908152602001600020549050919050565b606060048054610c1b9061325c565b80601f0160208091040260200160405190810160405280929190818152602001828054610c479061325c565b8015610c945780601f10610c6957610100808354040283529160200191610c94565b820191906000526020600020905b815481529060010190602001808311610c7757829003601f168201915b5050505050905090565b6000610cb36657c4449d2cf67160c01b61216e565b610cc767bf2192ac949de63b60c01b61216e565b610cdb6754375829b8fe62a760c01b61216e565b6000309050610cf467fb7c01b86170446a60c01b61216e565b610d08672566956bf7ecde6560c01b61216e565b60007f000000000000000000000000000000000000000000000000000000000000000073ffffffffffffffffffffffffffffffffffffffff166370a08231836040518263ffffffff1660e01b8152600401610d6391906133a3565b602060405180830381865afa158015610d80573d6000803e3d6000fd5b505050506040513d601f19601f82011682018060405250810190610da491906133d3565b9050610dba67e1a579da454312af60c01b61216e565b610dce671fa928743a1b30b160c01b61216e565b60007f000000000000000000000000000000000000000000000000000000000000000073ffffffffffffffffffffffffffffffffffffffff166370a08231846040518263ffffffff1660e01b8152600401610e2991906133a3565b602060405180830381865afa158015610e46573d6000803e3d6000fd5b505050506040513d601f19601f82011682018060405250810190610e6a91906133d3565b9050610e80678673484ba851a88860c01b61216e565b610e94677bb59c3d51bffa3060c01b61216e565b610ea8679f1dabb75941e87d60c01b61216e565b600082118015610eb85750600081115b610ef7576040517f08c379a0000000000000000000000000000000000000000000000000000000008152600401610eee90613108565b60405180910390fd5b610f0b678e6b8f14a83d099560c01b61216e565b610f1f6704e60e1526d0b97b60c01b61216e565b81670de0b6b3a764000082610f34919061318b565b610f3e91906131fc565b935050505090565b600080610f51612171565b9050610f5e818585612220565b600191505092915050565b600080610f80676c09d9037812c58860c01b61216e565b610f946719e305f2028516d260c01b61216e565b610fa86798ebef6f068f69db60c01b61216e565b60007f00000000000000000000000000000000000000000000000000000000000000009050610fe16752133d8aa612606a60c01b61216e565b610ff5676391f8c6fb192ee160c01b61216e565b60007f0000000000000000000000000000000000000000000000000000000000000000905061102e671b7274beec9d851b60c01b61216e565b611042670f0d5cf5ad052da060c01b61216e565b61105667068af7b83bb72a8060c01b61216e565b8173ffffffffffffffffffffffffffffffffffffffff168b73ffffffffffffffffffffffffffffffffffffffff161480156110bc57508073ffffffffffffffffffffffffffffffffffffffff168a73ffffffffffffffffffffffffffffffffffffffff16145b6110fb576040517f08c379a00000000000000000000000000000000000000000000000000000000081526004016110f290613571565b60405180910390fd5b61110f679bbaa8bf651249d760c01b61216e565b6111236751cd2c38db45d60c60c01b61216e565b61113767f4d700ec525ad7d460c01b61216e565b61114b678a87390ec0343e4760c01b61216e565b8442111561118e576040517f08c379a0000000000000000000000000000000000000000000000000000000008152600401611185906132d9565b60405180910390fd5b6111a2677c8b6fd45c7b56cb60c01b61216e565b6111b667e8cb8b1a9bab9b1c60c01b61216e565b6111ca6797a2d87be39e2b3d60c01b61216e565b60003090506111e3671a354bf5928b059660c01b61216e565b6111f7674434da9de4144ca260c01b61216e565b60006112016105d6565b9050611217674f19cd48fc08acc560c01b61216e565b61122b67a6fe4812e1a38b9f60c01b61216e565b60008473ffffffffffffffffffffffffffffffffffffffff166370a08231846040518263ffffffff1660e01b815260040161126691906133a3565b602060405180830381865afa158015611283573d6000803e3d6000fd5b505050506040513d601f19601f820116820180604052508101906112a791906133d3565b90506112bd6709faaf0140573e5660c01b61216e565b6112d16766667addcda27a7060c01b61216e565b60008473ffffffffffffffffffffffffffffffffffffffff166370a08231856040518263ffffffff1660e01b815260040161130c91906133a3565b602060405180830381865afa158015611329573d6000803e3d6000fd5b505050506040513d601f19601f8201168201806040525081019061134d91906133d3565b905061136367d50b9ae13c0fdba560c01b61216e565b82828e611370919061318b565b61137a91906131fc565b97506113906751ecbbdd8d2d395960c01b61216e565b82818e61139d919061318b565b6113a791906131fc565b96506113bd67720a070a500347ad60c01b61216e565b6113d167bf4ba7aeddd19bb760c01b61216e565b6113e567362efdea485fa7c760c01b61216e565b8b881015611428576040517f08c379a000000000000000000000000000000000000000000000000000000000815260040161141f906135dd565b60405180910390fd5b61143c67a7a3c8acfd5fe42060c01b61216e565b61145067af245a587fccf07660c01b61216e565b611464675c968199e92b661b60c01b61216e565b61147867345a17214faabefc60c01b61216e565b8a8710156114bb576040517f08c379a00000000000000000000000000000000000000000000000000000000081526004016114b290613649565b60405180910390fd5b6114cf676e3024e59e4f15a360c01b61216e565b6114e367405e358a5865d0e660c01b61216e565b6114f767d05fccc057902f9360c01b61216e565b611501338e612314565b611515679cdcf7476cb396d760c01b61216e565b611529673533e7f29ebe7f8460c01b61216e565b8573ffffffffffffffffffffffffffffffffffffffff1663a9059cbb8b8a6040518363ffffffff1660e01b81526004016115649291906134fc565b6020604051808303816000875af1158015611583573d6000803e3d6000fd5b505050506040513d601f19601f820116820180604052508101906115a791906134cf565b506115bc676325360fe0c4d0ac60c01b61216e565b6115d0677c51c209e99113bb60c01b61216e565b8473ffffffffffffffffffffffffffffffffffffffff1663a9059cbb8b896040518363ffffffff1660e01b815260040161160b9291906134fc565b6020604051808303816000875af115801561162a573d6000803e3d6000fd5b505050506040513d601f19601f8201168201806040525081019061164e91906134cf565b5050505050505097509795505050505050565b6000600160008473ffffffffffffffffffffffffffffffffffffffff1673ffffffffffffffffffffffffffffffffffffffff16815260200190815260200160002060008373ffffffffffffffffffffffffffffffffffffffff1673ffffffffffffffffffffffffffffffffffffffff16815260200190815260200160002054905092915050565b600080600061170167d63c60e25eaa95bd60c01b61216e565b61171567717561f875c5a71e60c01b61216e565b61172967b714776118f2e37860c01b61216e565b61173d67a45d7511783c0ac160c01b61216e565b7f000000000000000000000000000000000000000000000000000000000000000073ffffffffffffffffffffffffffffffffffffffff168b73ffffffffffffffffffffffffffffffffffffffff161480156117e357507f000000000000000000000000000000000000000000000000000000000000000073ffffffffffffffffffffffffffffffffffffffff168a73ffffffffffffffffffffffffffffffffffffffff16145b611822576040517f08c379a000000000000000000000000000000000000000000000000000000000815260040161181990613571565b60405180910390fd5b611836672a9c90efd50af51360c01b61216e565b61184a6795120868d56577ac60c01b61216e565b61185e676b767fada32f864e60c01b61216e565b61187267990f8c26950ba0b360c01b61216e565b834211156118b5576040517f08c379a00000000000000000000000000000000000000000000000000000000081526004016118ac906132d9565b60405180910390fd5b6118c96783818befb621cc2f60c01b61216e565b6118dd67ca56c97d81d5091860c01b61216e565b6118f167f886591378cb829860c01b61216e565b600030905061190a6777ad270560cd0a1760c01b61216e565b61191e671b476b593281ac5460c01b61216e565b60006119286105d6565b905061193e672c888d4b77aea01160c01b61216e565b6119526743b41cb0904f34a960c01b61216e565b60007f000000000000000000000000000000000000000000000000000000000000000073ffffffffffffffffffffffffffffffffffffffff166370a08231846040518263ffffffff1660e01b81526004016119ad91906133a3565b602060405180830381865afa1580156119ca573d6000803e3d6000fd5b505050506040513d601f19601f820116820180604052508101906119ee91906133d3565b9050611a04671a63ac4460a2a9fe60c01b61216e565b611a1867e99838ea45ce653960c01b61216e565b60007f000000000000000000000000000000000000000000000000000000000000000073ffffffffffffffffffffffffffffffffffffffff166370a08231856040518263ffffffff1660e01b8152600401611a7391906133a3565b602060405180830381865afa158015611a90573d6000803e3d6000fd5b505050506040513d601f19601f82011682018060405250810190611ab491906133d3565b9050611aca6776e3305d3a26759860c01b61216e565b611ade67539dfa31ef4eb71360c01b61216e565b6000831115611d6757611afb674d326934de53a9c160c01b61216e565b611b0f673c41bc41d7b1ba2e60c01b61216e565b611b236739e2050a449fbc8a60c01b61216e565b600082828f611b32919061318b565b611b3c91906131fc565b9050611b5267ba7d8d97adbad74560c01b61216e565b611b66679b397cf8c35218c160c01b61216e565b8c8111611c4757611b8167ff2be08511afa2a860c01b61216e565b611b9567319fba471a8cc5be60c01b61216e565b611ba967e7b6d90374b10eb760c01b61216e565b611bbd67cb0671f5aa3bac2160c01b61216e565b8a811015611c00576040517f08c379a0000000000000000000000000000000000000000000000000000000008152600401611bf7906136b5565b60405180910390fd5b611c1467a8d55ab8b669230560c01b61216e565b611c286711098e860596184d60c01b61216e565b8d9750611c3f67751f68bf6863221860c01b61216e565b809650611d61565b611c5b676fba110964acb85860c01b61216e565b611c6f670f845ef0102dc59b60c01b61216e565b611c8367991acc36c1983c7260c01b61216e565b600082848f611c92919061318b565b611c9c91906131fc565b9050611cb2675cbce2991e6287e160c01b61216e565b611cc6670fe84fce5e420d3c60c01b61216e565b611cda67c0e49102b3a21e1b60c01b61216e565b8c811015611d1d576040517f08c379a0000000000000000000000000000000000000000000000000000000008152600401611d1490613721565b60405180910390fd5b611d3167f5f146311e19d6c660c01b61216e565b611d4567c3848f8cbf7ad77e60c01b61216e565b809850611d5c6748a9710a12b1a03460c01b61216e565b8d9750505b50611dd4565b611d7b67d8e3c03a5bac52a760c01b61216e565b611d8f67537973b39607c17460c01b61216e565b8c9650611da667a1cdc0870fccce5160c01b61216e565b8b9550611dbd678e0a93a743a8951760c01b61216e565b611dd18688611dcc919061318b565b612396565b94505b611de8670128cedc8aa53cef60c01b61216e565b611dfc67d02b23d745ab92b760c01b61216e565b611e1067bbc8015398ad187f60c01b61216e565b8a871015611e53576040517f08c379a0000000000000000000000000000000000000000000000000000000008152600401611e4a906135dd565b60405180910390fd5b611e6767fb68251308a1e27360c01b61216e565b611e7b67a0e2fba29532beb060c01b61216e565b611e8f670660a7b23cadb9ee60c01b61216e565b611ea36704fe983fc27dca1f60c01b61216e565b89861015611ee6576040517f08c379a0000000000000000000000000000000000000000000000000000000008152600401611edd90613649565b60405180910390fd5b611efa67d0e43fff35460c3360c01b61216e565b611f0e67ed2698a894be708f60c01b61216e565b611f2267846b7e285b4153fe60c01b61216e565b6000339050611f3b67bc10133a6e83359f60c01b61216e565b611f4f678b87016cfd9014e060c01b61216e565b7f000000000000000000000000000000000000000000000000000000000000000073ffffffffffffffffffffffffffffffffffffffff166323b872dd82878b6040518463ffffffff1660e01b8152600401611fac9392919061346c565b6020604051808303816000875af1158015611fcb573d6000803e3d6000fd5b505050506040513d601f19601f82011682018060405250810190611fef91906134cf565b50612004671cc65e7c339166e460c01b61216e565b6120186755d2831c92cd25df60c01b61216e565b7f000000000000000000000000000000000000000000000000000000000000000073ffffffffffffffffffffffffffffffffffffffff166323b872dd82878a6040518463ffffffff1660e01b81526004016120759392919061346c565b6020604051808303816000875af1158015612094573d6000803e3d6000fd5b505050506040513d601f19601f820116820180604052508101906120b891906134cf565b506120cd672c4628a27c7ac69960c01b61216e565b60008611806120ec57506120eb678c4bb674f936199860c01b612555565b5b8015612108575061210767eaf9c392eb531b8f60c01b61255c565b5b61212557612120878961211b919061318b565b612396565b612127565b855b955061213d67c2ec64b3fdd2fd5260c01b61216e565b6121516758639b0906b728b260c01b61216e565b61215b8a87612567565b5050505050985098509895505050505050565b50565b600033905090565b61218683838360016125e9565b505050565b60006121978484611661565b90507fffffffffffffffffffffffffffffffffffffffffffffffffffffffffffffffff81101561221a578181101561220a578281836040517ffb8f41b200000000000000000000000000000000000000000000000000000000815260040161220193929190613741565b60405180910390fd5b612219848484840360006125e9565b5b50505050565b600073ffffffffffffffffffffffffffffffffffffffff168373ffffffffffffffffffffffffffffffffffffffff16036122925760006040517f96c6fd1e00000000000000000000000000000000000000000000000000000000815260040161228991906133a3565b60405180910390fd5b600073ffffffffffffffffffffffffffffffffffffffff168273ffffffffffffffffffffffffffffffffffffffff16036123045760006040517fec442f050000000000000000000000000000000000000000000000000000000081526004016122fb91906133a3565b60405180910390fd5b61230f8383836127c0565b505050565b600073ffffffffffffffffffffffffffffffffffffffff168273ffffffffffffffffffffffffffffffffffffffff16036123865760006040517f96c6fd1e00000000000000000000000000000000000000000000000000000000815260040161237d91906133a3565b60405180910390fd5b612392826000836127c0565b5050565b60006123ac67c30bc7ff812aa81860c01b61216e565b6123c067cc07c2840bfc4d1660c01b61216e565b6123d4676ae6efa36c300c4760c01b61216e565b60038211156124d9576123f1670260282ad32205cc60c01b61216e565b612405678bd5026a09cd7b8160c01b61216e565b81905061241c676f1579ad4027423560c01b61216e565b61243067c6defeb7623014b260c01b61216e565b6000600160028461244191906131fc565b61244b9190613157565b9050612461674b4cac09b4eede4e60c01b61216e565b61247567ce9bb4d6cb864cca60c01b61216e565b5b818110156124d3576124926781bdd2e70ef5169e60c01b61216e565b8091506124a96744a33cfaa34b41dd60c01b61216e565b60028182856124b891906131fc565b6124c29190613157565b6124cc91906131fc565b9050612476565b50612550565b6124ed67b090d1109ad842b460c01b61216e565b6125016757a3cb637673b39e60c01b61216e565b6000821461253a5761251d6714df616ea02bd30160c01b61216e565b61253167c2ddba34f9423f1d60c01b61216e565b6001905061254f565b61254e67abffc665f2ce569460c01b61216e565b5b5b919050565b6000919050565b600060019050919050565b600073ffffffffffffffffffffffffffffffffffffffff168273ffffffffffffffffffffffffffffffffffffffff16036125d95760006040517fec442f050000000000000000000000000000000000000000000000000000000081526004016125d091906133a3565b60405180910390fd5b6125e5600083836127c0565b5050565b600073ffffffffffffffffffffffffffffffffffffffff168473ffffffffffffffffffffffffffffffffffffffff160361265b5760006040517fe602df0500000000000000000000000000000000000000000000000000000000815260040161265291906133a3565b60405180910390fd5b600073ffffffffffffffffffffffffffffffffffffffff168373ffffffffffffffffffffffffffffffffffffffff16036126cd5760006040517f94280d620000000000000000000000000000000000000000000000000000000081526004016126c491906133a3565b60405180910390fd5b81600160008673ffffffffffffffffffffffffffffffffffffffff1673ffffffffffffffffffffffffffffffffffffffff16815260200190815260200160002060008573ffffffffffffffffffffffffffffffffffffffff1673ffffffffffffffffffffffffffffffffffffffff1681526020019081526020016000208190555080156127ba578273ffffffffffffffffffffffffffffffffffffffff168473ffffffffffffffffffffffffffffffffffffffff167f8c5be1e5ebec7d5bd14f71427d1e84f3dd0314c0f7b2291e5b200ac8c7c3b925846040516127b19190612a87565b60405180910390a35b50505050565b600073ffffffffffffffffffffffffffffffffffffffff168373ffffffffffffffffffffffffffffffffffffffff16036128125780600260008282546128069190613157565b925050819055506128e5565b60008060008573ffffffffffffffffffffffffffffffffffffffff1673ffffffffffffffffffffffffffffffffffffffff1681526020019081526020016000205490508181101561289e578381836040517fe450d38c00000000000000000000000000000000000000000000000000000000815260040161289593929190613741565b60405180910390fd5b8181036000808673ffffffffffffffffffffffffffffffffffffffff1673ffffffffffffffffffffffffffffffffffffffff16815260200190815260200160002081905550505b600073ffffffffffffffffffffffffffffffffffffffff168273ffffffffffffffffffffffffffffffffffffffff160361292e578060026000828254039250508190555061297b565b806000808473ffffffffffffffffffffffffffffffffffffffff1673ffffffffffffffffffffffffffffffffffffffff168152602001908152602001600020600082825401925050819055505b8173ffffffffffffffffffffffffffffffffffffffff168373ffffffffffffffffffffffffffffffffffffffff167fddf252ad1be2c89b69c2b068fc378daa952ba7f163c4a11628f55a4df523b3ef836040516129d89190612a87565b60405180910390a3505050565b600080fd5b600080fd5b6000819050919050565b612a02816129ef565b8114612a0d57600080fd5b50565b600081359050612a1f816129f9565b92915050565b600080600060608486031215612a3e57612a3d6129e5565b5b6000612a4c86828701612a10565b9350506020612a5d86828701612a10565b9250506040612a6e86828701612a10565b9150509250925092565b612a81816129ef565b82525050565b6000602082019050612a9c6000830184612a78565b92915050565b600081519050919050565b600082825260208201905092915050565b60005b83811015612adc578082015181840152602081019050612ac1565b60008484015250505050565b6000601f19601f8301169050919050565b6000612b0482612aa2565b612b0e8185612aad565b9350612b1e818560208601612abe565b612b2781612ae8565b840191505092915050565b60006020820190508181036000830152612b4c8184612af9565b905092915050565b600073ffffffffffffffffffffffffffffffffffffffff82169050919050565b6000612b7f82612b54565b9050919050565b612b8f81612b74565b8114612b9a57600080fd5b50565b600081359050612bac81612b86565b92915050565b60008060408385031215612bc957612bc86129e5565b5b6000612bd785828601612b9d565b9250506020612be885828601612a10565b9150509250929050565b60008115159050919050565b612c0781612bf2565b82525050565b6000602082019050612c226000830184612bfe565b92915050565b6000819050919050565b6000612c4d612c48612c4384612b54565b612c28565b612b54565b9050919050565b6000612c5f82612c32565b9050919050565b6000612c7182612c54565b9050919050565b612c8181612c66565b82525050565b6000602082019050612c9c6000830184612c78565b92915050565b600080600060608486031215612cbb57612cba6129e5565b5b6000612cc986828701612b9d565b9350506020612cda86828701612b9d565b9250506040612ceb86828701612a10565b9150509250925092565b600060ff82169050919050565b612d0b81612cf5565b82525050565b6000602082019050612d266000830184612d02565b92915050565b600080fd5b600080fd5b600080fd5b60008083601f840112612d5157612d50612d2c565b5b8235905067ffffffffffffffff811115612d6e57612d6d612d31565b5b602083019150836020820283011115612d8a57612d89612d36565b5b9250929050565b60008060008060008060a08789031215612dae57612dad6129e5565b5b6000612dbc89828a01612a10565b9650506020612dcd89828a01612a10565b955050604087013567ffffffffffffffff811115612dee57612ded6129ea565b5b612dfa89828a01612d3b565b94509450506060612e0d89828a01612b9d565b9250506080612e1e89828a01612a10565b9150509295509295509295565b600060208284031215612e4157612e406129e5565b5b6000612e4f84828501612b9d565b91505092915050565b600080600080600080600060e0888a031215612e7757612e766129e5565b5b6000612e858a828b01612b9d565b9750506020612e968a828b01612b9d565b9650506040612ea78a828b01612a10565b9550506060612eb88a828b01612a10565b9450506080612ec98a828b01612a10565b93505060a0612eda8a828b01612b9d565b92505060c0612eeb8a828b01612a10565b91505092959891949750929550565b6000604082019050612f0f6000830185612a78565b612f1c6020830184612a78565b9392505050565b60008060408385031215612f3a57612f396129e5565b5b6000612f4885828601612b9d565b9250506020612f5985828601612b9d565b9150509250929050565b600080600080600080600080610100898b031215612f8457612f836129e5565b5b6000612f928b828c01612b9d565b9850506020612fa38b828c01612b9d565b9750506040612fb48b828c01612a10565b9650506060612fc58b828c01612a10565b9550506080612fd68b828c01612a10565b94505060a0612fe78b828c01612a10565b93505060c0612ff88b828c01612b9d565b92505060e06130098b828c01612a10565b9150509295985092959890939650565b600060608201905061302e6000830186612a78565b61303b6020830185612a78565b6130486040830184612a78565b949350505050565b7f5a65726f20696e70757400000000000000000000000000000000000000000000600082015250565b6000613086600a83612aad565b915061309182613050565b602082019050919050565b600060208201905081810360008301526130b581613079565b9050919050565b7f4e6f206c69717569646974790000000000000000000000000000000000000000600082015250565b60006130f2600c83612aad565b91506130fd826130bc565b602082019050919050565b60006020820190508181036000830152613121816130e5565b9050919050565b7f4e487b7100000000000000000000000000000000000000000000000000000000600052601160045260246000fd5b6000613162826129ef565b915061316d836129ef565b925082820190508082111561318557613184613128565b5b92915050565b6000613196826129ef565b91506131a1836129ef565b92508282026131af816129ef565b915082820484148315176131c6576131c5613128565b5b5092915050565b7f4e487b7100000000000000000000000000000000000000000000000000000000600052601260045260246000fd5b6000613207826129ef565b9150613212836129ef565b925082613222576132216131cd565b5b828204905092915050565b7f4e487b7100000000000000000000000000000000000000000000000000000000600052602260045260246000fd5b6000600282049050600182168061327457607f821691505b6020821081036132875761328661322d565b5b50919050565b7f4578706972656400000000000000000000000000000000000000000000000000600082015250565b60006132c3600783612aad565b91506132ce8261328d565b602082019050919050565b600060208201905081810360008301526132f2816132b6565b9050919050565b7f496e76616c696420706174680000000000000000000000000000000000000000600082015250565b600061332f600c83612aad565b915061333a826132f9565b602082019050919050565b6000602082019050818103600083015261335e81613322565b9050919050565b7f4e487b7100000000000000000000000000000000000000000000000000000000600052603260045260246000fd5b61339d81612b74565b82525050565b60006020820190506133b86000830184613394565b92915050565b6000815190506133cd816129f9565b92915050565b6000602082840312156133e9576133e86129e5565b5b60006133f7848285016133be565b91505092915050565b7f4f757470757420746f6f206c6f77000000000000000000000000000000000000600082015250565b6000613436600e83612aad565b915061344182613400565b602082019050919050565b6000602082019050818103600083015261346581613429565b9050919050565b60006060820190506134816000830186613394565b61348e6020830185613394565b61349b6040830184612a78565b949350505050565b6134ac81612bf2565b81146134b757600080fd5b50565b6000815190506134c9816134a3565b92915050565b6000602082840312156134e5576134e46129e5565b5b60006134f3848285016134ba565b91505092915050565b60006040820190506135116000830185613394565b61351e6020830184612a78565b9392505050565b7f496e76616c696420746f6b656e73000000000000000000000000000000000000600082015250565b600061355b600e83612aad565b915061356682613525565b602082019050919050565b6000602082019050818103600083015261358a8161354e565b9050919050565b7f41206e6f74206d696e0000000000000000000000000000000000000000000000600082015250565b60006135c7600983612aad565b91506135d282613591565b602082019050919050565b600060208201905081810360008301526135f6816135ba565b9050919050565b7f42206e6f74206d696e0000000000000000000000000000000000000000000000600082015250565b6000613633600983612aad565b915061363e826135fd565b602082019050919050565b6000602082019050818103600083015261366281613626565b9050919050565b7f496e73756666696369656e742042000000000000000000000000000000000000600082015250565b600061369f600e83612aad565b91506136aa82613669565b602082019050919050565b600060208201905081810360008301526136ce81613692565b9050919050565b7f496e73756666696369656e742041000000000000000000000000000000000000600082015250565b600061370b600e83612aad565b9150613716826136d5565b602082019050919050565b6000602082019050818103600083015261373a816136fe565b9050919050565b60006060820190506137566000830186613394565b6137636020830185612a78565b6137706040830184612a78565b94935050505056fea26469706673582212209f2c972d58cd346839ca03b7d4ad95c3e8765b886e56a004f8ba3e60deef58bb64736f6c634300081c0033","opcodes":"PUSH1 0xC0 PUSH1 0x40 MSTORE CALLVALUE DUP1 ISZERO PUSH2 0x10 JUMPI PUSH1 0x0 DUP1 REVERT JUMPDEST POP PUSH1 0x40 MLOAD PUSH2 0x3EB1 CODESIZE SUB DUP1 PUSH2 0x3EB1 DUP4 CODECOPY DUP2 DUP2 ADD PUSH1 0x40 MSTORE DUP2 ADD SWAP1 PUSH2 0x32 SWAP2 SWAP1 PUSH2 0x2B9 JUMP JUMPDEST PUSH1 0x40 MLOAD DUP1 PUSH1 0x40 ADD PUSH1 0x40 MSTORE DUP1 PUSH1 0x10 DUP2 MSTORE PUSH1 0x20 ADD PUSH32 0x53696D706C655377617020546F6B656E00000000000000000000000000000000 DUP2 MSTORE POP PUSH1 0x40 MLOAD DUP1 PUSH1 0x40 ADD PUSH1 0x40 MSTORE DUP1 PUSH1 0x3 DUP2 MSTORE PUSH1 0x20 ADD PUSH32 0x5353540000000000000000000000000000000000000000000000000000000000 DUP2 MSTORE POP DUP2 PUSH1 0x3 SWAP1 DUP2 PUSH2 0xAD SWAP2 SWAP1 PUSH2 0x549 JUMP JUMPDEST POP DUP1 PUSH1 0x4 SWAP1 DUP2 PUSH2 0xBD SWAP2 SWAP1 PUSH2 0x549 JUMP JUMPDEST POP POP POP PUSH2 0xDA PUSH8 0x392B123677D74B16 PUSH1 0xC0 SHL PUSH2 0x253 PUSH1 0x20 SHL PUSH1 0x20 SHR JUMP JUMPDEST PUSH2 0xF4 PUSH8 0x1187DCB6F27D0A96 PUSH1 0xC0 SHL PUSH2 0x253 PUSH1 0x20 SHL PUSH1 0x20 SHR JUMP JUMPDEST PUSH2 0x10E PUSH8 0xB409993FCDD8A9FE PUSH1 0xC0 SHL PUSH2 0x253 PUSH1 0x20 SHL PUSH1 0x20 SHR JUMP JUMPDEST PUSH2 0x128 PUSH8 0xDE4C0339EA0BFA94 PUSH1 0xC0 SHL PUSH2 0x253 PUSH1 0x20 SHL PUSH1 0x20 SHR JUMP JUMPDEST DUP1 PUSH20 0xFFFFFFFFFFFFFFFFFFFFFFFFFFFFFFFFFFFFFFFF AND DUP3 PUSH20 0xFFFFFFFFFFFFFFFFFFFFFFFFFFFFFFFFFFFFFFFF AND SUB PUSH2 0x196 JUMPI PUSH1 0x40 MLOAD PUSH32 0x8C379A000000000000000000000000000000000000000000000000000000000 DUP2 MSTORE PUSH1 0x4 ADD PUSH2 0x18D SWAP1 PUSH2 0x678 JUMP JUMPDEST PUSH1 0x40 MLOAD DUP1 SWAP2 SUB SWAP1 REVERT JUMPDEST PUSH2 0x1B0 PUSH8 0x481AF8B80D9D471 PUSH1 0xC0 SHL PUSH2 0x253 PUSH1 0x20 SHL PUSH1 0x20 SHR JUMP JUMPDEST PUSH2 0x1CA PUSH8 0x68C7EFD07797B420 PUSH1 0xC0 SHL PUSH2 0x253 PUSH1 0x20 SHL PUSH1 0x20 SHR JUMP JUMPDEST DUP2 PUSH20 0xFFFFFFFFFFFFFFFFFFFFFFFFFFFFFFFFFFFFFFFF AND PUSH1 0x80 DUP2 PUSH20 0xFFFFFFFFFFFFFFFFFFFFFFFFFFFFFFFFFFFFFFFF AND DUP2 MSTORE POP POP PUSH2 0x218 PUSH8 0xB771CD85DC7BE623 PUSH1 0xC0 SHL PUSH2 0x253 PUSH1 0x20 SHL PUSH1 0x20 SHR JUMP JUMPDEST DUP1 PUSH20 0xFFFFFFFFFFFFFFFFFFFFFFFFFFFFFFFFFFFFFFFF AND PUSH1 0xA0 DUP2 PUSH20 0xFFFFFFFFFFFFFFFFFFFFFFFFFFFFFFFFFFFFFFFF AND DUP2 MSTORE POP POP POP POP PUSH2 0x698 JUMP JUMPDEST POP JUMP JUMPDEST PUSH1 0x0 DUP1 REVERT JUMPDEST PUSH1 0x0 PUSH20 0xFFFFFFFFFFFFFFFFFFFFFFFFFFFFFFFFFFFFFFFF DUP3 AND SWAP1 POP SWAP2 SWAP1 POP JUMP JUMPDEST PUSH1 0x0 PUSH2 0x286 DUP3 PUSH2 0x25B JUMP JUMPDEST SWAP1 POP SWAP2 SWAP1 POP JUMP JUMPDEST PUSH2 0x296 DUP2 PUSH2 0x27B JUMP JUMPDEST DUP2 EQ PUSH2 0x2A1 JUMPI PUSH1 0x0 DUP1 REVERT JUMPDEST POP JUMP JUMPDEST PUSH1 0x0 DUP2 MLOAD SWAP1 POP PUSH2 0x2B3 DUP2 PUSH2 0x28D JUMP JUMPDEST SWAP3 SWAP2 POP POP JUMP JUMPDEST PUSH1 0x0 DUP1 PUSH1 0x40 DUP4 DUP6 SUB SLT ISZERO PUSH2 0x2D0 JUMPI PUSH2 0x2CF PUSH2 0x256 JUMP JUMPDEST JUMPDEST PUSH1 0x0 PUSH2 0x2DE DUP6 DUP3 DUP7 ADD PUSH2 0x2A4 JUMP JUMPDEST SWAP3 POP POP PUSH1 0x20 PUSH2 0x2EF DUP6 DUP3 DUP7 ADD PUSH2 0x2A4 JUMP JUMPDEST SWAP2 POP POP SWAP3 POP SWAP3 SWAP1 POP JUMP JUMPDEST PUSH1 0x0 DUP2 MLOAD SWAP1 POP SWAP2 SWAP1 POP JUMP JUMPDEST PUSH32 0x4E487B7100000000000000000000000000000000000000000000000000000000 PUSH1 0x0 MSTORE PUSH1 0x41 PUSH1 0x4 MSTORE PUSH1 0x24 PUSH1 0x0 REVERT JUMPDEST PUSH32 0x4E487B7100000000000000000000000000000000000000000000000000000000 PUSH1 0x0 MSTORE PUSH1 0x22 PUSH1 0x4 MSTORE PUSH1 0x24 PUSH1 0x0 REVERT JUMPDEST PUSH1 0x0 PUSH1 0x2 DUP3 DIV SWAP1 POP PUSH1 0x1 DUP3 AND DUP1 PUSH2 0x37A JUMPI PUSH1 0x7F DUP3 AND SWAP2 POP JUMPDEST PUSH1 0x20 DUP3 LT DUP2 SUB PUSH2 0x38D JUMPI PUSH2 0x38C PUSH2 0x333 JUMP JUMPDEST JUMPDEST POP SWAP2 SWAP1 POP JUMP JUMPDEST PUSH1 0x0 DUP2 SWAP1 POP DUP2 PUSH1 0x0 MSTORE PUSH1 0x20 PUSH1 0x0 KECCAK256 SWAP1 POP SWAP2 SWAP1 POP JUMP JUMPDEST PUSH1 0x0 PUSH1 0x20 PUSH1 0x1F DUP4 ADD DIV SWAP1 POP SWAP2 SWAP1 POP JUMP JUMPDEST PUSH1 0x0 DUP3 DUP3 SHL SWAP1 POP SWAP3 SWAP2 POP POP JUMP JUMPDEST PUSH1 0x0 PUSH1 0x8 DUP4 MUL PUSH2 0x3F5 PUSH32 0xFFFFFFFFFFFFFFFFFFFFFFFFFFFFFFFFFFFFFFFFFFFFFFFFFFFFFFFFFFFFFFFF DUP3 PUSH2 0x3B8 JUMP JUMPDEST PUSH2 0x3FF DUP7 DUP4 PUSH2 0x3B8 JUMP JUMPDEST SWAP6 POP DUP1 NOT DUP5 AND SWAP4 POP DUP1 DUP7 AND DUP5 OR SWAP3 POP POP POP SWAP4 SWAP3 POP POP POP JUMP JUMPDEST PUSH1 0x0 DUP2 SWAP1 POP SWAP2 SWAP1 POP JUMP JUMPDEST PUSH1 0x0 DUP2 SWAP1 POP SWAP2 SWAP1 POP JUMP JUMPDEST PUSH1 0x0 PUSH2 0x446 PUSH2 0x441 PUSH2 0x43C DUP5 PUSH2 0x417 JUMP JUMPDEST PUSH2 0x421 JUMP JUMPDEST PUSH2 0x417 JUMP JUMPDEST SWAP1 POP SWAP2 SWAP1 POP JUMP JUMPDEST PUSH1 0x0 DUP2 SWAP1 POP SWAP2 SWAP1 POP JUMP JUMPDEST PUSH2 0x460 DUP4 PUSH2 0x42B JUMP JUMPDEST PUSH2 0x474 PUSH2 0x46C DUP3 PUSH2 0x44D JUMP JUMPDEST DUP5 DUP5 SLOAD PUSH2 0x3C5 JUMP JUMPDEST DUP3 SSTORE POP POP POP POP JUMP JUMPDEST PUSH1 0x0 SWAP1 JUMP JUMPDEST PUSH2 0x489 PUSH2 0x47C JUMP JUMPDEST PUSH2 0x494 DUP2 DUP5 DUP5 PUSH2 0x457 JUMP JUMPDEST POP POP POP JUMP JUMPDEST JUMPDEST DUP2 DUP2 LT ISZERO PUSH2 0x4B8 JUMPI PUSH2 0x4AD PUSH1 0x0 DUP3 PUSH2 0x481 JUMP JUMPDEST PUSH1 0x1 DUP2 ADD SWAP1 POP PUSH2 0x49A JUMP JUMPDEST POP POP JUMP JUMPDEST PUSH1 0x1F DUP3 GT ISZERO PUSH2 0x4FD JUMPI PUSH2 0x4CE DUP2 PUSH2 0x393 JUMP JUMPDEST PUSH2 0x4D7 DUP5 PUSH2 0x3A8 JUMP JUMPDEST DUP2 ADD PUSH1 0x20 DUP6 LT ISZERO PUSH2 0x4E6 JUMPI DUP2 SWAP1 POP JUMPDEST PUSH2 0x4FA PUSH2 0x4F2 DUP6 PUSH2 0x3A8 JUMP JUMPDEST DUP4 ADD DUP3 PUSH2 0x499 JUMP JUMPDEST POP POP JUMPDEST POP POP POP JUMP JUMPDEST PUSH1 0x0 DUP3 DUP3 SHR SWAP1 POP SWAP3 SWAP2 POP POP JUMP JUMPDEST PUSH1 0x0 PUSH2 0x520 PUSH1 0x0 NOT DUP5 PUSH1 0x8 MUL PUSH2 0x502 JUMP JUMPDEST NOT DUP1 DUP4 AND SWAP2 POP POP SWAP3 SWAP2 POP POP JUMP JUMPDEST PUSH1 0x0 PUSH2 0x539 DUP4 DUP4 PUSH2 0x50F JUMP JUMPDEST SWAP2 POP DUP3 PUSH1 0x2 MUL DUP3 OR SWAP1 POP SWAP3 SWAP2 POP POP JUMP JUMPDEST PUSH2 0x552 DUP3 PUSH2 0x2F9 JUMP JUMPDEST PUSH8 0xFFFFFFFFFFFFFFFF DUP2 GT ISZERO PUSH2 0x56B JUMPI PUSH2 0x56A PUSH2 0x304 JUMP JUMPDEST JUMPDEST PUSH2 0x575 DUP3 SLOAD PUSH2 0x362 JUMP JUMPDEST PUSH2 0x580 DUP3 DUP3 DUP6 PUSH2 0x4BC JUMP JUMPDEST PUSH1 0x0 PUSH1 0x20 SWAP1 POP PUSH1 0x1F DUP4 GT PUSH1 0x1 DUP2 EQ PUSH2 0x5B3 JUMPI PUSH1 0x0 DUP5 ISZERO PUSH2 0x5A1 JUMPI DUP3 DUP8 ADD MLOAD SWAP1 POP JUMPDEST PUSH2 0x5AB DUP6 DUP3 PUSH2 0x52D JUMP JUMPDEST DUP7 SSTORE POP PUSH2 0x613 JUMP JUMPDEST PUSH1 0x1F NOT DUP5 AND PUSH2 0x5C1 DUP7 PUSH2 0x393 JUMP JUMPDEST PUSH1 0x0 JUMPDEST DUP3 DUP2 LT ISZERO PUSH2 0x5E9 JUMPI DUP5 DUP10 ADD MLOAD DUP3 SSTORE PUSH1 0x1 DUP3 ADD SWAP2 POP PUSH1 0x20 DUP6 ADD SWAP5 POP PUSH1 0x20 DUP2 ADD SWAP1 POP PUSH2 0x5C4 JUMP JUMPDEST DUP7 DUP4 LT ISZERO PUSH2 0x606 JUMPI DUP5 DUP10 ADD MLOAD PUSH2 0x602 PUSH1 0x1F DUP10 AND DUP3 PUSH2 0x50F JUMP JUMPDEST DUP4 SSTORE POP JUMPDEST PUSH1 0x1 PUSH1 0x2 DUP9 MUL ADD DUP9 SSTORE POP POP POP JUMPDEST POP POP POP POP POP POP JUMP JUMPDEST PUSH1 0x0 DUP3 DUP3 MSTORE PUSH1 0x20 DUP3 ADD SWAP1 POP SWAP3 SWAP2 POP POP JUMP JUMPDEST PUSH32 0x4964656E746963616C20746F6B656E7300000000000000000000000000000000 PUSH1 0x0 DUP3 ADD MSTORE POP JUMP JUMPDEST PUSH1 0x0 PUSH2 0x662 PUSH1 0x10 DUP4 PUSH2 0x61B JUMP JUMPDEST SWAP2 POP PUSH2 0x66D DUP3 PUSH2 0x62C JUMP JUMPDEST PUSH1 0x20 DUP3 ADD SWAP1 POP SWAP2 SWAP1 POP JUMP JUMPDEST PUSH1 0x0 PUSH1 0x20 DUP3 ADD SWAP1 POP DUP2 DUP2 SUB PUSH1 0x0 DUP4 ADD MSTORE PUSH2 0x691 DUP2 PUSH2 0x655 JUMP JUMPDEST SWAP1 POP SWAP2 SWAP1 POP JUMP JUMPDEST PUSH1 0x80 MLOAD PUSH1 0xA0 MLOAD PUSH2 0x37AE PUSH2 0x703 PUSH1 0x0 CODECOPY PUSH1 0x0 DUP2 DUP2 PUSH2 0xBA2 ADD MSTORE DUP2 DUP2 PUSH2 0xDD2 ADD MSTORE DUP2 DUP2 PUSH2 0xFF9 ADD MSTORE DUP2 DUP2 PUSH2 0x1795 ADD MSTORE DUP2 DUP2 PUSH2 0x1A1C ADD MSTORE PUSH2 0x201A ADD MSTORE PUSH1 0x0 DUP2 DUP2 PUSH2 0x5B4 ADD MSTORE DUP2 DUP2 PUSH2 0xD0C ADD MSTORE DUP2 DUP2 PUSH2 0xFAC ADD MSTORE DUP2 DUP2 PUSH2 0x173F ADD MSTORE DUP2 DUP2 PUSH2 0x1956 ADD MSTORE PUSH2 0x1F51 ADD MSTORE PUSH2 0x37AE PUSH1 0x0 RETURN INVALID PUSH1 0x80 PUSH1 0x40 MSTORE CALLVALUE DUP1 ISZERO PUSH2 0x10 JUMPI PUSH1 0x0 DUP1 REVERT JUMPDEST POP PUSH1 0x4 CALLDATASIZE LT PUSH2 0x100 JUMPI PUSH1 0x0 CALLDATALOAD PUSH1 0xE0 SHR DUP1 PUSH4 0x5F64B55B GT PUSH2 0x97 JUMPI DUP1 PUSH4 0xA9059CBB GT PUSH2 0x66 JUMPI DUP1 PUSH4 0xA9059CBB EQ PUSH2 0x2B3 JUMPI DUP1 PUSH4 0xBAA2ABDE EQ PUSH2 0x2E3 JUMPI DUP1 PUSH4 0xDD62ED3E EQ PUSH2 0x314 JUMPI DUP1 PUSH4 0xE8E33700 EQ PUSH2 0x344 JUMPI PUSH2 0x100 JUMP JUMPDEST DUP1 PUSH4 0x5F64B55B EQ PUSH2 0x229 JUMPI DUP1 PUSH4 0x70A08231 EQ PUSH2 0x247 JUMPI DUP1 PUSH4 0x95D89B41 EQ PUSH2 0x277 JUMPI DUP1 PUSH4 0x98D5FDCA EQ PUSH2 0x295 JUMPI PUSH2 0x100 JUMP JUMPDEST DUP1 PUSH4 0x18160DDD GT PUSH2 0xD3 JUMPI DUP1 PUSH4 0x18160DDD EQ PUSH2 0x1A1 JUMPI DUP1 PUSH4 0x23B872DD EQ PUSH2 0x1BF JUMPI DUP1 PUSH4 0x313CE567 EQ PUSH2 0x1EF JUMPI DUP1 PUSH4 0x38ED1739 EQ PUSH2 0x20D JUMPI PUSH2 0x100 JUMP JUMPDEST DUP1 PUSH4 0x54D50D4 EQ PUSH2 0x105 JUMPI DUP1 PUSH4 0x6FDDE03 EQ PUSH2 0x135 JUMPI DUP1 PUSH4 0x95EA7B3 EQ PUSH2 0x153 JUMPI DUP1 PUSH4 0xFC63D10 EQ PUSH2 0x183 JUMPI JUMPDEST PUSH1 0x0 DUP1 REVERT JUMPDEST PUSH2 0x11F PUSH1 0x4 DUP1 CALLDATASIZE SUB DUP2 ADD SWAP1 PUSH2 0x11A SWAP2 SWAP1 PUSH2 0x2A25 JUMP JUMPDEST PUSH2 0x376 JUMP JUMPDEST PUSH1 0x40 MLOAD PUSH2 0x12C SWAP2 SWAP1 PUSH2 0x2A87 JUMP JUMPDEST PUSH1 0x40 MLOAD DUP1 SWAP2 SUB SWAP1 RETURN JUMPDEST PUSH2 0x13D PUSH2 0x4FD JUMP JUMPDEST PUSH1 0x40 MLOAD PUSH2 0x14A SWAP2 SWAP1 PUSH2 0x2B32 JUMP JUMPDEST PUSH1 0x40 MLOAD DUP1 SWAP2 SUB SWAP1 RETURN JUMPDEST PUSH2 0x16D PUSH1 0x4 DUP1 CALLDATASIZE SUB DUP2 ADD SWAP1 PUSH2 0x168 SWAP2 SWAP1 PUSH2 0x2BB2 JUMP JUMPDEST PUSH2 0x58F JUMP JUMPDEST PUSH1 0x40 MLOAD PUSH2 0x17A SWAP2 SWAP1 PUSH2 0x2C0D JUMP JUMPDEST PUSH1 0x40 MLOAD DUP1 SWAP2 SUB SWAP1 RETURN JUMPDEST PUSH2 0x18B PUSH2 0x5B2 JUMP JUMPDEST PUSH1 0x40 MLOAD PUSH2 0x198 SWAP2 SWAP1 PUSH2 0x2C87 JUMP JUMPDEST PUSH1 0x40 MLOAD DUP1 SWAP2 SUB SWAP1 RETURN JUMPDEST PUSH2 0x1A9 PUSH2 0x5D6 JUMP JUMPDEST PUSH1 0x40 MLOAD PUSH2 0x1B6 SWAP2 SWAP1 PUSH2 0x2A87 JUMP JUMPDEST PUSH1 0x40 MLOAD DUP1 SWAP2 SUB SWAP1 RETURN JUMPDEST PUSH2 0x1D9 PUSH1 0x4 DUP1 CALLDATASIZE SUB DUP2 ADD SWAP1 PUSH2 0x1D4 SWAP2 SWAP1 PUSH2 0x2CA2 JUMP JUMPDEST PUSH2 0x5E0 JUMP JUMPDEST PUSH1 0x40 MLOAD PUSH2 0x1E6 SWAP2 SWAP1 PUSH2 0x2C0D JUMP JUMPDEST PUSH1 0x40 MLOAD DUP1 SWAP2 SUB SWAP1 RETURN JUMPDEST PUSH2 0x1F7 PUSH2 0x60F JUMP JUMPDEST PUSH1 0x40 MLOAD PUSH2 0x204 SWAP2 SWAP1 PUSH2 0x2D11 JUMP JUMPDEST PUSH1 0x40 MLOAD DUP1 SWAP2 SUB SWAP1 RETURN JUMPDEST PUSH2 0x227 PUSH1 0x4 DUP1 CALLDATASIZE SUB DUP2 ADD SWAP1 PUSH2 0x222 SWAP2 SWAP1 PUSH2 0x2D91 JUMP JUMPDEST PUSH2 0x618 JUMP JUMPDEST STOP JUMPDEST PUSH2 0x231 PUSH2 0xBA0 JUMP JUMPDEST PUSH1 0x40 MLOAD PUSH2 0x23E SWAP2 SWAP1 PUSH2 0x2C87 JUMP JUMPDEST PUSH1 0x40 MLOAD DUP1 SWAP2 SUB SWAP1 RETURN JUMPDEST PUSH2 0x261 PUSH1 0x4 DUP1 CALLDATASIZE SUB DUP2 ADD SWAP1 PUSH2 0x25C SWAP2 SWAP1 PUSH2 0x2E2B JUMP JUMPDEST PUSH2 0xBC4 JUMP JUMPDEST PUSH1 0x40 MLOAD PUSH2 0x26E SWAP2 SWAP1 PUSH2 0x2A87 JUMP JUMPDEST PUSH1 0x40 MLOAD DUP1 SWAP2 SUB SWAP1 RETURN JUMPDEST PUSH2 0x27F PUSH2 0xC0C JUMP JUMPDEST PUSH1 0x40 MLOAD PUSH2 0x28C SWAP2 SWAP1 PUSH2 0x2B32 JUMP JUMPDEST PUSH1 0x40 MLOAD DUP1 SWAP2 SUB SWAP1 RETURN JUMPDEST PUSH2 0x29D PUSH2 0xC9E JUMP JUMPDEST PUSH1 0x40 MLOAD PUSH2 0x2AA SWAP2 SWAP1 PUSH2 0x2A87 JUMP JUMPDEST PUSH1 0x40 MLOAD DUP1 SWAP2 SUB SWAP1 RETURN JUMPDEST PUSH2 0x2CD PUSH1 0x4 DUP1 CALLDATASIZE SUB DUP2 ADD SWAP1 PUSH2 0x2C8 SWAP2 SWAP1 PUSH2 0x2BB2 JUMP JUMPDEST PUSH2 0xF46 JUMP JUMPDEST PUSH1 0x40 MLOAD PUSH2 0x2DA SWAP2 SWAP1 PUSH2 0x2C0D JUMP JUMPDEST PUSH1 0x40 MLOAD DUP1 SWAP2 SUB SWAP1 RETURN JUMPDEST PUSH2 0x2FD PUSH1 0x4 DUP1 CALLDATASIZE SUB DUP2 ADD SWAP1 PUSH2 0x2F8 SWAP2 SWAP1 PUSH2 0x2E58 JUMP JUMPDEST PUSH2 0xF69 JUMP JUMPDEST PUSH1 0x40 MLOAD PUSH2 0x30B SWAP3 SWAP2 SWAP1 PUSH2 0x2EFA JUMP JUMPDEST PUSH1 0x40 MLOAD DUP1 SWAP2 SUB SWAP1 RETURN JUMPDEST PUSH2 0x32E PUSH1 0x4 DUP1 CALLDATASIZE SUB DUP2 ADD SWAP1 PUSH2 0x329 SWAP2 SWAP1 PUSH2 0x2F23 JUMP JUMPDEST PUSH2 0x1661 JUMP JUMPDEST PUSH1 0x40 MLOAD PUSH2 0x33B SWAP2 SWAP1 PUSH2 0x2A87 JUMP JUMPDEST PUSH1 0x40 MLOAD DUP1 SWAP2 SUB SWAP1 RETURN JUMPDEST PUSH2 0x35E PUSH1 0x4 DUP1 CALLDATASIZE SUB DUP2 ADD SWAP1 PUSH2 0x359 SWAP2 SWAP1 PUSH2 0x2F63 JUMP JUMPDEST PUSH2 0x16E8 JUMP JUMPDEST PUSH1 0x40 MLOAD PUSH2 0x36D SWAP4 SWAP3 SWAP2 SWAP1 PUSH2 0x3019 JUMP JUMPDEST PUSH1 0x40 MLOAD DUP1 SWAP2 SUB SWAP1 RETURN JUMPDEST PUSH1 0x0 PUSH2 0x38C PUSH8 0xAC6953C50E6E930F PUSH1 0xC0 SHL PUSH2 0x216E JUMP JUMPDEST PUSH2 0x3A0 PUSH8 0xCDCF1C0ABC6F2E94 PUSH1 0xC0 SHL PUSH2 0x216E JUMP JUMPDEST PUSH2 0x3B4 PUSH8 0x5885F3238578314B PUSH1 0xC0 SHL PUSH2 0x216E JUMP JUMPDEST PUSH2 0x3C8 PUSH8 0x8EEDB3E73B7DE9E2 PUSH1 0xC0 SHL PUSH2 0x216E JUMP JUMPDEST PUSH1 0x0 DUP5 GT PUSH2 0x40B JUMPI PUSH1 0x40 MLOAD PUSH32 0x8C379A000000000000000000000000000000000000000000000000000000000 DUP2 MSTORE PUSH1 0x4 ADD PUSH2 0x402 SWAP1 PUSH2 0x309C JUMP JUMPDEST PUSH1 0x40 MLOAD DUP1 SWAP2 SUB SWAP1 REVERT JUMPDEST PUSH2 0x41F PUSH8 0xA0983FA99DB5D7C7 PUSH1 0xC0 SHL PUSH2 0x216E JUMP JUMPDEST PUSH2 0x433 PUSH8 0xA9C3811060FB3E6E PUSH1 0xC0 SHL PUSH2 0x216E JUMP JUMPDEST PUSH2 0x447 PUSH8 0x1D49C8FFFB1D0297 PUSH1 0xC0 SHL PUSH2 0x216E JUMP JUMPDEST PUSH2 0x45B PUSH8 0x379F1EB63CED9A75 PUSH1 0xC0 SHL PUSH2 0x216E JUMP JUMPDEST PUSH1 0x0 DUP4 GT DUP1 ISZERO PUSH2 0x46B JUMPI POP PUSH1 0x0 DUP3 GT JUMPDEST PUSH2 0x4AA JUMPI PUSH1 0x40 MLOAD PUSH32 0x8C379A000000000000000000000000000000000000000000000000000000000 DUP2 MSTORE PUSH1 0x4 ADD PUSH2 0x4A1 SWAP1 PUSH2 0x3108 JUMP JUMPDEST PUSH1 0x40 MLOAD DUP1 SWAP2 SUB SWAP1 REVERT JUMPDEST PUSH2 0x4BE PUSH8 0x9AF7344964FD4C3 PUSH1 0xC0 SHL PUSH2 0x216E JUMP JUMPDEST PUSH2 0x4D2 PUSH8 0xE087C80E2195A402 PUSH1 0xC0 SHL PUSH2 0x216E JUMP JUMPDEST DUP3 DUP5 PUSH2 0x4DE SWAP2 SWAP1 PUSH2 0x3157 JUMP JUMPDEST DUP3 DUP6 PUSH2 0x4EA SWAP2 SWAP1 PUSH2 0x318B JUMP JUMPDEST PUSH2 0x4F4 SWAP2 SWAP1 PUSH2 0x31FC JUMP JUMPDEST SWAP1 POP SWAP4 SWAP3 POP POP POP JUMP JUMPDEST PUSH1 0x60 PUSH1 0x3 DUP1 SLOAD PUSH2 0x50C SWAP1 PUSH2 0x325C JUMP JUMPDEST DUP1 PUSH1 0x1F ADD PUSH1 0x20 DUP1 SWAP2 DIV MUL PUSH1 0x20 ADD PUSH1 0x40 MLOAD SWAP1 DUP2 ADD PUSH1 0x40 MSTORE DUP1 SWAP3 SWAP2 SWAP1 DUP2 DUP2 MSTORE PUSH1 0x20 ADD DUP3 DUP1 SLOAD PUSH2 0x538 SWAP1 PUSH2 0x325C JUMP JUMPDEST DUP1 ISZERO PUSH2 0x585 JUMPI DUP1 PUSH1 0x1F LT PUSH2 0x55A JUMPI PUSH2 0x100 DUP1 DUP4 SLOAD DIV MUL DUP4 MSTORE SWAP2 PUSH1 0x20 ADD SWAP2 PUSH2 0x585 JUMP JUMPDEST DUP3 ADD SWAP2 SWAP1 PUSH1 0x0 MSTORE PUSH1 0x20 PUSH1 0x0 KECCAK256 SWAP1 JUMPDEST DUP2 SLOAD DUP2 MSTORE SWAP1 PUSH1 0x1 ADD SWAP1 PUSH1 0x20 ADD DUP1 DUP4 GT PUSH2 0x568 JUMPI DUP3 SWAP1 SUB PUSH1 0x1F AND DUP3 ADD SWAP2 JUMPDEST POP POP POP POP POP SWAP1 POP SWAP1 JUMP JUMPDEST PUSH1 0x0 DUP1 PUSH2 0x59A PUSH2 0x2171 JUMP JUMPDEST SWAP1 POP PUSH2 0x5A7 DUP2 DUP6 DUP6 PUSH2 0x2179 JUMP JUMPDEST PUSH1 0x1 SWAP2 POP POP SWAP3 SWAP2 POP POP JUMP JUMPDEST PUSH32 0x0 DUP2 JUMP JUMPDEST PUSH1 0x0 PUSH1 0x2 SLOAD SWAP1 POP SWAP1 JUMP JUMPDEST PUSH1 0x0 DUP1 PUSH2 0x5EB PUSH2 0x2171 JUMP JUMPDEST SWAP1 POP PUSH2 0x5F8 DUP6 DUP3 DUP6 PUSH2 0x218B JUMP JUMPDEST PUSH2 0x603 DUP6 DUP6 DUP6 PUSH2 0x2220 JUMP JUMPDEST PUSH1 0x1 SWAP2 POP POP SWAP4 SWAP3 POP POP POP JUMP JUMPDEST PUSH1 0x0 PUSH1 0x12 SWAP1 POP SWAP1 JUMP JUMPDEST PUSH2 0x62C PUSH8 0xEFD7883D02733AB2 PUSH1 0xC0 SHL PUSH2 0x216E JUMP JUMPDEST PUSH2 0x640 PUSH8 0x78208AD466F78953 PUSH1 0xC0 SHL PUSH2 0x216E JUMP JUMPDEST PUSH2 0x654 PUSH8 0x6F33D433A5AD8EC7 PUSH1 0xC0 SHL PUSH2 0x216E JUMP JUMPDEST PUSH2 0x668 PUSH8 0xF55D09239ABC5A75 PUSH1 0xC0 SHL PUSH2 0x216E JUMP JUMPDEST DUP1 TIMESTAMP GT ISZERO PUSH2 0x6AB JUMPI PUSH1 0x40 MLOAD PUSH32 0x8C379A000000000000000000000000000000000000000000000000000000000 DUP2 MSTORE PUSH1 0x4 ADD PUSH2 0x6A2 SWAP1 PUSH2 0x32D9 JUMP JUMPDEST PUSH1 0x40 MLOAD DUP1 SWAP2 SUB SWAP1 REVERT JUMPDEST PUSH2 0x6BF PUSH8 0xB408D1D764F1831A PUSH1 0xC0 SHL PUSH2 0x216E JUMP JUMPDEST PUSH2 0x6D3 PUSH8 0x4F016C63C341F115 PUSH1 0xC0 SHL PUSH2 0x216E JUMP JUMPDEST PUSH2 0x6E7 PUSH8 0x96A0DD4F4A396D62 PUSH1 0xC0 SHL PUSH2 0x216E JUMP JUMPDEST PUSH2 0x6FB PUSH8 0xF8B6BFCE52C0C876 PUSH1 0xC0 SHL PUSH2 0x216E JUMP JUMPDEST PUSH1 0x2 DUP5 DUP5 SWAP1 POP EQ PUSH2 0x741 JUMPI PUSH1 0x40 MLOAD PUSH32 0x8C379A000000000000000000000000000000000000000000000000000000000 DUP2 MSTORE PUSH1 0x4 ADD PUSH2 0x738 SWAP1 PUSH2 0x3345 JUMP JUMPDEST PUSH1 0x40 MLOAD DUP1 SWAP2 SUB SWAP1 REVERT JUMPDEST PUSH2 0x755 PUSH8 0x4CAFCC66273C446 PUSH1 0xC0 SHL PUSH2 0x216E JUMP JUMPDEST PUSH2 0x769 PUSH8 0x68B70100173CA505 PUSH1 0xC0 SHL PUSH2 0x216E JUMP JUMPDEST PUSH2 0x77D PUSH8 0x93BEC06A4C519D2A PUSH1 0xC0 SHL PUSH2 0x216E JUMP JUMPDEST PUSH1 0x0 DUP5 DUP5 PUSH1 0x0 DUP2 DUP2 LT PUSH2 0x793 JUMPI PUSH2 0x792 PUSH2 0x3365 JUMP JUMPDEST JUMPDEST SWAP1 POP PUSH1 0x20 MUL ADD PUSH1 0x20 DUP2 ADD SWAP1 PUSH2 0x7A8 SWAP2 SWAP1 PUSH2 0x2E2B JUMP JUMPDEST SWAP1 POP PUSH2 0x7BE PUSH8 0x858F2A888F88B266 PUSH1 0xC0 SHL PUSH2 0x216E JUMP JUMPDEST PUSH2 0x7D2 PUSH8 0x257A1793216BE562 PUSH1 0xC0 SHL PUSH2 0x216E JUMP JUMPDEST PUSH1 0x0 DUP6 DUP6 PUSH1 0x1 DUP2 DUP2 LT PUSH2 0x7E8 JUMPI PUSH2 0x7E7 PUSH2 0x3365 JUMP JUMPDEST JUMPDEST SWAP1 POP PUSH1 0x20 MUL ADD PUSH1 0x20 DUP2 ADD SWAP1 PUSH2 0x7FD SWAP2 SWAP1 PUSH2 0x2E2B JUMP JUMPDEST SWAP1 POP PUSH2 0x813 PUSH8 0xF5D7239A6B8D443E PUSH1 0xC0 SHL PUSH2 0x216E JUMP JUMPDEST PUSH2 0x827 PUSH8 0xE16000140FFF2D14 PUSH1 0xC0 SHL PUSH2 0x216E JUMP JUMPDEST PUSH1 0x0 ADDRESS SWAP1 POP PUSH2 0x840 PUSH8 0xC2AC821C1E8B2DE PUSH1 0xC0 SHL PUSH2 0x216E JUMP JUMPDEST PUSH2 0x854 PUSH8 0x1D2F4B54F31AEF2E PUSH1 0xC0 SHL PUSH2 0x216E JUMP JUMPDEST PUSH1 0x0 DUP4 PUSH20 0xFFFFFFFFFFFFFFFFFFFFFFFFFFFFFFFFFFFFFFFF AND PUSH4 0x70A08231 DUP4 PUSH1 0x40 MLOAD DUP3 PUSH4 0xFFFFFFFF AND PUSH1 0xE0 SHL DUP2 MSTORE PUSH1 0x4 ADD PUSH2 0x88F SWAP2 SWAP1 PUSH2 0x33A3 JUMP JUMPDEST PUSH1 0x20 PUSH1 0x40 MLOAD DUP1 DUP4 SUB DUP2 DUP7 GAS STATICCALL ISZERO DUP1 ISZERO PUSH2 0x8AC JUMPI RETURNDATASIZE PUSH1 0x0 DUP1 RETURNDATACOPY RETURNDATASIZE PUSH1 0x0 REVERT JUMPDEST POP POP POP POP PUSH1 0x40 MLOAD RETURNDATASIZE PUSH1 0x1F NOT PUSH1 0x1F DUP3 ADD AND DUP3 ADD DUP1 PUSH1 0x40 MSTORE POP DUP2 ADD SWAP1 PUSH2 0x8D0 SWAP2 SWAP1 PUSH2 0x33D3 JUMP JUMPDEST SWAP1 POP PUSH2 0x8E6 PUSH8 0x34FB8832CA2FA308 PUSH1 0xC0 SHL PUSH2 0x216E JUMP JUMPDEST PUSH2 0x8FA PUSH8 0x41FF01824C44B64 PUSH1 0xC0 SHL PUSH2 0x216E JUMP JUMPDEST PUSH1 0x0 DUP4 PUSH20 0xFFFFFFFFFFFFFFFFFFFFFFFFFFFFFFFFFFFFFFFF AND PUSH4 0x70A08231 DUP5 PUSH1 0x40 MLOAD DUP3 PUSH4 0xFFFFFFFF AND PUSH1 0xE0 SHL DUP2 MSTORE PUSH1 0x4 ADD PUSH2 0x935 SWAP2 SWAP1 PUSH2 0x33A3 JUMP JUMPDEST PUSH1 0x20 PUSH1 0x40 MLOAD DUP1 DUP4 SUB DUP2 DUP7 GAS STATICCALL ISZERO DUP1 ISZERO PUSH2 0x952 JUMPI RETURNDATASIZE PUSH1 0x0 DUP1 RETURNDATACOPY RETURNDATASIZE PUSH1 0x0 REVERT JUMPDEST POP POP POP POP PUSH1 0x40 MLOAD RETURNDATASIZE PUSH1 0x1F NOT PUSH1 0x1F DUP3 ADD AND DUP3 ADD DUP1 PUSH1 0x40 MSTORE POP DUP2 ADD SWAP1 PUSH2 0x976 SWAP2 SWAP1 PUSH2 0x33D3 JUMP JUMPDEST SWAP1 POP PUSH2 0x98C PUSH8 0x887FE9CAE6D5DB05 PUSH1 0xC0 SHL PUSH2 0x216E JUMP JUMPDEST PUSH2 0x9A0 PUSH8 0xC1F6E6128F74D943 PUSH1 0xC0 SHL PUSH2 0x216E JUMP JUMPDEST PUSH1 0x0 PUSH2 0x9AD DUP13 DUP5 DUP5 PUSH2 0x376 JUMP JUMPDEST SWAP1 POP PUSH2 0x9C3 PUSH8 0x44A247D23C1AFEA2 PUSH1 0xC0 SHL PUSH2 0x216E JUMP JUMPDEST PUSH2 0x9D7 PUSH8 0xA4FE71C3F304BC4C PUSH1 0xC0 SHL PUSH2 0x216E JUMP JUMPDEST PUSH2 0x9EB PUSH8 0x4FFCA05D7E3DC5B6 PUSH1 0xC0 SHL PUSH2 0x216E JUMP JUMPDEST DUP11 DUP2 LT ISZERO PUSH2 0xA2E JUMPI PUSH1 0x40 MLOAD PUSH32 0x8C379A000000000000000000000000000000000000000000000000000000000 DUP2 MSTORE PUSH1 0x4 ADD PUSH2 0xA25 SWAP1 PUSH2 0x344C JUMP JUMPDEST PUSH1 0x40 MLOAD DUP1 SWAP2 SUB SWAP1 REVERT JUMPDEST PUSH2 0xA42 PUSH8 0x9354BF53435D4AB2 PUSH1 0xC0 SHL PUSH2 0x216E JUMP JUMPDEST PUSH2 0xA56 PUSH8 0x132C532717D0EF0B PUSH1 0xC0 SHL PUSH2 0x216E JUMP JUMPDEST PUSH2 0xA6A PUSH8 0x3B3BED2B862AC7E6 PUSH1 0xC0 SHL PUSH2 0x216E JUMP JUMPDEST DUP6 PUSH20 0xFFFFFFFFFFFFFFFFFFFFFFFFFFFFFFFFFFFFFFFF AND PUSH4 0x23B872DD CALLER DUP7 DUP16 PUSH1 0x40 MLOAD DUP5 PUSH4 0xFFFFFFFF AND PUSH1 0xE0 SHL DUP2 MSTORE PUSH1 0x4 ADD PUSH2 0xAA7 SWAP4 SWAP3 SWAP2 SWAP1 PUSH2 0x346C JUMP JUMPDEST PUSH1 0x20 PUSH1 0x40 MLOAD DUP1 DUP4 SUB DUP2 PUSH1 0x0 DUP8 GAS CALL ISZERO DUP1 ISZERO PUSH2 0xAC6 JUMPI RETURNDATASIZE PUSH1 0x0 DUP1 RETURNDATACOPY RETURNDATASIZE PUSH1 0x0 REVERT JUMPDEST POP POP POP POP PUSH1 0x40 MLOAD RETURNDATASIZE PUSH1 0x1F NOT PUSH1 0x1F DUP3 ADD AND DUP3 ADD DUP1 PUSH1 0x40 MSTORE POP DUP2 ADD SWAP1 PUSH2 0xAEA SWAP2 SWAP1 PUSH2 0x34CF JUMP JUMPDEST POP PUSH2 0xAFF PUSH8 0x12C231BAEB190A61 PUSH1 0xC0 SHL PUSH2 0x216E JUMP JUMPDEST PUSH2 0xB13 PUSH8 0xC88DF571B7D1DAAA PUSH1 0xC0 SHL PUSH2 0x216E JUMP JUMPDEST DUP5 PUSH20 0xFFFFFFFFFFFFFFFFFFFFFFFFFFFFFFFFFFFFFFFF AND PUSH4 0xA9059CBB DUP10 DUP4 PUSH1 0x40 MLOAD DUP4 PUSH4 0xFFFFFFFF AND PUSH1 0xE0 SHL DUP2 MSTORE PUSH1 0x4 ADD PUSH2 0xB4E SWAP3 SWAP2 SWAP1 PUSH2 0x34FC JUMP JUMPDEST PUSH1 0x20 PUSH1 0x40 MLOAD DUP1 DUP4 SUB DUP2 PUSH1 0x0 DUP8 GAS CALL ISZERO DUP1 ISZERO PUSH2 0xB6D JUMPI RETURNDATASIZE PUSH1 0x0 DUP1 RETURNDATACOPY RETURNDATASIZE PUSH1 0x0 REVERT JUMPDEST POP POP POP POP PUSH1 0x40 MLOAD RETURNDATASIZE PUSH1 0x1F NOT PUSH1 0x1F DUP3 ADD AND DUP3 ADD DUP1 PUSH1 0x40 MSTORE POP DUP2 ADD SWAP1 PUSH2 0xB91 SWAP2 SWAP1 PUSH2 0x34CF JUMP JUMPDEST POP POP POP POP POP POP POP POP POP POP POP POP POP JUMP JUMPDEST PUSH32 0x0 DUP2 JUMP JUMPDEST PUSH1 0x0 DUP1 PUSH1 0x0 DUP4 PUSH20 0xFFFFFFFFFFFFFFFFFFFFFFFFFFFFFFFFFFFFFFFF AND PUSH20 0xFFFFFFFFFFFFFFFFFFFFFFFFFFFFFFFFFFFFFFFF AND DUP2 MSTORE PUSH1 0x20 ADD SWAP1 DUP2 MSTORE PUSH1 0x20 ADD PUSH1 0x0 KECCAK256 SLOAD SWAP1 POP SWAP2 SWAP1 POP JUMP JUMPDEST PUSH1 0x60 PUSH1 0x4 DUP1 SLOAD PUSH2 0xC1B SWAP1 PUSH2 0x325C JUMP JUMPDEST DUP1 PUSH1 0x1F ADD PUSH1 0x20 DUP1 SWAP2 DIV MUL PUSH1 0x20 ADD PUSH1 0x40 MLOAD SWAP1 DUP2 ADD PUSH1 0x40 MSTORE DUP1 SWAP3 SWAP2 SWAP1 DUP2 DUP2 MSTORE PUSH1 0x20 ADD DUP3 DUP1 SLOAD PUSH2 0xC47 SWAP1 PUSH2 0x325C JUMP JUMPDEST DUP1 ISZERO PUSH2 0xC94 JUMPI DUP1 PUSH1 0x1F LT PUSH2 0xC69 JUMPI PUSH2 0x100 DUP1 DUP4 SLOAD DIV MUL DUP4 MSTORE SWAP2 PUSH1 0x20 ADD SWAP2 PUSH2 0xC94 JUMP JUMPDEST DUP3 ADD SWAP2 SWAP1 PUSH1 0x0 MSTORE PUSH1 0x20 PUSH1 0x0 KECCAK256 SWAP1 JUMPDEST DUP2 SLOAD DUP2 MSTORE SWAP1 PUSH1 0x1 ADD SWAP1 PUSH1 0x20 ADD DUP1 DUP4 GT PUSH2 0xC77 JUMPI DUP3 SWAP1 SUB PUSH1 0x1F AND DUP3 ADD SWAP2 JUMPDEST POP POP POP POP POP SWAP1 POP SWAP1 JUMP JUMPDEST PUSH1 0x0 PUSH2 0xCB3 PUSH7 0x57C4449D2CF671 PUSH1 0xC0 SHL PUSH2 0x216E JUMP JUMPDEST PUSH2 0xCC7 PUSH8 0xBF2192AC949DE63B PUSH1 0xC0 SHL PUSH2 0x216E JUMP JUMPDEST PUSH2 0xCDB PUSH8 0x54375829B8FE62A7 PUSH1 0xC0 SHL PUSH2 0x216E JUMP JUMPDEST PUSH1 0x0 ADDRESS SWAP1 POP PUSH2 0xCF4 PUSH8 0xFB7C01B86170446A PUSH1 0xC0 SHL PUSH2 0x216E JUMP JUMPDEST PUSH2 0xD08 PUSH8 0x2566956BF7ECDE65 PUSH1 0xC0 SHL PUSH2 0x216E JUMP JUMPDEST PUSH1 0x0 PUSH32 0x0 PUSH20 0xFFFFFFFFFFFFFFFFFFFFFFFFFFFFFFFFFFFFFFFF AND PUSH4 0x70A08231 DUP4 PUSH1 0x40 MLOAD DUP3 PUSH4 0xFFFFFFFF AND PUSH1 0xE0 SHL DUP2 MSTORE PUSH1 0x4 ADD PUSH2 0xD63 SWAP2 SWAP1 PUSH2 0x33A3 JUMP JUMPDEST PUSH1 0x20 PUSH1 0x40 MLOAD DUP1 DUP4 SUB DUP2 DUP7 GAS STATICCALL ISZERO DUP1 ISZERO PUSH2 0xD80 JUMPI RETURNDATASIZE PUSH1 0x0 DUP1 RETURNDATACOPY RETURNDATASIZE PUSH1 0x0 REVERT JUMPDEST POP POP POP POP PUSH1 0x40 MLOAD RETURNDATASIZE PUSH1 0x1F NOT PUSH1 0x1F DUP3 ADD AND DUP3 ADD DUP1 PUSH1 0x40 MSTORE POP DUP2 ADD SWAP1 PUSH2 0xDA4 SWAP2 SWAP1 PUSH2 0x33D3 JUMP JUMPDEST SWAP1 POP PUSH2 0xDBA PUSH8 0xE1A579DA454312AF PUSH1 0xC0 SHL PUSH2 0x216E JUMP JUMPDEST PUSH2 0xDCE PUSH8 0x1FA928743A1B30B1 PUSH1 0xC0 SHL PUSH2 0x216E JUMP JUMPDEST PUSH1 0x0 PUSH32 0x0 PUSH20 0xFFFFFFFFFFFFFFFFFFFFFFFFFFFFFFFFFFFFFFFF AND PUSH4 0x70A08231 DUP5 PUSH1 0x40 MLOAD DUP3 PUSH4 0xFFFFFFFF AND PUSH1 0xE0 SHL DUP2 MSTORE PUSH1 0x4 ADD PUSH2 0xE29 SWAP2 SWAP1 PUSH2 0x33A3 JUMP JUMPDEST PUSH1 0x20 PUSH1 0x40 MLOAD DUP1 DUP4 SUB DUP2 DUP7 GAS STATICCALL ISZERO DUP1 ISZERO PUSH2 0xE46 JUMPI RETURNDATASIZE PUSH1 0x0 DUP1 RETURNDATACOPY RETURNDATASIZE PUSH1 0x0 REVERT JUMPDEST POP POP POP POP PUSH1 0x40 MLOAD RETURNDATASIZE PUSH1 0x1F NOT PUSH1 0x1F DUP3 ADD AND DUP3 ADD DUP1 PUSH1 0x40 MSTORE POP DUP2 ADD SWAP1 PUSH2 0xE6A SWAP2 SWAP1 PUSH2 0x33D3 JUMP JUMPDEST SWAP1 POP PUSH2 0xE80 PUSH8 0x8673484BA851A888 PUSH1 0xC0 SHL PUSH2 0x216E JUMP JUMPDEST PUSH2 0xE94 PUSH8 0x7BB59C3D51BFFA30 PUSH1 0xC0 SHL PUSH2 0x216E JUMP JUMPDEST PUSH2 0xEA8 PUSH8 0x9F1DABB75941E87D PUSH1 0xC0 SHL PUSH2 0x216E JUMP JUMPDEST PUSH1 0x0 DUP3 GT DUP1 ISZERO PUSH2 0xEB8 JUMPI POP PUSH1 0x0 DUP2 GT JUMPDEST PUSH2 0xEF7 JUMPI PUSH1 0x40 MLOAD PUSH32 0x8C379A000000000000000000000000000000000000000000000000000000000 DUP2 MSTORE PUSH1 0x4 ADD PUSH2 0xEEE SWAP1 PUSH2 0x3108 JUMP JUMPDEST PUSH1 0x40 MLOAD DUP1 SWAP2 SUB SWAP1 REVERT JUMPDEST PUSH2 0xF0B PUSH8 0x8E6B8F14A83D0995 PUSH1 0xC0 SHL PUSH2 0x216E JUMP JUMPDEST PUSH2 0xF1F PUSH8 0x4E60E1526D0B97B PUSH1 0xC0 SHL PUSH2 0x216E JUMP JUMPDEST DUP2 PUSH8 0xDE0B6B3A7640000 DUP3 PUSH2 0xF34 SWAP2 SWAP1 PUSH2 0x318B JUMP JUMPDEST PUSH2 0xF3E SWAP2 SWAP1 PUSH2 0x31FC JUMP JUMPDEST SWAP4 POP POP POP POP SWAP1 JUMP JUMPDEST PUSH1 0x0 DUP1 PUSH2 0xF51 PUSH2 0x2171 JUMP JUMPDEST SWAP1 POP PUSH2 0xF5E DUP2 DUP6 DUP6 PUSH2 0x2220 JUMP JUMPDEST PUSH1 0x1 SWAP2 POP POP SWAP3 SWAP2 POP POP JUMP JUMPDEST PUSH1 0x0 DUP1 PUSH2 0xF80 PUSH8 0x6C09D9037812C588 PUSH1 0xC0 SHL PUSH2 0x216E JUMP JUMPDEST PUSH2 0xF94 PUSH8 0x19E305F2028516D2 PUSH1 0xC0 SHL PUSH2 0x216E JUMP JUMPDEST PUSH2 0xFA8 PUSH8 0x98EBEF6F068F69DB PUSH1 0xC0 SHL PUSH2 0x216E JUMP JUMPDEST PUSH1 0x0 PUSH32 0x0 SWAP1 POP PUSH2 0xFE1 PUSH8 0x52133D8AA612606A PUSH1 0xC0 SHL PUSH2 0x216E JUMP JUMPDEST PUSH2 0xFF5 PUSH8 0x6391F8C6FB192EE1 PUSH1 0xC0 SHL PUSH2 0x216E JUMP JUMPDEST PUSH1 0x0 PUSH32 0x0 SWAP1 POP PUSH2 0x102E PUSH8 0x1B7274BEEC9D851B PUSH1 0xC0 SHL PUSH2 0x216E JUMP JUMPDEST PUSH2 0x1042 PUSH8 0xF0D5CF5AD052DA0 PUSH1 0xC0 SHL PUSH2 0x216E JUMP JUMPDEST PUSH2 0x1056 PUSH8 0x68AF7B83BB72A80 PUSH1 0xC0 SHL PUSH2 0x216E JUMP JUMPDEST DUP2 PUSH20 0xFFFFFFFFFFFFFFFFFFFFFFFFFFFFFFFFFFFFFFFF AND DUP12 PUSH20 0xFFFFFFFFFFFFFFFFFFFFFFFFFFFFFFFFFFFFFFFF AND EQ DUP1 ISZERO PUSH2 0x10BC JUMPI POP DUP1 PUSH20 0xFFFFFFFFFFFFFFFFFFFFFFFFFFFFFFFFFFFFFFFF AND DUP11 PUSH20 0xFFFFFFFFFFFFFFFFFFFFFFFFFFFFFFFFFFFFFFFF AND EQ JUMPDEST PUSH2 0x10FB JUMPI PUSH1 0x40 MLOAD PUSH32 0x8C379A000000000000000000000000000000000000000000000000000000000 DUP2 MSTORE PUSH1 0x4 ADD PUSH2 0x10F2 SWAP1 PUSH2 0x3571 JUMP JUMPDEST PUSH1 0x40 MLOAD DUP1 SWAP2 SUB SWAP1 REVERT JUMPDEST PUSH2 0x110F PUSH8 0x9BBAA8BF651249D7 PUSH1 0xC0 SHL PUSH2 0x216E JUMP JUMPDEST PUSH2 0x1123 PUSH8 0x51CD2C38DB45D60C PUSH1 0xC0 SHL PUSH2 0x216E JUMP JUMPDEST PUSH2 0x1137 PUSH8 0xF4D700EC525AD7D4 PUSH1 0xC0 SHL PUSH2 0x216E JUMP JUMPDEST PUSH2 0x114B PUSH8 0x8A87390EC0343E47 PUSH1 0xC0 SHL PUSH2 0x216E JUMP JUMPDEST DUP5 TIMESTAMP GT ISZERO PUSH2 0x118E JUMPI PUSH1 0x40 MLOAD PUSH32 0x8C379A000000000000000000000000000000000000000000000000000000000 DUP2 MSTORE PUSH1 0x4 ADD PUSH2 0x1185 SWAP1 PUSH2 0x32D9 JUMP JUMPDEST PUSH1 0x40 MLOAD DUP1 SWAP2 SUB SWAP1 REVERT JUMPDEST PUSH2 0x11A2 PUSH8 0x7C8B6FD45C7B56CB PUSH1 0xC0 SHL PUSH2 0x216E JUMP JUMPDEST PUSH2 0x11B6 PUSH8 0xE8CB8B1A9BAB9B1C PUSH1 0xC0 SHL PUSH2 0x216E JUMP JUMPDEST PUSH2 0x11CA PUSH8 0x97A2D87BE39E2B3D PUSH1 0xC0 SHL PUSH2 0x216E JUMP JUMPDEST PUSH1 0x0 ADDRESS SWAP1 POP PUSH2 0x11E3 PUSH8 0x1A354BF5928B0596 PUSH1 0xC0 SHL PUSH2 0x216E JUMP JUMPDEST PUSH2 0x11F7 PUSH8 0x4434DA9DE4144CA2 PUSH1 0xC0 SHL PUSH2 0x216E JUMP JUMPDEST PUSH1 0x0 PUSH2 0x1201 PUSH2 0x5D6 JUMP JUMPDEST SWAP1 POP PUSH2 0x1217 PUSH8 0x4F19CD48FC08ACC5 PUSH1 0xC0 SHL PUSH2 0x216E JUMP JUMPDEST PUSH2 0x122B PUSH8 0xA6FE4812E1A38B9F PUSH1 0xC0 SHL PUSH2 0x216E JUMP JUMPDEST PUSH1 0x0 DUP5 PUSH20 0xFFFFFFFFFFFFFFFFFFFFFFFFFFFFFFFFFFFFFFFF AND PUSH4 0x70A08231 DUP5 PUSH1 0x40 MLOAD DUP3 PUSH4 0xFFFFFFFF AND PUSH1 0xE0 SHL DUP2 MSTORE PUSH1 0x4 ADD PUSH2 0x1266 SWAP2 SWAP1 PUSH2 0x33A3 JUMP JUMPDEST PUSH1 0x20 PUSH1 0x40 MLOAD DUP1 DUP4 SUB DUP2 DUP7 GAS STATICCALL ISZERO DUP1 ISZERO PUSH2 0x1283 JUMPI RETURNDATASIZE PUSH1 0x0 DUP1 RETURNDATACOPY RETURNDATASIZE PUSH1 0x0 REVERT JUMPDEST POP POP POP POP PUSH1 0x40 MLOAD RETURNDATASIZE PUSH1 0x1F NOT PUSH1 0x1F DUP3 ADD AND DUP3 ADD DUP1 PUSH1 0x40 MSTORE POP DUP2 ADD SWAP1 PUSH2 0x12A7 SWAP2 SWAP1 PUSH2 0x33D3 JUMP JUMPDEST SWAP1 POP PUSH2 0x12BD PUSH8 0x9FAAF0140573E56 PUSH1 0xC0 SHL PUSH2 0x216E JUMP JUMPDEST PUSH2 0x12D1 PUSH8 0x66667ADDCDA27A70 PUSH1 0xC0 SHL PUSH2 0x216E JUMP JUMPDEST PUSH1 0x0 DUP5 PUSH20 0xFFFFFFFFFFFFFFFFFFFFFFFFFFFFFFFFFFFFFFFF AND PUSH4 0x70A08231 DUP6 PUSH1 0x40 MLOAD DUP3 PUSH4 0xFFFFFFFF AND PUSH1 0xE0 SHL DUP2 MSTORE PUSH1 0x4 ADD PUSH2 0x130C SWAP2 SWAP1 PUSH2 0x33A3 JUMP JUMPDEST PUSH1 0x20 PUSH1 0x40 MLOAD DUP1 DUP4 SUB DUP2 DUP7 GAS STATICCALL ISZERO DUP1 ISZERO PUSH2 0x1329 JUMPI RETURNDATASIZE PUSH1 0x0 DUP1 RETURNDATACOPY RETURNDATASIZE PUSH1 0x0 REVERT JUMPDEST POP POP POP POP PUSH1 0x40 MLOAD RETURNDATASIZE PUSH1 0x1F NOT PUSH1 0x1F DUP3 ADD AND DUP3 ADD DUP1 PUSH1 0x40 MSTORE POP DUP2 ADD SWAP1 PUSH2 0x134D SWAP2 SWAP1 PUSH2 0x33D3 JUMP JUMPDEST SWAP1 POP PUSH2 0x1363 PUSH8 0xD50B9AE13C0FDBA5 PUSH1 0xC0 SHL PUSH2 0x216E JUMP JUMPDEST DUP3 DUP3 DUP15 PUSH2 0x1370 SWAP2 SWAP1 PUSH2 0x318B JUMP JUMPDEST PUSH2 0x137A SWAP2 SWAP1 PUSH2 0x31FC JUMP JUMPDEST SWAP8 POP PUSH2 0x1390 PUSH8 0x51ECBBDD8D2D3959 PUSH1 0xC0 SHL PUSH2 0x216E JUMP JUMPDEST DUP3 DUP2 DUP15 PUSH2 0x139D SWAP2 SWAP1 PUSH2 0x318B JUMP JUMPDEST PUSH2 0x13A7 SWAP2 SWAP1 PUSH2 0x31FC JUMP JUMPDEST SWAP7 POP PUSH2 0x13BD PUSH8 0x720A070A500347AD PUSH1 0xC0 SHL PUSH2 0x216E JUMP JUMPDEST PUSH2 0x13D1 PUSH8 0xBF4BA7AEDDD19BB7 PUSH1 0xC0 SHL PUSH2 0x216E JUMP JUMPDEST PUSH2 0x13E5 PUSH8 0x362EFDEA485FA7C7 PUSH1 0xC0 SHL PUSH2 0x216E JUMP JUMPDEST DUP12 DUP9 LT ISZERO PUSH2 0x1428 JUMPI PUSH1 0x40 MLOAD PUSH32 0x8C379A000000000000000000000000000000000000000000000000000000000 DUP2 MSTORE PUSH1 0x4 ADD PUSH2 0x141F SWAP1 PUSH2 0x35DD JUMP JUMPDEST PUSH1 0x40 MLOAD DUP1 SWAP2 SUB SWAP1 REVERT JUMPDEST PUSH2 0x143C PUSH8 0xA7A3C8ACFD5FE420 PUSH1 0xC0 SHL PUSH2 0x216E JUMP JUMPDEST PUSH2 0x1450 PUSH8 0xAF245A587FCCF076 PUSH1 0xC0 SHL PUSH2 0x216E JUMP JUMPDEST PUSH2 0x1464 PUSH8 0x5C968199E92B661B PUSH1 0xC0 SHL PUSH2 0x216E JUMP JUMPDEST PUSH2 0x1478 PUSH8 0x345A17214FAABEFC PUSH1 0xC0 SHL PUSH2 0x216E JUMP JUMPDEST DUP11 DUP8 LT ISZERO PUSH2 0x14BB JUMPI PUSH1 0x40 MLOAD PUSH32 0x8C379A000000000000000000000000000000000000000000000000000000000 DUP2 MSTORE PUSH1 0x4 ADD PUSH2 0x14B2 SWAP1 PUSH2 0x3649 JUMP JUMPDEST PUSH1 0x40 MLOAD DUP1 SWAP2 SUB SWAP1 REVERT JUMPDEST PUSH2 0x14CF PUSH8 0x6E3024E59E4F15A3 PUSH1 0xC0 SHL PUSH2 0x216E JUMP JUMPDEST PUSH2 0x14E3 PUSH8 0x405E358A5865D0E6 PUSH1 0xC0 SHL PUSH2 0x216E JUMP JUMPDEST PUSH2 0x14F7 PUSH8 0xD05FCCC057902F93 PUSH1 0xC0 SHL PUSH2 0x216E JUMP JUMPDEST PUSH2 0x1501 CALLER DUP15 PUSH2 0x2314 JUMP JUMPDEST PUSH2 0x1515 PUSH8 0x9CDCF7476CB396D7 PUSH1 0xC0 SHL PUSH2 0x216E JUMP JUMPDEST PUSH2 0x1529 PUSH8 0x3533E7F29EBE7F84 PUSH1 0xC0 SHL PUSH2 0x216E JUMP JUMPDEST DUP6 PUSH20 0xFFFFFFFFFFFFFFFFFFFFFFFFFFFFFFFFFFFFFFFF AND PUSH4 0xA9059CBB DUP12 DUP11 PUSH1 0x40 MLOAD DUP4 PUSH4 0xFFFFFFFF AND PUSH1 0xE0 SHL DUP2 MSTORE PUSH1 0x4 ADD PUSH2 0x1564 SWAP3 SWAP2 SWAP1 PUSH2 0x34FC JUMP JUMPDEST PUSH1 0x20 PUSH1 0x40 MLOAD DUP1 DUP4 SUB DUP2 PUSH1 0x0 DUP8 GAS CALL ISZERO DUP1 ISZERO PUSH2 0x1583 JUMPI RETURNDATASIZE PUSH1 0x0 DUP1 RETURNDATACOPY RETURNDATASIZE PUSH1 0x0 REVERT JUMPDEST POP POP POP POP PUSH1 0x40 MLOAD RETURNDATASIZE PUSH1 0x1F NOT PUSH1 0x1F DUP3 ADD AND DUP3 ADD DUP1 PUSH1 0x40 MSTORE POP DUP2 ADD SWAP1 PUSH2 0x15A7 SWAP2 SWAP1 PUSH2 0x34CF JUMP JUMPDEST POP PUSH2 0x15BC PUSH8 0x6325360FE0C4D0AC PUSH1 0xC0 SHL PUSH2 0x216E JUMP JUMPDEST PUSH2 0x15D0 PUSH8 0x7C51C209E99113BB PUSH1 0xC0 SHL PUSH2 0x216E JUMP JUMPDEST DUP5 PUSH20 0xFFFFFFFFFFFFFFFFFFFFFFFFFFFFFFFFFFFFFFFF AND PUSH4 0xA9059CBB DUP12 DUP10 PUSH1 0x40 MLOAD DUP4 PUSH4 0xFFFFFFFF AND PUSH1 0xE0 SHL DUP2 MSTORE PUSH1 0x4 ADD PUSH2 0x160B SWAP3 SWAP2 SWAP1 PUSH2 0x34FC JUMP JUMPDEST PUSH1 0x20 PUSH1 0x40 MLOAD DUP1 DUP4 SUB DUP2 PUSH1 0x0 DUP8 GAS CALL ISZERO DUP1 ISZERO PUSH2 0x162A JUMPI RETURNDATASIZE PUSH1 0x0 DUP1 RETURNDATACOPY RETURNDATASIZE PUSH1 0x0 REVERT JUMPDEST POP POP POP POP PUSH1 0x40 MLOAD RETURNDATASIZE PUSH1 0x1F NOT PUSH1 0x1F DUP3 ADD AND DUP3 ADD DUP1 PUSH1 0x40 MSTORE POP DUP2 ADD SWAP1 PUSH2 0x164E SWAP2 SWAP1 PUSH2 0x34CF JUMP JUMPDEST POP POP POP POP POP POP POP SWAP8 POP SWAP8 SWAP6 POP POP POP POP POP POP JUMP JUMPDEST PUSH1 0x0 PUSH1 0x1 PUSH1 0x0 DUP5 PUSH20 0xFFFFFFFFFFFFFFFFFFFFFFFFFFFFFFFFFFFFFFFF AND PUSH20 0xFFFFFFFFFFFFFFFFFFFFFFFFFFFFFFFFFFFFFFFF AND DUP2 MSTORE PUSH1 0x20 ADD SWAP1 DUP2 MSTORE PUSH1 0x20 ADD PUSH1 0x0 KECCAK256 PUSH1 0x0 DUP4 PUSH20 0xFFFFFFFFFFFFFFFFFFFFFFFFFFFFFFFFFFFFFFFF AND PUSH20 0xFFFFFFFFFFFFFFFFFFFFFFFFFFFFFFFFFFFFFFFF AND DUP2 MSTORE PUSH1 0x20 ADD SWAP1 DUP2 MSTORE PUSH1 0x20 ADD PUSH1 0x0 KECCAK256 SLOAD SWAP1 POP SWAP3 SWAP2 POP POP JUMP JUMPDEST PUSH1 0x0 DUP1 PUSH1 0x0 PUSH2 0x1701 PUSH8 0xD63C60E25EAA95BD PUSH1 0xC0 SHL PUSH2 0x216E JUMP JUMPDEST PUSH2 0x1715 PUSH8 0x717561F875C5A71E PUSH1 0xC0 SHL PUSH2 0x216E JUMP JUMPDEST PUSH2 0x1729 PUSH8 0xB714776118F2E378 PUSH1 0xC0 SHL PUSH2 0x216E JUMP JUMPDEST PUSH2 0x173D PUSH8 0xA45D7511783C0AC1 PUSH1 0xC0 SHL PUSH2 0x216E JUMP JUMPDEST PUSH32 0x0 PUSH20 0xFFFFFFFFFFFFFFFFFFFFFFFFFFFFFFFFFFFFFFFF AND DUP12 PUSH20 0xFFFFFFFFFFFFFFFFFFFFFFFFFFFFFFFFFFFFFFFF AND EQ DUP1 ISZERO PUSH2 0x17E3 JUMPI POP PUSH32 0x0 PUSH20 0xFFFFFFFFFFFFFFFFFFFFFFFFFFFFFFFFFFFFFFFF AND DUP11 PUSH20 0xFFFFFFFFFFFFFFFFFFFFFFFFFFFFFFFFFFFFFFFF AND EQ JUMPDEST PUSH2 0x1822 JUMPI PUSH1 0x40 MLOAD PUSH32 0x8C379A000000000000000000000000000000000000000000000000000000000 DUP2 MSTORE PUSH1 0x4 ADD PUSH2 0x1819 SWAP1 PUSH2 0x3571 JUMP JUMPDEST PUSH1 0x40 MLOAD DUP1 SWAP2 SUB SWAP1 REVERT JUMPDEST PUSH2 0x1836 PUSH8 0x2A9C90EFD50AF513 PUSH1 0xC0 SHL PUSH2 0x216E JUMP JUMPDEST PUSH2 0x184A PUSH8 0x95120868D56577AC PUSH1 0xC0 SHL PUSH2 0x216E JUMP JUMPDEST PUSH2 0x185E PUSH8 0x6B767FADA32F864E PUSH1 0xC0 SHL PUSH2 0x216E JUMP JUMPDEST PUSH2 0x1872 PUSH8 0x990F8C26950BA0B3 PUSH1 0xC0 SHL PUSH2 0x216E JUMP JUMPDEST DUP4 TIMESTAMP GT ISZERO PUSH2 0x18B5 JUMPI PUSH1 0x40 MLOAD PUSH32 0x8C379A000000000000000000000000000000000000000000000000000000000 DUP2 MSTORE PUSH1 0x4 ADD PUSH2 0x18AC SWAP1 PUSH2 0x32D9 JUMP JUMPDEST PUSH1 0x40 MLOAD DUP1 SWAP2 SUB SWAP1 REVERT JUMPDEST PUSH2 0x18C9 PUSH8 0x83818BEFB621CC2F PUSH1 0xC0 SHL PUSH2 0x216E JUMP JUMPDEST PUSH2 0x18DD PUSH8 0xCA56C97D81D50918 PUSH1 0xC0 SHL PUSH2 0x216E JUMP JUMPDEST PUSH2 0x18F1 PUSH8 0xF886591378CB8298 PUSH1 0xC0 SHL PUSH2 0x216E JUMP JUMPDEST PUSH1 0x0 ADDRESS SWAP1 POP PUSH2 0x190A PUSH8 0x77AD270560CD0A17 PUSH1 0xC0 SHL PUSH2 0x216E JUMP JUMPDEST PUSH2 0x191E PUSH8 0x1B476B593281AC54 PUSH1 0xC0 SHL PUSH2 0x216E JUMP JUMPDEST PUSH1 0x0 PUSH2 0x1928 PUSH2 0x5D6 JUMP JUMPDEST SWAP1 POP PUSH2 0x193E PUSH8 0x2C888D4B77AEA011 PUSH1 0xC0 SHL PUSH2 0x216E JUMP JUMPDEST PUSH2 0x1952 PUSH8 0x43B41CB0904F34A9 PUSH1 0xC0 SHL PUSH2 0x216E JUMP JUMPDEST PUSH1 0x0 PUSH32 0x0 PUSH20 0xFFFFFFFFFFFFFFFFFFFFFFFFFFFFFFFFFFFFFFFF AND PUSH4 0x70A08231 DUP5 PUSH1 0x40 MLOAD DUP3 PUSH4 0xFFFFFFFF AND PUSH1 0xE0 SHL DUP2 MSTORE PUSH1 0x4 ADD PUSH2 0x19AD SWAP2 SWAP1 PUSH2 0x33A3 JUMP JUMPDEST PUSH1 0x20 PUSH1 0x40 MLOAD DUP1 DUP4 SUB DUP2 DUP7 GAS STATICCALL ISZERO DUP1 ISZERO PUSH2 0x19CA JUMPI RETURNDATASIZE PUSH1 0x0 DUP1 RETURNDATACOPY RETURNDATASIZE PUSH1 0x0 REVERT JUMPDEST POP POP POP POP PUSH1 0x40 MLOAD RETURNDATASIZE PUSH1 0x1F NOT PUSH1 0x1F DUP3 ADD AND DUP3 ADD DUP1 PUSH1 0x40 MSTORE POP DUP2 ADD SWAP1 PUSH2 0x19EE SWAP2 SWAP1 PUSH2 0x33D3 JUMP JUMPDEST SWAP1 POP PUSH2 0x1A04 PUSH8 0x1A63AC4460A2A9FE PUSH1 0xC0 SHL PUSH2 0x216E JUMP JUMPDEST PUSH2 0x1A18 PUSH8 0xE99838EA45CE6539 PUSH1 0xC0 SHL PUSH2 0x216E JUMP JUMPDEST PUSH1 0x0 PUSH32 0x0 PUSH20 0xFFFFFFFFFFFFFFFFFFFFFFFFFFFFFFFFFFFFFFFF AND PUSH4 0x70A08231 DUP6 PUSH1 0x40 MLOAD DUP3 PUSH4 0xFFFFFFFF AND PUSH1 0xE0 SHL DUP2 MSTORE PUSH1 0x4 ADD PUSH2 0x1A73 SWAP2 SWAP1 PUSH2 0x33A3 JUMP JUMPDEST PUSH1 0x20 PUSH1 0x40 MLOAD DUP1 DUP4 SUB DUP2 DUP7 GAS STATICCALL ISZERO DUP1 ISZERO PUSH2 0x1A90 JUMPI RETURNDATASIZE PUSH1 0x0 DUP1 RETURNDATACOPY RETURNDATASIZE PUSH1 0x0 REVERT JUMPDEST POP POP POP POP PUSH1 0x40 MLOAD RETURNDATASIZE PUSH1 0x1F NOT PUSH1 0x1F DUP3 ADD AND DUP3 ADD DUP1 PUSH1 0x40 MSTORE POP DUP2 ADD SWAP1 PUSH2 0x1AB4 SWAP2 SWAP1 PUSH2 0x33D3 JUMP JUMPDEST SWAP1 POP PUSH2 0x1ACA PUSH8 0x76E3305D3A267598 PUSH1 0xC0 SHL PUSH2 0x216E JUMP JUMPDEST PUSH2 0x1ADE PUSH8 0x539DFA31EF4EB713 PUSH1 0xC0 SHL PUSH2 0x216E JUMP JUMPDEST PUSH1 0x0 DUP4 GT ISZERO PUSH2 0x1D67 JUMPI PUSH2 0x1AFB PUSH8 0x4D326934DE53A9C1 PUSH1 0xC0 SHL PUSH2 0x216E JUMP JUMPDEST PUSH2 0x1B0F PUSH8 0x3C41BC41D7B1BA2E PUSH1 0xC0 SHL PUSH2 0x216E JUMP JUMPDEST PUSH2 0x1B23 PUSH8 0x39E2050A449FBC8A PUSH1 0xC0 SHL PUSH2 0x216E JUMP JUMPDEST PUSH1 0x0 DUP3 DUP3 DUP16 PUSH2 0x1B32 SWAP2 SWAP1 PUSH2 0x318B JUMP JUMPDEST PUSH2 0x1B3C SWAP2 SWAP1 PUSH2 0x31FC JUMP JUMPDEST SWAP1 POP PUSH2 0x1B52 PUSH8 0xBA7D8D97ADBAD745 PUSH1 0xC0 SHL PUSH2 0x216E JUMP JUMPDEST PUSH2 0x1B66 PUSH8 0x9B397CF8C35218C1 PUSH1 0xC0 SHL PUSH2 0x216E JUMP JUMPDEST DUP13 DUP2 GT PUSH2 0x1C47 JUMPI PUSH2 0x1B81 PUSH8 0xFF2BE08511AFA2A8 PUSH1 0xC0 SHL PUSH2 0x216E JUMP JUMPDEST PUSH2 0x1B95 PUSH8 0x319FBA471A8CC5BE PUSH1 0xC0 SHL PUSH2 0x216E JUMP JUMPDEST PUSH2 0x1BA9 PUSH8 0xE7B6D90374B10EB7 PUSH1 0xC0 SHL PUSH2 0x216E JUMP JUMPDEST PUSH2 0x1BBD PUSH8 0xCB0671F5AA3BAC21 PUSH1 0xC0 SHL PUSH2 0x216E JUMP JUMPDEST DUP11 DUP2 LT ISZERO PUSH2 0x1C00 JUMPI PUSH1 0x40 MLOAD PUSH32 0x8C379A000000000000000000000000000000000000000000000000000000000 DUP2 MSTORE PUSH1 0x4 ADD PUSH2 0x1BF7 SWAP1 PUSH2 0x36B5 JUMP JUMPDEST PUSH1 0x40 MLOAD DUP1 SWAP2 SUB SWAP1 REVERT JUMPDEST PUSH2 0x1C14 PUSH8 0xA8D55AB8B6692305 PUSH1 0xC0 SHL PUSH2 0x216E JUMP JUMPDEST PUSH2 0x1C28 PUSH8 0x11098E860596184D PUSH1 0xC0 SHL PUSH2 0x216E JUMP JUMPDEST DUP14 SWAP8 POP PUSH2 0x1C3F PUSH8 0x751F68BF68632218 PUSH1 0xC0 SHL PUSH2 0x216E JUMP JUMPDEST DUP1 SWAP7 POP PUSH2 0x1D61 JUMP JUMPDEST PUSH2 0x1C5B PUSH8 0x6FBA110964ACB858 PUSH1 0xC0 SHL PUSH2 0x216E JUMP JUMPDEST PUSH2 0x1C6F PUSH8 0xF845EF0102DC59B PUSH1 0xC0 SHL PUSH2 0x216E JUMP JUMPDEST PUSH2 0x1C83 PUSH8 0x991ACC36C1983C72 PUSH1 0xC0 SHL PUSH2 0x216E JUMP JUMPDEST PUSH1 0x0 DUP3 DUP5 DUP16 PUSH2 0x1C92 SWAP2 SWAP1 PUSH2 0x318B JUMP JUMPDEST PUSH2 0x1C9C SWAP2 SWAP1 PUSH2 0x31FC JUMP JUMPDEST SWAP1 POP PUSH2 0x1CB2 PUSH8 0x5CBCE2991E6287E1 PUSH1 0xC0 SHL PUSH2 0x216E JUMP JUMPDEST PUSH2 0x1CC6 PUSH8 0xFE84FCE5E420D3C PUSH1 0xC0 SHL PUSH2 0x216E JUMP JUMPDEST PUSH2 0x1CDA PUSH8 0xC0E49102B3A21E1B PUSH1 0xC0 SHL PUSH2 0x216E JUMP JUMPDEST DUP13 DUP2 LT ISZERO PUSH2 0x1D1D JUMPI PUSH1 0x40 MLOAD PUSH32 0x8C379A000000000000000000000000000000000000000000000000000000000 DUP2 MSTORE PUSH1 0x4 ADD PUSH2 0x1D14 SWAP1 PUSH2 0x3721 JUMP JUMPDEST PUSH1 0x40 MLOAD DUP1 SWAP2 SUB SWAP1 REVERT JUMPDEST PUSH2 0x1D31 PUSH8 0xF5F146311E19D6C6 PUSH1 0xC0 SHL PUSH2 0x216E JUMP JUMPDEST PUSH2 0x1D45 PUSH8 0xC3848F8CBF7AD77E PUSH1 0xC0 SHL PUSH2 0x216E JUMP JUMPDEST DUP1 SWAP9 POP PUSH2 0x1D5C PUSH8 0x48A9710A12B1A034 PUSH1 0xC0 SHL PUSH2 0x216E JUMP JUMPDEST DUP14 SWAP8 POP POP JUMPDEST POP PUSH2 0x1DD4 JUMP JUMPDEST PUSH2 0x1D7B PUSH8 0xD8E3C03A5BAC52A7 PUSH1 0xC0 SHL PUSH2 0x216E JUMP JUMPDEST PUSH2 0x1D8F PUSH8 0x537973B39607C174 PUSH1 0xC0 SHL PUSH2 0x216E JUMP JUMPDEST DUP13 SWAP7 POP PUSH2 0x1DA6 PUSH8 0xA1CDC0870FCCCE51 PUSH1 0xC0 SHL PUSH2 0x216E JUMP JUMPDEST DUP12 SWAP6 POP PUSH2 0x1DBD PUSH8 0x8E0A93A743A89517 PUSH1 0xC0 SHL PUSH2 0x216E JUMP JUMPDEST PUSH2 0x1DD1 DUP7 DUP9 PUSH2 0x1DCC SWAP2 SWAP1 PUSH2 0x318B JUMP JUMPDEST PUSH2 0x2396 JUMP JUMPDEST SWAP5 POP JUMPDEST PUSH2 0x1DE8 PUSH8 0x128CEDC8AA53CEF PUSH1 0xC0 SHL PUSH2 0x216E JUMP JUMPDEST PUSH2 0x1DFC PUSH8 0xD02B23D745AB92B7 PUSH1 0xC0 SHL PUSH2 0x216E JUMP JUMPDEST PUSH2 0x1E10 PUSH8 0xBBC8015398AD187F PUSH1 0xC0 SHL PUSH2 0x216E JUMP JUMPDEST DUP11 DUP8 LT ISZERO PUSH2 0x1E53 JUMPI PUSH1 0x40 MLOAD PUSH32 0x8C379A000000000000000000000000000000000000000000000000000000000 DUP2 MSTORE PUSH1 0x4 ADD PUSH2 0x1E4A SWAP1 PUSH2 0x35DD JUMP JUMPDEST PUSH1 0x40 MLOAD DUP1 SWAP2 SUB SWAP1 REVERT JUMPDEST PUSH2 0x1E67 PUSH8 0xFB68251308A1E273 PUSH1 0xC0 SHL PUSH2 0x216E JUMP JUMPDEST PUSH2 0x1E7B PUSH8 0xA0E2FBA29532BEB0 PUSH1 0xC0 SHL PUSH2 0x216E JUMP JUMPDEST PUSH2 0x1E8F PUSH8 0x660A7B23CADB9EE PUSH1 0xC0 SHL PUSH2 0x216E JUMP JUMPDEST PUSH2 0x1EA3 PUSH8 0x4FE983FC27DCA1F PUSH1 0xC0 SHL PUSH2 0x216E JUMP JUMPDEST DUP10 DUP7 LT ISZERO PUSH2 0x1EE6 JUMPI PUSH1 0x40 MLOAD PUSH32 0x8C379A000000000000000000000000000000000000000000000000000000000 DUP2 MSTORE PUSH1 0x4 ADD PUSH2 0x1EDD SWAP1 PUSH2 0x3649 JUMP JUMPDEST PUSH1 0x40 MLOAD DUP1 SWAP2 SUB SWAP1 REVERT JUMPDEST PUSH2 0x1EFA PUSH8 0xD0E43FFF35460C33 PUSH1 0xC0 SHL PUSH2 0x216E JUMP JUMPDEST PUSH2 0x1F0E PUSH8 0xED2698A894BE708F PUSH1 0xC0 SHL PUSH2 0x216E JUMP JUMPDEST PUSH2 0x1F22 PUSH8 0x846B7E285B4153FE PUSH1 0xC0 SHL PUSH2 0x216E JUMP JUMPDEST PUSH1 0x0 CALLER SWAP1 POP PUSH2 0x1F3B PUSH8 0xBC10133A6E83359F PUSH1 0xC0 SHL PUSH2 0x216E JUMP JUMPDEST PUSH2 0x1F4F PUSH8 0x8B87016CFD9014E0 PUSH1 0xC0 SHL PUSH2 0x216E JUMP JUMPDEST PUSH32 0x0 PUSH20 0xFFFFFFFFFFFFFFFFFFFFFFFFFFFFFFFFFFFFFFFF AND PUSH4 0x23B872DD DUP3 DUP8 DUP12 PUSH1 0x40 MLOAD DUP5 PUSH4 0xFFFFFFFF AND PUSH1 0xE0 SHL DUP2 MSTORE PUSH1 0x4 ADD PUSH2 0x1FAC SWAP4 SWAP3 SWAP2 SWAP1 PUSH2 0x346C JUMP JUMPDEST PUSH1 0x20 PUSH1 0x40 MLOAD DUP1 DUP4 SUB DUP2 PUSH1 0x0 DUP8 GAS CALL ISZERO DUP1 ISZERO PUSH2 0x1FCB JUMPI RETURNDATASIZE PUSH1 0x0 DUP1 RETURNDATACOPY RETURNDATASIZE PUSH1 0x0 REVERT JUMPDEST POP POP POP POP PUSH1 0x40 MLOAD RETURNDATASIZE PUSH1 0x1F NOT PUSH1 0x1F DUP3 ADD AND DUP3 ADD DUP1 PUSH1 0x40 MSTORE POP DUP2 ADD SWAP1 PUSH2 0x1FEF SWAP2 SWAP1 PUSH2 0x34CF JUMP JUMPDEST POP PUSH2 0x2004 PUSH8 0x1CC65E7C339166E4 PUSH1 0xC0 SHL PUSH2 0x216E JUMP JUMPDEST PUSH2 0x2018 PUSH8 0x55D2831C92CD25DF PUSH1 0xC0 SHL PUSH2 0x216E JUMP JUMPDEST PUSH32 0x0 PUSH20 0xFFFFFFFFFFFFFFFFFFFFFFFFFFFFFFFFFFFFFFFF AND PUSH4 0x23B872DD DUP3 DUP8 DUP11 PUSH1 0x40 MLOAD DUP5 PUSH4 0xFFFFFFFF AND PUSH1 0xE0 SHL DUP2 MSTORE PUSH1 0x4 ADD PUSH2 0x2075 SWAP4 SWAP3 SWAP2 SWAP1 PUSH2 0x346C JUMP JUMPDEST PUSH1 0x20 PUSH1 0x40 MLOAD DUP1 DUP4 SUB DUP2 PUSH1 0x0 DUP8 GAS CALL ISZERO DUP1 ISZERO PUSH2 0x2094 JUMPI RETURNDATASIZE PUSH1 0x0 DUP1 RETURNDATACOPY RETURNDATASIZE PUSH1 0x0 REVERT JUMPDEST POP POP POP POP PUSH1 0x40 MLOAD RETURNDATASIZE PUSH1 0x1F NOT PUSH1 0x1F DUP3 ADD AND DUP3 ADD DUP1 PUSH1 0x40 MSTORE POP DUP2 ADD SWAP1 PUSH2 0x20B8 SWAP2 SWAP1 PUSH2 0x34CF JUMP JUMPDEST POP PUSH2 0x20CD PUSH8 0x2C4628A27C7AC699 PUSH1 0xC0 SHL PUSH2 0x216E JUMP JUMPDEST PUSH1 0x0 DUP7 GT DUP1 PUSH2 0x20EC JUMPI POP PUSH2 0x20EB PUSH8 0x8C4BB674F9361998 PUSH1 0xC0 SHL PUSH2 0x2555 JUMP JUMPDEST JUMPDEST DUP1 ISZERO PUSH2 0x2108 JUMPI POP PUSH2 0x2107 PUSH8 0xEAF9C392EB531B8F PUSH1 0xC0 SHL PUSH2 0x255C JUMP JUMPDEST JUMPDEST PUSH2 0x2125 JUMPI PUSH2 0x2120 DUP8 DUP10 PUSH2 0x211B SWAP2 SWAP1 PUSH2 0x318B JUMP JUMPDEST PUSH2 0x2396 JUMP JUMPDEST PUSH2 0x2127 JUMP JUMPDEST DUP6 JUMPDEST SWAP6 POP PUSH2 0x213D PUSH8 0xC2EC64B3FDD2FD52 PUSH1 0xC0 SHL PUSH2 0x216E JUMP JUMPDEST PUSH2 0x2151 PUSH8 0x58639B0906B728B2 PUSH1 0xC0 SHL PUSH2 0x216E JUMP JUMPDEST PUSH2 0x215B DUP11 DUP8 PUSH2 0x2567 JUMP JUMPDEST POP POP POP POP POP SWAP9 POP SWAP9 POP SWAP9 SWAP6 POP POP POP POP POP POP JUMP JUMPDEST POP JUMP JUMPDEST PUSH1 0x0 CALLER SWAP1 POP SWAP1 JUMP JUMPDEST PUSH2 0x2186 DUP4 DUP4 DUP4 PUSH1 0x1 PUSH2 0x25E9 JUMP JUMPDEST POP POP POP JUMP JUMPDEST PUSH1 0x0 PUSH2 0x2197 DUP5 DUP5 PUSH2 0x1661 JUMP JUMPDEST SWAP1 POP PUSH32 0xFFFFFFFFFFFFFFFFFFFFFFFFFFFFFFFFFFFFFFFFFFFFFFFFFFFFFFFFFFFFFFFF DUP2 LT ISZERO PUSH2 0x221A JUMPI DUP2 DUP2 LT ISZERO PUSH2 0x220A JUMPI DUP3 DUP2 DUP4 PUSH1 0x40 MLOAD PUSH32 0xFB8F41B200000000000000000000000000000000000000000000000000000000 DUP2 MSTORE PUSH1 0x4 ADD PUSH2 0x2201 SWAP4 SWAP3 SWAP2 SWAP1 PUSH2 0x3741 JUMP JUMPDEST PUSH1 0x40 MLOAD DUP1 SWAP2 SUB SWAP1 REVERT JUMPDEST PUSH2 0x2219 DUP5 DUP5 DUP5 DUP5 SUB PUSH1 0x0 PUSH2 0x25E9 JUMP JUMPDEST JUMPDEST POP POP POP POP JUMP JUMPDEST PUSH1 0x0 PUSH20 0xFFFFFFFFFFFFFFFFFFFFFFFFFFFFFFFFFFFFFFFF AND DUP4 PUSH20 0xFFFFFFFFFFFFFFFFFFFFFFFFFFFFFFFFFFFFFFFF AND SUB PUSH2 0x2292 JUMPI PUSH1 0x0 PUSH1 0x40 MLOAD PUSH32 0x96C6FD1E00000000000000000000000000000000000000000000000000000000 DUP2 MSTORE PUSH1 0x4 ADD PUSH2 0x2289 SWAP2 SWAP1 PUSH2 0x33A3 JUMP JUMPDEST PUSH1 0x40 MLOAD DUP1 SWAP2 SUB SWAP1 REVERT JUMPDEST PUSH1 0x0 PUSH20 0xFFFFFFFFFFFFFFFFFFFFFFFFFFFFFFFFFFFFFFFF AND DUP3 PUSH20 0xFFFFFFFFFFFFFFFFFFFFFFFFFFFFFFFFFFFFFFFF AND SUB PUSH2 0x2304 JUMPI PUSH1 0x0 PUSH1 0x40 MLOAD PUSH32 0xEC442F0500000000000000000000000000000000000000000000000000000000 DUP2 MSTORE PUSH1 0x4 ADD PUSH2 0x22FB SWAP2 SWAP1 PUSH2 0x33A3 JUMP JUMPDEST PUSH1 0x40 MLOAD DUP1 SWAP2 SUB SWAP1 REVERT JUMPDEST PUSH2 0x230F DUP4 DUP4 DUP4 PUSH2 0x27C0 JUMP JUMPDEST POP POP POP JUMP JUMPDEST PUSH1 0x0 PUSH20 0xFFFFFFFFFFFFFFFFFFFFFFFFFFFFFFFFFFFFFFFF AND DUP3 PUSH20 0xFFFFFFFFFFFFFFFFFFFFFFFFFFFFFFFFFFFFFFFF AND SUB PUSH2 0x2386 JUMPI PUSH1 0x0 PUSH1 0x40 MLOAD PUSH32 0x96C6FD1E00000000000000000000000000000000000000000000000000000000 DUP2 MSTORE PUSH1 0x4 ADD PUSH2 0x237D SWAP2 SWAP1 PUSH2 0x33A3 JUMP JUMPDEST PUSH1 0x40 MLOAD DUP1 SWAP2 SUB SWAP1 REVERT JUMPDEST PUSH2 0x2392 DUP3 PUSH1 0x0 DUP4 PUSH2 0x27C0 JUMP JUMPDEST POP POP JUMP JUMPDEST PUSH1 0x0 PUSH2 0x23AC PUSH8 0xC30BC7FF812AA818 PUSH1 0xC0 SHL PUSH2 0x216E JUMP JUMPDEST PUSH2 0x23C0 PUSH8 0xCC07C2840BFC4D16 PUSH1 0xC0 SHL PUSH2 0x216E JUMP JUMPDEST PUSH2 0x23D4 PUSH8 0x6AE6EFA36C300C47 PUSH1 0xC0 SHL PUSH2 0x216E JUMP JUMPDEST PUSH1 0x3 DUP3 GT ISZERO PUSH2 0x24D9 JUMPI PUSH2 0x23F1 PUSH8 0x260282AD32205CC PUSH1 0xC0 SHL PUSH2 0x216E JUMP JUMPDEST PUSH2 0x2405 PUSH8 0x8BD5026A09CD7B81 PUSH1 0xC0 SHL PUSH2 0x216E JUMP JUMPDEST DUP2 SWAP1 POP PUSH2 0x241C PUSH8 0x6F1579AD40274235 PUSH1 0xC0 SHL PUSH2 0x216E JUMP JUMPDEST PUSH2 0x2430 PUSH8 0xC6DEFEB7623014B2 PUSH1 0xC0 SHL PUSH2 0x216E JUMP JUMPDEST PUSH1 0x0 PUSH1 0x1 PUSH1 0x2 DUP5 PUSH2 0x2441 SWAP2 SWAP1 PUSH2 0x31FC JUMP JUMPDEST PUSH2 0x244B SWAP2 SWAP1 PUSH2 0x3157 JUMP JUMPDEST SWAP1 POP PUSH2 0x2461 PUSH8 0x4B4CAC09B4EEDE4E PUSH1 0xC0 SHL PUSH2 0x216E JUMP JUMPDEST PUSH2 0x2475 PUSH8 0xCE9BB4D6CB864CCA PUSH1 0xC0 SHL PUSH2 0x216E JUMP JUMPDEST JUMPDEST DUP2 DUP2 LT ISZERO PUSH2 0x24D3 JUMPI PUSH2 0x2492 PUSH8 0x81BDD2E70EF5169E PUSH1 0xC0 SHL PUSH2 0x216E JUMP JUMPDEST DUP1 SWAP2 POP PUSH2 0x24A9 PUSH8 0x44A33CFAA34B41DD PUSH1 0xC0 SHL PUSH2 0x216E JUMP JUMPDEST PUSH1 0x2 DUP2 DUP3 DUP6 PUSH2 0x24B8 SWAP2 SWAP1 PUSH2 0x31FC JUMP JUMPDEST PUSH2 0x24C2 SWAP2 SWAP1 PUSH2 0x3157 JUMP JUMPDEST PUSH2 0x24CC SWAP2 SWAP1 PUSH2 0x31FC JUMP JUMPDEST SWAP1 POP PUSH2 0x2476 JUMP JUMPDEST POP PUSH2 0x2550 JUMP JUMPDEST PUSH2 0x24ED PUSH8 0xB090D1109AD842B4 PUSH1 0xC0 SHL PUSH2 0x216E JUMP JUMPDEST PUSH2 0x2501 PUSH8 0x57A3CB637673B39E PUSH1 0xC0 SHL PUSH2 0x216E JUMP JUMPDEST PUSH1 0x0 DUP3 EQ PUSH2 0x253A JUMPI PUSH2 0x251D PUSH8 0x14DF616EA02BD301 PUSH1 0xC0 SHL PUSH2 0x216E JUMP JUMPDEST PUSH2 0x2531 PUSH8 0xC2DDBA34F9423F1D PUSH1 0xC0 SHL PUSH2 0x216E JUMP JUMPDEST PUSH1 0x1 SWAP1 POP PUSH2 0x254F JUMP JUMPDEST PUSH2 0x254E PUSH8 0xABFFC665F2CE5694 PUSH1 0xC0 SHL PUSH2 0x216E JUMP JUMPDEST JUMPDEST JUMPDEST SWAP2 SWAP1 POP JUMP JUMPDEST PUSH1 0x0 SWAP2 SWAP1 POP JUMP JUMPDEST PUSH1 0x0 PUSH1 0x1 SWAP1 POP SWAP2 SWAP1 POP JUMP JUMPDEST PUSH1 0x0 PUSH20 0xFFFFFFFFFFFFFFFFFFFFFFFFFFFFFFFFFFFFFFFF AND DUP3 PUSH20 0xFFFFFFFFFFFFFFFFFFFFFFFFFFFFFFFFFFFFFFFF AND SUB PUSH2 0x25D9 JUMPI PUSH1 0x0 PUSH1 0x40 MLOAD PUSH32 0xEC442F0500000000000000000000000000000000000000000000000000000000 DUP2 MSTORE PUSH1 0x4 ADD PUSH2 0x25D0 SWAP2 SWAP1 PUSH2 0x33A3 JUMP JUMPDEST PUSH1 0x40 MLOAD DUP1 SWAP2 SUB SWAP1 REVERT JUMPDEST PUSH2 0x25E5 PUSH1 0x0 DUP4 DUP4 PUSH2 0x27C0 JUMP JUMPDEST POP POP JUMP JUMPDEST PUSH1 0x0 PUSH20 0xFFFFFFFFFFFFFFFFFFFFFFFFFFFFFFFFFFFFFFFF AND DUP5 PUSH20 0xFFFFFFFFFFFFFFFFFFFFFFFFFFFFFFFFFFFFFFFF AND SUB PUSH2 0x265B JUMPI PUSH1 0x0 PUSH1 0x40 MLOAD PUSH32 0xE602DF0500000000000000000000000000000000000000000000000000000000 DUP2 MSTORE PUSH1 0x4 ADD PUSH2 0x2652 SWAP2 SWAP1 PUSH2 0x33A3 JUMP JUMPDEST PUSH1 0x40 MLOAD DUP1 SWAP2 SUB SWAP1 REVERT JUMPDEST PUSH1 0x0 PUSH20 0xFFFFFFFFFFFFFFFFFFFFFFFFFFFFFFFFFFFFFFFF AND DUP4 PUSH20 0xFFFFFFFFFFFFFFFFFFFFFFFFFFFFFFFFFFFFFFFF AND SUB PUSH2 0x26CD JUMPI PUSH1 0x0 PUSH1 0x40 MLOAD PUSH32 0x94280D6200000000000000000000000000000000000000000000000000000000 DUP2 MSTORE PUSH1 0x4 ADD PUSH2 0x26C4 SWAP2 SWAP1 PUSH2 0x33A3 JUMP JUMPDEST PUSH1 0x40 MLOAD DUP1 SWAP2 SUB SWAP1 REVERT JUMPDEST DUP2 PUSH1 0x1 PUSH1 0x0 DUP7 PUSH20 0xFFFFFFFFFFFFFFFFFFFFFFFFFFFFFFFFFFFFFFFF AND PUSH20 0xFFFFFFFFFFFFFFFFFFFFFFFFFFFFFFFFFFFFFFFF AND DUP2 MSTORE PUSH1 0x20 ADD SWAP1 DUP2 MSTORE PUSH1 0x20 ADD PUSH1 0x0 KECCAK256 PUSH1 0x0 DUP6 PUSH20 0xFFFFFFFFFFFFFFFFFFFFFFFFFFFFFFFFFFFFFFFF AND PUSH20 0xFFFFFFFFFFFFFFFFFFFFFFFFFFFFFFFFFFFFFFFF AND DUP2 MSTORE PUSH1 0x20 ADD SWAP1 DUP2 MSTORE PUSH1 0x20 ADD PUSH1 0x0 KECCAK256 DUP2 SWAP1 SSTORE POP DUP1 ISZERO PUSH2 0x27BA JUMPI DUP3 PUSH20 0xFFFFFFFFFFFFFFFFFFFFFFFFFFFFFFFFFFFFFFFF AND DUP5 PUSH20 0xFFFFFFFFFFFFFFFFFFFFFFFFFFFFFFFFFFFFFFFF AND PUSH32 0x8C5BE1E5EBEC7D5BD14F71427D1E84F3DD0314C0F7B2291E5B200AC8C7C3B925 DUP5 PUSH1 0x40 MLOAD PUSH2 0x27B1 SWAP2 SWAP1 PUSH2 0x2A87 JUMP JUMPDEST PUSH1 0x40 MLOAD DUP1 SWAP2 SUB SWAP1 LOG3 JUMPDEST POP POP POP POP JUMP JUMPDEST PUSH1 0x0 PUSH20 0xFFFFFFFFFFFFFFFFFFFFFFFFFFFFFFFFFFFFFFFF AND DUP4 PUSH20 0xFFFFFFFFFFFFFFFFFFFFFFFFFFFFFFFFFFFFFFFF AND SUB PUSH2 0x2812 JUMPI DUP1 PUSH1 0x2 PUSH1 0x0 DUP3 DUP3 SLOAD PUSH2 0x2806 SWAP2 SWAP1 PUSH2 0x3157 JUMP JUMPDEST SWAP3 POP POP DUP2 SWAP1 SSTORE POP PUSH2 0x28E5 JUMP JUMPDEST PUSH1 0x0 DUP1 PUSH1 0x0 DUP6 PUSH20 0xFFFFFFFFFFFFFFFFFFFFFFFFFFFFFFFFFFFFFFFF AND PUSH20 0xFFFFFFFFFFFFFFFFFFFFFFFFFFFFFFFFFFFFFFFF AND DUP2 MSTORE PUSH1 0x20 ADD SWAP1 DUP2 MSTORE PUSH1 0x20 ADD PUSH1 0x0 KECCAK256 SLOAD SWAP1 POP DUP2 DUP2 LT ISZERO PUSH2 0x289E JUMPI DUP4 DUP2 DUP4 PUSH1 0x40 MLOAD PUSH32 0xE450D38C00000000000000000000000000000000000000000000000000000000 DUP2 MSTORE PUSH1 0x4 ADD PUSH2 0x2895 SWAP4 SWAP3 SWAP2 SWAP1 PUSH2 0x3741 JUMP JUMPDEST PUSH1 0x40 MLOAD DUP1 SWAP2 SUB SWAP1 REVERT JUMPDEST DUP2 DUP2 SUB PUSH1 0x0 DUP1 DUP7 PUSH20 0xFFFFFFFFFFFFFFFFFFFFFFFFFFFFFFFFFFFFFFFF AND PUSH20 0xFFFFFFFFFFFFFFFFFFFFFFFFFFFFFFFFFFFFFFFF AND DUP2 MSTORE PUSH1 0x20 ADD SWAP1 DUP2 MSTORE PUSH1 0x20 ADD PUSH1 0x0 KECCAK256 DUP2 SWAP1 SSTORE POP POP JUMPDEST PUSH1 0x0 PUSH20 0xFFFFFFFFFFFFFFFFFFFFFFFFFFFFFFFFFFFFFFFF AND DUP3 PUSH20 0xFFFFFFFFFFFFFFFFFFFFFFFFFFFFFFFFFFFFFFFF AND SUB PUSH2 0x292E JUMPI DUP1 PUSH1 0x2 PUSH1 0x0 DUP3 DUP3 SLOAD SUB SWAP3 POP POP DUP2 SWAP1 SSTORE POP PUSH2 0x297B JUMP JUMPDEST DUP1 PUSH1 0x0 DUP1 DUP5 PUSH20 0xFFFFFFFFFFFFFFFFFFFFFFFFFFFFFFFFFFFFFFFF AND PUSH20 0xFFFFFFFFFFFFFFFFFFFFFFFFFFFFFFFFFFFFFFFF AND DUP2 MSTORE PUSH1 0x20 ADD SWAP1 DUP2 MSTORE PUSH1 0x20 ADD PUSH1 0x0 KECCAK256 PUSH1 0x0 DUP3 DUP3 SLOAD ADD SWAP3 POP POP DUP2 SWAP1 SSTORE POP JUMPDEST DUP2 PUSH20 0xFFFFFFFFFFFFFFFFFFFFFFFFFFFFFFFFFFFFFFFF AND DUP4 PUSH20 0xFFFFFFFFFFFFFFFFFFFFFFFFFFFFFFFFFFFFFFFF AND PUSH32 0xDDF252AD1BE2C89B69C2B068FC378DAA952BA7F163C4A11628F55A4DF523B3EF DUP4 PUSH1 0x40 MLOAD PUSH2 0x29D8 SWAP2 SWAP1 PUSH2 0x2A87 JUMP JUMPDEST PUSH1 0x40 MLOAD DUP1 SWAP2 SUB SWAP1 LOG3 POP POP POP JUMP JUMPDEST PUSH1 0x0 DUP1 REVERT JUMPDEST PUSH1 0x0 DUP1 REVERT JUMPDEST PUSH1 0x0 DUP2 SWAP1 POP SWAP2 SWAP1 POP JUMP JUMPDEST PUSH2 0x2A02 DUP2 PUSH2 0x29EF JUMP JUMPDEST DUP2 EQ PUSH2 0x2A0D JUMPI PUSH1 0x0 DUP1 REVERT JUMPDEST POP JUMP JUMPDEST PUSH1 0x0 DUP2 CALLDATALOAD SWAP1 POP PUSH2 0x2A1F DUP2 PUSH2 0x29F9 JUMP JUMPDEST SWAP3 SWAP2 POP POP JUMP JUMPDEST PUSH1 0x0 DUP1 PUSH1 0x0 PUSH1 0x60 DUP5 DUP7 SUB SLT ISZERO PUSH2 0x2A3E JUMPI PUSH2 0x2A3D PUSH2 0x29E5 JUMP JUMPDEST JUMPDEST PUSH1 0x0 PUSH2 0x2A4C DUP7 DUP3 DUP8 ADD PUSH2 0x2A10 JUMP JUMPDEST SWAP4 POP POP PUSH1 0x20 PUSH2 0x2A5D DUP7 DUP3 DUP8 ADD PUSH2 0x2A10 JUMP JUMPDEST SWAP3 POP POP PUSH1 0x40 PUSH2 0x2A6E DUP7 DUP3 DUP8 ADD PUSH2 0x2A10 JUMP JUMPDEST SWAP2 POP POP SWAP3 POP SWAP3 POP SWAP3 JUMP JUMPDEST PUSH2 0x2A81 DUP2 PUSH2 0x29EF JUMP JUMPDEST DUP3 MSTORE POP POP JUMP JUMPDEST PUSH1 0x0 PUSH1 0x20 DUP3 ADD SWAP1 POP PUSH2 0x2A9C PUSH1 0x0 DUP4 ADD DUP5 PUSH2 0x2A78 JUMP JUMPDEST SWAP3 SWAP2 POP POP JUMP JUMPDEST PUSH1 0x0 DUP2 MLOAD SWAP1 POP SWAP2 SWAP1 POP JUMP JUMPDEST PUSH1 0x0 DUP3 DUP3 MSTORE PUSH1 0x20 DUP3 ADD SWAP1 POP SWAP3 SWAP2 POP POP JUMP JUMPDEST PUSH1 0x0 JUMPDEST DUP4 DUP2 LT ISZERO PUSH2 0x2ADC JUMPI DUP1 DUP3 ADD MLOAD DUP2 DUP5 ADD MSTORE PUSH1 0x20 DUP2 ADD SWAP1 POP PUSH2 0x2AC1 JUMP JUMPDEST PUSH1 0x0 DUP5 DUP5 ADD MSTORE POP POP POP POP JUMP JUMPDEST PUSH1 0x0 PUSH1 0x1F NOT PUSH1 0x1F DUP4 ADD AND SWAP1 POP SWAP2 SWAP1 POP JUMP JUMPDEST PUSH1 0x0 PUSH2 0x2B04 DUP3 PUSH2 0x2AA2 JUMP JUMPDEST PUSH2 0x2B0E DUP2 DUP6 PUSH2 0x2AAD JUMP JUMPDEST SWAP4 POP PUSH2 0x2B1E DUP2 DUP6 PUSH1 0x20 DUP7 ADD PUSH2 0x2ABE JUMP JUMPDEST PUSH2 0x2B27 DUP2 PUSH2 0x2AE8 JUMP JUMPDEST DUP5 ADD SWAP2 POP POP SWAP3 SWAP2 POP POP JUMP JUMPDEST PUSH1 0x0 PUSH1 0x20 DUP3 ADD SWAP1 POP DUP2 DUP2 SUB PUSH1 0x0 DUP4 ADD MSTORE PUSH2 0x2B4C DUP2 DUP5 PUSH2 0x2AF9 JUMP JUMPDEST SWAP1 POP SWAP3 SWAP2 POP POP JUMP JUMPDEST PUSH1 0x0 PUSH20 0xFFFFFFFFFFFFFFFFFFFFFFFFFFFFFFFFFFFFFFFF DUP3 AND SWAP1 POP SWAP2 SWAP1 POP JUMP JUMPDEST PUSH1 0x0 PUSH2 0x2B7F DUP3 PUSH2 0x2B54 JUMP JUMPDEST SWAP1 POP SWAP2 SWAP1 POP JUMP JUMPDEST PUSH2 0x2B8F DUP2 PUSH2 0x2B74 JUMP JUMPDEST DUP2 EQ PUSH2 0x2B9A JUMPI PUSH1 0x0 DUP1 REVERT JUMPDEST POP JUMP JUMPDEST PUSH1 0x0 DUP2 CALLDATALOAD SWAP1 POP PUSH2 0x2BAC DUP2 PUSH2 0x2B86 JUMP JUMPDEST SWAP3 SWAP2 POP POP JUMP JUMPDEST PUSH1 0x0 DUP1 PUSH1 0x40 DUP4 DUP6 SUB SLT ISZERO PUSH2 0x2BC9 JUMPI PUSH2 0x2BC8 PUSH2 0x29E5 JUMP JUMPDEST JUMPDEST PUSH1 0x0 PUSH2 0x2BD7 DUP6 DUP3 DUP7 ADD PUSH2 0x2B9D JUMP JUMPDEST SWAP3 POP POP PUSH1 0x20 PUSH2 0x2BE8 DUP6 DUP3 DUP7 ADD PUSH2 0x2A10 JUMP JUMPDEST SWAP2 POP POP SWAP3 POP SWAP3 SWAP1 POP JUMP JUMPDEST PUSH1 0x0 DUP2 ISZERO ISZERO SWAP1 POP SWAP2 SWAP1 POP JUMP JUMPDEST PUSH2 0x2C07 DUP2 PUSH2 0x2BF2 JUMP JUMPDEST DUP3 MSTORE POP POP JUMP JUMPDEST PUSH1 0x0 PUSH1 0x20 DUP3 ADD SWAP1 POP PUSH2 0x2C22 PUSH1 0x0 DUP4 ADD DUP5 PUSH2 0x2BFE JUMP JUMPDEST SWAP3 SWAP2 POP POP JUMP JUMPDEST PUSH1 0x0 DUP2 SWAP1 POP SWAP2 SWAP1 POP JUMP JUMPDEST PUSH1 0x0 PUSH2 0x2C4D PUSH2 0x2C48 PUSH2 0x2C43 DUP5 PUSH2 0x2B54 JUMP JUMPDEST PUSH2 0x2C28 JUMP JUMPDEST PUSH2 0x2B54 JUMP JUMPDEST SWAP1 POP SWAP2 SWAP1 POP JUMP JUMPDEST PUSH1 0x0 PUSH2 0x2C5F DUP3 PUSH2 0x2C32 JUMP JUMPDEST SWAP1 POP SWAP2 SWAP1 POP JUMP JUMPDEST PUSH1 0x0 PUSH2 0x2C71 DUP3 PUSH2 0x2C54 JUMP JUMPDEST SWAP1 POP SWAP2 SWAP1 POP JUMP JUMPDEST PUSH2 0x2C81 DUP2 PUSH2 0x2C66 JUMP JUMPDEST DUP3 MSTORE POP POP JUMP JUMPDEST PUSH1 0x0 PUSH1 0x20 DUP3 ADD SWAP1 POP PUSH2 0x2C9C PUSH1 0x0 DUP4 ADD DUP5 PUSH2 0x2C78 JUMP JUMPDEST SWAP3 SWAP2 POP POP JUMP JUMPDEST PUSH1 0x0 DUP1 PUSH1 0x0 PUSH1 0x60 DUP5 DUP7 SUB SLT ISZERO PUSH2 0x2CBB JUMPI PUSH2 0x2CBA PUSH2 0x29E5 JUMP JUMPDEST JUMPDEST PUSH1 0x0 PUSH2 0x2CC9 DUP7 DUP3 DUP8 ADD PUSH2 0x2B9D JUMP JUMPDEST SWAP4 POP POP PUSH1 0x20 PUSH2 0x2CDA DUP7 DUP3 DUP8 ADD PUSH2 0x2B9D JUMP JUMPDEST SWAP3 POP POP PUSH1 0x40 PUSH2 0x2CEB DUP7 DUP3 DUP8 ADD PUSH2 0x2A10 JUMP JUMPDEST SWAP2 POP POP SWAP3 POP SWAP3 POP SWAP3 JUMP JUMPDEST PUSH1 0x0 PUSH1 0xFF DUP3 AND SWAP1 POP SWAP2 SWAP1 POP JUMP JUMPDEST PUSH2 0x2D0B DUP2 PUSH2 0x2CF5 JUMP JUMPDEST DUP3 MSTORE POP POP JUMP JUMPDEST PUSH1 0x0 PUSH1 0x20 DUP3 ADD SWAP1 POP PUSH2 0x2D26 PUSH1 0x0 DUP4 ADD DUP5 PUSH2 0x2D02 JUMP JUMPDEST SWAP3 SWAP2 POP POP JUMP JUMPDEST PUSH1 0x0 DUP1 REVERT JUMPDEST PUSH1 0x0 DUP1 REVERT JUMPDEST PUSH1 0x0 DUP1 REVERT JUMPDEST PUSH1 0x0 DUP1 DUP4 PUSH1 0x1F DUP5 ADD SLT PUSH2 0x2D51 JUMPI PUSH2 0x2D50 PUSH2 0x2D2C JUMP JUMPDEST JUMPDEST DUP3 CALLDATALOAD SWAP1 POP PUSH8 0xFFFFFFFFFFFFFFFF DUP2 GT ISZERO PUSH2 0x2D6E JUMPI PUSH2 0x2D6D PUSH2 0x2D31 JUMP JUMPDEST JUMPDEST PUSH1 0x20 DUP4 ADD SWAP2 POP DUP4 PUSH1 0x20 DUP3 MUL DUP4 ADD GT ISZERO PUSH2 0x2D8A JUMPI PUSH2 0x2D89 PUSH2 0x2D36 JUMP JUMPDEST JUMPDEST SWAP3 POP SWAP3 SWAP1 POP JUMP JUMPDEST PUSH1 0x0 DUP1 PUSH1 0x0 DUP1 PUSH1 0x0 DUP1 PUSH1 0xA0 DUP8 DUP10 SUB SLT ISZERO PUSH2 0x2DAE JUMPI PUSH2 0x2DAD PUSH2 0x29E5 JUMP JUMPDEST JUMPDEST PUSH1 0x0 PUSH2 0x2DBC DUP10 DUP3 DUP11 ADD PUSH2 0x2A10 JUMP JUMPDEST SWAP7 POP POP PUSH1 0x20 PUSH2 0x2DCD DUP10 DUP3 DUP11 ADD PUSH2 0x2A10 JUMP JUMPDEST SWAP6 POP POP PUSH1 0x40 DUP8 ADD CALLDATALOAD PUSH8 0xFFFFFFFFFFFFFFFF DUP2 GT ISZERO PUSH2 0x2DEE JUMPI PUSH2 0x2DED PUSH2 0x29EA JUMP JUMPDEST JUMPDEST PUSH2 0x2DFA DUP10 DUP3 DUP11 ADD PUSH2 0x2D3B JUMP JUMPDEST SWAP5 POP SWAP5 POP POP PUSH1 0x60 PUSH2 0x2E0D DUP10 DUP3 DUP11 ADD PUSH2 0x2B9D JUMP JUMPDEST SWAP3 POP POP PUSH1 0x80 PUSH2 0x2E1E DUP10 DUP3 DUP11 ADD PUSH2 0x2A10 JUMP JUMPDEST SWAP2 POP POP SWAP3 SWAP6 POP SWAP3 SWAP6 POP SWAP3 SWAP6 JUMP JUMPDEST PUSH1 0x0 PUSH1 0x20 DUP3 DUP5 SUB SLT ISZERO PUSH2 0x2E41 JUMPI PUSH2 0x2E40 PUSH2 0x29E5 JUMP JUMPDEST JUMPDEST PUSH1 0x0 PUSH2 0x2E4F DUP5 DUP3 DUP6 ADD PUSH2 0x2B9D JUMP JUMPDEST SWAP2 POP POP SWAP3 SWAP2 POP POP JUMP JUMPDEST PUSH1 0x0 DUP1 PUSH1 0x0 DUP1 PUSH1 0x0 DUP1 PUSH1 0x0 PUSH1 0xE0 DUP9 DUP11 SUB SLT ISZERO PUSH2 0x2E77 JUMPI PUSH2 0x2E76 PUSH2 0x29E5 JUMP JUMPDEST JUMPDEST PUSH1 0x0 PUSH2 0x2E85 DUP11 DUP3 DUP12 ADD PUSH2 0x2B9D JUMP JUMPDEST SWAP8 POP POP PUSH1 0x20 PUSH2 0x2E96 DUP11 DUP3 DUP12 ADD PUSH2 0x2B9D JUMP JUMPDEST SWAP7 POP POP PUSH1 0x40 PUSH2 0x2EA7 DUP11 DUP3 DUP12 ADD PUSH2 0x2A10 JUMP JUMPDEST SWAP6 POP POP PUSH1 0x60 PUSH2 0x2EB8 DUP11 DUP3 DUP12 ADD PUSH2 0x2A10 JUMP JUMPDEST SWAP5 POP POP PUSH1 0x80 PUSH2 0x2EC9 DUP11 DUP3 DUP12 ADD PUSH2 0x2A10 JUMP JUMPDEST SWAP4 POP POP PUSH1 0xA0 PUSH2 0x2EDA DUP11 DUP3 DUP12 ADD PUSH2 0x2B9D JUMP JUMPDEST SWAP3 POP POP PUSH1 0xC0 PUSH2 0x2EEB DUP11 DUP3 DUP12 ADD PUSH2 0x2A10 JUMP JUMPDEST SWAP2 POP POP SWAP3 SWAP6 SWAP9 SWAP2 SWAP5 SWAP8 POP SWAP3 SWAP6 POP JUMP JUMPDEST PUSH1 0x0 PUSH1 0x40 DUP3 ADD SWAP1 POP PUSH2 0x2F0F PUSH1 0x0 DUP4 ADD DUP6 PUSH2 0x2A78 JUMP JUMPDEST PUSH2 0x2F1C PUSH1 0x20 DUP4 ADD DUP5 PUSH2 0x2A78 JUMP JUMPDEST SWAP4 SWAP3 POP POP POP JUMP JUMPDEST PUSH1 0x0 DUP1 PUSH1 0x40 DUP4 DUP6 SUB SLT ISZERO PUSH2 0x2F3A JUMPI PUSH2 0x2F39 PUSH2 0x29E5 JUMP JUMPDEST JUMPDEST PUSH1 0x0 PUSH2 0x2F48 DUP6 DUP3 DUP7 ADD PUSH2 0x2B9D JUMP JUMPDEST SWAP3 POP POP PUSH1 0x20 PUSH2 0x2F59 DUP6 DUP3 DUP7 ADD PUSH2 0x2B9D JUMP JUMPDEST SWAP2 POP POP SWAP3 POP SWAP3 SWAP1 POP JUMP JUMPDEST PUSH1 0x0 DUP1 PUSH1 0x0 DUP1 PUSH1 0x0 DUP1 PUSH1 0x0 DUP1 PUSH2 0x100 DUP10 DUP12 SUB SLT ISZERO PUSH2 0x2F84 JUMPI PUSH2 0x2F83 PUSH2 0x29E5 JUMP JUMPDEST JUMPDEST PUSH1 0x0 PUSH2 0x2F92 DUP12 DUP3 DUP13 ADD PUSH2 0x2B9D JUMP JUMPDEST SWAP9 POP POP PUSH1 0x20 PUSH2 0x2FA3 DUP12 DUP3 DUP13 ADD PUSH2 0x2B9D JUMP JUMPDEST SWAP8 POP POP PUSH1 0x40 PUSH2 0x2FB4 DUP12 DUP3 DUP13 ADD PUSH2 0x2A10 JUMP JUMPDEST SWAP7 POP POP PUSH1 0x60 PUSH2 0x2FC5 DUP12 DUP3 DUP13 ADD PUSH2 0x2A10 JUMP JUMPDEST SWAP6 POP POP PUSH1 0x80 PUSH2 0x2FD6 DUP12 DUP3 DUP13 ADD PUSH2 0x2A10 JUMP JUMPDEST SWAP5 POP POP PUSH1 0xA0 PUSH2 0x2FE7 DUP12 DUP3 DUP13 ADD PUSH2 0x2A10 JUMP JUMPDEST SWAP4 POP POP PUSH1 0xC0 PUSH2 0x2FF8 DUP12 DUP3 DUP13 ADD PUSH2 0x2B9D JUMP JUMPDEST SWAP3 POP POP PUSH1 0xE0 PUSH2 0x3009 DUP12 DUP3 DUP13 ADD PUSH2 0x2A10 JUMP JUMPDEST SWAP2 POP POP SWAP3 SWAP6 SWAP9 POP SWAP3 SWAP6 SWAP9 SWAP1 SWAP4 SWAP7 POP JUMP JUMPDEST PUSH1 0x0 PUSH1 0x60 DUP3 ADD SWAP1 POP PUSH2 0x302E PUSH1 0x0 DUP4 ADD DUP7 PUSH2 0x2A78 JUMP JUMPDEST PUSH2 0x303B PUSH1 0x20 DUP4 ADD DUP6 PUSH2 0x2A78 JUMP JUMPDEST PUSH2 0x3048 PUSH1 0x40 DUP4 ADD DUP5 PUSH2 0x2A78 JUMP JUMPDEST SWAP5 SWAP4 POP POP POP POP JUMP JUMPDEST PUSH32 0x5A65726F20696E70757400000000000000000000000000000000000000000000 PUSH1 0x0 DUP3 ADD MSTORE POP JUMP JUMPDEST PUSH1 0x0 PUSH2 0x3086 PUSH1 0xA DUP4 PUSH2 0x2AAD JUMP JUMPDEST SWAP2 POP PUSH2 0x3091 DUP3 PUSH2 0x3050 JUMP JUMPDEST PUSH1 0x20 DUP3 ADD SWAP1 POP SWAP2 SWAP1 POP JUMP JUMPDEST PUSH1 0x0 PUSH1 0x20 DUP3 ADD SWAP1 POP DUP2 DUP2 SUB PUSH1 0x0 DUP4 ADD MSTORE PUSH2 0x30B5 DUP2 PUSH2 0x3079 JUMP JUMPDEST SWAP1 POP SWAP2 SWAP1 POP JUMP JUMPDEST PUSH32 0x4E6F206C69717569646974790000000000000000000000000000000000000000 PUSH1 0x0 DUP3 ADD MSTORE POP JUMP JUMPDEST PUSH1 0x0 PUSH2 0x30F2 PUSH1 0xC DUP4 PUSH2 0x2AAD JUMP JUMPDEST SWAP2 POP PUSH2 0x30FD DUP3 PUSH2 0x30BC JUMP JUMPDEST PUSH1 0x20 DUP3 ADD SWAP1 POP SWAP2 SWAP1 POP JUMP JUMPDEST PUSH1 0x0 PUSH1 0x20 DUP3 ADD SWAP1 POP DUP2 DUP2 SUB PUSH1 0x0 DUP4 ADD MSTORE PUSH2 0x3121 DUP2 PUSH2 0x30E5 JUMP JUMPDEST SWAP1 POP SWAP2 SWAP1 POP JUMP JUMPDEST PUSH32 0x4E487B7100000000000000000000000000000000000000000000000000000000 PUSH1 0x0 MSTORE PUSH1 0x11 PUSH1 0x4 MSTORE PUSH1 0x24 PUSH1 0x0 REVERT JUMPDEST PUSH1 0x0 PUSH2 0x3162 DUP3 PUSH2 0x29EF JUMP JUMPDEST SWAP2 POP PUSH2 0x316D DUP4 PUSH2 0x29EF JUMP JUMPDEST SWAP3 POP DUP3 DUP3 ADD SWAP1 POP DUP1 DUP3 GT ISZERO PUSH2 0x3185 JUMPI PUSH2 0x3184 PUSH2 0x3128 JUMP JUMPDEST JUMPDEST SWAP3 SWAP2 POP POP JUMP JUMPDEST PUSH1 0x0 PUSH2 0x3196 DUP3 PUSH2 0x29EF JUMP JUMPDEST SWAP2 POP PUSH2 0x31A1 DUP4 PUSH2 0x29EF JUMP JUMPDEST SWAP3 POP DUP3 DUP3 MUL PUSH2 0x31AF DUP2 PUSH2 0x29EF JUMP JUMPDEST SWAP2 POP DUP3 DUP3 DIV DUP5 EQ DUP4 ISZERO OR PUSH2 0x31C6 JUMPI PUSH2 0x31C5 PUSH2 0x3128 JUMP JUMPDEST JUMPDEST POP SWAP3 SWAP2 POP POP JUMP JUMPDEST PUSH32 0x4E487B7100000000000000000000000000000000000000000000000000000000 PUSH1 0x0 MSTORE PUSH1 0x12 PUSH1 0x4 MSTORE PUSH1 0x24 PUSH1 0x0 REVERT JUMPDEST PUSH1 0x0 PUSH2 0x3207 DUP3 PUSH2 0x29EF JUMP JUMPDEST SWAP2 POP PUSH2 0x3212 DUP4 PUSH2 0x29EF JUMP JUMPDEST SWAP3 POP DUP3 PUSH2 0x3222 JUMPI PUSH2 0x3221 PUSH2 0x31CD JUMP JUMPDEST JUMPDEST DUP3 DUP3 DIV SWAP1 POP SWAP3 SWAP2 POP POP JUMP JUMPDEST PUSH32 0x4E487B7100000000000000000000000000000000000000000000000000000000 PUSH1 0x0 MSTORE PUSH1 0x22 PUSH1 0x4 MSTORE PUSH1 0x24 PUSH1 0x0 REVERT JUMPDEST PUSH1 0x0 PUSH1 0x2 DUP3 DIV SWAP1 POP PUSH1 0x1 DUP3 AND DUP1 PUSH2 0x3274 JUMPI PUSH1 0x7F DUP3 AND SWAP2 POP JUMPDEST PUSH1 0x20 DUP3 LT DUP2 SUB PUSH2 0x3287 JUMPI PUSH2 0x3286 PUSH2 0x322D JUMP JUMPDEST JUMPDEST POP SWAP2 SWAP1 POP JUMP JUMPDEST PUSH32 0x4578706972656400000000000000000000000000000000000000000000000000 PUSH1 0x0 DUP3 ADD MSTORE POP JUMP JUMPDEST PUSH1 0x0 PUSH2 0x32C3 PUSH1 0x7 DUP4 PUSH2 0x2AAD JUMP JUMPDEST SWAP2 POP PUSH2 0x32CE DUP3 PUSH2 0x328D JUMP JUMPDEST PUSH1 0x20 DUP3 ADD SWAP1 POP SWAP2 SWAP1 POP JUMP JUMPDEST PUSH1 0x0 PUSH1 0x20 DUP3 ADD SWAP1 POP DUP2 DUP2 SUB PUSH1 0x0 DUP4 ADD MSTORE PUSH2 0x32F2 DUP2 PUSH2 0x32B6 JUMP JUMPDEST SWAP1 POP SWAP2 SWAP1 POP JUMP JUMPDEST PUSH32 0x496E76616C696420706174680000000000000000000000000000000000000000 PUSH1 0x0 DUP3 ADD MSTORE POP JUMP JUMPDEST PUSH1 0x0 PUSH2 0x332F PUSH1 0xC DUP4 PUSH2 0x2AAD JUMP JUMPDEST SWAP2 POP PUSH2 0x333A DUP3 PUSH2 0x32F9 JUMP JUMPDEST PUSH1 0x20 DUP3 ADD SWAP1 POP SWAP2 SWAP1 POP JUMP JUMPDEST PUSH1 0x0 PUSH1 0x20 DUP3 ADD SWAP1 POP DUP2 DUP2 SUB PUSH1 0x0 DUP4 ADD MSTORE PUSH2 0x335E DUP2 PUSH2 0x3322 JUMP JUMPDEST SWAP1 POP SWAP2 SWAP1 POP JUMP JUMPDEST PUSH32 0x4E487B7100000000000000000000000000000000000000000000000000000000 PUSH1 0x0 MSTORE PUSH1 0x32 PUSH1 0x4 MSTORE PUSH1 0x24 PUSH1 0x0 REVERT JUMPDEST PUSH2 0x339D DUP2 PUSH2 0x2B74 JUMP JUMPDEST DUP3 MSTORE POP POP JUMP JUMPDEST PUSH1 0x0 PUSH1 0x20 DUP3 ADD SWAP1 POP PUSH2 0x33B8 PUSH1 0x0 DUP4 ADD DUP5 PUSH2 0x3394 JUMP JUMPDEST SWAP3 SWAP2 POP POP JUMP JUMPDEST PUSH1 0x0 DUP2 MLOAD SWAP1 POP PUSH2 0x33CD DUP2 PUSH2 0x29F9 JUMP JUMPDEST SWAP3 SWAP2 POP POP JUMP JUMPDEST PUSH1 0x0 PUSH1 0x20 DUP3 DUP5 SUB SLT ISZERO PUSH2 0x33E9 JUMPI PUSH2 0x33E8 PUSH2 0x29E5 JUMP JUMPDEST JUMPDEST PUSH1 0x0 PUSH2 0x33F7 DUP5 DUP3 DUP6 ADD PUSH2 0x33BE JUMP JUMPDEST SWAP2 POP POP SWAP3 SWAP2 POP POP JUMP JUMPDEST PUSH32 0x4F757470757420746F6F206C6F77000000000000000000000000000000000000 PUSH1 0x0 DUP3 ADD MSTORE POP JUMP JUMPDEST PUSH1 0x0 PUSH2 0x3436 PUSH1 0xE DUP4 PUSH2 0x2AAD JUMP JUMPDEST SWAP2 POP PUSH2 0x3441 DUP3 PUSH2 0x3400 JUMP JUMPDEST PUSH1 0x20 DUP3 ADD SWAP1 POP SWAP2 SWAP1 POP JUMP JUMPDEST PUSH1 0x0 PUSH1 0x20 DUP3 ADD SWAP1 POP DUP2 DUP2 SUB PUSH1 0x0 DUP4 ADD MSTORE PUSH2 0x3465 DUP2 PUSH2 0x3429 JUMP JUMPDEST SWAP1 POP SWAP2 SWAP1 POP JUMP JUMPDEST PUSH1 0x0 PUSH1 0x60 DUP3 ADD SWAP1 POP PUSH2 0x3481 PUSH1 0x0 DUP4 ADD DUP7 PUSH2 0x3394 JUMP JUMPDEST PUSH2 0x348E PUSH1 0x20 DUP4 ADD DUP6 PUSH2 0x3394 JUMP JUMPDEST PUSH2 0x349B PUSH1 0x40 DUP4 ADD DUP5 PUSH2 0x2A78 JUMP JUMPDEST SWAP5 SWAP4 POP POP POP POP JUMP JUMPDEST PUSH2 0x34AC DUP2 PUSH2 0x2BF2 JUMP JUMPDEST DUP2 EQ PUSH2 0x34B7 JUMPI PUSH1 0x0 DUP1 REVERT JUMPDEST POP JUMP JUMPDEST PUSH1 0x0 DUP2 MLOAD SWAP1 POP PUSH2 0x34C9 DUP2 PUSH2 0x34A3 JUMP JUMPDEST SWAP3 SWAP2 POP POP JUMP JUMPDEST PUSH1 0x0 PUSH1 0x20 DUP3 DUP5 SUB SLT ISZERO PUSH2 0x34E5 JUMPI PUSH2 0x34E4 PUSH2 0x29E5 JUMP JUMPDEST JUMPDEST PUSH1 0x0 PUSH2 0x34F3 DUP5 DUP3 DUP6 ADD PUSH2 0x34BA JUMP JUMPDEST SWAP2 POP POP SWAP3 SWAP2 POP POP JUMP JUMPDEST PUSH1 0x0 PUSH1 0x40 DUP3 ADD SWAP1 POP PUSH2 0x3511 PUSH1 0x0 DUP4 ADD DUP6 PUSH2 0x3394 JUMP JUMPDEST PUSH2 0x351E PUSH1 0x20 DUP4 ADD DUP5 PUSH2 0x2A78 JUMP JUMPDEST SWAP4 SWAP3 POP POP POP JUMP JUMPDEST PUSH32 0x496E76616C696420746F6B656E73000000000000000000000000000000000000 PUSH1 0x0 DUP3 ADD MSTORE POP JUMP JUMPDEST PUSH1 0x0 PUSH2 0x355B PUSH1 0xE DUP4 PUSH2 0x2AAD JUMP JUMPDEST SWAP2 POP PUSH2 0x3566 DUP3 PUSH2 0x3525 JUMP JUMPDEST PUSH1 0x20 DUP3 ADD SWAP1 POP SWAP2 SWAP1 POP JUMP JUMPDEST PUSH1 0x0 PUSH1 0x20 DUP3 ADD SWAP1 POP DUP2 DUP2 SUB PUSH1 0x0 DUP4 ADD MSTORE PUSH2 0x358A DUP2 PUSH2 0x354E JUMP JUMPDEST SWAP1 POP SWAP2 SWAP1 POP JUMP JUMPDEST PUSH32 0x41206E6F74206D696E0000000000000000000000000000000000000000000000 PUSH1 0x0 DUP3 ADD MSTORE POP JUMP JUMPDEST PUSH1 0x0 PUSH2 0x35C7 PUSH1 0x9 DUP4 PUSH2 0x2AAD JUMP JUMPDEST SWAP2 POP PUSH2 0x35D2 DUP3 PUSH2 0x3591 JUMP JUMPDEST PUSH1 0x20 DUP3 ADD SWAP1 POP SWAP2 SWAP1 POP JUMP JUMPDEST PUSH1 0x0 PUSH1 0x20 DUP3 ADD SWAP1 POP DUP2 DUP2 SUB PUSH1 0x0 DUP4 ADD MSTORE PUSH2 0x35F6 DUP2 PUSH2 0x35BA JUMP JUMPDEST SWAP1 POP SWAP2 SWAP1 POP JUMP JUMPDEST PUSH32 0x42206E6F74206D696E0000000000000000000000000000000000000000000000 PUSH1 0x0 DUP3 ADD MSTORE POP JUMP JUMPDEST PUSH1 0x0 PUSH2 0x3633 PUSH1 0x9 DUP4 PUSH2 0x2AAD JUMP JUMPDEST SWAP2 POP PUSH2 0x363E DUP3 PUSH2 0x35FD JUMP JUMPDEST PUSH1 0x20 DUP3 ADD SWAP1 POP SWAP2 SWAP1 POP JUMP JUMPDEST PUSH1 0x0 PUSH1 0x20 DUP3 ADD SWAP1 POP DUP2 DUP2 SUB PUSH1 0x0 DUP4 ADD MSTORE PUSH2 0x3662 DUP2 PUSH2 0x3626 JUMP JUMPDEST SWAP1 POP SWAP2 SWAP1 POP JUMP JUMPDEST PUSH32 0x496E73756666696369656E742042000000000000000000000000000000000000 PUSH1 0x0 DUP3 ADD MSTORE POP JUMP JUMPDEST PUSH1 0x0 PUSH2 0x369F PUSH1 0xE DUP4 PUSH2 0x2AAD JUMP JUMPDEST SWAP2 POP PUSH2 0x36AA DUP3 PUSH2 0x3669 JUMP JUMPDEST PUSH1 0x20 DUP3 ADD SWAP1 POP SWAP2 SWAP1 POP JUMP JUMPDEST PUSH1 0x0 PUSH1 0x20 DUP3 ADD SWAP1 POP DUP2 DUP2 SUB PUSH1 0x0 DUP4 ADD MSTORE PUSH2 0x36CE DUP2 PUSH2 0x3692 JUMP JUMPDEST SWAP1 POP SWAP2 SWAP1 POP JUMP JUMPDEST PUSH32 0x496E73756666696369656E742041000000000000000000000000000000000000 PUSH1 0x0 DUP3 ADD MSTORE POP JUMP JUMPDEST PUSH1 0x0 PUSH2 0x370B PUSH1 0xE DUP4 PUSH2 0x2AAD JUMP JUMPDEST SWAP2 POP PUSH2 0x3716 DUP3 PUSH2 0x36D5 JUMP JUMPDEST PUSH1 0x20 DUP3 ADD SWAP1 POP SWAP2 SWAP1 POP JUMP JUMPDEST PUSH1 0x0 PUSH1 0x20 DUP3 ADD SWAP1 POP DUP2 DUP2 SUB PUSH1 0x0 DUP4 ADD MSTORE PUSH2 0x373A DUP2 PUSH2 0x36FE JUMP JUMPDEST SWAP1 POP SWAP2 SWAP1 POP JUMP JUMPDEST PUSH1 0x0 PUSH1 0x60 DUP3 ADD SWAP1 POP PUSH2 0x3756 PUSH1 0x0 DUP4 ADD DUP7 PUSH2 0x3394 JUMP JUMPDEST PUSH2 0x3763 PUSH1 0x20 DUP4 ADD DUP6 PUSH2 0x2A78 JUMP JUMPDEST PUSH2 0x3770 PUSH1 0x40 DUP4 ADD DUP5 PUSH2 0x2A78 JUMP JUMPDEST SWAP5 SWAP4 POP POP POP POP JUMP INVALID LOG2 PUSH5 0x6970667358 0x22 SLT KECCAK256 SWAP16 0x2C SWAP8 0x2D PC 0xCD CALLVALUE PUSH9 0x39CA03B7D4AD95C3E8 PUSH23 0x5B886E56A004F8BA3E60DEEF58BB64736F6C634300081C STOP CALLER "},"methodIdentifiers":{"addLiquidity(address,address,uint256,uint256,uint256,uint256,address,uint256)":"e8e33700","allowance(address,address)":"dd62ed3e","approve(address,uint256)":"095ea7b3","balanceOf(address)":"70a08231","decimals()":"313ce567","getAmountOut(uint256,uint256,uint256)":"054d50d4","getPrice()":"98d5fdca","name()":"06fdde03","removeLiquidity(address,address,uint256,uint256,uint256,address,uint256)":"baa2abde","swapExactTokensForTokens(uint256,uint256,address[],address,uint256)":"38ed1739","symbol()":"95d89b41","tokenA()":"0fc63d10","tokenB()":"5f64b55b","totalSupply()":"18160ddd","transfer(address,uint256)":"a9059cbb","transferFrom(address,address,uint256)":"23b872dd"}}}}}